{
	"contracts/BountyEscrow.sol": {
		"BountyEscrow": {
			"abi": [
				{
					"inputs": [
						{
							"internalType": "address",
							"name": "usdc_",
							"type": "address"
						},
						{
							"internalType": "uint16",
							"name": "_feeBps",
							"type": "uint16"
						},
						{
							"internalType": "address",
							"name": "_feeVault",
							"type": "address"
						},
						{
							"internalType": "address",
							"name": "initialOwner",
							"type": "address"
						}
					],
					"stateMutability": "nonpayable",
					"type": "constructor"
				},
				{
					"inputs": [
						{
							"internalType": "address",
							"name": "target",
							"type": "address"
						}
					],
					"name": "AddressEmptyCode",
					"type": "error"
				},
				{
					"inputs": [
						{
							"internalType": "address",
							"name": "account",
							"type": "address"
						}
					],
					"name": "AddressInsufficientBalance",
					"type": "error"
				},
				{
					"inputs": [],
					"name": "AlreadyExists",
					"type": "error"
				},
				{
					"inputs": [],
					"name": "DeadlineNotReached",
					"type": "error"
				},
				{
					"inputs": [],
					"name": "EnforcedPause",
					"type": "error"
				},
				{
					"inputs": [],
					"name": "ExpectedPause",
					"type": "error"
				},
				{
					"inputs": [],
					"name": "FailedInnerCall",
					"type": "error"
				},
				{
					"inputs": [],
					"name": "InvalidParams",
					"type": "error"
				},
				{
					"inputs": [],
					"name": "MathOverflowedMulDiv",
					"type": "error"
				},
				{
					"inputs": [],
					"name": "NotOpen",
					"type": "error"
				},
				{
					"inputs": [],
					"name": "NotResolver",
					"type": "error"
				},
				{
					"inputs": [],
					"name": "NotSponsor",
					"type": "error"
				},
				{
					"inputs": [
						{
							"internalType": "address",
							"name": "owner",
							"type": "address"
						}
					],
					"name": "OwnableInvalidOwner",
					"type": "error"
				},
				{
					"inputs": [
						{
							"internalType": "address",
							"name": "account",
							"type": "address"
						}
					],
					"name": "OwnableUnauthorizedAccount",
					"type": "error"
				},
				{
					"inputs": [],
					"name": "ReentrancyGuardReentrantCall",
					"type": "error"
				},
				{
					"inputs": [
						{
							"internalType": "uint8",
							"name": "bits",
							"type": "uint8"
						},
						{
							"internalType": "uint256",
							"name": "value",
							"type": "uint256"
						}
					],
					"name": "SafeCastOverflowedUintDowncast",
					"type": "error"
				},
				{
					"inputs": [
						{
							"internalType": "address",
							"name": "token",
							"type": "address"
						}
					],
					"name": "SafeERC20FailedOperation",
					"type": "error"
				},
				{
					"inputs": [],
					"name": "ZeroAddress",
					"type": "error"
				},
				{
					"inputs": [],
					"name": "ZeroAmount",
					"type": "error"
				},
				{
					"anonymous": false,
					"inputs": [
						{
							"indexed": true,
							"internalType": "bytes32",
							"name": "bountyId",
							"type": "bytes32"
						},
						{
							"indexed": true,
							"internalType": "address",
							"name": "sponsor",
							"type": "address"
						},
						{
							"indexed": true,
							"internalType": "bytes32",
							"name": "repoIdHash",
							"type": "bytes32"
						},
						{
							"indexed": false,
							"internalType": "uint64",
							"name": "issueNumber",
							"type": "uint64"
						},
						{
							"indexed": false,
							"internalType": "uint64",
							"name": "deadline",
							"type": "uint64"
						},
						{
							"indexed": false,
							"internalType": "address",
							"name": "resolver",
							"type": "address"
						},
						{
							"indexed": false,
							"internalType": "uint256",
							"name": "amount",
							"type": "uint256"
						}
					],
					"name": "BountyCreated",
					"type": "event"
				},
				{
					"anonymous": false,
					"inputs": [
						{
							"indexed": true,
							"internalType": "bytes32",
							"name": "bountyId",
							"type": "bytes32"
						},
						{
							"indexed": true,
							"internalType": "address",
							"name": "sponsor",
							"type": "address"
						},
						{
							"indexed": false,
							"internalType": "uint256",
							"name": "amount",
							"type": "uint256"
						}
					],
					"name": "Canceled",
					"type": "event"
				},
				{
					"anonymous": false,
					"inputs": [
						{
							"indexed": false,
							"internalType": "uint16",
							"name": "feeBps",
							"type": "uint16"
						},
						{
							"indexed": false,
							"internalType": "address",
							"name": "feeVault",
							"type": "address"
						}
					],
					"name": "FeeParamsUpdated",
					"type": "event"
				},
				{
					"anonymous": false,
					"inputs": [
						{
							"indexed": true,
							"internalType": "bytes32",
							"name": "bountyId",
							"type": "bytes32"
						},
						{
							"indexed": false,
							"internalType": "uint256",
							"name": "newAmount",
							"type": "uint256"
						}
					],
					"name": "Funded",
					"type": "event"
				},
				{
					"anonymous": false,
					"inputs": [
						{
							"indexed": true,
							"internalType": "address",
							"name": "previousOwner",
							"type": "address"
						},
						{
							"indexed": true,
							"internalType": "address",
							"name": "newOwner",
							"type": "address"
						}
					],
					"name": "OwnershipTransferred",
					"type": "event"
				},
				{
					"anonymous": false,
					"inputs": [
						{
							"indexed": false,
							"internalType": "address",
							"name": "account",
							"type": "address"
						}
					],
					"name": "Paused",
					"type": "event"
				},
				{
					"anonymous": false,
					"inputs": [
						{
							"indexed": true,
							"internalType": "bytes32",
							"name": "bountyId",
							"type": "bytes32"
						},
						{
							"indexed": true,
							"internalType": "address",
							"name": "sponsor",
							"type": "address"
						},
						{
							"indexed": false,
							"internalType": "uint256",
							"name": "amount",
							"type": "uint256"
						}
					],
					"name": "Refunded",
					"type": "event"
				},
				{
					"anonymous": false,
					"inputs": [
						{
							"indexed": true,
							"internalType": "bytes32",
							"name": "bountyId",
							"type": "bytes32"
						},
						{
							"indexed": true,
							"internalType": "address",
							"name": "recipient",
							"type": "address"
						},
						{
							"indexed": false,
							"internalType": "uint256",
							"name": "net",
							"type": "uint256"
						},
						{
							"indexed": false,
							"internalType": "uint256",
							"name": "fee",
							"type": "uint256"
						}
					],
					"name": "Resolved",
					"type": "event"
				},
				{
					"anonymous": false,
					"inputs": [
						{
							"indexed": false,
							"internalType": "address",
							"name": "account",
							"type": "address"
						}
					],
					"name": "Unpaused",
					"type": "event"
				},
				{
					"inputs": [],
					"name": "MAX_FEE_BPS",
					"outputs": [
						{
							"internalType": "uint16",
							"name": "",
							"type": "uint16"
						}
					],
					"stateMutability": "view",
					"type": "function"
				},
				{
					"inputs": [
						{
							"internalType": "bytes32",
							"name": "bountyId",
							"type": "bytes32"
						}
					],
					"name": "cancel",
					"outputs": [],
					"stateMutability": "nonpayable",
					"type": "function"
				},
				{
					"inputs": [
						{
							"internalType": "address",
							"name": "sponsor",
							"type": "address"
						},
						{
							"internalType": "bytes32",
							"name": "repoIdHash",
							"type": "bytes32"
						},
						{
							"internalType": "uint64",
							"name": "issueNumber",
							"type": "uint64"
						}
					],
					"name": "computeBountyId",
					"outputs": [
						{
							"internalType": "bytes32",
							"name": "bountyId",
							"type": "bytes32"
						}
					],
					"stateMutability": "pure",
					"type": "function"
				},
				{
					"inputs": [
						{
							"internalType": "address",
							"name": "resolver",
							"type": "address"
						},
						{
							"internalType": "bytes32",
							"name": "repoIdHash",
							"type": "bytes32"
						},
						{
							"internalType": "uint64",
							"name": "issueNumber",
							"type": "uint64"
						},
						{
							"internalType": "uint64",
							"name": "deadline",
							"type": "uint64"
						},
						{
							"internalType": "uint256",
							"name": "amount",
							"type": "uint256"
						}
					],
					"name": "createBounty",
					"outputs": [
						{
							"internalType": "bytes32",
							"name": "bountyId",
							"type": "bytes32"
						}
					],
					"stateMutability": "nonpayable",
					"type": "function"
				},
				{
					"inputs": [],
					"name": "feeBps",
					"outputs": [
						{
							"internalType": "uint16",
							"name": "",
							"type": "uint16"
						}
					],
					"stateMutability": "view",
					"type": "function"
				},
				{
					"inputs": [],
					"name": "feeVault",
					"outputs": [
						{
							"internalType": "address",
							"name": "",
							"type": "address"
						}
					],
					"stateMutability": "view",
					"type": "function"
				},
				{
					"inputs": [
						{
							"internalType": "bytes32",
							"name": "bountyId",
							"type": "bytes32"
						},
						{
							"internalType": "uint256",
							"name": "amount",
							"type": "uint256"
						}
					],
					"name": "fund",
					"outputs": [],
					"stateMutability": "nonpayable",
					"type": "function"
				},
				{
					"inputs": [
						{
							"internalType": "bytes32",
							"name": "bountyId",
							"type": "bytes32"
						}
					],
					"name": "getBounty",
					"outputs": [
						{
							"components": [
								{
									"internalType": "bytes32",
									"name": "repoIdHash",
									"type": "bytes32"
								},
								{
									"internalType": "address",
									"name": "sponsor",
									"type": "address"
								},
								{
									"internalType": "address",
									"name": "resolver",
									"type": "address"
								},
								{
									"internalType": "uint96",
									"name": "amount",
									"type": "uint96"
								},
								{
									"internalType": "uint64",
									"name": "deadline",
									"type": "uint64"
								},
								{
									"internalType": "uint64",
									"name": "issueNumber",
									"type": "uint64"
								},
								{
									"internalType": "enum BountyEscrow.Status",
									"name": "status",
									"type": "uint8"
								}
							],
							"internalType": "struct BountyEscrow.Bounty",
							"name": "",
							"type": "tuple"
						}
					],
					"stateMutability": "view",
					"type": "function"
				},
				{
					"inputs": [],
					"name": "owner",
					"outputs": [
						{
							"internalType": "address",
							"name": "",
							"type": "address"
						}
					],
					"stateMutability": "view",
					"type": "function"
				},
				{
					"inputs": [],
					"name": "pause",
					"outputs": [],
					"stateMutability": "nonpayable",
					"type": "function"
				},
				{
					"inputs": [],
					"name": "paused",
					"outputs": [
						{
							"internalType": "bool",
							"name": "",
							"type": "bool"
						}
					],
					"stateMutability": "view",
					"type": "function"
				},
				{
					"inputs": [
						{
							"internalType": "bytes32",
							"name": "bountyId",
							"type": "bytes32"
						}
					],
					"name": "refundExpired",
					"outputs": [],
					"stateMutability": "nonpayable",
					"type": "function"
				},
				{
					"inputs": [],
					"name": "renounceOwnership",
					"outputs": [],
					"stateMutability": "nonpayable",
					"type": "function"
				},
				{
					"inputs": [
						{
							"internalType": "bytes32",
							"name": "bountyId",
							"type": "bytes32"
						},
						{
							"internalType": "address",
							"name": "recipient",
							"type": "address"
						}
					],
					"name": "resolve",
					"outputs": [],
					"stateMutability": "nonpayable",
					"type": "function"
				},
				{
					"inputs": [
						{
							"internalType": "uint16",
							"name": "_feeBps",
							"type": "uint16"
						},
						{
							"internalType": "address",
							"name": "_feeVault",
							"type": "address"
						}
					],
					"name": "setFeeParams",
					"outputs": [],
					"stateMutability": "nonpayable",
					"type": "function"
				},
				{
					"inputs": [
						{
							"internalType": "address",
							"name": "newOwner",
							"type": "address"
						}
					],
					"name": "transferOwnership",
					"outputs": [],
					"stateMutability": "nonpayable",
					"type": "function"
				},
				{
					"inputs": [],
					"name": "unpause",
					"outputs": [],
					"stateMutability": "nonpayable",
					"type": "function"
				},
				{
					"inputs": [],
					"name": "usdc",
					"outputs": [
						{
							"internalType": "contract IERC20",
							"name": "",
							"type": "address"
						}
					],
					"stateMutability": "view",
					"type": "function"
				},
				{
					"inputs": [],
					"name": "usdcDecimals",
					"outputs": [
						{
							"internalType": "uint8",
							"name": "",
							"type": "uint8"
						}
					],
					"stateMutability": "view",
					"type": "function"
				}
			],
			"devdoc": {
				"custom:oz-version": "- OpenZeppelin 5.0.2 (imports pinned via versioned paths).",
				"custom:security": "- Resolver authority is scoped per bounty; cannot change post-creation. - Sponsor is the caller that created the bounty; only sponsor can top-up/cancel/refund. - No arbitrary token transfers; only the configured _usdc is handled. - Fee bounded by MAX_FEE_BPS (10%).",
				"details": "Design: - Token: single ERC-20 (intended USDC). Address immutable. Decimals cached (best-effort, fallback=6). - State machine per-bounty: None → Open → (Resolved | Refunded | Canceled). Terminal states are final. - Funds held in-contract; payouts are pull-style via resolver/sponsor actions. - Fee assessed only on successful resolution; transfers: recipient (net) + feeVault (fee). - Reentrancy: public state-changing entrypoints are nonReentrant; CEI respected. - Pausability: owner can pause/unpause all state-changing flows.",
				"errors": {
					"AddressEmptyCode(address)": [
						{
							"details": "There's no code at `target` (it is not a contract)."
						}
					],
					"AddressInsufficientBalance(address)": [
						{
							"details": "The ETH balance of the account is not enough to perform the operation."
						}
					],
					"EnforcedPause()": [
						{
							"details": "The operation failed because the contract is paused."
						}
					],
					"ExpectedPause()": [
						{
							"details": "The operation failed because the contract is not paused."
						}
					],
					"FailedInnerCall()": [
						{
							"details": "A call to an address target failed. The target may have reverted."
						}
					],
					"MathOverflowedMulDiv()": [
						{
							"details": "Muldiv operation overflow."
						}
					],
					"OwnableInvalidOwner(address)": [
						{
							"details": "The owner is not a valid owner account. (eg. `address(0)`)"
						}
					],
					"OwnableUnauthorizedAccount(address)": [
						{
							"details": "The caller account is not authorized to perform an operation."
						}
					],
					"ReentrancyGuardReentrantCall()": [
						{
							"details": "Unauthorized reentrant call."
						}
					],
					"SafeCastOverflowedUintDowncast(uint8,uint256)": [
						{
							"details": "Value doesn't fit in an uint of `bits` size."
						}
					],
					"SafeERC20FailedOperation(address)": [
						{
							"details": "An operation with an ERC20 token failed."
						}
					]
				},
				"events": {
					"BountyCreated(bytes32,address,bytes32,uint64,uint64,address,uint256)": {
						"params": {
							"amount": "Initial funded amount (USDC units).",
							"bountyId": "Deterministic id: keccak256(sponsor, repoIdHash, issueNumber).",
							"deadline": "Expiration timestamp for refund eligibility.",
							"issueNumber": "Issue number within the repository.",
							"repoIdHash": "Repository identifier hash associated with the issue.",
							"resolver": "Address authorized to resolve this bounty.",
							"sponsor": "Bounty sponsor (msg.sender of createBounty)."
						}
					},
					"Canceled(bytes32,address,uint256)": {
						"params": {
							"amount": "Amount returned.",
							"bountyId": "Id of the bounty.",
							"sponsor": "Sponsor receiving the returned funds."
						}
					},
					"FeeParamsUpdated(uint16,address)": {
						"params": {
							"feeBps": "New fee in basis points.",
							"feeVault": "Address to receive fees."
						}
					},
					"Funded(bytes32,uint256)": {
						"params": {
							"bountyId": "Id of the bounty funded.",
							"newAmount": "New total escrowed amount after top-up."
						}
					},
					"Paused(address)": {
						"details": "Emitted when the pause is triggered by `account`."
					},
					"Refunded(bytes32,address,uint256)": {
						"params": {
							"amount": "Amount refunded.",
							"bountyId": "Id of the bounty.",
							"sponsor": "Sponsor receiving the refund."
						}
					},
					"Resolved(bytes32,address,uint256,uint256)": {
						"params": {
							"bountyId": "Id of the bounty.",
							"fee": "Amount sent to feeVault.",
							"net": "Amount sent to recipient (gross - fee).",
							"recipient": "Address receiving the net payout."
						}
					},
					"Unpaused(address)": {
						"details": "Emitted when the pause is lifted by `account`."
					}
				},
				"kind": "dev",
				"methods": {
					"cancel(bytes32)": {
						"details": "Only sponsor; bounty must be Open. Sets status to Canceled and returns all funds.",
						"params": {
							"bountyId": "Target bounty."
						}
					},
					"computeBountyId(address,bytes32,uint64)": {
						"details": "Establishes a one-bounty-per (sponsor, repoIdHash, issueNumber) invariant.",
						"params": {
							"issueNumber": "Issue number reference.",
							"repoIdHash": "Repository identifier hash.",
							"sponsor": "Address of the sponsor (creator/funder)."
						},
						"returns": {
							"bountyId": "keccak256(sponsor, repoIdHash, issueNumber)."
						}
					},
					"constructor": {
						"params": {
							"_feeBps": "Initial protocol fee in basis points (≤ MAX_FEE_BPS).",
							"_feeVault": "Address to receive protocol fees on resolution.",
							"initialOwner": "Contract owner (admin for pause/fee params).",
							"usdc_": "ERC-20 token address used for all escrowed transfers (intended USDC)."
						}
					},
					"createBounty(address,bytes32,uint64,uint64,uint256)": {
						"details": "Requirements: - resolver != 0 - repoIdHash != 0 and issueNumber != 0 - deadline > now - amount > 0 - bountyId (sponsor, repoIdHash, issueNumber) must not already exist Effects: - Initializes Bounty struct with Status.Open - Transfers `amount` of _usdc from msg.sender to this contract",
						"params": {
							"amount": "Amount to escrow (USDC units).",
							"deadline": "Timestamp after which sponsor can refund if still Open.",
							"issueNumber": "Issue number within the repository.",
							"repoIdHash": "Repository identifier hash.",
							"resolver": "Address allowed to resolve this bounty."
						},
						"returns": {
							"bountyId": "Deterministic id for the created bounty."
						}
					},
					"fund(bytes32,uint256)": {
						"details": "Only the sponsor can fund. Amount must be > 0. Status must be Open.      Emits the new total escrowed amount for auditability.",
						"params": {
							"amount": "Additional amount to escrow.",
							"bountyId": "Target bounty."
						}
					},
					"getBounty(bytes32)": {
						"details": "Returns a memory copy; safe for off-chain indexing/UX.",
						"params": {
							"bountyId": "Bounty id to query."
						}
					},
					"owner()": {
						"details": "Returns the address of the current owner."
					},
					"pause()": {
						"details": "Only owner. Idempotent via OZ Pausable."
					},
					"paused()": {
						"details": "Returns true if the contract is paused, and false otherwise."
					},
					"refundExpired(bytes32)": {
						"details": "Only sponsor; requires block.timestamp ≥ deadline.      Sets status to Refunded and returns all funds.",
						"params": {
							"bountyId": "Target bounty."
						}
					},
					"renounceOwnership()": {
						"details": "Leaves the contract without owner. It will not be possible to call `onlyOwner` functions. Can only be called by the current owner. NOTE: Renouncing ownership will leave the contract without an owner, thereby disabling any functionality that is only available to the owner."
					},
					"resolve(bytes32,address)": {
						"details": "Only the designated resolver; recipient must be non-zero.      Fee = floor(gross * feeBps / 10_000); Net = gross - fee.      Uses Math.mulDiv for precise, overflow-safe multiplication/division.",
						"params": {
							"bountyId": "Target bounty.",
							"recipient": "Address receiving the net payout."
						}
					},
					"setFeeParams(uint16,address)": {
						"details": "Only owner. Fee bounded by MAX_FEE_BPS. feeVault must be non-zero.",
						"params": {
							"_feeBps": "New fee in basis points.",
							"_feeVault": "New fee receiver address."
						}
					},
					"transferOwnership(address)": {
						"details": "Transfers ownership of the contract to a new account (`newOwner`). Can only be called by the current owner."
					},
					"unpause()": {
						"details": "Only owner. Idempotent via OZ Pausable."
					}
				},
				"stateVariables": {
					"FEE_DENOM": {
						"details": "Basis point denominator (10_000 = 100%)."
					},
					"_bounties": {
						"details": "BountyId (keccak256(sponsor, repoIdHash, issueNumber)) → Bounty."
					},
					"_usdc": {
						"details": "Immutable reference to the ERC-20 used for all transfers (intended USDC)."
					},
					"_usdcDecimals": {
						"details": "Cached decimals for display/UX; logic does not assume a specific precision."
					}
				},
				"title": "BountyEscrow",
				"version": 1
			},
			"evm": {
				"assembly": "    /* \"contracts/BountyEscrow.sol\":1963:16636  contract BountyEscrow is ReentrancyGuard, Pausable, Ownable {... */\n  mstore(0x40, 0xc0)\n    /* \"contracts/BountyEscrow.sol\":7815:8562  constructor(... */\n  callvalue\n  dup1\n  iszero\n  tag_1\n  jumpi\n  revert(0x00, 0x00)\ntag_1:\n  pop\n  mload(0x40)\n  sub(codesize, bytecodeSize)\n  dup1\n  bytecodeSize\n  dup4\n  codecopy\n  dup2\n  dup2\n  add\n  0x40\n  mstore\n  dup2\n  add\n  swap1\n  tag_2\n  swap2\n  swap1\n  tag_3\n  jump\t// in\ntag_2:\n    /* \"contracts/BountyEscrow.sol\":7945:7957  initialOwner */\n  dup1\n    /* \"@openzeppelin/contracts@5.0.2/utils/ReentrancyGuard.sol\":1713:1714  1 */\n  0x01\n    /* \"@openzeppelin/contracts@5.0.2/utils/ReentrancyGuard.sol\":1917:1924  _status */\n  0x00\n    /* \"@openzeppelin/contracts@5.0.2/utils/ReentrancyGuard.sol\":1917:1938  _status = NOT_ENTERED */\n  dup2\n  swap1\n  sstore\n  pop\n    /* \"@openzeppelin/contracts@5.0.2/utils/Pausable.sol\":1241:1246  false */\n  0x00\n    /* \"@openzeppelin/contracts@5.0.2/utils/Pausable.sol\":1231:1238  _paused */\n  0x01\n  0x00\n    /* \"@openzeppelin/contracts@5.0.2/utils/Pausable.sol\":1231:1246  _paused = false */\n  0x0100\n  exp\n  dup2\n  sload\n  dup2\n  0xff\n  mul\n  not\n  and\n  swap1\n  dup4\n  iszero\n  iszero\n  mul\n  or\n  swap1\n  sstore\n  pop\n    /* \"@openzeppelin/contracts@5.0.2/access/Ownable.sol\":1297:1298  0 */\n  0x00\n    /* \"@openzeppelin/contracts@5.0.2/access/Ownable.sol\":1273:1299  initialOwner == address(0) */\n  0xffffffffffffffffffffffffffffffffffffffff\n  and\n    /* \"@openzeppelin/contracts@5.0.2/access/Ownable.sol\":1273:1285  initialOwner */\n  dup2\n    /* \"@openzeppelin/contracts@5.0.2/access/Ownable.sol\":1273:1299  initialOwner == address(0) */\n  0xffffffffffffffffffffffffffffffffffffffff\n  and\n  sub\n    /* \"@openzeppelin/contracts@5.0.2/access/Ownable.sol\":1269:1364  if (initialOwner == address(0)) {... */\n  tag_11\n  jumpi\n    /* \"@openzeppelin/contracts@5.0.2/access/Ownable.sol\":1350:1351  0 */\n  0x00\n    /* \"@openzeppelin/contracts@5.0.2/access/Ownable.sol\":1322:1353  OwnableInvalidOwner(address(0)) */\n  mload(0x40)\n  0x1e4fbdf700000000000000000000000000000000000000000000000000000000\n  dup2\n  mstore\n  0x04\n  add\n  tag_12\n  swap2\n  swap1\n  tag_13\n  jump\t// in\ntag_12:\n  mload(0x40)\n  dup1\n  swap2\n  sub\n  swap1\n  revert\n    /* \"@openzeppelin/contracts@5.0.2/access/Ownable.sol\":1269:1364  if (initialOwner == address(0)) {... */\ntag_11:\n    /* \"@openzeppelin/contracts@5.0.2/access/Ownable.sol\":1373:1405  _transferOwnership(initialOwner) */\n  tag_14\n    /* \"@openzeppelin/contracts@5.0.2/access/Ownable.sol\":1392:1404  initialOwner */\n  dup2\n    /* \"@openzeppelin/contracts@5.0.2/access/Ownable.sol\":1373:1391  _transferOwnership */\n  shl(0x20, tag_15)\n    /* \"@openzeppelin/contracts@5.0.2/access/Ownable.sol\":1373:1405  _transferOwnership(initialOwner) */\n  0x20\n  shr\n  jump\t// in\ntag_14:\n    /* \"@openzeppelin/contracts@5.0.2/access/Ownable.sol\":1225:1412  constructor(address initialOwner) {... */\n  pop\n    /* \"contracts/BountyEscrow.sol\":8003:8004  0 */\n  0x00\n    /* \"contracts/BountyEscrow.sol\":7986:8005  usdc_ == address(0) */\n  0xffffffffffffffffffffffffffffffffffffffff\n  and\n    /* \"contracts/BountyEscrow.sol\":7986:7991  usdc_ */\n  dup5\n    /* \"contracts/BountyEscrow.sol\":7986:8005  usdc_ == address(0) */\n  0xffffffffffffffffffffffffffffffffffffffff\n  and\n  eq\n    /* \"contracts/BountyEscrow.sol\":7986:8044  usdc_ == address(0) ||... */\n  dup1\n  tag_17\n  jumpi\n  pop\n    /* \"contracts/BountyEscrow.sol\":8042:8043  0 */\n  0x00\n    /* \"contracts/BountyEscrow.sol\":8021:8044  _feeVault == address(0) */\n  0xffffffffffffffffffffffffffffffffffffffff\n  and\n    /* \"contracts/BountyEscrow.sol\":8021:8030  _feeVault */\n  dup3\n    /* \"contracts/BountyEscrow.sol\":8021:8044  _feeVault == address(0) */\n  0xffffffffffffffffffffffffffffffffffffffff\n  and\n  eq\n    /* \"contracts/BountyEscrow.sol\":7986:8044  usdc_ == address(0) ||... */\ntag_17:\n    /* \"contracts/BountyEscrow.sol\":7986:8086  usdc_ == address(0) ||... */\n  dup1\n  tag_18\n  jumpi\n  pop\n    /* \"contracts/BountyEscrow.sol\":8084:8085  0 */\n  0x00\n    /* \"contracts/BountyEscrow.sol\":8060:8086  initialOwner == address(0) */\n  0xffffffffffffffffffffffffffffffffffffffff\n  and\n    /* \"contracts/BountyEscrow.sol\":8060:8072  initialOwner */\n  dup2\n    /* \"contracts/BountyEscrow.sol\":8060:8086  initialOwner == address(0) */\n  0xffffffffffffffffffffffffffffffffffffffff\n  and\n  eq\n    /* \"contracts/BountyEscrow.sol\":7986:8086  usdc_ == address(0) ||... */\ntag_18:\n    /* \"contracts/BountyEscrow.sol\":7969:8117  if (... */\n  iszero\n  tag_19\n  jumpi\n    /* \"contracts/BountyEscrow.sol\":8104:8117  ZeroAddress() */\n  mload(0x40)\n  0xd92e233d00000000000000000000000000000000000000000000000000000000\n  dup2\n  mstore\n  0x04\n  add\n  mload(0x40)\n  dup1\n  swap2\n  sub\n  swap1\n  revert\n    /* \"contracts/BountyEscrow.sol\":7969:8117  if (... */\ntag_19:\n    /* \"contracts/BountyEscrow.sol\":2199:2204  1_000 */\n  0x03e8\n    /* \"contracts/BountyEscrow.sol\":8131:8152  _feeBps > MAX_FEE_BPS */\n  0xffff\n  and\n    /* \"contracts/BountyEscrow.sol\":8131:8138  _feeBps */\n  dup4\n    /* \"contracts/BountyEscrow.sol\":8131:8152  _feeBps > MAX_FEE_BPS */\n  0xffff\n  and\n  gt\n    /* \"contracts/BountyEscrow.sol\":8127:8176  if (_feeBps > MAX_FEE_BPS) revert InvalidParams() */\n  iszero\n  tag_20\n  jumpi\n    /* \"contracts/BountyEscrow.sol\":8161:8176  InvalidParams() */\n  mload(0x40)\n  0xa86b651200000000000000000000000000000000000000000000000000000000\n  dup2\n  mstore\n  0x04\n  add\n  mload(0x40)\n  dup1\n  swap2\n  sub\n  swap1\n  revert\n    /* \"contracts/BountyEscrow.sol\":8127:8176  if (_feeBps > MAX_FEE_BPS) revert InvalidParams() */\ntag_20:\n    /* \"contracts/BountyEscrow.sol\":8202:8207  usdc_ */\n  dup4\n    /* \"contracts/BountyEscrow.sol\":8187:8208  _usdc = IERC20(usdc_) */\n  0xffffffffffffffffffffffffffffffffffffffff\n  and\n  0x80\n  dup2\n  0xffffffffffffffffffffffffffffffffffffffff\n  and\n  dup2\n  mstore\n  pop\n  pop\n    /* \"contracts/BountyEscrow.sol\":8325:8334  uint8 dec */\n  0x00\n    /* \"contracts/BountyEscrow.sol\":8363:8368  usdc_ */\n  dup5\n    /* \"contracts/BountyEscrow.sol\":8348:8378  IERC20Metadata(usdc_).decimals */\n  0xffffffffffffffffffffffffffffffffffffffff\n  and\n  0x313ce567\n    /* \"contracts/BountyEscrow.sol\":8348:8380  IERC20Metadata(usdc_).decimals() */\n  mload(0x40)\n  dup2\n  0xffffffff\n  and\n  0xe0\n  shl\n  dup2\n  mstore\n  0x04\n  add\n  0x20\n  mload(0x40)\n  dup1\n  dup4\n  sub\n  dup2\n  dup7\n  gas\n  staticcall\n  swap3\n  pop\n  pop\n  pop\n  dup1\n  iszero\n  tag_21\n  jumpi\n  pop\n  mload(0x40)\n  returndatasize\n  not(0x1f)\n  0x1f\n  dup3\n  add\n  and\n  dup3\n  add\n  dup1\n  0x40\n  mstore\n  pop\n  dup2\n  add\n  swap1\n  tag_22\n  swap2\n  swap1\n  tag_23\n  jump\t// in\ntag_22:\n  0x01\ntag_21:\n    /* \"contracts/BountyEscrow.sol\":8344:8470  try IERC20Metadata(usdc_).decimals() returns (uint8 d) {... */\n  tag_24\n  jumpi\n    /* \"contracts/BountyEscrow.sol\":8458:8459  6 */\n  0x06\n    /* \"contracts/BountyEscrow.sol\":8452:8459  dec = 6 */\n  swap1\n  pop\n    /* \"contracts/BountyEscrow.sol\":8344:8470  try IERC20Metadata(usdc_).decimals() returns (uint8 d) {... */\n  jump(tag_28)\ntag_24:\n    /* \"contracts/BountyEscrow.sol\":8419:8420  d */\n  dup1\n    /* \"contracts/BountyEscrow.sol\":8413:8420  dec = d */\n  swap2\n  pop\n    /* \"contracts/BountyEscrow.sol\":8381:8431  returns (uint8 d) {... */\n  pop\n    /* \"contracts/BountyEscrow.sol\":8344:8470  try IERC20Metadata(usdc_).decimals() returns (uint8 d) {... */\ntag_28:\n    /* \"contracts/BountyEscrow.sol\":8495:8498  dec */\n  dup1\n    /* \"contracts/BountyEscrow.sol\":8479:8498  _usdcDecimals = dec */\n  0xff\n  and\n  0xa0\n  dup2\n  0xff\n  and\n  dup2\n  mstore\n  pop\n  pop\n    /* \"contracts/BountyEscrow.sol\":8518:8525  _feeBps */\n  dup4\n    /* \"contracts/BountyEscrow.sol\":8509:8515  feeBps */\n  0x03\n  0x00\n    /* \"contracts/BountyEscrow.sol\":8509:8525  feeBps = _feeBps */\n  0x0100\n  exp\n  dup2\n  sload\n  dup2\n  0xffff\n  mul\n  not\n  and\n  swap1\n  dup4\n  0xffff\n  and\n  mul\n  or\n  swap1\n  sstore\n  pop\n    /* \"contracts/BountyEscrow.sol\":8546:8555  _feeVault */\n  dup3\n    /* \"contracts/BountyEscrow.sol\":8535:8543  feeVault */\n  0x03\n  0x02\n    /* \"contracts/BountyEscrow.sol\":8535:8555  feeVault = _feeVault */\n  0x0100\n  exp\n  dup2\n  sload\n  dup2\n  0xffffffffffffffffffffffffffffffffffffffff\n  mul\n  not\n  and\n  swap1\n  dup4\n  0xffffffffffffffffffffffffffffffffffffffff\n  and\n  mul\n  or\n  swap1\n  sstore\n  pop\n    /* \"contracts/BountyEscrow.sol\":7959:8562  {... */\n  pop\n    /* \"contracts/BountyEscrow.sol\":7815:8562  constructor(... */\n  pop\n  pop\n  pop\n  pop\n    /* \"contracts/BountyEscrow.sol\":1963:16636  contract BountyEscrow is ReentrancyGuard, Pausable, Ownable {... */\n  jump(tag_29)\n    /* \"@openzeppelin/contracts@5.0.2/access/Ownable.sol\":2912:3099  function _transferOwnership(address newOwner) internal virtual {... */\ntag_15:\n    /* \"@openzeppelin/contracts@5.0.2/access/Ownable.sol\":2985:3001  address oldOwner */\n  0x00\n    /* \"@openzeppelin/contracts@5.0.2/access/Ownable.sol\":3004:3010  _owner */\n  0x01\n  dup1\n  sload\n  swap1\n  0x0100\n  exp\n  swap1\n  div\n  0xffffffffffffffffffffffffffffffffffffffff\n  and\n    /* \"@openzeppelin/contracts@5.0.2/access/Ownable.sol\":2985:3010  address oldOwner = _owner */\n  swap1\n  pop\n    /* \"@openzeppelin/contracts@5.0.2/access/Ownable.sol\":3029:3037  newOwner */\n  dup2\n    /* \"@openzeppelin/contracts@5.0.2/access/Ownable.sol\":3020:3026  _owner */\n  0x01\n  dup1\n    /* \"@openzeppelin/contracts@5.0.2/access/Ownable.sol\":3020:3037  _owner = newOwner */\n  0x0100\n  exp\n  dup2\n  sload\n  dup2\n  0xffffffffffffffffffffffffffffffffffffffff\n  mul\n  not\n  and\n  swap1\n  dup4\n  0xffffffffffffffffffffffffffffffffffffffff\n  and\n  mul\n  or\n  swap1\n  sstore\n  pop\n    /* \"@openzeppelin/contracts@5.0.2/access/Ownable.sol\":3083:3091  newOwner */\n  dup2\n    /* \"@openzeppelin/contracts@5.0.2/access/Ownable.sol\":3052:3092  OwnershipTransferred(oldOwner, newOwner) */\n  0xffffffffffffffffffffffffffffffffffffffff\n  and\n    /* \"@openzeppelin/contracts@5.0.2/access/Ownable.sol\":3073:3081  oldOwner */\n  dup2\n    /* \"@openzeppelin/contracts@5.0.2/access/Ownable.sol\":3052:3092  OwnershipTransferred(oldOwner, newOwner) */\n  0xffffffffffffffffffffffffffffffffffffffff\n  and\n  0x8be0079c531659141344cd1fd0a4f28419497f9722a3daafe3b4186f6b6457e0\n  mload(0x40)\n  mload(0x40)\n  dup1\n  swap2\n  sub\n  swap1\n  log3\n    /* \"@openzeppelin/contracts@5.0.2/access/Ownable.sol\":2975:3099  {... */\n  pop\n    /* \"@openzeppelin/contracts@5.0.2/access/Ownable.sol\":2912:3099  function _transferOwnership(address newOwner) internal virtual {... */\n  pop\n  jump\t// out\n    /* \"#utility.yul\":88:205   */\ntag_32:\n    /* \"#utility.yul\":197:198   */\n  0x00\n    /* \"#utility.yul\":194:195   */\n  0x00\n    /* \"#utility.yul\":187:199   */\n  revert\n    /* \"#utility.yul\":334:460   */\ntag_34:\n    /* \"#utility.yul\":371:378   */\n  0x00\n    /* \"#utility.yul\":411:453   */\n  0xffffffffffffffffffffffffffffffffffffffff\n    /* \"#utility.yul\":404:409   */\n  dup3\n    /* \"#utility.yul\":400:454   */\n  and\n    /* \"#utility.yul\":389:454   */\n  swap1\n  pop\n    /* \"#utility.yul\":334:460   */\n  swap2\n  swap1\n  pop\n  jump\t// out\n    /* \"#utility.yul\":466:562   */\ntag_35:\n    /* \"#utility.yul\":503:510   */\n  0x00\n    /* \"#utility.yul\":532:556   */\n  tag_51\n    /* \"#utility.yul\":550:555   */\n  dup3\n    /* \"#utility.yul\":532:556   */\n  tag_34\n  jump\t// in\ntag_51:\n    /* \"#utility.yul\":521:556   */\n  swap1\n  pop\n    /* \"#utility.yul\":466:562   */\n  swap2\n  swap1\n  pop\n  jump\t// out\n    /* \"#utility.yul\":568:690   */\ntag_36:\n    /* \"#utility.yul\":641:665   */\n  tag_53\n    /* \"#utility.yul\":659:664   */\n  dup2\n    /* \"#utility.yul\":641:665   */\n  tag_35\n  jump\t// in\ntag_53:\n    /* \"#utility.yul\":634:639   */\n  dup2\n    /* \"#utility.yul\":631:666   */\n  eq\n    /* \"#utility.yul\":621:684   */\n  tag_54\n  jumpi\n    /* \"#utility.yul\":680:681   */\n  0x00\n    /* \"#utility.yul\":677:678   */\n  0x00\n    /* \"#utility.yul\":670:682   */\n  revert\n    /* \"#utility.yul\":621:684   */\ntag_54:\n    /* \"#utility.yul\":568:690   */\n  pop\n  jump\t// out\n    /* \"#utility.yul\":696:839   */\ntag_37:\n    /* \"#utility.yul\":753:758   */\n  0x00\n    /* \"#utility.yul\":784:790   */\n  dup2\n    /* \"#utility.yul\":778:791   */\n  mload\n    /* \"#utility.yul\":769:791   */\n  swap1\n  pop\n    /* \"#utility.yul\":800:833   */\n  tag_56\n    /* \"#utility.yul\":827:832   */\n  dup2\n    /* \"#utility.yul\":800:833   */\n  tag_36\n  jump\t// in\ntag_56:\n    /* \"#utility.yul\":696:839   */\n  swap3\n  swap2\n  pop\n  pop\n  jump\t// out\n    /* \"#utility.yul\":845:934   */\ntag_38:\n    /* \"#utility.yul\":881:888   */\n  0x00\n    /* \"#utility.yul\":921:927   */\n  0xffff\n    /* \"#utility.yul\":914:919   */\n  dup3\n    /* \"#utility.yul\":910:928   */\n  and\n    /* \"#utility.yul\":899:928   */\n  swap1\n  pop\n    /* \"#utility.yul\":845:934   */\n  swap2\n  swap1\n  pop\n  jump\t// out\n    /* \"#utility.yul\":940:1060   */\ntag_39:\n    /* \"#utility.yul\":1012:1035   */\n  tag_59\n    /* \"#utility.yul\":1029:1034   */\n  dup2\n    /* \"#utility.yul\":1012:1035   */\n  tag_38\n  jump\t// in\ntag_59:\n    /* \"#utility.yul\":1005:1010   */\n  dup2\n    /* \"#utility.yul\":1002:1036   */\n  eq\n    /* \"#utility.yul\":992:1054   */\n  tag_60\n  jumpi\n    /* \"#utility.yul\":1050:1051   */\n  0x00\n    /* \"#utility.yul\":1047:1048   */\n  0x00\n    /* \"#utility.yul\":1040:1052   */\n  revert\n    /* \"#utility.yul\":992:1054   */\ntag_60:\n    /* \"#utility.yul\":940:1060   */\n  pop\n  jump\t// out\n    /* \"#utility.yul\":1066:1207   */\ntag_40:\n    /* \"#utility.yul\":1122:1127   */\n  0x00\n    /* \"#utility.yul\":1153:1159   */\n  dup2\n    /* \"#utility.yul\":1147:1160   */\n  mload\n    /* \"#utility.yul\":1138:1160   */\n  swap1\n  pop\n    /* \"#utility.yul\":1169:1201   */\n  tag_62\n    /* \"#utility.yul\":1195:1200   */\n  dup2\n    /* \"#utility.yul\":1169:1201   */\n  tag_39\n  jump\t// in\ntag_62:\n    /* \"#utility.yul\":1066:1207   */\n  swap3\n  swap2\n  pop\n  pop\n  jump\t// out\n    /* \"#utility.yul\":1213:2031   */\ntag_3:\n    /* \"#utility.yul\":1309:1315   */\n  0x00\n    /* \"#utility.yul\":1317:1323   */\n  0x00\n    /* \"#utility.yul\":1325:1331   */\n  0x00\n    /* \"#utility.yul\":1333:1339   */\n  0x00\n    /* \"#utility.yul\":1382:1385   */\n  0x80\n    /* \"#utility.yul\":1370:1379   */\n  dup6\n    /* \"#utility.yul\":1361:1368   */\n  dup8\n    /* \"#utility.yul\":1357:1380   */\n  sub\n    /* \"#utility.yul\":1353:1386   */\n  slt\n    /* \"#utility.yul\":1350:1470   */\n  iszero\n  tag_64\n  jumpi\n    /* \"#utility.yul\":1389:1468   */\n  tag_65\n  tag_32\n  jump\t// in\ntag_65:\n    /* \"#utility.yul\":1350:1470   */\ntag_64:\n    /* \"#utility.yul\":1509:1510   */\n  0x00\n    /* \"#utility.yul\":1534:1598   */\n  tag_66\n    /* \"#utility.yul\":1590:1597   */\n  dup8\n    /* \"#utility.yul\":1581:1587   */\n  dup3\n    /* \"#utility.yul\":1570:1579   */\n  dup9\n    /* \"#utility.yul\":1566:1588   */\n  add\n    /* \"#utility.yul\":1534:1598   */\n  tag_37\n  jump\t// in\ntag_66:\n    /* \"#utility.yul\":1524:1598   */\n  swap5\n  pop\n    /* \"#utility.yul\":1480:1608   */\n  pop\n    /* \"#utility.yul\":1647:1649   */\n  0x20\n    /* \"#utility.yul\":1673:1736   */\n  tag_67\n    /* \"#utility.yul\":1728:1735   */\n  dup8\n    /* \"#utility.yul\":1719:1725   */\n  dup3\n    /* \"#utility.yul\":1708:1717   */\n  dup9\n    /* \"#utility.yul\":1704:1726   */\n  add\n    /* \"#utility.yul\":1673:1736   */\n  tag_40\n  jump\t// in\ntag_67:\n    /* \"#utility.yul\":1663:1736   */\n  swap4\n  pop\n    /* \"#utility.yul\":1618:1746   */\n  pop\n    /* \"#utility.yul\":1785:1787   */\n  0x40\n    /* \"#utility.yul\":1811:1875   */\n  tag_68\n    /* \"#utility.yul\":1867:1874   */\n  dup8\n    /* \"#utility.yul\":1858:1864   */\n  dup3\n    /* \"#utility.yul\":1847:1856   */\n  dup9\n    /* \"#utility.yul\":1843:1865   */\n  add\n    /* \"#utility.yul\":1811:1875   */\n  tag_37\n  jump\t// in\ntag_68:\n    /* \"#utility.yul\":1801:1875   */\n  swap3\n  pop\n    /* \"#utility.yul\":1756:1885   */\n  pop\n    /* \"#utility.yul\":1924:1926   */\n  0x60\n    /* \"#utility.yul\":1950:2014   */\n  tag_69\n    /* \"#utility.yul\":2006:2013   */\n  dup8\n    /* \"#utility.yul\":1997:2003   */\n  dup3\n    /* \"#utility.yul\":1986:1995   */\n  dup9\n    /* \"#utility.yul\":1982:2004   */\n  add\n    /* \"#utility.yul\":1950:2014   */\n  tag_37\n  jump\t// in\ntag_69:\n    /* \"#utility.yul\":1940:2014   */\n  swap2\n  pop\n    /* \"#utility.yul\":1895:2024   */\n  pop\n    /* \"#utility.yul\":1213:2031   */\n  swap3\n  swap6\n  swap2\n  swap5\n  pop\n  swap3\n  pop\n  jump\t// out\n    /* \"#utility.yul\":2037:2155   */\ntag_41:\n    /* \"#utility.yul\":2124:2148   */\n  tag_71\n    /* \"#utility.yul\":2142:2147   */\n  dup2\n    /* \"#utility.yul\":2124:2148   */\n  tag_35\n  jump\t// in\ntag_71:\n    /* \"#utility.yul\":2119:2122   */\n  dup3\n    /* \"#utility.yul\":2112:2149   */\n  mstore\n    /* \"#utility.yul\":2037:2155   */\n  pop\n  pop\n  jump\t// out\n    /* \"#utility.yul\":2161:2383   */\ntag_13:\n    /* \"#utility.yul\":2254:2258   */\n  0x00\n    /* \"#utility.yul\":2292:2294   */\n  0x20\n    /* \"#utility.yul\":2281:2290   */\n  dup3\n    /* \"#utility.yul\":2277:2295   */\n  add\n    /* \"#utility.yul\":2269:2295   */\n  swap1\n  pop\n    /* \"#utility.yul\":2305:2376   */\n  tag_73\n    /* \"#utility.yul\":2373:2374   */\n  0x00\n    /* \"#utility.yul\":2362:2371   */\n  dup4\n    /* \"#utility.yul\":2358:2375   */\n  add\n    /* \"#utility.yul\":2349:2355   */\n  dup5\n    /* \"#utility.yul\":2305:2376   */\n  tag_41\n  jump\t// in\ntag_73:\n    /* \"#utility.yul\":2161:2383   */\n  swap3\n  swap2\n  pop\n  pop\n  jump\t// out\n    /* \"#utility.yul\":2389:2475   */\ntag_42:\n    /* \"#utility.yul\":2424:2431   */\n  0x00\n    /* \"#utility.yul\":2464:2468   */\n  0xff\n    /* \"#utility.yul\":2457:2462   */\n  dup3\n    /* \"#utility.yul\":2453:2469   */\n  and\n    /* \"#utility.yul\":2442:2469   */\n  swap1\n  pop\n    /* \"#utility.yul\":2389:2475   */\n  swap2\n  swap1\n  pop\n  jump\t// out\n    /* \"#utility.yul\":2481:2599   */\ntag_43:\n    /* \"#utility.yul\":2552:2574   */\n  tag_76\n    /* \"#utility.yul\":2568:2573   */\n  dup2\n    /* \"#utility.yul\":2552:2574   */\n  tag_42\n  jump\t// in\ntag_76:\n    /* \"#utility.yul\":2545:2550   */\n  dup2\n    /* \"#utility.yul\":2542:2575   */\n  eq\n    /* \"#utility.yul\":2532:2593   */\n  tag_77\n  jumpi\n    /* \"#utility.yul\":2589:2590   */\n  0x00\n    /* \"#utility.yul\":2586:2587   */\n  0x00\n    /* \"#utility.yul\":2579:2591   */\n  revert\n    /* \"#utility.yul\":2532:2593   */\ntag_77:\n    /* \"#utility.yul\":2481:2599   */\n  pop\n  jump\t// out\n    /* \"#utility.yul\":2605:2744   */\ntag_44:\n    /* \"#utility.yul\":2660:2665   */\n  0x00\n    /* \"#utility.yul\":2691:2697   */\n  dup2\n    /* \"#utility.yul\":2685:2698   */\n  mload\n    /* \"#utility.yul\":2676:2698   */\n  swap1\n  pop\n    /* \"#utility.yul\":2707:2738   */\n  tag_79\n    /* \"#utility.yul\":2732:2737   */\n  dup2\n    /* \"#utility.yul\":2707:2738   */\n  tag_43\n  jump\t// in\ntag_79:\n    /* \"#utility.yul\":2605:2744   */\n  swap3\n  swap2\n  pop\n  pop\n  jump\t// out\n    /* \"#utility.yul\":2750:3097   */\ntag_23:\n    /* \"#utility.yul\":2818:2824   */\n  0x00\n    /* \"#utility.yul\":2867:2869   */\n  0x20\n    /* \"#utility.yul\":2855:2864   */\n  dup3\n    /* \"#utility.yul\":2846:2853   */\n  dup5\n    /* \"#utility.yul\":2842:2865   */\n  sub\n    /* \"#utility.yul\":2838:2870   */\n  slt\n    /* \"#utility.yul\":2835:2954   */\n  iszero\n  tag_81\n  jumpi\n    /* \"#utility.yul\":2873:2952   */\n  tag_82\n  tag_32\n  jump\t// in\ntag_82:\n    /* \"#utility.yul\":2835:2954   */\ntag_81:\n    /* \"#utility.yul\":2993:2994   */\n  0x00\n    /* \"#utility.yul\":3018:3080   */\n  tag_83\n    /* \"#utility.yul\":3072:3079   */\n  dup5\n    /* \"#utility.yul\":3063:3069   */\n  dup3\n    /* \"#utility.yul\":3052:3061   */\n  dup6\n    /* \"#utility.yul\":3048:3070   */\n  add\n    /* \"#utility.yul\":3018:3080   */\n  tag_44\n  jump\t// in\ntag_83:\n    /* \"#utility.yul\":3008:3080   */\n  swap2\n  pop\n    /* \"#utility.yul\":2964:3090   */\n  pop\n    /* \"#utility.yul\":2750:3097   */\n  swap3\n  swap2\n  pop\n  pop\n  jump\t// out\n    /* \"contracts/BountyEscrow.sol\":1963:16636  contract BountyEscrow is ReentrancyGuard, Pausable, Ownable {... */\ntag_29:\n  mload(0x80)\n  mload(0xa0)\n  codecopy(0x00, dataOffset(sub_0), dataSize(sub_0))\n  0x00\n  assignImmutable(\"0x9d527bfda4d6c4f5fc5208e6fc5f63669a7320385395cb549715c01ebcb43219\")\n  0x00\n  assignImmutable(\"0xa1e6533663c54c1b5791904b25fce23e3c1243e7d3d63ac897424953dc652b69\")\n  return(0x00, dataSize(sub_0))\nstop\n\nsub_0: assembly {\n        /* \"contracts/BountyEscrow.sol\":1963:16636  contract BountyEscrow is ReentrancyGuard, Pausable, Ownable {... */\n      mstore(0x40, 0x80)\n      callvalue\n      dup1\n      iszero\n      tag_1\n      jumpi\n      revert(0x00, 0x00)\n    tag_1:\n      pop\n      jumpi(tag_2, lt(calldatasize, 0x04))\n      shr(0xe0, calldataload(0x00))\n      dup1\n      0x8da5cb5b\n      gt\n      tag_22\n      jumpi\n      dup1\n      0xd1686604\n      gt\n      tag_23\n      jumpi\n      dup1\n      0xd1686604\n      eq\n      tag_17\n      jumpi\n      dup1\n      0xd55be8c6\n      eq\n      tag_18\n      jumpi\n      dup1\n      0xe0120cf8\n      eq\n      tag_19\n      jumpi\n      dup1\n      0xe46bbc9e\n      eq\n      tag_20\n      jumpi\n      dup1\n      0xf2fde38b\n      eq\n      tag_21\n      jumpi\n      jump(tag_2)\n    tag_23:\n      dup1\n      0x8da5cb5b\n      eq\n      tag_12\n      jumpi\n      dup1\n      0xc23945ac\n      eq\n      tag_13\n      jumpi\n      dup1\n      0xc4d252f5\n      eq\n      tag_14\n      jumpi\n      dup1\n      0xcc3e049b\n      eq\n      tag_15\n      jumpi\n      dup1\n      0xcd2025c3\n      eq\n      tag_16\n      jumpi\n      jump(tag_2)\n    tag_22:\n      dup1\n      0x478222c2\n      gt\n      tag_24\n      jumpi\n      dup1\n      0x478222c2\n      eq\n      tag_7\n      jumpi\n      dup1\n      0x5c975abb\n      eq\n      tag_8\n      jumpi\n      dup1\n      0x715018a6\n      eq\n      tag_9\n      jumpi\n      dup1\n      0x7bf42165\n      eq\n      tag_10\n      jumpi\n      dup1\n      0x8456cb59\n      eq\n      tag_11\n      jumpi\n      jump(tag_2)\n    tag_24:\n      dup1\n      0x2417395c\n      eq\n      tag_3\n      jumpi\n      dup1\n      0x24a9d853\n      eq\n      tag_4\n      jumpi\n      dup1\n      0x3e413bee\n      eq\n      tag_5\n      jumpi\n      dup1\n      0x3f4ba83a\n      eq\n      tag_6\n      jumpi\n    tag_2:\n      revert(0x00, 0x00)\n        /* \"contracts/BountyEscrow.sol\":16516:16634  function getBounty(bytes32 bountyId) external view returns (Bounty memory) {... */\n    tag_3:\n      tag_25\n      0x04\n      dup1\n      calldatasize\n      sub\n      dup2\n      add\n      swap1\n      tag_26\n      swap2\n      swap1\n      tag_27\n      jump\t// in\n    tag_26:\n      tag_28\n      jump\t// in\n    tag_25:\n      mload(0x40)\n      tag_29\n      swap2\n      swap1\n      tag_30\n      jump\t// in\n    tag_29:\n      mload(0x40)\n      dup1\n      swap2\n      sub\n      swap1\n      return\n        /* \"contracts/BountyEscrow.sol\":4084:4104  uint16 public feeBps */\n    tag_4:\n      tag_31\n      tag_32\n      jump\t// in\n    tag_31:\n      mload(0x40)\n      tag_33\n      swap2\n      swap1\n      tag_34\n      jump\t// in\n    tag_33:\n      mload(0x40)\n      dup1\n      swap2\n      sub\n      swap1\n      return\n        /* \"contracts/BountyEscrow.sol\":16059:16135  function usdc() external view returns (IERC20) {... */\n    tag_5:\n      tag_35\n      tag_36\n      jump\t// in\n    tag_35:\n      mload(0x40)\n      tag_37\n      swap2\n      swap1\n      tag_38\n      jump\t// in\n    tag_37:\n      mload(0x40)\n      dup1\n      swap2\n      sub\n      swap1\n      return\n        /* \"contracts/BountyEscrow.sol\":9587:9652  function unpause() external onlyOwner {... */\n    tag_6:\n      tag_39\n      tag_40\n      jump\t// in\n    tag_39:\n      stop\n        /* \"contracts/BountyEscrow.sol\":4180:4203  address public feeVault */\n    tag_7:\n      tag_41\n      tag_42\n      jump\t// in\n    tag_41:\n      mload(0x40)\n      tag_43\n      swap2\n      swap1\n      tag_44\n      jump\t// in\n    tag_43:\n      mload(0x40)\n      dup1\n      swap2\n      sub\n      swap1\n      return\n        /* \"@openzeppelin/contracts@5.0.2/utils/Pausable.sol\":1850:1934  function paused() public view virtual returns (bool) {... */\n    tag_8:\n      tag_45\n      tag_46\n      jump\t// in\n    tag_45:\n      mload(0x40)\n      tag_47\n      swap2\n      swap1\n      tag_48\n      jump\t// in\n    tag_47:\n      mload(0x40)\n      dup1\n      swap2\n      sub\n      swap1\n      return\n        /* \"@openzeppelin/contracts@5.0.2/access/Ownable.sol\":2293:2394  function renounceOwnership() public virtual onlyOwner {... */\n    tag_9:\n      tag_49\n      tag_50\n      jump\t// in\n    tag_49:\n      stop\n        /* \"contracts/BountyEscrow.sol\":16234:16325  function usdcDecimals() external view returns (uint8) {... */\n    tag_10:\n      tag_51\n      tag_52\n      jump\t// in\n    tag_51:\n      mload(0x40)\n      tag_53\n      swap2\n      swap1\n      tag_54\n      jump\t// in\n    tag_53:\n      mload(0x40)\n      dup1\n      swap2\n      sub\n      swap1\n      return\n        /* \"contracts/BountyEscrow.sol\":9399:9460  function pause() external onlyOwner {... */\n    tag_11:\n      tag_55\n      tag_56\n      jump\t// in\n    tag_55:\n      stop\n        /* \"@openzeppelin/contracts@5.0.2/access/Ownable.sol\":1638:1723  function owner() public view virtual returns (address) {... */\n    tag_12:\n      tag_57\n      tag_58\n      jump\t// in\n    tag_57:\n      mload(0x40)\n      tag_59\n      swap2\n      swap1\n      tag_44\n      jump\t// in\n    tag_59:\n      mload(0x40)\n      dup1\n      swap2\n      sub\n      swap1\n      return\n        /* \"contracts/BountyEscrow.sol\":11096:12345  function createBounty(... */\n    tag_13:\n      tag_60\n      0x04\n      dup1\n      calldatasize\n      sub\n      dup2\n      add\n      swap1\n      tag_61\n      swap2\n      swap1\n      tag_62\n      jump\t// in\n    tag_61:\n      tag_63\n      jump\t// in\n    tag_60:\n      mload(0x40)\n      tag_64\n      swap2\n      swap1\n      tag_65\n      jump\t// in\n    tag_64:\n      mload(0x40)\n      dup1\n      swap2\n      sub\n      swap1\n      return\n        /* \"contracts/BountyEscrow.sol\":13510:13954  function cancel(bytes32 bountyId) external nonReentrant whenNotPaused {... */\n    tag_14:\n      tag_66\n      0x04\n      dup1\n      calldatasize\n      sub\n      dup2\n      add\n      swap1\n      tag_67\n      swap2\n      swap1\n      tag_27\n      jump\t// in\n    tag_67:\n      tag_68\n      jump\t// in\n    tag_66:\n      stop\n        /* \"contracts/BountyEscrow.sol\":15397:15933  function refundExpired(... */\n    tag_15:\n      tag_69\n      0x04\n      dup1\n      calldatasize\n      sub\n      dup2\n      add\n      swap1\n      tag_70\n      swap2\n      swap1\n      tag_27\n      jump\t// in\n    tag_70:\n      tag_71\n      jump\t// in\n    tag_69:\n      stop\n        /* \"contracts/BountyEscrow.sol\":9006:9242  function computeBountyId(... */\n    tag_16:\n      tag_72\n      0x04\n      dup1\n      calldatasize\n      sub\n      dup2\n      add\n      swap1\n      tag_73\n      swap2\n      swap1\n      tag_74\n      jump\t// in\n    tag_73:\n      tag_75\n      jump\t// in\n    tag_72:\n      mload(0x40)\n      tag_76\n      swap2\n      swap1\n      tag_65\n      jump\t// in\n    tag_76:\n      mload(0x40)\n      dup1\n      swap2\n      sub\n      swap1\n      return\n        /* \"contracts/BountyEscrow.sol\":14377:15136  function resolve(... */\n    tag_17:\n      tag_77\n      0x04\n      dup1\n      calldatasize\n      sub\n      dup2\n      add\n      swap1\n      tag_78\n      swap2\n      swap1\n      tag_79\n      jump\t// in\n    tag_78:\n      tag_80\n      jump\t// in\n    tag_77:\n      stop\n        /* \"contracts/BountyEscrow.sol\":2162:2204  uint16 public constant MAX_FEE_BPS = 1_000 */\n    tag_18:\n      tag_81\n      tag_82\n      jump\t// in\n    tag_81:\n      mload(0x40)\n      tag_83\n      swap2\n      swap1\n      tag_34\n      jump\t// in\n    tag_83:\n      mload(0x40)\n      dup1\n      swap2\n      sub\n      swap1\n      return\n        /* \"contracts/BountyEscrow.sol\":9908:10238  function setFeeParams(... */\n    tag_19:\n      tag_84\n      0x04\n      dup1\n      calldatasize\n      sub\n      dup2\n      add\n      swap1\n      tag_85\n      swap2\n      swap1\n      tag_86\n      jump\t// in\n    tag_85:\n      tag_87\n      jump\t// in\n    tag_84:\n      stop\n        /* \"contracts/BountyEscrow.sol\":12648:13279  function fund(... */\n    tag_20:\n      tag_88\n      0x04\n      dup1\n      calldatasize\n      sub\n      dup2\n      add\n      swap1\n      tag_89\n      swap2\n      swap1\n      tag_90\n      jump\t// in\n    tag_89:\n      tag_91\n      jump\t// in\n    tag_88:\n      stop\n        /* \"@openzeppelin/contracts@5.0.2/access/Ownable.sol\":2543:2758  function transferOwnership(address newOwner) public virtual onlyOwner {... */\n    tag_21:\n      tag_92\n      0x04\n      dup1\n      calldatasize\n      sub\n      dup2\n      add\n      swap1\n      tag_93\n      swap2\n      swap1\n      tag_94\n      jump\t// in\n    tag_93:\n      tag_95\n      jump\t// in\n    tag_92:\n      stop\n        /* \"contracts/BountyEscrow.sol\":16516:16634  function getBounty(bytes32 bountyId) external view returns (Bounty memory) {... */\n    tag_28:\n        /* \"contracts/BountyEscrow.sol\":16576:16589  Bounty memory */\n      tag_96\n      tag_97\n      jump\t// in\n    tag_96:\n        /* \"contracts/BountyEscrow.sol\":16608:16617  _bounties */\n      0x02\n        /* \"contracts/BountyEscrow.sol\":16608:16627  _bounties[bountyId] */\n      0x00\n        /* \"contracts/BountyEscrow.sol\":16618:16626  bountyId */\n      dup4\n        /* \"contracts/BountyEscrow.sol\":16608:16627  _bounties[bountyId] */\n      dup2\n      mstore\n      0x20\n      add\n      swap1\n      dup2\n      mstore\n      0x20\n      add\n      0x00\n      keccak256\n        /* \"contracts/BountyEscrow.sol\":16601:16627  return _bounties[bountyId] */\n      mload(0x40)\n      dup1\n      0xe0\n      add\n      0x40\n      mstore\n      swap1\n      dup2\n      0x00\n      dup3\n      add\n      sload\n      dup2\n      mstore\n      0x20\n      add\n      0x01\n      dup3\n      add\n      0x00\n      swap1\n      sload\n      swap1\n      0x0100\n      exp\n      swap1\n      div\n      0xffffffffffffffffffffffffffffffffffffffff\n      and\n      0xffffffffffffffffffffffffffffffffffffffff\n      and\n      0xffffffffffffffffffffffffffffffffffffffff\n      and\n      dup2\n      mstore\n      0x20\n      add\n      0x02\n      dup3\n      add\n      0x00\n      swap1\n      sload\n      swap1\n      0x0100\n      exp\n      swap1\n      div\n      0xffffffffffffffffffffffffffffffffffffffff\n      and\n      0xffffffffffffffffffffffffffffffffffffffff\n      and\n      0xffffffffffffffffffffffffffffffffffffffff\n      and\n      dup2\n      mstore\n      0x20\n      add\n      0x02\n      dup3\n      add\n      0x14\n      swap1\n      sload\n      swap1\n      0x0100\n      exp\n      swap1\n      div\n      0xffffffffffffffffffffffff\n      and\n      0xffffffffffffffffffffffff\n      and\n      0xffffffffffffffffffffffff\n      and\n      dup2\n      mstore\n      0x20\n      add\n      0x03\n      dup3\n      add\n      0x00\n      swap1\n      sload\n      swap1\n      0x0100\n      exp\n      swap1\n      div\n      0xffffffffffffffff\n      and\n      0xffffffffffffffff\n      and\n      0xffffffffffffffff\n      and\n      dup2\n      mstore\n      0x20\n      add\n      0x03\n      dup3\n      add\n      0x08\n      swap1\n      sload\n      swap1\n      0x0100\n      exp\n      swap1\n      div\n      0xffffffffffffffff\n      and\n      0xffffffffffffffff\n      and\n      0xffffffffffffffff\n      and\n      dup2\n      mstore\n      0x20\n      add\n      0x03\n      dup3\n      add\n      0x10\n      swap1\n      sload\n      swap1\n      0x0100\n      exp\n      swap1\n      div\n      0xff\n      and\n      0x04\n      dup2\n      gt\n      iszero\n      tag_99\n      jumpi\n      tag_100\n      tag_101\n      jump\t// in\n    tag_100:\n    tag_99:\n      0x04\n      dup2\n      gt\n      iszero\n      tag_102\n      jumpi\n      tag_103\n      tag_101\n      jump\t// in\n    tag_103:\n    tag_102:\n      dup2\n      mstore\n      pop\n      pop\n      swap1\n      pop\n        /* \"contracts/BountyEscrow.sol\":16516:16634  function getBounty(bytes32 bountyId) external view returns (Bounty memory) {... */\n      swap2\n      swap1\n      pop\n      jump\t// out\n        /* \"contracts/BountyEscrow.sol\":4084:4104  uint16 public feeBps */\n    tag_32:\n      0x03\n      0x00\n      swap1\n      sload\n      swap1\n      0x0100\n      exp\n      swap1\n      div\n      0xffff\n      and\n      dup2\n      jump\t// out\n        /* \"contracts/BountyEscrow.sol\":16059:16135  function usdc() external view returns (IERC20) {... */\n    tag_36:\n        /* \"contracts/BountyEscrow.sol\":16098:16104  IERC20 */\n      0x00\n        /* \"contracts/BountyEscrow.sol\":16123:16128  _usdc */\n      immutable(\"0xa1e6533663c54c1b5791904b25fce23e3c1243e7d3d63ac897424953dc652b69\")\n        /* \"contracts/BountyEscrow.sol\":16116:16128  return _usdc */\n      swap1\n      pop\n        /* \"contracts/BountyEscrow.sol\":16059:16135  function usdc() external view returns (IERC20) {... */\n      swap1\n      jump\t// out\n        /* \"contracts/BountyEscrow.sol\":9587:9652  function unpause() external onlyOwner {... */\n    tag_40:\n        /* \"@openzeppelin/contracts@5.0.2/access/Ownable.sol\":1531:1544  _checkOwner() */\n      tag_106\n        /* \"@openzeppelin/contracts@5.0.2/access/Ownable.sol\":1531:1542  _checkOwner */\n      tag_107\n        /* \"@openzeppelin/contracts@5.0.2/access/Ownable.sol\":1531:1544  _checkOwner() */\n      jump\t// in\n    tag_106:\n        /* \"contracts/BountyEscrow.sol\":9635:9645  _unpause() */\n      tag_109\n        /* \"contracts/BountyEscrow.sol\":9635:9643  _unpause */\n      tag_110\n        /* \"contracts/BountyEscrow.sol\":9635:9645  _unpause() */\n      jump\t// in\n    tag_109:\n        /* \"contracts/BountyEscrow.sol\":9587:9652  function unpause() external onlyOwner {... */\n      jump\t// out\n        /* \"contracts/BountyEscrow.sol\":4180:4203  address public feeVault */\n    tag_42:\n      0x03\n      0x02\n      swap1\n      sload\n      swap1\n      0x0100\n      exp\n      swap1\n      div\n      0xffffffffffffffffffffffffffffffffffffffff\n      and\n      dup2\n      jump\t// out\n        /* \"@openzeppelin/contracts@5.0.2/utils/Pausable.sol\":1850:1934  function paused() public view virtual returns (bool) {... */\n    tag_46:\n        /* \"@openzeppelin/contracts@5.0.2/utils/Pausable.sol\":1897:1901  bool */\n      0x00\n        /* \"@openzeppelin/contracts@5.0.2/utils/Pausable.sol\":1920:1927  _paused */\n      0x01\n      0x00\n      swap1\n      sload\n      swap1\n      0x0100\n      exp\n      swap1\n      div\n      0xff\n      and\n        /* \"@openzeppelin/contracts@5.0.2/utils/Pausable.sol\":1913:1927  return _paused */\n      swap1\n      pop\n        /* \"@openzeppelin/contracts@5.0.2/utils/Pausable.sol\":1850:1934  function paused() public view virtual returns (bool) {... */\n      swap1\n      jump\t// out\n        /* \"@openzeppelin/contracts@5.0.2/access/Ownable.sol\":2293:2394  function renounceOwnership() public virtual onlyOwner {... */\n    tag_50:\n        /* \"@openzeppelin/contracts@5.0.2/access/Ownable.sol\":1531:1544  _checkOwner() */\n      tag_113\n        /* \"@openzeppelin/contracts@5.0.2/access/Ownable.sol\":1531:1542  _checkOwner */\n      tag_107\n        /* \"@openzeppelin/contracts@5.0.2/access/Ownable.sol\":1531:1544  _checkOwner() */\n      jump\t// in\n    tag_113:\n        /* \"@openzeppelin/contracts@5.0.2/access/Ownable.sol\":2357:2387  _transferOwnership(address(0)) */\n      tag_115\n        /* \"@openzeppelin/contracts@5.0.2/access/Ownable.sol\":2384:2385  0 */\n      0x00\n        /* \"@openzeppelin/contracts@5.0.2/access/Ownable.sol\":2357:2375  _transferOwnership */\n      tag_116\n        /* \"@openzeppelin/contracts@5.0.2/access/Ownable.sol\":2357:2387  _transferOwnership(address(0)) */\n      jump\t// in\n    tag_115:\n        /* \"@openzeppelin/contracts@5.0.2/access/Ownable.sol\":2293:2394  function renounceOwnership() public virtual onlyOwner {... */\n      jump\t// out\n        /* \"contracts/BountyEscrow.sol\":16234:16325  function usdcDecimals() external view returns (uint8) {... */\n    tag_52:\n        /* \"contracts/BountyEscrow.sol\":16281:16286  uint8 */\n      0x00\n        /* \"contracts/BountyEscrow.sol\":16305:16318  _usdcDecimals */\n      immutable(\"0x9d527bfda4d6c4f5fc5208e6fc5f63669a7320385395cb549715c01ebcb43219\")\n        /* \"contracts/BountyEscrow.sol\":16298:16318  return _usdcDecimals */\n      swap1\n      pop\n        /* \"contracts/BountyEscrow.sol\":16234:16325  function usdcDecimals() external view returns (uint8) {... */\n      swap1\n      jump\t// out\n        /* \"contracts/BountyEscrow.sol\":9399:9460  function pause() external onlyOwner {... */\n    tag_56:\n        /* \"@openzeppelin/contracts@5.0.2/access/Ownable.sol\":1531:1544  _checkOwner() */\n      tag_119\n        /* \"@openzeppelin/contracts@5.0.2/access/Ownable.sol\":1531:1542  _checkOwner */\n      tag_107\n        /* \"@openzeppelin/contracts@5.0.2/access/Ownable.sol\":1531:1544  _checkOwner() */\n      jump\t// in\n    tag_119:\n        /* \"contracts/BountyEscrow.sol\":9445:9453  _pause() */\n      tag_121\n        /* \"contracts/BountyEscrow.sol\":9445:9451  _pause */\n      tag_122\n        /* \"contracts/BountyEscrow.sol\":9445:9453  _pause() */\n      jump\t// in\n    tag_121:\n        /* \"contracts/BountyEscrow.sol\":9399:9460  function pause() external onlyOwner {... */\n      jump\t// out\n        /* \"@openzeppelin/contracts@5.0.2/access/Ownable.sol\":1638:1723  function owner() public view virtual returns (address) {... */\n    tag_58:\n        /* \"@openzeppelin/contracts@5.0.2/access/Ownable.sol\":1684:1691  address */\n      0x00\n        /* \"@openzeppelin/contracts@5.0.2/access/Ownable.sol\":1710:1716  _owner */\n      0x01\n      dup1\n      sload\n      swap1\n      0x0100\n      exp\n      swap1\n      div\n      0xffffffffffffffffffffffffffffffffffffffff\n      and\n        /* \"@openzeppelin/contracts@5.0.2/access/Ownable.sol\":1703:1716  return _owner */\n      swap1\n      pop\n        /* \"@openzeppelin/contracts@5.0.2/access/Ownable.sol\":1638:1723  function owner() public view virtual returns (address) {... */\n      swap1\n      jump\t// out\n        /* \"contracts/BountyEscrow.sol\":11096:12345  function createBounty(... */\n    tag_63:\n        /* \"contracts/BountyEscrow.sol\":11300:11316  bytes32 bountyId */\n      0x00\n        /* \"@openzeppelin/contracts@5.0.2/utils/ReentrancyGuard.sol\":2356:2377  _nonReentrantBefore() */\n      tag_125\n        /* \"@openzeppelin/contracts@5.0.2/utils/ReentrancyGuard.sol\":2356:2375  _nonReentrantBefore */\n      tag_126\n        /* \"@openzeppelin/contracts@5.0.2/utils/ReentrancyGuard.sol\":2356:2377  _nonReentrantBefore() */\n      jump\t// in\n    tag_125:\n        /* \"@openzeppelin/contracts@5.0.2/utils/Pausable.sol\":1474:1493  _requireNotPaused() */\n      tag_128\n        /* \"@openzeppelin/contracts@5.0.2/utils/Pausable.sol\":1474:1491  _requireNotPaused */\n      tag_129\n        /* \"@openzeppelin/contracts@5.0.2/utils/Pausable.sol\":1474:1493  _requireNotPaused() */\n      jump\t// in\n    tag_128:\n        /* \"contracts/BountyEscrow.sol\":11352:11353  0 */\n      0x00\n        /* \"contracts/BountyEscrow.sol\":11332:11354  resolver == address(0) */\n      0xffffffffffffffffffffffffffffffffffffffff\n      and\n        /* \"contracts/BountyEscrow.sol\":11332:11340  resolver */\n      dup7\n        /* \"contracts/BountyEscrow.sol\":11332:11354  resolver == address(0) */\n      0xffffffffffffffffffffffffffffffffffffffff\n      and\n      sub\n        /* \"contracts/BountyEscrow.sol\":11328:11376  if (resolver == address(0)) revert ZeroAddress() */\n      tag_131\n      jumpi\n        /* \"contracts/BountyEscrow.sol\":11363:11376  ZeroAddress() */\n      mload(0x40)\n      0xd92e233d00000000000000000000000000000000000000000000000000000000\n      dup2\n      mstore\n      0x04\n      add\n      mload(0x40)\n      dup1\n      swap2\n      sub\n      swap1\n      revert\n        /* \"contracts/BountyEscrow.sol\":11328:11376  if (resolver == address(0)) revert ZeroAddress() */\n    tag_131:\n        /* \"contracts/BountyEscrow.sol\":11412:11413  0 */\n      0x00\n        /* \"contracts/BountyEscrow.sol\":11404:11414  bytes32(0) */\n      0x00\n      shl\n        /* \"contracts/BountyEscrow.sol\":11390:11400  repoIdHash */\n      dup6\n        /* \"contracts/BountyEscrow.sol\":11390:11414  repoIdHash == bytes32(0) */\n      eq\n        /* \"contracts/BountyEscrow.sol\":11390:11434  repoIdHash == bytes32(0) || issueNumber == 0 */\n      dup1\n      tag_132\n      jumpi\n      pop\n        /* \"contracts/BountyEscrow.sol\":11433:11434  0 */\n      0x00\n        /* \"contracts/BountyEscrow.sol\":11418:11429  issueNumber */\n      dup5\n        /* \"contracts/BountyEscrow.sol\":11418:11434  issueNumber == 0 */\n      0xffffffffffffffff\n      and\n      eq\n        /* \"contracts/BountyEscrow.sol\":11390:11434  repoIdHash == bytes32(0) || issueNumber == 0 */\n    tag_132:\n        /* \"contracts/BountyEscrow.sol\":11386:11470  if (repoIdHash == bytes32(0) || issueNumber == 0)... */\n      iszero\n      tag_133\n      jumpi\n        /* \"contracts/BountyEscrow.sol\":11455:11470  InvalidParams() */\n      mload(0x40)\n      0xa86b651200000000000000000000000000000000000000000000000000000000\n      dup2\n      mstore\n      0x04\n      add\n      mload(0x40)\n      dup1\n      swap2\n      sub\n      swap1\n      revert\n        /* \"contracts/BountyEscrow.sol\":11386:11470  if (repoIdHash == bytes32(0) || issueNumber == 0)... */\n    tag_133:\n        /* \"contracts/BountyEscrow.sol\":11496:11511  block.timestamp */\n      timestamp\n        /* \"contracts/BountyEscrow.sol\":11484:11492  deadline */\n      dup4\n        /* \"contracts/BountyEscrow.sol\":11484:11511  deadline <= block.timestamp */\n      0xffffffffffffffff\n      and\n      gt\n        /* \"contracts/BountyEscrow.sol\":11480:11535  if (deadline <= block.timestamp) revert InvalidParams() */\n      tag_134\n      jumpi\n        /* \"contracts/BountyEscrow.sol\":11520:11535  InvalidParams() */\n      mload(0x40)\n      0xa86b651200000000000000000000000000000000000000000000000000000000\n      dup2\n      mstore\n      0x04\n      add\n      mload(0x40)\n      dup1\n      swap2\n      sub\n      swap1\n      revert\n        /* \"contracts/BountyEscrow.sol\":11480:11535  if (deadline <= block.timestamp) revert InvalidParams() */\n    tag_134:\n        /* \"contracts/BountyEscrow.sol\":11559:11560  0 */\n      0x00\n        /* \"contracts/BountyEscrow.sol\":11549:11555  amount */\n      dup3\n        /* \"contracts/BountyEscrow.sol\":11549:11560  amount == 0 */\n      sub\n        /* \"contracts/BountyEscrow.sol\":11545:11581  if (amount == 0) revert ZeroAmount() */\n      tag_135\n      jumpi\n        /* \"contracts/BountyEscrow.sol\":11569:11581  ZeroAmount() */\n      mload(0x40)\n      0x1f2a200500000000000000000000000000000000000000000000000000000000\n      dup2\n      mstore\n      0x04\n      add\n      mload(0x40)\n      dup1\n      swap2\n      sub\n      swap1\n      revert\n        /* \"contracts/BountyEscrow.sol\":11545:11581  if (amount == 0) revert ZeroAmount() */\n    tag_135:\n        /* \"contracts/BountyEscrow.sol\":11603:11655  computeBountyId(msg.sender, repoIdHash, issueNumber) */\n      tag_136\n        /* \"contracts/BountyEscrow.sol\":11619:11629  msg.sender */\n      caller\n        /* \"contracts/BountyEscrow.sol\":11631:11641  repoIdHash */\n      dup7\n        /* \"contracts/BountyEscrow.sol\":11643:11654  issueNumber */\n      dup7\n        /* \"contracts/BountyEscrow.sol\":11603:11618  computeBountyId */\n      tag_75\n        /* \"contracts/BountyEscrow.sol\":11603:11655  computeBountyId(msg.sender, repoIdHash, issueNumber) */\n      jump\t// in\n    tag_136:\n        /* \"contracts/BountyEscrow.sol\":11592:11655  bountyId = computeBountyId(msg.sender, repoIdHash, issueNumber) */\n      swap1\n      pop\n        /* \"contracts/BountyEscrow.sol\":11699:11710  Status.None */\n      0x00\n        /* \"contracts/BountyEscrow.sol\":11669:11710  _bounties[bountyId].status != Status.None */\n      0x04\n      dup2\n      gt\n      iszero\n      tag_137\n      jumpi\n      tag_138\n      tag_101\n      jump\t// in\n    tag_138:\n    tag_137:\n        /* \"contracts/BountyEscrow.sol\":11669:11678  _bounties */\n      0x02\n        /* \"contracts/BountyEscrow.sol\":11669:11688  _bounties[bountyId] */\n      0x00\n        /* \"contracts/BountyEscrow.sol\":11679:11687  bountyId */\n      dup4\n        /* \"contracts/BountyEscrow.sol\":11669:11688  _bounties[bountyId] */\n      dup2\n      mstore\n      0x20\n      add\n      swap1\n      dup2\n      mstore\n      0x20\n      add\n      0x00\n      keccak256\n        /* \"contracts/BountyEscrow.sol\":11669:11695  _bounties[bountyId].status */\n      0x03\n      add\n      0x10\n      swap1\n      sload\n      swap1\n      0x0100\n      exp\n      swap1\n      div\n      0xff\n      and\n        /* \"contracts/BountyEscrow.sol\":11669:11710  _bounties[bountyId].status != Status.None */\n      0x04\n      dup2\n      gt\n      iszero\n      tag_139\n      jumpi\n      tag_140\n      tag_101\n      jump\t// in\n    tag_140:\n    tag_139:\n      eq\n        /* \"contracts/BountyEscrow.sol\":11665:11734  if (_bounties[bountyId].status != Status.None) revert AlreadyExists() */\n      tag_141\n      jumpi\n        /* \"contracts/BountyEscrow.sol\":11719:11734  AlreadyExists() */\n      mload(0x40)\n      0x23369fa600000000000000000000000000000000000000000000000000000000\n      dup2\n      mstore\n      0x04\n      add\n      mload(0x40)\n      dup1\n      swap2\n      sub\n      swap1\n      revert\n        /* \"contracts/BountyEscrow.sol\":11665:11734  if (_bounties[bountyId].status != Status.None) revert AlreadyExists() */\n    tag_141:\n        /* \"contracts/BountyEscrow.sol\":11745:11761  Bounty storage b */\n      0x00\n        /* \"contracts/BountyEscrow.sol\":11764:11773  _bounties */\n      0x02\n        /* \"contracts/BountyEscrow.sol\":11764:11783  _bounties[bountyId] */\n      0x00\n        /* \"contracts/BountyEscrow.sol\":11774:11782  bountyId */\n      dup4\n        /* \"contracts/BountyEscrow.sol\":11764:11783  _bounties[bountyId] */\n      dup2\n      mstore\n      0x20\n      add\n      swap1\n      dup2\n      mstore\n      0x20\n      add\n      0x00\n      keccak256\n        /* \"contracts/BountyEscrow.sol\":11745:11783  Bounty storage b = _bounties[bountyId] */\n      swap1\n      pop\n        /* \"contracts/BountyEscrow.sol\":11808:11818  repoIdHash */\n      dup6\n        /* \"contracts/BountyEscrow.sol\":11793:11794  b */\n      dup2\n        /* \"contracts/BountyEscrow.sol\":11793:11805  b.repoIdHash */\n      0x00\n      add\n        /* \"contracts/BountyEscrow.sol\":11793:11818  b.repoIdHash = repoIdHash */\n      dup2\n      swap1\n      sstore\n      pop\n        /* \"contracts/BountyEscrow.sol\":11840:11850  msg.sender */\n      caller\n        /* \"contracts/BountyEscrow.sol\":11828:11829  b */\n      dup2\n        /* \"contracts/BountyEscrow.sol\":11828:11837  b.sponsor */\n      0x01\n      add\n      0x00\n        /* \"contracts/BountyEscrow.sol\":11828:11850  b.sponsor = msg.sender */\n      0x0100\n      exp\n      dup2\n      sload\n      dup2\n      0xffffffffffffffffffffffffffffffffffffffff\n      mul\n      not\n      and\n      swap1\n      dup4\n      0xffffffffffffffffffffffffffffffffffffffff\n      and\n      mul\n      or\n      swap1\n      sstore\n      pop\n        /* \"contracts/BountyEscrow.sol\":11873:11881  resolver */\n      dup7\n        /* \"contracts/BountyEscrow.sol\":11860:11861  b */\n      dup2\n        /* \"contracts/BountyEscrow.sol\":11860:11870  b.resolver */\n      0x02\n      add\n      0x00\n        /* \"contracts/BountyEscrow.sol\":11860:11881  b.resolver = resolver */\n      0x0100\n      exp\n      dup2\n      sload\n      dup2\n      0xffffffffffffffffffffffffffffffffffffffff\n      mul\n      not\n      and\n      swap1\n      dup4\n      0xffffffffffffffffffffffffffffffffffffffff\n      and\n      mul\n      or\n      swap1\n      sstore\n      pop\n        /* \"contracts/BountyEscrow.sol\":11902:11919  amount.toUint96() */\n      tag_142\n        /* \"contracts/BountyEscrow.sol\":11902:11908  amount */\n      dup4\n        /* \"contracts/BountyEscrow.sol\":11902:11917  amount.toUint96 */\n      tag_143\n        /* \"contracts/BountyEscrow.sol\":11902:11919  amount.toUint96() */\n      jump\t// in\n    tag_142:\n        /* \"contracts/BountyEscrow.sol\":11891:11892  b */\n      dup2\n        /* \"contracts/BountyEscrow.sol\":11891:11899  b.amount */\n      0x02\n      add\n      0x14\n        /* \"contracts/BountyEscrow.sol\":11891:11919  b.amount = amount.toUint96() */\n      0x0100\n      exp\n      dup2\n      sload\n      dup2\n      0xffffffffffffffffffffffff\n      mul\n      not\n      and\n      swap1\n      dup4\n      0xffffffffffffffffffffffff\n      and\n      mul\n      or\n      swap1\n      sstore\n      pop\n        /* \"contracts/BountyEscrow.sol\":11995:12003  deadline */\n      dup4\n        /* \"contracts/BountyEscrow.sol\":11982:11983  b */\n      dup2\n        /* \"contracts/BountyEscrow.sol\":11982:11992  b.deadline */\n      0x03\n      add\n      0x00\n        /* \"contracts/BountyEscrow.sol\":11982:12003  b.deadline = deadline */\n      0x0100\n      exp\n      dup2\n      sload\n      dup2\n      0xffffffffffffffff\n      mul\n      not\n      and\n      swap1\n      dup4\n      0xffffffffffffffff\n      and\n      mul\n      or\n      swap1\n      sstore\n      pop\n        /* \"contracts/BountyEscrow.sol\":12029:12040  issueNumber */\n      dup5\n        /* \"contracts/BountyEscrow.sol\":12013:12014  b */\n      dup2\n        /* \"contracts/BountyEscrow.sol\":12013:12026  b.issueNumber */\n      0x03\n      add\n      0x08\n        /* \"contracts/BountyEscrow.sol\":12013:12040  b.issueNumber = issueNumber */\n      0x0100\n      exp\n      dup2\n      sload\n      dup2\n      0xffffffffffffffff\n      mul\n      not\n      and\n      swap1\n      dup4\n      0xffffffffffffffff\n      and\n      mul\n      or\n      swap1\n      sstore\n      pop\n        /* \"contracts/BountyEscrow.sol\":12061:12072  Status.Open */\n      0x01\n        /* \"contracts/BountyEscrow.sol\":12050:12051  b */\n      dup2\n        /* \"contracts/BountyEscrow.sol\":12050:12058  b.status */\n      0x03\n      add\n      0x10\n        /* \"contracts/BountyEscrow.sol\":12050:12072  b.status = Status.Open */\n      0x0100\n      exp\n      dup2\n      sload\n      dup2\n      0xff\n      mul\n      not\n      and\n      swap1\n      dup4\n      0x04\n      dup2\n      gt\n      iszero\n      tag_144\n      jumpi\n      tag_145\n      tag_101\n      jump\t// in\n    tag_145:\n    tag_144:\n      mul\n      or\n      swap1\n      sstore\n      pop\n        /* \"contracts/BountyEscrow.sol\":12083:12140  _usdc.safeTransferFrom(msg.sender, address(this), amount) */\n      tag_146\n        /* \"contracts/BountyEscrow.sol\":12106:12116  msg.sender */\n      caller\n        /* \"contracts/BountyEscrow.sol\":12126:12130  this */\n      address\n        /* \"contracts/BountyEscrow.sol\":12133:12139  amount */\n      dup6\n        /* \"contracts/BountyEscrow.sol\":12083:12088  _usdc */\n      immutable(\"0xa1e6533663c54c1b5791904b25fce23e3c1243e7d3d63ac897424953dc652b69\")\n        /* \"contracts/BountyEscrow.sol\":12083:12105  _usdc.safeTransferFrom */\n      0xffffffffffffffffffffffffffffffffffffffff\n      and\n      tag_147\n      swap1\n        /* \"contracts/BountyEscrow.sol\":12083:12140  _usdc.safeTransferFrom(msg.sender, address(this), amount) */\n      swap4\n      swap3\n      swap2\n      swap1\n      0xffffffff\n      and\n      jump\t// in\n    tag_146:\n        /* \"contracts/BountyEscrow.sol\":12229:12239  repoIdHash */\n      dup6\n        /* \"contracts/BountyEscrow.sol\":12205:12215  msg.sender */\n      caller\n        /* \"contracts/BountyEscrow.sol\":12156:12338  BountyCreated(... */\n      0xffffffffffffffffffffffffffffffffffffffff\n      and\n        /* \"contracts/BountyEscrow.sol\":12183:12191  bountyId */\n      dup4\n        /* \"contracts/BountyEscrow.sol\":12156:12338  BountyCreated(... */\n      0xb9f72851bf0c89db77e8b273bf29aef517207f92830df76851a309f1a6c5c80e\n        /* \"contracts/BountyEscrow.sol\":12253:12264  issueNumber */\n      dup9\n        /* \"contracts/BountyEscrow.sol\":12278:12286  deadline */\n      dup9\n        /* \"contracts/BountyEscrow.sol\":12300:12308  resolver */\n      dup13\n        /* \"contracts/BountyEscrow.sol\":12322:12328  amount */\n      dup10\n        /* \"contracts/BountyEscrow.sol\":12156:12338  BountyCreated(... */\n      mload(0x40)\n      tag_148\n      swap5\n      swap4\n      swap3\n      swap2\n      swap1\n      tag_149\n      jump\t// in\n    tag_148:\n      mload(0x40)\n      dup1\n      swap2\n      sub\n      swap1\n      log4\n        /* \"contracts/BountyEscrow.sol\":11318:12345  {... */\n      pop\n        /* \"@openzeppelin/contracts@5.0.2/utils/ReentrancyGuard.sol\":2398:2418  _nonReentrantAfter() */\n      tag_150\n        /* \"@openzeppelin/contracts@5.0.2/utils/ReentrancyGuard.sol\":2398:2416  _nonReentrantAfter */\n      tag_151\n        /* \"@openzeppelin/contracts@5.0.2/utils/ReentrancyGuard.sol\":2398:2418  _nonReentrantAfter() */\n      jump\t// in\n    tag_150:\n        /* \"contracts/BountyEscrow.sol\":11096:12345  function createBounty(... */\n      swap6\n      swap5\n      pop\n      pop\n      pop\n      pop\n      pop\n      jump\t// out\n        /* \"contracts/BountyEscrow.sol\":13510:13954  function cancel(bytes32 bountyId) external nonReentrant whenNotPaused {... */\n    tag_68:\n        /* \"@openzeppelin/contracts@5.0.2/utils/ReentrancyGuard.sol\":2356:2377  _nonReentrantBefore() */\n      tag_153\n        /* \"@openzeppelin/contracts@5.0.2/utils/ReentrancyGuard.sol\":2356:2375  _nonReentrantBefore */\n      tag_126\n        /* \"@openzeppelin/contracts@5.0.2/utils/ReentrancyGuard.sol\":2356:2377  _nonReentrantBefore() */\n      jump\t// in\n    tag_153:\n        /* \"@openzeppelin/contracts@5.0.2/utils/Pausable.sol\":1474:1493  _requireNotPaused() */\n      tag_155\n        /* \"@openzeppelin/contracts@5.0.2/utils/Pausable.sol\":1474:1491  _requireNotPaused */\n      tag_129\n        /* \"@openzeppelin/contracts@5.0.2/utils/Pausable.sol\":1474:1493  _requireNotPaused() */\n      jump\t// in\n    tag_155:\n        /* \"contracts/BountyEscrow.sol\":13590:13606  Bounty storage b */\n      0x00\n        /* \"contracts/BountyEscrow.sol\":13609:13618  _bounties */\n      0x02\n        /* \"contracts/BountyEscrow.sol\":13609:13628  _bounties[bountyId] */\n      0x00\n        /* \"contracts/BountyEscrow.sol\":13619:13627  bountyId */\n      dup4\n        /* \"contracts/BountyEscrow.sol\":13609:13628  _bounties[bountyId] */\n      dup2\n      mstore\n      0x20\n      add\n      swap1\n      dup2\n      mstore\n      0x20\n      add\n      0x00\n      keccak256\n        /* \"contracts/BountyEscrow.sol\":13590:13628  Bounty storage b = _bounties[bountyId] */\n      swap1\n      pop\n        /* \"contracts/BountyEscrow.sol\":13654:13665  Status.Open */\n      0x01\n        /* \"contracts/BountyEscrow.sol\":13642:13665  b.status != Status.Open */\n      0x04\n      dup2\n      gt\n      iszero\n      tag_157\n      jumpi\n      tag_158\n      tag_101\n      jump\t// in\n    tag_158:\n    tag_157:\n        /* \"contracts/BountyEscrow.sol\":13642:13643  b */\n      dup2\n        /* \"contracts/BountyEscrow.sol\":13642:13650  b.status */\n      0x03\n      add\n      0x10\n      swap1\n      sload\n      swap1\n      0x0100\n      exp\n      swap1\n      div\n      0xff\n      and\n        /* \"contracts/BountyEscrow.sol\":13642:13665  b.status != Status.Open */\n      0x04\n      dup2\n      gt\n      iszero\n      tag_159\n      jumpi\n      tag_160\n      tag_101\n      jump\t// in\n    tag_160:\n    tag_159:\n      eq\n        /* \"contracts/BountyEscrow.sol\":13638:13683  if (b.status != Status.Open) revert NotOpen() */\n      tag_161\n      jumpi\n        /* \"contracts/BountyEscrow.sol\":13674:13683  NotOpen() */\n      mload(0x40)\n      0xddafad9800000000000000000000000000000000000000000000000000000000\n      dup2\n      mstore\n      0x04\n      add\n      mload(0x40)\n      dup1\n      swap2\n      sub\n      swap1\n      revert\n        /* \"contracts/BountyEscrow.sol\":13638:13683  if (b.status != Status.Open) revert NotOpen() */\n    tag_161:\n        /* \"contracts/BountyEscrow.sol\":13711:13712  b */\n      dup1\n        /* \"contracts/BountyEscrow.sol\":13711:13720  b.sponsor */\n      0x01\n      add\n      0x00\n      swap1\n      sload\n      swap1\n      0x0100\n      exp\n      swap1\n      div\n      0xffffffffffffffffffffffffffffffffffffffff\n      and\n        /* \"contracts/BountyEscrow.sol\":13697:13720  msg.sender != b.sponsor */\n      0xffffffffffffffffffffffffffffffffffffffff\n      and\n        /* \"contracts/BountyEscrow.sol\":13697:13707  msg.sender */\n      caller\n        /* \"contracts/BountyEscrow.sol\":13697:13720  msg.sender != b.sponsor */\n      0xffffffffffffffffffffffffffffffffffffffff\n      and\n      eq\n        /* \"contracts/BountyEscrow.sol\":13693:13741  if (msg.sender != b.sponsor) revert NotSponsor() */\n      tag_162\n      jumpi\n        /* \"contracts/BountyEscrow.sol\":13729:13741  NotSponsor() */\n      mload(0x40)\n      0xdf4795c700000000000000000000000000000000000000000000000000000000\n      dup2\n      mstore\n      0x04\n      add\n      mload(0x40)\n      dup1\n      swap2\n      sub\n      swap1\n      revert\n        /* \"contracts/BountyEscrow.sol\":13693:13741  if (msg.sender != b.sponsor) revert NotSponsor() */\n    tag_162:\n        /* \"contracts/BountyEscrow.sol\":13763:13778  Status.Canceled */\n      0x04\n        /* \"contracts/BountyEscrow.sol\":13752:13753  b */\n      dup2\n        /* \"contracts/BountyEscrow.sol\":13752:13760  b.status */\n      0x03\n      add\n      0x10\n        /* \"contracts/BountyEscrow.sol\":13752:13778  b.status = Status.Canceled */\n      0x0100\n      exp\n      dup2\n      sload\n      dup2\n      0xff\n      mul\n      not\n      and\n      swap1\n      dup4\n      0x04\n      dup2\n      gt\n      iszero\n      tag_163\n      jumpi\n      tag_164\n      tag_101\n      jump\t// in\n    tag_164:\n    tag_163:\n      mul\n      or\n      swap1\n      sstore\n      pop\n        /* \"contracts/BountyEscrow.sol\":13788:13801  uint256 gross */\n      0x00\n        /* \"contracts/BountyEscrow.sol\":13804:13805  b */\n      dup2\n        /* \"contracts/BountyEscrow.sol\":13804:13812  b.amount */\n      0x02\n      add\n      0x14\n      swap1\n      sload\n      swap1\n      0x0100\n      exp\n      swap1\n      div\n      0xffffffffffffffffffffffff\n      and\n        /* \"contracts/BountyEscrow.sol\":13788:13812  uint256 gross = b.amount */\n      0xffffffffffffffffffffffff\n      and\n      swap1\n      pop\n        /* \"contracts/BountyEscrow.sol\":13833:13834  0 */\n      0x00\n        /* \"contracts/BountyEscrow.sol\":13822:13823  b */\n      dup3\n        /* \"contracts/BountyEscrow.sol\":13822:13830  b.amount */\n      0x02\n      add\n      0x14\n        /* \"contracts/BountyEscrow.sol\":13822:13834  b.amount = 0 */\n      0x0100\n      exp\n      dup2\n      sload\n      dup2\n      0xffffffffffffffffffffffff\n      mul\n      not\n      and\n      swap1\n      dup4\n      0xffffffffffffffffffffffff\n      and\n      mul\n      or\n      swap1\n      sstore\n      pop\n        /* \"contracts/BountyEscrow.sol\":13857:13858  0 */\n      0x00\n        /* \"contracts/BountyEscrow.sol\":13849:13854  gross */\n      dup2\n        /* \"contracts/BountyEscrow.sol\":13849:13858  gross > 0 */\n      gt\n        /* \"contracts/BountyEscrow.sol\":13845:13896  if (gross > 0) _usdc.safeTransfer(b.sponsor, gross) */\n      iszero\n      tag_165\n      jumpi\n        /* \"contracts/BountyEscrow.sol\":13860:13896  _usdc.safeTransfer(b.sponsor, gross) */\n      tag_166\n        /* \"contracts/BountyEscrow.sol\":13879:13880  b */\n      dup3\n        /* \"contracts/BountyEscrow.sol\":13879:13888  b.sponsor */\n      0x01\n      add\n      0x00\n      swap1\n      sload\n      swap1\n      0x0100\n      exp\n      swap1\n      div\n      0xffffffffffffffffffffffffffffffffffffffff\n      and\n        /* \"contracts/BountyEscrow.sol\":13890:13895  gross */\n      dup3\n        /* \"contracts/BountyEscrow.sol\":13860:13865  _usdc */\n      immutable(\"0xa1e6533663c54c1b5791904b25fce23e3c1243e7d3d63ac897424953dc652b69\")\n        /* \"contracts/BountyEscrow.sol\":13860:13878  _usdc.safeTransfer */\n      0xffffffffffffffffffffffffffffffffffffffff\n      and\n      tag_167\n      swap1\n        /* \"contracts/BountyEscrow.sol\":13860:13896  _usdc.safeTransfer(b.sponsor, gross) */\n      swap3\n      swap2\n      swap1\n      0xffffffff\n      and\n      jump\t// in\n    tag_166:\n        /* \"contracts/BountyEscrow.sol\":13845:13896  if (gross > 0) _usdc.safeTransfer(b.sponsor, gross) */\n    tag_165:\n        /* \"contracts/BountyEscrow.sol\":13930:13931  b */\n      dup2\n        /* \"contracts/BountyEscrow.sol\":13930:13939  b.sponsor */\n      0x01\n      add\n      0x00\n      swap1\n      sload\n      swap1\n      0x0100\n      exp\n      swap1\n      div\n      0xffffffffffffffffffffffffffffffffffffffff\n      and\n        /* \"contracts/BountyEscrow.sol\":13911:13947  Canceled(bountyId, b.sponsor, gross) */\n      0xffffffffffffffffffffffffffffffffffffffff\n      and\n        /* \"contracts/BountyEscrow.sol\":13920:13928  bountyId */\n      dup4\n        /* \"contracts/BountyEscrow.sol\":13911:13947  Canceled(bountyId, b.sponsor, gross) */\n      0x13ca42b383dddac8a499886c122185485535c8144d34355991f87265cfbee4cc\n        /* \"contracts/BountyEscrow.sol\":13941:13946  gross */\n      dup4\n        /* \"contracts/BountyEscrow.sol\":13911:13947  Canceled(bountyId, b.sponsor, gross) */\n      mload(0x40)\n      tag_168\n      swap2\n      swap1\n      tag_169\n      jump\t// in\n    tag_168:\n      mload(0x40)\n      dup1\n      swap2\n      sub\n      swap1\n      log3\n        /* \"contracts/BountyEscrow.sol\":13580:13954  {... */\n      pop\n      pop\n        /* \"@openzeppelin/contracts@5.0.2/utils/ReentrancyGuard.sol\":2398:2418  _nonReentrantAfter() */\n      tag_170\n        /* \"@openzeppelin/contracts@5.0.2/utils/ReentrancyGuard.sol\":2398:2416  _nonReentrantAfter */\n      tag_151\n        /* \"@openzeppelin/contracts@5.0.2/utils/ReentrancyGuard.sol\":2398:2418  _nonReentrantAfter() */\n      jump\t// in\n    tag_170:\n        /* \"contracts/BountyEscrow.sol\":13510:13954  function cancel(bytes32 bountyId) external nonReentrant whenNotPaused {... */\n      pop\n      jump\t// out\n        /* \"contracts/BountyEscrow.sol\":15397:15933  function refundExpired(... */\n    tag_71:\n        /* \"@openzeppelin/contracts@5.0.2/utils/ReentrancyGuard.sol\":2356:2377  _nonReentrantBefore() */\n      tag_172\n        /* \"@openzeppelin/contracts@5.0.2/utils/ReentrancyGuard.sol\":2356:2375  _nonReentrantBefore */\n      tag_126\n        /* \"@openzeppelin/contracts@5.0.2/utils/ReentrancyGuard.sol\":2356:2377  _nonReentrantBefore() */\n      jump\t// in\n    tag_172:\n        /* \"@openzeppelin/contracts@5.0.2/utils/Pausable.sol\":1474:1493  _requireNotPaused() */\n      tag_174\n        /* \"@openzeppelin/contracts@5.0.2/utils/Pausable.sol\":1474:1491  _requireNotPaused */\n      tag_129\n        /* \"@openzeppelin/contracts@5.0.2/utils/Pausable.sol\":1474:1493  _requireNotPaused() */\n      jump\t// in\n    tag_174:\n        /* \"contracts/BountyEscrow.sol\":15498:15514  Bounty storage b */\n      0x00\n        /* \"contracts/BountyEscrow.sol\":15517:15526  _bounties */\n      0x02\n        /* \"contracts/BountyEscrow.sol\":15517:15536  _bounties[bountyId] */\n      0x00\n        /* \"contracts/BountyEscrow.sol\":15527:15535  bountyId */\n      dup4\n        /* \"contracts/BountyEscrow.sol\":15517:15536  _bounties[bountyId] */\n      dup2\n      mstore\n      0x20\n      add\n      swap1\n      dup2\n      mstore\n      0x20\n      add\n      0x00\n      keccak256\n        /* \"contracts/BountyEscrow.sol\":15498:15536  Bounty storage b = _bounties[bountyId] */\n      swap1\n      pop\n        /* \"contracts/BountyEscrow.sol\":15562:15573  Status.Open */\n      0x01\n        /* \"contracts/BountyEscrow.sol\":15550:15573  b.status != Status.Open */\n      0x04\n      dup2\n      gt\n      iszero\n      tag_176\n      jumpi\n      tag_177\n      tag_101\n      jump\t// in\n    tag_177:\n    tag_176:\n        /* \"contracts/BountyEscrow.sol\":15550:15551  b */\n      dup2\n        /* \"contracts/BountyEscrow.sol\":15550:15558  b.status */\n      0x03\n      add\n      0x10\n      swap1\n      sload\n      swap1\n      0x0100\n      exp\n      swap1\n      div\n      0xff\n      and\n        /* \"contracts/BountyEscrow.sol\":15550:15573  b.status != Status.Open */\n      0x04\n      dup2\n      gt\n      iszero\n      tag_178\n      jumpi\n      tag_179\n      tag_101\n      jump\t// in\n    tag_179:\n    tag_178:\n      eq\n        /* \"contracts/BountyEscrow.sol\":15546:15591  if (b.status != Status.Open) revert NotOpen() */\n      tag_180\n      jumpi\n        /* \"contracts/BountyEscrow.sol\":15582:15591  NotOpen() */\n      mload(0x40)\n      0xddafad9800000000000000000000000000000000000000000000000000000000\n      dup2\n      mstore\n      0x04\n      add\n      mload(0x40)\n      dup1\n      swap2\n      sub\n      swap1\n      revert\n        /* \"contracts/BountyEscrow.sol\":15546:15591  if (b.status != Status.Open) revert NotOpen() */\n    tag_180:\n        /* \"contracts/BountyEscrow.sol\":15623:15624  b */\n      dup1\n        /* \"contracts/BountyEscrow.sol\":15623:15633  b.deadline */\n      0x03\n      add\n      0x00\n      swap1\n      sload\n      swap1\n      0x0100\n      exp\n      swap1\n      div\n      0xffffffffffffffff\n      and\n        /* \"contracts/BountyEscrow.sol\":15605:15633  block.timestamp < b.deadline */\n      0xffffffffffffffff\n      and\n        /* \"contracts/BountyEscrow.sol\":15605:15620  block.timestamp */\n      timestamp\n        /* \"contracts/BountyEscrow.sol\":15605:15633  block.timestamp < b.deadline */\n      lt\n        /* \"contracts/BountyEscrow.sol\":15601:15662  if (block.timestamp < b.deadline) revert DeadlineNotReached() */\n      iszero\n      tag_181\n      jumpi\n        /* \"contracts/BountyEscrow.sol\":15642:15662  DeadlineNotReached() */\n      mload(0x40)\n      0x66ec4ee600000000000000000000000000000000000000000000000000000000\n      dup2\n      mstore\n      0x04\n      add\n      mload(0x40)\n      dup1\n      swap2\n      sub\n      swap1\n      revert\n        /* \"contracts/BountyEscrow.sol\":15601:15662  if (block.timestamp < b.deadline) revert DeadlineNotReached() */\n    tag_181:\n        /* \"contracts/BountyEscrow.sol\":15690:15691  b */\n      dup1\n        /* \"contracts/BountyEscrow.sol\":15690:15699  b.sponsor */\n      0x01\n      add\n      0x00\n      swap1\n      sload\n      swap1\n      0x0100\n      exp\n      swap1\n      div\n      0xffffffffffffffffffffffffffffffffffffffff\n      and\n        /* \"contracts/BountyEscrow.sol\":15676:15699  msg.sender != b.sponsor */\n      0xffffffffffffffffffffffffffffffffffffffff\n      and\n        /* \"contracts/BountyEscrow.sol\":15676:15686  msg.sender */\n      caller\n        /* \"contracts/BountyEscrow.sol\":15676:15699  msg.sender != b.sponsor */\n      0xffffffffffffffffffffffffffffffffffffffff\n      and\n      eq\n        /* \"contracts/BountyEscrow.sol\":15672:15720  if (msg.sender != b.sponsor) revert NotSponsor() */\n      tag_182\n      jumpi\n        /* \"contracts/BountyEscrow.sol\":15708:15720  NotSponsor() */\n      mload(0x40)\n      0xdf4795c700000000000000000000000000000000000000000000000000000000\n      dup2\n      mstore\n      0x04\n      add\n      mload(0x40)\n      dup1\n      swap2\n      sub\n      swap1\n      revert\n        /* \"contracts/BountyEscrow.sol\":15672:15720  if (msg.sender != b.sponsor) revert NotSponsor() */\n    tag_182:\n        /* \"contracts/BountyEscrow.sol\":15742:15757  Status.Refunded */\n      0x03\n        /* \"contracts/BountyEscrow.sol\":15731:15732  b */\n      dup2\n        /* \"contracts/BountyEscrow.sol\":15731:15739  b.status */\n      0x03\n      add\n      0x10\n        /* \"contracts/BountyEscrow.sol\":15731:15757  b.status = Status.Refunded */\n      0x0100\n      exp\n      dup2\n      sload\n      dup2\n      0xff\n      mul\n      not\n      and\n      swap1\n      dup4\n      0x04\n      dup2\n      gt\n      iszero\n      tag_183\n      jumpi\n      tag_184\n      tag_101\n      jump\t// in\n    tag_184:\n    tag_183:\n      mul\n      or\n      swap1\n      sstore\n      pop\n        /* \"contracts/BountyEscrow.sol\":15767:15780  uint256 gross */\n      0x00\n        /* \"contracts/BountyEscrow.sol\":15783:15784  b */\n      dup2\n        /* \"contracts/BountyEscrow.sol\":15783:15791  b.amount */\n      0x02\n      add\n      0x14\n      swap1\n      sload\n      swap1\n      0x0100\n      exp\n      swap1\n      div\n      0xffffffffffffffffffffffff\n      and\n        /* \"contracts/BountyEscrow.sol\":15767:15791  uint256 gross = b.amount */\n      0xffffffffffffffffffffffff\n      and\n      swap1\n      pop\n        /* \"contracts/BountyEscrow.sol\":15812:15813  0 */\n      0x00\n        /* \"contracts/BountyEscrow.sol\":15801:15802  b */\n      dup3\n        /* \"contracts/BountyEscrow.sol\":15801:15809  b.amount */\n      0x02\n      add\n      0x14\n        /* \"contracts/BountyEscrow.sol\":15801:15813  b.amount = 0 */\n      0x0100\n      exp\n      dup2\n      sload\n      dup2\n      0xffffffffffffffffffffffff\n      mul\n      not\n      and\n      swap1\n      dup4\n      0xffffffffffffffffffffffff\n      and\n      mul\n      or\n      swap1\n      sstore\n      pop\n        /* \"contracts/BountyEscrow.sol\":15836:15837  0 */\n      0x00\n        /* \"contracts/BountyEscrow.sol\":15828:15833  gross */\n      dup2\n        /* \"contracts/BountyEscrow.sol\":15828:15837  gross > 0 */\n      gt\n        /* \"contracts/BountyEscrow.sol\":15824:15875  if (gross > 0) _usdc.safeTransfer(b.sponsor, gross) */\n      iszero\n      tag_185\n      jumpi\n        /* \"contracts/BountyEscrow.sol\":15839:15875  _usdc.safeTransfer(b.sponsor, gross) */\n      tag_186\n        /* \"contracts/BountyEscrow.sol\":15858:15859  b */\n      dup3\n        /* \"contracts/BountyEscrow.sol\":15858:15867  b.sponsor */\n      0x01\n      add\n      0x00\n      swap1\n      sload\n      swap1\n      0x0100\n      exp\n      swap1\n      div\n      0xffffffffffffffffffffffffffffffffffffffff\n      and\n        /* \"contracts/BountyEscrow.sol\":15869:15874  gross */\n      dup3\n        /* \"contracts/BountyEscrow.sol\":15839:15844  _usdc */\n      immutable(\"0xa1e6533663c54c1b5791904b25fce23e3c1243e7d3d63ac897424953dc652b69\")\n        /* \"contracts/BountyEscrow.sol\":15839:15857  _usdc.safeTransfer */\n      0xffffffffffffffffffffffffffffffffffffffff\n      and\n      tag_167\n      swap1\n        /* \"contracts/BountyEscrow.sol\":15839:15875  _usdc.safeTransfer(b.sponsor, gross) */\n      swap3\n      swap2\n      swap1\n      0xffffffff\n      and\n      jump\t// in\n    tag_186:\n        /* \"contracts/BountyEscrow.sol\":15824:15875  if (gross > 0) _usdc.safeTransfer(b.sponsor, gross) */\n    tag_185:\n        /* \"contracts/BountyEscrow.sol\":15909:15910  b */\n      dup2\n        /* \"contracts/BountyEscrow.sol\":15909:15918  b.sponsor */\n      0x01\n      add\n      0x00\n      swap1\n      sload\n      swap1\n      0x0100\n      exp\n      swap1\n      div\n      0xffffffffffffffffffffffffffffffffffffffff\n      and\n        /* \"contracts/BountyEscrow.sol\":15890:15926  Refunded(bountyId, b.sponsor, gross) */\n      0xffffffffffffffffffffffffffffffffffffffff\n      and\n        /* \"contracts/BountyEscrow.sol\":15899:15907  bountyId */\n      dup4\n        /* \"contracts/BountyEscrow.sol\":15890:15926  Refunded(bountyId, b.sponsor, gross) */\n      0xf552ca82e113ac3c539c3d617f29fcd19c172a0c75dad017555c9e109f7fe183\n        /* \"contracts/BountyEscrow.sol\":15920:15925  gross */\n      dup4\n        /* \"contracts/BountyEscrow.sol\":15890:15926  Refunded(bountyId, b.sponsor, gross) */\n      mload(0x40)\n      tag_187\n      swap2\n      swap1\n      tag_169\n      jump\t// in\n    tag_187:\n      mload(0x40)\n      dup1\n      swap2\n      sub\n      swap1\n      log3\n        /* \"contracts/BountyEscrow.sol\":15488:15933  {... */\n      pop\n      pop\n        /* \"@openzeppelin/contracts@5.0.2/utils/ReentrancyGuard.sol\":2398:2418  _nonReentrantAfter() */\n      tag_188\n        /* \"@openzeppelin/contracts@5.0.2/utils/ReentrancyGuard.sol\":2398:2416  _nonReentrantAfter */\n      tag_151\n        /* \"@openzeppelin/contracts@5.0.2/utils/ReentrancyGuard.sol\":2398:2418  _nonReentrantAfter() */\n      jump\t// in\n    tag_188:\n        /* \"contracts/BountyEscrow.sol\":15397:15933  function refundExpired(... */\n      pop\n      jump\t// out\n        /* \"contracts/BountyEscrow.sol\":9006:9242  function computeBountyId(... */\n    tag_75:\n        /* \"contracts/BountyEscrow.sol\":9139:9155  bytes32 bountyId */\n      0x00\n        /* \"contracts/BountyEscrow.sol\":9201:9208  sponsor */\n      dup4\n        /* \"contracts/BountyEscrow.sol\":9210:9220  repoIdHash */\n      dup4\n        /* \"contracts/BountyEscrow.sol\":9222:9233  issueNumber */\n      dup4\n        /* \"contracts/BountyEscrow.sol\":9184:9234  abi.encodePacked(sponsor, repoIdHash, issueNumber) */\n      add(0x20, mload(0x40))\n      tag_190\n      swap4\n      swap3\n      swap2\n      swap1\n      tag_191\n      jump\t// in\n    tag_190:\n      mload(0x40)\n      0x20\n      dup2\n      dup4\n      sub\n      sub\n      dup2\n      mstore\n      swap1\n      0x40\n      mstore\n        /* \"contracts/BountyEscrow.sol\":9174:9235  keccak256(abi.encodePacked(sponsor, repoIdHash, issueNumber)) */\n      dup1\n      mload\n      swap1\n      0x20\n      add\n      keccak256\n        /* \"contracts/BountyEscrow.sol\":9167:9235  return keccak256(abi.encodePacked(sponsor, repoIdHash, issueNumber)) */\n      swap1\n      pop\n        /* \"contracts/BountyEscrow.sol\":9006:9242  function computeBountyId(... */\n      swap4\n      swap3\n      pop\n      pop\n      pop\n      jump\t// out\n        /* \"contracts/BountyEscrow.sol\":14377:15136  function resolve(... */\n    tag_80:\n        /* \"@openzeppelin/contracts@5.0.2/utils/ReentrancyGuard.sol\":2356:2377  _nonReentrantBefore() */\n      tag_193\n        /* \"@openzeppelin/contracts@5.0.2/utils/ReentrancyGuard.sol\":2356:2375  _nonReentrantBefore */\n      tag_126\n        /* \"@openzeppelin/contracts@5.0.2/utils/ReentrancyGuard.sol\":2356:2377  _nonReentrantBefore() */\n      jump\t// in\n    tag_193:\n        /* \"@openzeppelin/contracts@5.0.2/utils/Pausable.sol\":1474:1493  _requireNotPaused() */\n      tag_195\n        /* \"@openzeppelin/contracts@5.0.2/utils/Pausable.sol\":1474:1491  _requireNotPaused */\n      tag_129\n        /* \"@openzeppelin/contracts@5.0.2/utils/Pausable.sol\":1474:1493  _requireNotPaused() */\n      jump\t// in\n    tag_195:\n        /* \"contracts/BountyEscrow.sol\":14524:14525  0 */\n      0x00\n        /* \"contracts/BountyEscrow.sol\":14503:14526  recipient == address(0) */\n      0xffffffffffffffffffffffffffffffffffffffff\n      and\n        /* \"contracts/BountyEscrow.sol\":14503:14512  recipient */\n      dup2\n        /* \"contracts/BountyEscrow.sol\":14503:14526  recipient == address(0) */\n      0xffffffffffffffffffffffffffffffffffffffff\n      and\n      sub\n        /* \"contracts/BountyEscrow.sol\":14499:14548  if (recipient == address(0)) revert ZeroAddress() */\n      tag_197\n      jumpi\n        /* \"contracts/BountyEscrow.sol\":14535:14548  ZeroAddress() */\n      mload(0x40)\n      0xd92e233d00000000000000000000000000000000000000000000000000000000\n      dup2\n      mstore\n      0x04\n      add\n      mload(0x40)\n      dup1\n      swap2\n      sub\n      swap1\n      revert\n        /* \"contracts/BountyEscrow.sol\":14499:14548  if (recipient == address(0)) revert ZeroAddress() */\n    tag_197:\n        /* \"contracts/BountyEscrow.sol\":14559:14575  Bounty storage b */\n      0x00\n        /* \"contracts/BountyEscrow.sol\":14578:14587  _bounties */\n      0x02\n        /* \"contracts/BountyEscrow.sol\":14578:14597  _bounties[bountyId] */\n      0x00\n        /* \"contracts/BountyEscrow.sol\":14588:14596  bountyId */\n      dup5\n        /* \"contracts/BountyEscrow.sol\":14578:14597  _bounties[bountyId] */\n      dup2\n      mstore\n      0x20\n      add\n      swap1\n      dup2\n      mstore\n      0x20\n      add\n      0x00\n      keccak256\n        /* \"contracts/BountyEscrow.sol\":14559:14597  Bounty storage b = _bounties[bountyId] */\n      swap1\n      pop\n        /* \"contracts/BountyEscrow.sol\":14623:14634  Status.Open */\n      0x01\n        /* \"contracts/BountyEscrow.sol\":14611:14634  b.status != Status.Open */\n      0x04\n      dup2\n      gt\n      iszero\n      tag_198\n      jumpi\n      tag_199\n      tag_101\n      jump\t// in\n    tag_199:\n    tag_198:\n        /* \"contracts/BountyEscrow.sol\":14611:14612  b */\n      dup2\n        /* \"contracts/BountyEscrow.sol\":14611:14619  b.status */\n      0x03\n      add\n      0x10\n      swap1\n      sload\n      swap1\n      0x0100\n      exp\n      swap1\n      div\n      0xff\n      and\n        /* \"contracts/BountyEscrow.sol\":14611:14634  b.status != Status.Open */\n      0x04\n      dup2\n      gt\n      iszero\n      tag_200\n      jumpi\n      tag_201\n      tag_101\n      jump\t// in\n    tag_201:\n    tag_200:\n      eq\n        /* \"contracts/BountyEscrow.sol\":14607:14652  if (b.status != Status.Open) revert NotOpen() */\n      tag_202\n      jumpi\n        /* \"contracts/BountyEscrow.sol\":14643:14652  NotOpen() */\n      mload(0x40)\n      0xddafad9800000000000000000000000000000000000000000000000000000000\n      dup2\n      mstore\n      0x04\n      add\n      mload(0x40)\n      dup1\n      swap2\n      sub\n      swap1\n      revert\n        /* \"contracts/BountyEscrow.sol\":14607:14652  if (b.status != Status.Open) revert NotOpen() */\n    tag_202:\n        /* \"contracts/BountyEscrow.sol\":14680:14681  b */\n      dup1\n        /* \"contracts/BountyEscrow.sol\":14680:14690  b.resolver */\n      0x02\n      add\n      0x00\n      swap1\n      sload\n      swap1\n      0x0100\n      exp\n      swap1\n      div\n      0xffffffffffffffffffffffffffffffffffffffff\n      and\n        /* \"contracts/BountyEscrow.sol\":14666:14690  msg.sender != b.resolver */\n      0xffffffffffffffffffffffffffffffffffffffff\n      and\n        /* \"contracts/BountyEscrow.sol\":14666:14676  msg.sender */\n      caller\n        /* \"contracts/BountyEscrow.sol\":14666:14690  msg.sender != b.resolver */\n      0xffffffffffffffffffffffffffffffffffffffff\n      and\n      eq\n        /* \"contracts/BountyEscrow.sol\":14662:14712  if (msg.sender != b.resolver) revert NotResolver() */\n      tag_203\n      jumpi\n        /* \"contracts/BountyEscrow.sol\":14699:14712  NotResolver() */\n      mload(0x40)\n      0xba2a9fc200000000000000000000000000000000000000000000000000000000\n      dup2\n      mstore\n      0x04\n      add\n      mload(0x40)\n      dup1\n      swap2\n      sub\n      swap1\n      revert\n        /* \"contracts/BountyEscrow.sol\":14662:14712  if (msg.sender != b.resolver) revert NotResolver() */\n    tag_203:\n        /* \"contracts/BountyEscrow.sol\":14734:14749  Status.Resolved */\n      0x02\n        /* \"contracts/BountyEscrow.sol\":14723:14724  b */\n      dup2\n        /* \"contracts/BountyEscrow.sol\":14723:14731  b.status */\n      0x03\n      add\n      0x10\n        /* \"contracts/BountyEscrow.sol\":14723:14749  b.status = Status.Resolved */\n      0x0100\n      exp\n      dup2\n      sload\n      dup2\n      0xff\n      mul\n      not\n      and\n      swap1\n      dup4\n      0x04\n      dup2\n      gt\n      iszero\n      tag_204\n      jumpi\n      tag_205\n      tag_101\n      jump\t// in\n    tag_205:\n    tag_204:\n      mul\n      or\n      swap1\n      sstore\n      pop\n        /* \"contracts/BountyEscrow.sol\":14759:14772  uint256 gross */\n      0x00\n        /* \"contracts/BountyEscrow.sol\":14775:14776  b */\n      dup2\n        /* \"contracts/BountyEscrow.sol\":14775:14783  b.amount */\n      0x02\n      add\n      0x14\n      swap1\n      sload\n      swap1\n      0x0100\n      exp\n      swap1\n      div\n      0xffffffffffffffffffffffff\n      and\n        /* \"contracts/BountyEscrow.sol\":14759:14783  uint256 gross = b.amount */\n      0xffffffffffffffffffffffff\n      and\n      swap1\n      pop\n        /* \"contracts/BountyEscrow.sol\":14804:14805  0 */\n      0x00\n        /* \"contracts/BountyEscrow.sol\":14793:14794  b */\n      dup3\n        /* \"contracts/BountyEscrow.sol\":14793:14801  b.amount */\n      0x02\n      add\n      0x14\n        /* \"contracts/BountyEscrow.sol\":14793:14805  b.amount = 0 */\n      0x0100\n      exp\n      dup2\n      sload\n      dup2\n      0xffffffffffffffffffffffff\n      mul\n      not\n      and\n      swap1\n      dup4\n      0xffffffffffffffffffffffff\n      and\n      mul\n      or\n      swap1\n      sstore\n      pop\n        /* \"contracts/BountyEscrow.sol\":14874:14885  uint256 fee */\n      0x00\n        /* \"contracts/BountyEscrow.sol\":14888:14925  Math.mulDiv(gross, feeBps, FEE_DENOM) */\n      tag_206\n        /* \"contracts/BountyEscrow.sol\":14900:14905  gross */\n      dup3\n        /* \"contracts/BountyEscrow.sol\":14907:14913  feeBps */\n      0x03\n      0x00\n      swap1\n      sload\n      swap1\n      0x0100\n      exp\n      swap1\n      div\n      0xffff\n      and\n        /* \"contracts/BountyEscrow.sol\":14888:14925  Math.mulDiv(gross, feeBps, FEE_DENOM) */\n      0xffff\n      and\n        /* \"contracts/BountyEscrow.sol\":2302:2308  10_000 */\n      0x2710\n        /* \"contracts/BountyEscrow.sol\":14888:14899  Math.mulDiv */\n      tag_207\n        /* \"contracts/BountyEscrow.sol\":14888:14925  Math.mulDiv(gross, feeBps, FEE_DENOM) */\n      jump\t// in\n    tag_206:\n        /* \"contracts/BountyEscrow.sol\":14874:14925  uint256 fee = Math.mulDiv(gross, feeBps, FEE_DENOM) */\n      swap1\n      pop\n        /* \"contracts/BountyEscrow.sol\":14935:14946  uint256 net */\n      0x00\n        /* \"contracts/BountyEscrow.sol\":14957:14960  fee */\n      dup2\n        /* \"contracts/BountyEscrow.sol\":14949:14954  gross */\n      dup4\n        /* \"contracts/BountyEscrow.sol\":14949:14960  gross - fee */\n      tag_208\n      swap2\n      swap1\n      tag_209\n      jump\t// in\n    tag_208:\n        /* \"contracts/BountyEscrow.sol\":14935:14960  uint256 net = gross - fee */\n      swap1\n      pop\n        /* \"contracts/BountyEscrow.sol\":14981:14982  0 */\n      0x00\n        /* \"contracts/BountyEscrow.sol\":14975:14978  net */\n      dup2\n        /* \"contracts/BountyEscrow.sol\":14975:14982  net > 0 */\n      gt\n        /* \"contracts/BountyEscrow.sol\":14971:15018  if (net > 0) _usdc.safeTransfer(recipient, net) */\n      iszero\n      tag_210\n      jumpi\n        /* \"contracts/BountyEscrow.sol\":14984:15018  _usdc.safeTransfer(recipient, net) */\n      tag_211\n        /* \"contracts/BountyEscrow.sol\":15003:15012  recipient */\n      dup6\n        /* \"contracts/BountyEscrow.sol\":15014:15017  net */\n      dup3\n        /* \"contracts/BountyEscrow.sol\":14984:14989  _usdc */\n      immutable(\"0xa1e6533663c54c1b5791904b25fce23e3c1243e7d3d63ac897424953dc652b69\")\n        /* \"contracts/BountyEscrow.sol\":14984:15002  _usdc.safeTransfer */\n      0xffffffffffffffffffffffffffffffffffffffff\n      and\n      tag_167\n      swap1\n        /* \"contracts/BountyEscrow.sol\":14984:15018  _usdc.safeTransfer(recipient, net) */\n      swap3\n      swap2\n      swap1\n      0xffffffff\n      and\n      jump\t// in\n    tag_211:\n        /* \"contracts/BountyEscrow.sol\":14971:15018  if (net > 0) _usdc.safeTransfer(recipient, net) */\n    tag_210:\n        /* \"contracts/BountyEscrow.sol\":15038:15039  0 */\n      0x00\n        /* \"contracts/BountyEscrow.sol\":15032:15035  fee */\n      dup3\n        /* \"contracts/BountyEscrow.sol\":15032:15039  fee > 0 */\n      gt\n        /* \"contracts/BountyEscrow.sol\":15028:15074  if (fee > 0) _usdc.safeTransfer(feeVault, fee) */\n      iszero\n      tag_212\n      jumpi\n        /* \"contracts/BountyEscrow.sol\":15041:15074  _usdc.safeTransfer(feeVault, fee) */\n      tag_213\n        /* \"contracts/BountyEscrow.sol\":15060:15068  feeVault */\n      0x03\n      0x02\n      swap1\n      sload\n      swap1\n      0x0100\n      exp\n      swap1\n      div\n      0xffffffffffffffffffffffffffffffffffffffff\n      and\n        /* \"contracts/BountyEscrow.sol\":15070:15073  fee */\n      dup4\n        /* \"contracts/BountyEscrow.sol\":15041:15046  _usdc */\n      immutable(\"0xa1e6533663c54c1b5791904b25fce23e3c1243e7d3d63ac897424953dc652b69\")\n        /* \"contracts/BountyEscrow.sol\":15041:15059  _usdc.safeTransfer */\n      0xffffffffffffffffffffffffffffffffffffffff\n      and\n      tag_167\n      swap1\n        /* \"contracts/BountyEscrow.sol\":15041:15074  _usdc.safeTransfer(feeVault, fee) */\n      swap3\n      swap2\n      swap1\n      0xffffffff\n      and\n      jump\t// in\n    tag_213:\n        /* \"contracts/BountyEscrow.sol\":15028:15074  if (fee > 0) _usdc.safeTransfer(feeVault, fee) */\n    tag_212:\n        /* \"contracts/BountyEscrow.sol\":15109:15118  recipient */\n      dup5\n        /* \"contracts/BountyEscrow.sol\":15090:15129  Resolved(bountyId, recipient, net, fee) */\n      0xffffffffffffffffffffffffffffffffffffffff\n      and\n        /* \"contracts/BountyEscrow.sol\":15099:15107  bountyId */\n      dup7\n        /* \"contracts/BountyEscrow.sol\":15090:15129  Resolved(bountyId, recipient, net, fee) */\n      0x461dc02513380b552c1c7e42377606be7a1c06610e50589fc4664dd29bf47fc0\n        /* \"contracts/BountyEscrow.sol\":15120:15123  net */\n      dup4\n        /* \"contracts/BountyEscrow.sol\":15125:15128  fee */\n      dup6\n        /* \"contracts/BountyEscrow.sol\":15090:15129  Resolved(bountyId, recipient, net, fee) */\n      mload(0x40)\n      tag_214\n      swap3\n      swap2\n      swap1\n      tag_215\n      jump\t// in\n    tag_214:\n      mload(0x40)\n      dup1\n      swap2\n      sub\n      swap1\n      log3\n        /* \"contracts/BountyEscrow.sol\":14489:15136  {... */\n      pop\n      pop\n      pop\n      pop\n        /* \"@openzeppelin/contracts@5.0.2/utils/ReentrancyGuard.sol\":2398:2418  _nonReentrantAfter() */\n      tag_216\n        /* \"@openzeppelin/contracts@5.0.2/utils/ReentrancyGuard.sol\":2398:2416  _nonReentrantAfter */\n      tag_151\n        /* \"@openzeppelin/contracts@5.0.2/utils/ReentrancyGuard.sol\":2398:2418  _nonReentrantAfter() */\n      jump\t// in\n    tag_216:\n        /* \"contracts/BountyEscrow.sol\":14377:15136  function resolve(... */\n      pop\n      pop\n      jump\t// out\n        /* \"contracts/BountyEscrow.sol\":2162:2204  uint16 public constant MAX_FEE_BPS = 1_000 */\n    tag_82:\n        /* \"contracts/BountyEscrow.sol\":2199:2204  1_000 */\n      0x03e8\n        /* \"contracts/BountyEscrow.sol\":2162:2204  uint16 public constant MAX_FEE_BPS = 1_000 */\n      dup2\n      jump\t// out\n        /* \"contracts/BountyEscrow.sol\":9908:10238  function setFeeParams(... */\n    tag_87:\n        /* \"@openzeppelin/contracts@5.0.2/access/Ownable.sol\":1531:1544  _checkOwner() */\n      tag_218\n        /* \"@openzeppelin/contracts@5.0.2/access/Ownable.sol\":1531:1542  _checkOwner */\n      tag_107\n        /* \"@openzeppelin/contracts@5.0.2/access/Ownable.sol\":1531:1544  _checkOwner() */\n      jump\t// in\n    tag_218:\n        /* \"contracts/BountyEscrow.sol\":10041:10042  0 */\n      0x00\n        /* \"contracts/BountyEscrow.sol\":10020:10043  _feeVault == address(0) */\n      0xffffffffffffffffffffffffffffffffffffffff\n      and\n        /* \"contracts/BountyEscrow.sol\":10020:10029  _feeVault */\n      dup2\n        /* \"contracts/BountyEscrow.sol\":10020:10043  _feeVault == address(0) */\n      0xffffffffffffffffffffffffffffffffffffffff\n      and\n      sub\n        /* \"contracts/BountyEscrow.sol\":10016:10065  if (_feeVault == address(0)) revert ZeroAddress() */\n      tag_220\n      jumpi\n        /* \"contracts/BountyEscrow.sol\":10052:10065  ZeroAddress() */\n      mload(0x40)\n      0xd92e233d00000000000000000000000000000000000000000000000000000000\n      dup2\n      mstore\n      0x04\n      add\n      mload(0x40)\n      dup1\n      swap2\n      sub\n      swap1\n      revert\n        /* \"contracts/BountyEscrow.sol\":10016:10065  if (_feeVault == address(0)) revert ZeroAddress() */\n    tag_220:\n        /* \"contracts/BountyEscrow.sol\":2199:2204  1_000 */\n      0x03e8\n        /* \"contracts/BountyEscrow.sol\":10079:10100  _feeBps > MAX_FEE_BPS */\n      0xffff\n      and\n        /* \"contracts/BountyEscrow.sol\":10079:10086  _feeBps */\n      dup3\n        /* \"contracts/BountyEscrow.sol\":10079:10100  _feeBps > MAX_FEE_BPS */\n      0xffff\n      and\n      gt\n        /* \"contracts/BountyEscrow.sol\":10075:10124  if (_feeBps > MAX_FEE_BPS) revert InvalidParams() */\n      iszero\n      tag_221\n      jumpi\n        /* \"contracts/BountyEscrow.sol\":10109:10124  InvalidParams() */\n      mload(0x40)\n      0xa86b651200000000000000000000000000000000000000000000000000000000\n      dup2\n      mstore\n      0x04\n      add\n      mload(0x40)\n      dup1\n      swap2\n      sub\n      swap1\n      revert\n        /* \"contracts/BountyEscrow.sol\":10075:10124  if (_feeBps > MAX_FEE_BPS) revert InvalidParams() */\n    tag_221:\n        /* \"contracts/BountyEscrow.sol\":10143:10150  _feeBps */\n      dup2\n        /* \"contracts/BountyEscrow.sol\":10134:10140  feeBps */\n      0x03\n      0x00\n        /* \"contracts/BountyEscrow.sol\":10134:10150  feeBps = _feeBps */\n      0x0100\n      exp\n      dup2\n      sload\n      dup2\n      0xffff\n      mul\n      not\n      and\n      swap1\n      dup4\n      0xffff\n      and\n      mul\n      or\n      swap1\n      sstore\n      pop\n        /* \"contracts/BountyEscrow.sol\":10171:10180  _feeVault */\n      dup1\n        /* \"contracts/BountyEscrow.sol\":10160:10168  feeVault */\n      0x03\n      0x02\n        /* \"contracts/BountyEscrow.sol\":10160:10180  feeVault = _feeVault */\n      0x0100\n      exp\n      dup2\n      sload\n      dup2\n      0xffffffffffffffffffffffffffffffffffffffff\n      mul\n      not\n      and\n      swap1\n      dup4\n      0xffffffffffffffffffffffffffffffffffffffff\n      and\n      mul\n      or\n      swap1\n      sstore\n      pop\n        /* \"contracts/BountyEscrow.sol\":10195:10231  FeeParamsUpdated(_feeBps, _feeVault) */\n      0x553bd03bb9146c7a9c7ad0a260aed36e8d47650815df076dfb60f9d47e6cf727\n        /* \"contracts/BountyEscrow.sol\":10212:10219  _feeBps */\n      dup3\n        /* \"contracts/BountyEscrow.sol\":10221:10230  _feeVault */\n      dup3\n        /* \"contracts/BountyEscrow.sol\":10195:10231  FeeParamsUpdated(_feeBps, _feeVault) */\n      mload(0x40)\n      tag_222\n      swap3\n      swap2\n      swap1\n      tag_223\n      jump\t// in\n    tag_222:\n      mload(0x40)\n      dup1\n      swap2\n      sub\n      swap1\n      log1\n        /* \"contracts/BountyEscrow.sol\":9908:10238  function setFeeParams(... */\n      pop\n      pop\n      jump\t// out\n        /* \"contracts/BountyEscrow.sol\":12648:13279  function fund(... */\n    tag_91:\n        /* \"@openzeppelin/contracts@5.0.2/utils/ReentrancyGuard.sol\":2356:2377  _nonReentrantBefore() */\n      tag_225\n        /* \"@openzeppelin/contracts@5.0.2/utils/ReentrancyGuard.sol\":2356:2375  _nonReentrantBefore */\n      tag_126\n        /* \"@openzeppelin/contracts@5.0.2/utils/ReentrancyGuard.sol\":2356:2377  _nonReentrantBefore() */\n      jump\t// in\n    tag_225:\n        /* \"@openzeppelin/contracts@5.0.2/utils/Pausable.sol\":1474:1493  _requireNotPaused() */\n      tag_227\n        /* \"@openzeppelin/contracts@5.0.2/utils/Pausable.sol\":1474:1491  _requireNotPaused */\n      tag_129\n        /* \"@openzeppelin/contracts@5.0.2/utils/Pausable.sol\":1474:1493  _requireNotPaused() */\n      jump\t// in\n    tag_227:\n        /* \"contracts/BountyEscrow.sol\":12764:12780  Bounty storage b */\n      0x00\n        /* \"contracts/BountyEscrow.sol\":12783:12792  _bounties */\n      0x02\n        /* \"contracts/BountyEscrow.sol\":12783:12802  _bounties[bountyId] */\n      0x00\n        /* \"contracts/BountyEscrow.sol\":12793:12801  bountyId */\n      dup5\n        /* \"contracts/BountyEscrow.sol\":12783:12802  _bounties[bountyId] */\n      dup2\n      mstore\n      0x20\n      add\n      swap1\n      dup2\n      mstore\n      0x20\n      add\n      0x00\n      keccak256\n        /* \"contracts/BountyEscrow.sol\":12764:12802  Bounty storage b = _bounties[bountyId] */\n      swap1\n      pop\n        /* \"contracts/BountyEscrow.sol\":12828:12839  Status.Open */\n      0x01\n        /* \"contracts/BountyEscrow.sol\":12816:12839  b.status != Status.Open */\n      0x04\n      dup2\n      gt\n      iszero\n      tag_229\n      jumpi\n      tag_230\n      tag_101\n      jump\t// in\n    tag_230:\n    tag_229:\n        /* \"contracts/BountyEscrow.sol\":12816:12817  b */\n      dup2\n        /* \"contracts/BountyEscrow.sol\":12816:12824  b.status */\n      0x03\n      add\n      0x10\n      swap1\n      sload\n      swap1\n      0x0100\n      exp\n      swap1\n      div\n      0xff\n      and\n        /* \"contracts/BountyEscrow.sol\":12816:12839  b.status != Status.Open */\n      0x04\n      dup2\n      gt\n      iszero\n      tag_231\n      jumpi\n      tag_232\n      tag_101\n      jump\t// in\n    tag_232:\n    tag_231:\n      eq\n        /* \"contracts/BountyEscrow.sol\":12812:12857  if (b.status != Status.Open) revert NotOpen() */\n      tag_233\n      jumpi\n        /* \"contracts/BountyEscrow.sol\":12848:12857  NotOpen() */\n      mload(0x40)\n      0xddafad9800000000000000000000000000000000000000000000000000000000\n      dup2\n      mstore\n      0x04\n      add\n      mload(0x40)\n      dup1\n      swap2\n      sub\n      swap1\n      revert\n        /* \"contracts/BountyEscrow.sol\":12812:12857  if (b.status != Status.Open) revert NotOpen() */\n    tag_233:\n        /* \"contracts/BountyEscrow.sol\":12885:12886  b */\n      dup1\n        /* \"contracts/BountyEscrow.sol\":12885:12894  b.sponsor */\n      0x01\n      add\n      0x00\n      swap1\n      sload\n      swap1\n      0x0100\n      exp\n      swap1\n      div\n      0xffffffffffffffffffffffffffffffffffffffff\n      and\n        /* \"contracts/BountyEscrow.sol\":12871:12894  msg.sender != b.sponsor */\n      0xffffffffffffffffffffffffffffffffffffffff\n      and\n        /* \"contracts/BountyEscrow.sol\":12871:12881  msg.sender */\n      caller\n        /* \"contracts/BountyEscrow.sol\":12871:12894  msg.sender != b.sponsor */\n      0xffffffffffffffffffffffffffffffffffffffff\n      and\n      eq\n        /* \"contracts/BountyEscrow.sol\":12867:12915  if (msg.sender != b.sponsor) revert NotSponsor() */\n      tag_234\n      jumpi\n        /* \"contracts/BountyEscrow.sol\":12903:12915  NotSponsor() */\n      mload(0x40)\n      0xdf4795c700000000000000000000000000000000000000000000000000000000\n      dup2\n      mstore\n      0x04\n      add\n      mload(0x40)\n      dup1\n      swap2\n      sub\n      swap1\n      revert\n        /* \"contracts/BountyEscrow.sol\":12867:12915  if (msg.sender != b.sponsor) revert NotSponsor() */\n    tag_234:\n        /* \"contracts/BountyEscrow.sol\":12939:12940  0 */\n      0x00\n        /* \"contracts/BountyEscrow.sol\":12929:12935  amount */\n      dup3\n        /* \"contracts/BountyEscrow.sol\":12929:12940  amount == 0 */\n      sub\n        /* \"contracts/BountyEscrow.sol\":12925:12961  if (amount == 0) revert ZeroAmount() */\n      tag_235\n      jumpi\n        /* \"contracts/BountyEscrow.sol\":12949:12961  ZeroAmount() */\n      mload(0x40)\n      0x1f2a200500000000000000000000000000000000000000000000000000000000\n      dup2\n      mstore\n      0x04\n      add\n      mload(0x40)\n      dup1\n      swap2\n      sub\n      swap1\n      revert\n        /* \"contracts/BountyEscrow.sol\":12925:12961  if (amount == 0) revert ZeroAmount() */\n    tag_235:\n        /* \"contracts/BountyEscrow.sol\":13020:13034  uint256 newAmt */\n      0x00\n        /* \"contracts/BountyEscrow.sol\":13057:13063  amount */\n      dup3\n        /* \"contracts/BountyEscrow.sol\":13045:13046  b */\n      dup3\n        /* \"contracts/BountyEscrow.sol\":13045:13053  b.amount */\n      0x02\n      add\n      0x14\n      swap1\n      sload\n      swap1\n      0x0100\n      exp\n      swap1\n      div\n      0xffffffffffffffffffffffff\n      and\n        /* \"contracts/BountyEscrow.sol\":13037:13054  uint256(b.amount) */\n      0xffffffffffffffffffffffff\n      and\n        /* \"contracts/BountyEscrow.sol\":13037:13063  uint256(b.amount) + amount */\n      tag_236\n      swap2\n      swap1\n      tag_237\n      jump\t// in\n    tag_236:\n        /* \"contracts/BountyEscrow.sol\":13020:13063  uint256 newAmt = uint256(b.amount) + amount */\n      swap1\n      pop\n        /* \"contracts/BountyEscrow.sol\":13086:13102  type(uint96).max */\n      0xffffffffffffffffffffffff\n        /* \"contracts/BountyEscrow.sol\":13077:13102  newAmt > type(uint96).max */\n      dup1\n      and\n        /* \"contracts/BountyEscrow.sol\":13077:13083  newAmt */\n      dup2\n        /* \"contracts/BountyEscrow.sol\":13077:13102  newAmt > type(uint96).max */\n      gt\n        /* \"contracts/BountyEscrow.sol\":13073:13126  if (newAmt > type(uint96).max) revert InvalidParams() */\n      iszero\n      tag_238\n      jumpi\n        /* \"contracts/BountyEscrow.sol\":13111:13126  InvalidParams() */\n      mload(0x40)\n      0xa86b651200000000000000000000000000000000000000000000000000000000\n      dup2\n      mstore\n      0x04\n      add\n      mload(0x40)\n      dup1\n      swap2\n      sub\n      swap1\n      revert\n        /* \"contracts/BountyEscrow.sol\":13073:13126  if (newAmt > type(uint96).max) revert InvalidParams() */\n    tag_238:\n        /* \"contracts/BountyEscrow.sol\":13147:13164  newAmt.toUint96() */\n      tag_239\n        /* \"contracts/BountyEscrow.sol\":13147:13153  newAmt */\n      dup2\n        /* \"contracts/BountyEscrow.sol\":13147:13162  newAmt.toUint96 */\n      tag_143\n        /* \"contracts/BountyEscrow.sol\":13147:13164  newAmt.toUint96() */\n      jump\t// in\n    tag_239:\n        /* \"contracts/BountyEscrow.sol\":13136:13137  b */\n      dup3\n        /* \"contracts/BountyEscrow.sol\":13136:13144  b.amount */\n      0x02\n      add\n      0x14\n        /* \"contracts/BountyEscrow.sol\":13136:13164  b.amount = newAmt.toUint96() */\n      0x0100\n      exp\n      dup2\n      sload\n      dup2\n      0xffffffffffffffffffffffff\n      mul\n      not\n      and\n      swap1\n      dup4\n      0xffffffffffffffffffffffff\n      and\n      mul\n      or\n      swap1\n      sstore\n      pop\n        /* \"contracts/BountyEscrow.sol\":13175:13232  _usdc.safeTransferFrom(msg.sender, address(this), amount) */\n      tag_240\n        /* \"contracts/BountyEscrow.sol\":13198:13208  msg.sender */\n      caller\n        /* \"contracts/BountyEscrow.sol\":13218:13222  this */\n      address\n        /* \"contracts/BountyEscrow.sol\":13225:13231  amount */\n      dup6\n        /* \"contracts/BountyEscrow.sol\":13175:13180  _usdc */\n      immutable(\"0xa1e6533663c54c1b5791904b25fce23e3c1243e7d3d63ac897424953dc652b69\")\n        /* \"contracts/BountyEscrow.sol\":13175:13197  _usdc.safeTransferFrom */\n      0xffffffffffffffffffffffffffffffffffffffff\n      and\n      tag_147\n      swap1\n        /* \"contracts/BountyEscrow.sol\":13175:13232  _usdc.safeTransferFrom(msg.sender, address(this), amount) */\n      swap4\n      swap3\n      swap2\n      swap1\n      0xffffffff\n      and\n      jump\t// in\n    tag_240:\n        /* \"contracts/BountyEscrow.sol\":13255:13263  bountyId */\n      dup4\n        /* \"contracts/BountyEscrow.sol\":13248:13272  Funded(bountyId, newAmt) */\n      0x9f4592c3bd42bd33860ee93dc92d07f06e3f4fb6e19a9ca214982fe7c1bdb037\n        /* \"contracts/BountyEscrow.sol\":13265:13271  newAmt */\n      dup3\n        /* \"contracts/BountyEscrow.sol\":13248:13272  Funded(bountyId, newAmt) */\n      mload(0x40)\n      tag_241\n      swap2\n      swap1\n      tag_169\n      jump\t// in\n    tag_241:\n      mload(0x40)\n      dup1\n      swap2\n      sub\n      swap1\n      log2\n        /* \"contracts/BountyEscrow.sol\":12754:13279  {... */\n      pop\n      pop\n        /* \"@openzeppelin/contracts@5.0.2/utils/ReentrancyGuard.sol\":2398:2418  _nonReentrantAfter() */\n      tag_242\n        /* \"@openzeppelin/contracts@5.0.2/utils/ReentrancyGuard.sol\":2398:2416  _nonReentrantAfter */\n      tag_151\n        /* \"@openzeppelin/contracts@5.0.2/utils/ReentrancyGuard.sol\":2398:2418  _nonReentrantAfter() */\n      jump\t// in\n    tag_242:\n        /* \"contracts/BountyEscrow.sol\":12648:13279  function fund(... */\n      pop\n      pop\n      jump\t// out\n        /* \"@openzeppelin/contracts@5.0.2/access/Ownable.sol\":2543:2758  function transferOwnership(address newOwner) public virtual onlyOwner {... */\n    tag_95:\n        /* \"@openzeppelin/contracts@5.0.2/access/Ownable.sol\":1531:1544  _checkOwner() */\n      tag_244\n        /* \"@openzeppelin/contracts@5.0.2/access/Ownable.sol\":1531:1542  _checkOwner */\n      tag_107\n        /* \"@openzeppelin/contracts@5.0.2/access/Ownable.sol\":1531:1544  _checkOwner() */\n      jump\t// in\n    tag_244:\n        /* \"@openzeppelin/contracts@5.0.2/access/Ownable.sol\":2647:2648  0 */\n      0x00\n        /* \"@openzeppelin/contracts@5.0.2/access/Ownable.sol\":2627:2649  newOwner == address(0) */\n      0xffffffffffffffffffffffffffffffffffffffff\n      and\n        /* \"@openzeppelin/contracts@5.0.2/access/Ownable.sol\":2627:2635  newOwner */\n      dup2\n        /* \"@openzeppelin/contracts@5.0.2/access/Ownable.sol\":2627:2649  newOwner == address(0) */\n      0xffffffffffffffffffffffffffffffffffffffff\n      and\n      sub\n        /* \"@openzeppelin/contracts@5.0.2/access/Ownable.sol\":2623:2714  if (newOwner == address(0)) {... */\n      tag_246\n      jumpi\n        /* \"@openzeppelin/contracts@5.0.2/access/Ownable.sol\":2700:2701  0 */\n      0x00\n        /* \"@openzeppelin/contracts@5.0.2/access/Ownable.sol\":2672:2703  OwnableInvalidOwner(address(0)) */\n      mload(0x40)\n      0x1e4fbdf700000000000000000000000000000000000000000000000000000000\n      dup2\n      mstore\n      0x04\n      add\n      tag_247\n      swap2\n      swap1\n      tag_44\n      jump\t// in\n    tag_247:\n      mload(0x40)\n      dup1\n      swap2\n      sub\n      swap1\n      revert\n        /* \"@openzeppelin/contracts@5.0.2/access/Ownable.sol\":2623:2714  if (newOwner == address(0)) {... */\n    tag_246:\n        /* \"@openzeppelin/contracts@5.0.2/access/Ownable.sol\":2723:2751  _transferOwnership(newOwner) */\n      tag_248\n        /* \"@openzeppelin/contracts@5.0.2/access/Ownable.sol\":2742:2750  newOwner */\n      dup2\n        /* \"@openzeppelin/contracts@5.0.2/access/Ownable.sol\":2723:2741  _transferOwnership */\n      tag_116\n        /* \"@openzeppelin/contracts@5.0.2/access/Ownable.sol\":2723:2751  _transferOwnership(newOwner) */\n      jump\t// in\n    tag_248:\n        /* \"@openzeppelin/contracts@5.0.2/access/Ownable.sol\":2543:2758  function transferOwnership(address newOwner) public virtual onlyOwner {... */\n      pop\n      jump\t// out\n        /* \"@openzeppelin/contracts@5.0.2/access/Ownable.sol\":1796:1958  function _checkOwner() internal view virtual {... */\n    tag_107:\n        /* \"@openzeppelin/contracts@5.0.2/access/Ownable.sol\":1866:1878  _msgSender() */\n      tag_250\n        /* \"@openzeppelin/contracts@5.0.2/access/Ownable.sol\":1866:1876  _msgSender */\n      tag_251\n        /* \"@openzeppelin/contracts@5.0.2/access/Ownable.sol\":1866:1878  _msgSender() */\n      jump\t// in\n    tag_250:\n        /* \"@openzeppelin/contracts@5.0.2/access/Ownable.sol\":1855:1878  owner() != _msgSender() */\n      0xffffffffffffffffffffffffffffffffffffffff\n      and\n        /* \"@openzeppelin/contracts@5.0.2/access/Ownable.sol\":1855:1862  owner() */\n      tag_252\n        /* \"@openzeppelin/contracts@5.0.2/access/Ownable.sol\":1855:1860  owner */\n      tag_58\n        /* \"@openzeppelin/contracts@5.0.2/access/Ownable.sol\":1855:1862  owner() */\n      jump\t// in\n    tag_252:\n        /* \"@openzeppelin/contracts@5.0.2/access/Ownable.sol\":1855:1878  owner() != _msgSender() */\n      0xffffffffffffffffffffffffffffffffffffffff\n      and\n      eq\n        /* \"@openzeppelin/contracts@5.0.2/access/Ownable.sol\":1851:1952  if (owner() != _msgSender()) {... */\n      tag_253\n      jumpi\n        /* \"@openzeppelin/contracts@5.0.2/access/Ownable.sol\":1928:1940  _msgSender() */\n      tag_254\n        /* \"@openzeppelin/contracts@5.0.2/access/Ownable.sol\":1928:1938  _msgSender */\n      tag_251\n        /* \"@openzeppelin/contracts@5.0.2/access/Ownable.sol\":1928:1940  _msgSender() */\n      jump\t// in\n    tag_254:\n        /* \"@openzeppelin/contracts@5.0.2/access/Ownable.sol\":1901:1941  OwnableUnauthorizedAccount(_msgSender()) */\n      mload(0x40)\n      0x118cdaa700000000000000000000000000000000000000000000000000000000\n      dup2\n      mstore\n      0x04\n      add\n      tag_255\n      swap2\n      swap1\n      tag_44\n      jump\t// in\n    tag_255:\n      mload(0x40)\n      dup1\n      swap2\n      sub\n      swap1\n      revert\n        /* \"@openzeppelin/contracts@5.0.2/access/Ownable.sol\":1851:1952  if (owner() != _msgSender()) {... */\n    tag_253:\n        /* \"@openzeppelin/contracts@5.0.2/access/Ownable.sol\":1796:1958  function _checkOwner() internal view virtual {... */\n      jump\t// out\n        /* \"@openzeppelin/contracts@5.0.2/utils/Pausable.sol\":2710:2827  function _unpause() internal virtual whenPaused {... */\n    tag_110:\n        /* \"@openzeppelin/contracts@5.0.2/utils/Pausable.sol\":1721:1737  _requirePaused() */\n      tag_257\n        /* \"@openzeppelin/contracts@5.0.2/utils/Pausable.sol\":1721:1735  _requirePaused */\n      tag_258\n        /* \"@openzeppelin/contracts@5.0.2/utils/Pausable.sol\":1721:1737  _requirePaused() */\n      jump\t// in\n    tag_257:\n        /* \"@openzeppelin/contracts@5.0.2/utils/Pausable.sol\":2778:2783  false */\n      0x00\n        /* \"@openzeppelin/contracts@5.0.2/utils/Pausable.sol\":2768:2775  _paused */\n      0x01\n      0x00\n        /* \"@openzeppelin/contracts@5.0.2/utils/Pausable.sol\":2768:2783  _paused = false */\n      0x0100\n      exp\n      dup2\n      sload\n      dup2\n      0xff\n      mul\n      not\n      and\n      swap1\n      dup4\n      iszero\n      iszero\n      mul\n      or\n      swap1\n      sstore\n      pop\n        /* \"@openzeppelin/contracts@5.0.2/utils/Pausable.sol\":2798:2820  Unpaused(_msgSender()) */\n      0x5db9ee0a495bf2e6ff9c91a7834c1ba4fdd244a5e8aa4e537bd38aeae4b073aa\n        /* \"@openzeppelin/contracts@5.0.2/utils/Pausable.sol\":2807:2819  _msgSender() */\n      tag_260\n        /* \"@openzeppelin/contracts@5.0.2/utils/Pausable.sol\":2807:2817  _msgSender */\n      tag_251\n        /* \"@openzeppelin/contracts@5.0.2/utils/Pausable.sol\":2807:2819  _msgSender() */\n      jump\t// in\n    tag_260:\n        /* \"@openzeppelin/contracts@5.0.2/utils/Pausable.sol\":2798:2820  Unpaused(_msgSender()) */\n      mload(0x40)\n      tag_261\n      swap2\n      swap1\n      tag_44\n      jump\t// in\n    tag_261:\n      mload(0x40)\n      dup1\n      swap2\n      sub\n      swap1\n      log1\n        /* \"@openzeppelin/contracts@5.0.2/utils/Pausable.sol\":2710:2827  function _unpause() internal virtual whenPaused {... */\n      jump\t// out\n        /* \"@openzeppelin/contracts@5.0.2/access/Ownable.sol\":2912:3099  function _transferOwnership(address newOwner) internal virtual {... */\n    tag_116:\n        /* \"@openzeppelin/contracts@5.0.2/access/Ownable.sol\":2985:3001  address oldOwner */\n      0x00\n        /* \"@openzeppelin/contracts@5.0.2/access/Ownable.sol\":3004:3010  _owner */\n      0x01\n      dup1\n      sload\n      swap1\n      0x0100\n      exp\n      swap1\n      div\n      0xffffffffffffffffffffffffffffffffffffffff\n      and\n        /* \"@openzeppelin/contracts@5.0.2/access/Ownable.sol\":2985:3010  address oldOwner = _owner */\n      swap1\n      pop\n        /* \"@openzeppelin/contracts@5.0.2/access/Ownable.sol\":3029:3037  newOwner */\n      dup2\n        /* \"@openzeppelin/contracts@5.0.2/access/Ownable.sol\":3020:3026  _owner */\n      0x01\n      dup1\n        /* \"@openzeppelin/contracts@5.0.2/access/Ownable.sol\":3020:3037  _owner = newOwner */\n      0x0100\n      exp\n      dup2\n      sload\n      dup2\n      0xffffffffffffffffffffffffffffffffffffffff\n      mul\n      not\n      and\n      swap1\n      dup4\n      0xffffffffffffffffffffffffffffffffffffffff\n      and\n      mul\n      or\n      swap1\n      sstore\n      pop\n        /* \"@openzeppelin/contracts@5.0.2/access/Ownable.sol\":3083:3091  newOwner */\n      dup2\n        /* \"@openzeppelin/contracts@5.0.2/access/Ownable.sol\":3052:3092  OwnershipTransferred(oldOwner, newOwner) */\n      0xffffffffffffffffffffffffffffffffffffffff\n      and\n        /* \"@openzeppelin/contracts@5.0.2/access/Ownable.sol\":3073:3081  oldOwner */\n      dup2\n        /* \"@openzeppelin/contracts@5.0.2/access/Ownable.sol\":3052:3092  OwnershipTransferred(oldOwner, newOwner) */\n      0xffffffffffffffffffffffffffffffffffffffff\n      and\n      0x8be0079c531659141344cd1fd0a4f28419497f9722a3daafe3b4186f6b6457e0\n      mload(0x40)\n      mload(0x40)\n      dup1\n      swap2\n      sub\n      swap1\n      log3\n        /* \"@openzeppelin/contracts@5.0.2/access/Ownable.sol\":2975:3099  {... */\n      pop\n        /* \"@openzeppelin/contracts@5.0.2/access/Ownable.sol\":2912:3099  function _transferOwnership(address newOwner) internal virtual {... */\n      pop\n      jump\t// out\n        /* \"@openzeppelin/contracts@5.0.2/utils/Pausable.sol\":2463:2578  function _pause() internal virtual whenNotPaused {... */\n    tag_122:\n        /* \"@openzeppelin/contracts@5.0.2/utils/Pausable.sol\":1474:1493  _requireNotPaused() */\n      tag_264\n        /* \"@openzeppelin/contracts@5.0.2/utils/Pausable.sol\":1474:1491  _requireNotPaused */\n      tag_129\n        /* \"@openzeppelin/contracts@5.0.2/utils/Pausable.sol\":1474:1493  _requireNotPaused() */\n      jump\t// in\n    tag_264:\n        /* \"@openzeppelin/contracts@5.0.2/utils/Pausable.sol\":2532:2536  true */\n      0x01\n        /* \"@openzeppelin/contracts@5.0.2/utils/Pausable.sol\":2522:2529  _paused */\n      dup1\n      0x00\n        /* \"@openzeppelin/contracts@5.0.2/utils/Pausable.sol\":2522:2536  _paused = true */\n      0x0100\n      exp\n      dup2\n      sload\n      dup2\n      0xff\n      mul\n      not\n      and\n      swap1\n      dup4\n      iszero\n      iszero\n      mul\n      or\n      swap1\n      sstore\n      pop\n        /* \"@openzeppelin/contracts@5.0.2/utils/Pausable.sol\":2551:2571  Paused(_msgSender()) */\n      0x62e78cea01bee320cd4e420270b5ea74000d11b0c9f74754ebdbfc544b05a258\n        /* \"@openzeppelin/contracts@5.0.2/utils/Pausable.sol\":2558:2570  _msgSender() */\n      tag_266\n        /* \"@openzeppelin/contracts@5.0.2/utils/Pausable.sol\":2558:2568  _msgSender */\n      tag_251\n        /* \"@openzeppelin/contracts@5.0.2/utils/Pausable.sol\":2558:2570  _msgSender() */\n      jump\t// in\n    tag_266:\n        /* \"@openzeppelin/contracts@5.0.2/utils/Pausable.sol\":2551:2571  Paused(_msgSender()) */\n      mload(0x40)\n      tag_267\n      swap2\n      swap1\n      tag_44\n      jump\t// in\n    tag_267:\n      mload(0x40)\n      dup1\n      swap2\n      sub\n      swap1\n      log1\n        /* \"@openzeppelin/contracts@5.0.2/utils/Pausable.sol\":2463:2578  function _pause() internal virtual whenNotPaused {... */\n      jump\t// out\n        /* \"@openzeppelin/contracts@5.0.2/utils/ReentrancyGuard.sol\":2431:2738  function _nonReentrantBefore() private {... */\n    tag_126:\n        /* \"@openzeppelin/contracts@5.0.2/utils/ReentrancyGuard.sol\":1755:1756  2 */\n      0x02\n        /* \"@openzeppelin/contracts@5.0.2/utils/ReentrancyGuard.sol\":2558:2565  _status */\n      sload(0x00)\n        /* \"@openzeppelin/contracts@5.0.2/utils/ReentrancyGuard.sol\":2558:2576  _status == ENTERED */\n      sub\n        /* \"@openzeppelin/contracts@5.0.2/utils/ReentrancyGuard.sol\":2554:2640  if (_status == ENTERED) {... */\n      tag_269\n      jumpi\n        /* \"@openzeppelin/contracts@5.0.2/utils/ReentrancyGuard.sol\":2599:2629  ReentrancyGuardReentrantCall() */\n      mload(0x40)\n      0x3ee5aeb500000000000000000000000000000000000000000000000000000000\n      dup2\n      mstore\n      0x04\n      add\n      mload(0x40)\n      dup1\n      swap2\n      sub\n      swap1\n      revert\n        /* \"@openzeppelin/contracts@5.0.2/utils/ReentrancyGuard.sol\":2554:2640  if (_status == ENTERED) {... */\n    tag_269:\n        /* \"@openzeppelin/contracts@5.0.2/utils/ReentrancyGuard.sol\":1755:1756  2 */\n      0x02\n        /* \"@openzeppelin/contracts@5.0.2/utils/ReentrancyGuard.sol\":2714:2721  _status */\n      0x00\n        /* \"@openzeppelin/contracts@5.0.2/utils/ReentrancyGuard.sol\":2714:2731  _status = ENTERED */\n      dup2\n      swap1\n      sstore\n      pop\n        /* \"@openzeppelin/contracts@5.0.2/utils/ReentrancyGuard.sol\":2431:2738  function _nonReentrantBefore() private {... */\n      jump\t// out\n        /* \"@openzeppelin/contracts@5.0.2/utils/Pausable.sol\":2002:2130  function _requireNotPaused() internal view virtual {... */\n    tag_129:\n        /* \"@openzeppelin/contracts@5.0.2/utils/Pausable.sol\":2067:2075  paused() */\n      tag_271\n        /* \"@openzeppelin/contracts@5.0.2/utils/Pausable.sol\":2067:2073  paused */\n      tag_46\n        /* \"@openzeppelin/contracts@5.0.2/utils/Pausable.sol\":2067:2075  paused() */\n      jump\t// in\n    tag_271:\n        /* \"@openzeppelin/contracts@5.0.2/utils/Pausable.sol\":2063:2124  if (paused()) {... */\n      iszero\n      tag_272\n      jumpi\n        /* \"@openzeppelin/contracts@5.0.2/utils/Pausable.sol\":2098:2113  EnforcedPause() */\n      mload(0x40)\n      0xd93c066500000000000000000000000000000000000000000000000000000000\n      dup2\n      mstore\n      0x04\n      add\n      mload(0x40)\n      dup1\n      swap2\n      sub\n      swap1\n      revert\n        /* \"@openzeppelin/contracts@5.0.2/utils/Pausable.sol\":2063:2124  if (paused()) {... */\n    tag_272:\n        /* \"@openzeppelin/contracts@5.0.2/utils/Pausable.sol\":2002:2130  function _requireNotPaused() internal view virtual {... */\n      jump\t// out\n        /* \"@openzeppelin/contracts@5.0.2/utils/math/SafeCast.sol\":11291:11504  function toUint96(uint256 value) internal pure returns (uint96) {... */\n    tag_143:\n        /* \"@openzeppelin/contracts@5.0.2/utils/math/SafeCast.sol\":11347:11353  uint96 */\n      0x00\n        /* \"@openzeppelin/contracts@5.0.2/utils/math/SafeCast.sol\":11377:11393  type(uint96).max */\n      0xffffffffffffffffffffffff\n        /* \"@openzeppelin/contracts@5.0.2/utils/math/SafeCast.sol\":11369:11393  value > type(uint96).max */\n      dup1\n      and\n        /* \"@openzeppelin/contracts@5.0.2/utils/math/SafeCast.sol\":11369:11374  value */\n      dup3\n        /* \"@openzeppelin/contracts@5.0.2/utils/math/SafeCast.sol\":11369:11393  value > type(uint96).max */\n      gt\n        /* \"@openzeppelin/contracts@5.0.2/utils/math/SafeCast.sol\":11365:11468  if (value > type(uint96).max) {... */\n      iszero\n      tag_274\n      jumpi\n        /* \"@openzeppelin/contracts@5.0.2/utils/math/SafeCast.sol\":11447:11449  96 */\n      0x60\n        /* \"@openzeppelin/contracts@5.0.2/utils/math/SafeCast.sol\":11451:11456  value */\n      dup3\n        /* \"@openzeppelin/contracts@5.0.2/utils/math/SafeCast.sol\":11416:11457  SafeCastOverflowedUintDowncast(96, value) */\n      mload(0x40)\n      0x6dfcc65000000000000000000000000000000000000000000000000000000000\n      dup2\n      mstore\n      0x04\n      add\n      tag_275\n      swap3\n      swap2\n      swap1\n      tag_276\n      jump\t// in\n    tag_275:\n      mload(0x40)\n      dup1\n      swap2\n      sub\n      swap1\n      revert\n        /* \"@openzeppelin/contracts@5.0.2/utils/math/SafeCast.sol\":11365:11468  if (value > type(uint96).max) {... */\n    tag_274:\n        /* \"@openzeppelin/contracts@5.0.2/utils/math/SafeCast.sol\":11491:11496  value */\n      dup2\n        /* \"@openzeppelin/contracts@5.0.2/utils/math/SafeCast.sol\":11477:11497  return uint96(value) */\n      swap1\n      pop\n        /* \"@openzeppelin/contracts@5.0.2/utils/math/SafeCast.sol\":11291:11504  function toUint96(uint256 value) internal pure returns (uint96) {... */\n      swap2\n      swap1\n      pop\n      jump\t// out\n        /* \"@openzeppelin/contracts@5.0.2/token/ERC20/utils/SafeERC20.sol\":1702:1890  function safeTransferFrom(IERC20 token, address from, address to, uint256 value) internal {... */\n    tag_147:\n        /* \"@openzeppelin/contracts@5.0.2/token/ERC20/utils/SafeERC20.sol\":1802:1883  _callOptionalReturn(token, abi.encodeCall(token.transferFrom, (from, to, value))) */\n      tag_278\n        /* \"@openzeppelin/contracts@5.0.2/token/ERC20/utils/SafeERC20.sol\":1822:1827  token */\n      dup5\n        /* \"@openzeppelin/contracts@5.0.2/token/ERC20/utils/SafeERC20.sol\":1844:1849  token */\n      dup6\n        /* \"@openzeppelin/contracts@5.0.2/token/ERC20/utils/SafeERC20.sol\":1844:1862  token.transferFrom */\n      0xffffffffffffffffffffffffffffffffffffffff\n      and\n      0x23b872dd\n        /* \"@openzeppelin/contracts@5.0.2/token/ERC20/utils/SafeERC20.sol\":1865:1869  from */\n      dup7\n        /* \"@openzeppelin/contracts@5.0.2/token/ERC20/utils/SafeERC20.sol\":1871:1873  to */\n      dup7\n        /* \"@openzeppelin/contracts@5.0.2/token/ERC20/utils/SafeERC20.sol\":1875:1880  value */\n      dup7\n        /* \"@openzeppelin/contracts@5.0.2/token/ERC20/utils/SafeERC20.sol\":1829:1882  abi.encodeCall(token.transferFrom, (from, to, value)) */\n      add(0x24, mload(0x40))\n      tag_279\n      swap4\n      swap3\n      swap2\n      swap1\n      tag_280\n      jump\t// in\n    tag_279:\n      mload(0x40)\n      0x20\n      dup2\n      dup4\n      sub\n      sub\n      dup2\n      mstore\n      swap1\n      0x40\n      mstore\n      swap2\n      pop\n      0xe0\n      shl\n      0x20\n      dup3\n      add\n      dup1\n      mload\n      0xffffffffffffffffffffffffffffffffffffffffffffffffffffffff\n      dup4\n      dup2\n      dup4\n      and\n      or\n      dup4\n      mstore\n      pop\n      pop\n      pop\n      pop\n        /* \"@openzeppelin/contracts@5.0.2/token/ERC20/utils/SafeERC20.sol\":1802:1821  _callOptionalReturn */\n      tag_281\n        /* \"@openzeppelin/contracts@5.0.2/token/ERC20/utils/SafeERC20.sol\":1802:1883  _callOptionalReturn(token, abi.encodeCall(token.transferFrom, (from, to, value))) */\n      jump\t// in\n    tag_278:\n        /* \"@openzeppelin/contracts@5.0.2/token/ERC20/utils/SafeERC20.sol\":1702:1890  function safeTransferFrom(IERC20 token, address from, address to, uint256 value) internal {... */\n      pop\n      pop\n      pop\n      pop\n      jump\t// out\n        /* \"@openzeppelin/contracts@5.0.2/utils/ReentrancyGuard.sol\":2744:2952  function _nonReentrantAfter() private {... */\n    tag_151:\n        /* \"@openzeppelin/contracts@5.0.2/utils/ReentrancyGuard.sol\":1713:1714  1 */\n      0x01\n        /* \"@openzeppelin/contracts@5.0.2/utils/ReentrancyGuard.sol\":2924:2931  _status */\n      0x00\n        /* \"@openzeppelin/contracts@5.0.2/utils/ReentrancyGuard.sol\":2924:2945  _status = NOT_ENTERED */\n      dup2\n      swap1\n      sstore\n      pop\n        /* \"@openzeppelin/contracts@5.0.2/utils/ReentrancyGuard.sol\":2744:2952  function _nonReentrantAfter() private {... */\n      jump\t// out\n        /* \"@openzeppelin/contracts@5.0.2/token/ERC20/utils/SafeERC20.sol\":1303:1463  function safeTransfer(IERC20 token, address to, uint256 value) internal {... */\n    tag_167:\n        /* \"@openzeppelin/contracts@5.0.2/token/ERC20/utils/SafeERC20.sol\":1385:1456  _callOptionalReturn(token, abi.encodeCall(token.transfer, (to, value))) */\n      tag_284\n        /* \"@openzeppelin/contracts@5.0.2/token/ERC20/utils/SafeERC20.sol\":1405:1410  token */\n      dup4\n        /* \"@openzeppelin/contracts@5.0.2/token/ERC20/utils/SafeERC20.sol\":1427:1432  token */\n      dup5\n        /* \"@openzeppelin/contracts@5.0.2/token/ERC20/utils/SafeERC20.sol\":1427:1441  token.transfer */\n      0xffffffffffffffffffffffffffffffffffffffff\n      and\n      0xa9059cbb\n        /* \"@openzeppelin/contracts@5.0.2/token/ERC20/utils/SafeERC20.sol\":1444:1446  to */\n      dup6\n        /* \"@openzeppelin/contracts@5.0.2/token/ERC20/utils/SafeERC20.sol\":1448:1453  value */\n      dup6\n        /* \"@openzeppelin/contracts@5.0.2/token/ERC20/utils/SafeERC20.sol\":1412:1455  abi.encodeCall(token.transfer, (to, value)) */\n      add(0x24, mload(0x40))\n      tag_285\n      swap3\n      swap2\n      swap1\n      tag_286\n      jump\t// in\n    tag_285:\n      mload(0x40)\n      0x20\n      dup2\n      dup4\n      sub\n      sub\n      dup2\n      mstore\n      swap1\n      0x40\n      mstore\n      swap2\n      pop\n      0xe0\n      shl\n      0x20\n      dup3\n      add\n      dup1\n      mload\n      0xffffffffffffffffffffffffffffffffffffffffffffffffffffffff\n      dup4\n      dup2\n      dup4\n      and\n      or\n      dup4\n      mstore\n      pop\n      pop\n      pop\n      pop\n        /* \"@openzeppelin/contracts@5.0.2/token/ERC20/utils/SafeERC20.sol\":1385:1404  _callOptionalReturn */\n      tag_281\n        /* \"@openzeppelin/contracts@5.0.2/token/ERC20/utils/SafeERC20.sol\":1385:1456  _callOptionalReturn(token, abi.encodeCall(token.transfer, (to, value))) */\n      jump\t// in\n    tag_284:\n        /* \"@openzeppelin/contracts@5.0.2/token/ERC20/utils/SafeERC20.sol\":1303:1463  function safeTransfer(IERC20 token, address to, uint256 value) internal {... */\n      pop\n      pop\n      pop\n      jump\t// out\n        /* \"@openzeppelin/contracts@5.0.2/utils/math/Math.sol\":3803:7919  function mulDiv(uint256 x, uint256 y, uint256 denominator) internal pure returns (uint256 result) {... */\n    tag_207:\n        /* \"@openzeppelin/contracts@5.0.2/utils/math/Math.sol\":3885:3899  uint256 result */\n      0x00\n        /* \"@openzeppelin/contracts@5.0.2/utils/math/Math.sol\":4232:4245  uint256 prod0 */\n      0x00\n        /* \"@openzeppelin/contracts@5.0.2/utils/math/Math.sol\":4252:4253  y */\n      dup4\n        /* \"@openzeppelin/contracts@5.0.2/utils/math/Math.sol\":4248:4249  x */\n      dup6\n        /* \"@openzeppelin/contracts@5.0.2/utils/math/Math.sol\":4248:4253  x * y */\n      mul\n        /* \"@openzeppelin/contracts@5.0.2/utils/math/Math.sol\":4232:4253  uint256 prod0 = x * y */\n      swap1\n      pop\n        /* \"@openzeppelin/contracts@5.0.2/utils/math/Math.sol\":4312:4325  uint256 prod1 */\n      0x00\n        /* \"@openzeppelin/contracts@5.0.2/utils/math/Math.sol\":4437:4438  0 */\n      0x00\n        /* \"@openzeppelin/contracts@5.0.2/utils/math/Math.sol\":4433:4439  not(0) */\n      not\n        /* \"@openzeppelin/contracts@5.0.2/utils/math/Math.sol\":4430:4431  y */\n      dup6\n        /* \"@openzeppelin/contracts@5.0.2/utils/math/Math.sol\":4427:4428  x */\n      dup8\n        /* \"@openzeppelin/contracts@5.0.2/utils/math/Math.sol\":4420:4440  mulmod(x, y, not(0)) */\n      mulmod\n        /* \"@openzeppelin/contracts@5.0.2/utils/math/Math.sol\":4493:4498  prod0 */\n      dup3\n        /* \"@openzeppelin/contracts@5.0.2/utils/math/Math.sol\":4489:4491  mm */\n      dup2\n        /* \"@openzeppelin/contracts@5.0.2/utils/math/Math.sol\":4486:4499  lt(mm, prod0) */\n      lt\n        /* \"@openzeppelin/contracts@5.0.2/utils/math/Math.sol\":4478:4483  prod0 */\n      dup4\n        /* \"@openzeppelin/contracts@5.0.2/utils/math/Math.sol\":4474:4476  mm */\n      dup3\n        /* \"@openzeppelin/contracts@5.0.2/utils/math/Math.sol\":4470:4484  sub(mm, prod0) */\n      sub\n        /* \"@openzeppelin/contracts@5.0.2/utils/math/Math.sol\":4466:4500  sub(sub(mm, prod0), lt(mm, prod0)) */\n      sub\n        /* \"@openzeppelin/contracts@5.0.2/utils/math/Math.sol\":4457:4500  prod1 := sub(sub(mm, prod0), lt(mm, prod0)) */\n      swap2\n      pop\n        /* \"@openzeppelin/contracts@5.0.2/utils/math/Math.sol\":4392:4514  {... */\n      pop\n        /* \"@openzeppelin/contracts@5.0.2/utils/math/Math.sol\":4604:4605  0 */\n      0x00\n        /* \"@openzeppelin/contracts@5.0.2/utils/math/Math.sol\":4595:4600  prod1 */\n      dup2\n        /* \"@openzeppelin/contracts@5.0.2/utils/math/Math.sol\":4595:4605  prod1 == 0 */\n      sub\n        /* \"@openzeppelin/contracts@5.0.2/utils/math/Math.sol\":4591:4959  if (prod1 == 0) {... */\n      tag_288\n      jumpi\n        /* \"@openzeppelin/contracts@5.0.2/utils/math/Math.sol\":4933:4944  denominator */\n      dup4\n        /* \"@openzeppelin/contracts@5.0.2/utils/math/Math.sol\":4925:4930  prod0 */\n      dup3\n        /* \"@openzeppelin/contracts@5.0.2/utils/math/Math.sol\":4925:4944  prod0 / denominator */\n      dup2\n      tag_289\n      jumpi\n      tag_290\n      tag_291\n      jump\t// in\n    tag_290:\n    tag_289:\n      div\n        /* \"@openzeppelin/contracts@5.0.2/utils/math/Math.sol\":4918:4944  return prod0 / denominator */\n      swap3\n      pop\n      pop\n      pop\n      jump(tag_287)\n        /* \"@openzeppelin/contracts@5.0.2/utils/math/Math.sol\":4591:4959  if (prod1 == 0) {... */\n    tag_288:\n        /* \"@openzeppelin/contracts@5.0.2/utils/math/Math.sol\":5080:5085  prod1 */\n      dup1\n        /* \"@openzeppelin/contracts@5.0.2/utils/math/Math.sol\":5065:5076  denominator */\n      dup5\n        /* \"@openzeppelin/contracts@5.0.2/utils/math/Math.sol\":5065:5085  denominator <= prod1 */\n      gt\n        /* \"@openzeppelin/contracts@5.0.2/utils/math/Math.sol\":5061:5149  if (denominator <= prod1) {... */\n      tag_292\n      jumpi\n        /* \"@openzeppelin/contracts@5.0.2/utils/math/Math.sol\":5112:5134  MathOverflowedMulDiv() */\n      mload(0x40)\n      0x227bc15300000000000000000000000000000000000000000000000000000000\n      dup2\n      mstore\n      0x04\n      add\n      mload(0x40)\n      dup1\n      swap2\n      sub\n      swap1\n      revert\n        /* \"@openzeppelin/contracts@5.0.2/utils/math/Math.sol\":5061:5149  if (denominator <= prod1) {... */\n    tag_292:\n        /* \"@openzeppelin/contracts@5.0.2/utils/math/Math.sol\":5404:5421  uint256 remainder */\n      0x00\n        /* \"@openzeppelin/contracts@5.0.2/utils/math/Math.sol\":5539:5550  denominator */\n      dup5\n        /* \"@openzeppelin/contracts@5.0.2/utils/math/Math.sol\":5536:5537  y */\n      dup7\n        /* \"@openzeppelin/contracts@5.0.2/utils/math/Math.sol\":5533:5534  x */\n      dup9\n        /* \"@openzeppelin/contracts@5.0.2/utils/math/Math.sol\":5526:5551  mulmod(x, y, denominator) */\n      mulmod\n        /* \"@openzeppelin/contracts@5.0.2/utils/math/Math.sol\":5513:5551  remainder := mulmod(x, y, denominator) */\n      swap1\n      pop\n        /* \"@openzeppelin/contracts@5.0.2/utils/math/Math.sol\":5667:5672  prod0 */\n      dup3\n        /* \"@openzeppelin/contracts@5.0.2/utils/math/Math.sol\":5656:5665  remainder */\n      dup2\n        /* \"@openzeppelin/contracts@5.0.2/utils/math/Math.sol\":5653:5673  gt(remainder, prod0) */\n      gt\n        /* \"@openzeppelin/contracts@5.0.2/utils/math/Math.sol\":5646:5651  prod1 */\n      dup3\n        /* \"@openzeppelin/contracts@5.0.2/utils/math/Math.sol\":5642:5674  sub(prod1, gt(remainder, prod0)) */\n      sub\n        /* \"@openzeppelin/contracts@5.0.2/utils/math/Math.sol\":5633:5674  prod1 := sub(prod1, gt(remainder, prod0)) */\n      swap2\n      pop\n        /* \"@openzeppelin/contracts@5.0.2/utils/math/Math.sol\":5711:5720  remainder */\n      dup1\n        /* \"@openzeppelin/contracts@5.0.2/utils/math/Math.sol\":5704:5709  prod0 */\n      dup4\n        /* \"@openzeppelin/contracts@5.0.2/utils/math/Math.sol\":5700:5721  sub(prod0, remainder) */\n      sub\n        /* \"@openzeppelin/contracts@5.0.2/utils/math/Math.sol\":5691:5721  prod0 := sub(prod0, remainder) */\n      swap3\n      pop\n        /* \"@openzeppelin/contracts@5.0.2/utils/math/Math.sol\":5939:5951  uint256 twos */\n      0x00\n        /* \"@openzeppelin/contracts@5.0.2/utils/math/Math.sol\":5973:5984  denominator */\n      dup6\n        /* \"@openzeppelin/contracts@5.0.2/utils/math/Math.sol\":5969:5970  0 */\n      0x00\n        /* \"@openzeppelin/contracts@5.0.2/utils/math/Math.sol\":5969:5984  0 - denominator */\n      sub\n        /* \"@openzeppelin/contracts@5.0.2/utils/math/Math.sol\":5954:5965  denominator */\n      dup7\n        /* \"@openzeppelin/contracts@5.0.2/utils/math/Math.sol\":5954:5985  denominator & (0 - denominator) */\n      and\n        /* \"@openzeppelin/contracts@5.0.2/utils/math/Math.sol\":5939:5985  uint256 twos = denominator & (0 - denominator) */\n      swap1\n      pop\n        /* \"@openzeppelin/contracts@5.0.2/utils/math/Math.sol\":6105:6109  twos */\n      dup1\n        /* \"@openzeppelin/contracts@5.0.2/utils/math/Math.sol\":6092:6103  denominator */\n      dup7\n        /* \"@openzeppelin/contracts@5.0.2/utils/math/Math.sol\":6088:6110  div(denominator, twos) */\n      div\n        /* \"@openzeppelin/contracts@5.0.2/utils/math/Math.sol\":6073:6110  denominator := div(denominator, twos) */\n      swap6\n      pop\n        /* \"@openzeppelin/contracts@5.0.2/utils/math/Math.sol\":6197:6201  twos */\n      dup1\n        /* \"@openzeppelin/contracts@5.0.2/utils/math/Math.sol\":6190:6195  prod0 */\n      dup5\n        /* \"@openzeppelin/contracts@5.0.2/utils/math/Math.sol\":6186:6202  div(prod0, twos) */\n      div\n        /* \"@openzeppelin/contracts@5.0.2/utils/math/Math.sol\":6177:6202  prod0 := div(prod0, twos) */\n      swap4\n      pop\n        /* \"@openzeppelin/contracts@5.0.2/utils/math/Math.sol\":6354:6355  1 */\n      0x01\n        /* \"@openzeppelin/contracts@5.0.2/utils/math/Math.sol\":6347:6351  twos */\n      dup2\n        /* \"@openzeppelin/contracts@5.0.2/utils/math/Math.sol\":6340:6344  twos */\n      dup3\n        /* \"@openzeppelin/contracts@5.0.2/utils/math/Math.sol\":6337:6338  0 */\n      0x00\n        /* \"@openzeppelin/contracts@5.0.2/utils/math/Math.sol\":6333:6345  sub(0, twos) */\n      sub\n        /* \"@openzeppelin/contracts@5.0.2/utils/math/Math.sol\":6329:6352  div(sub(0, twos), twos) */\n      div\n        /* \"@openzeppelin/contracts@5.0.2/utils/math/Math.sol\":6325:6356  add(div(sub(0, twos), twos), 1) */\n      add\n        /* \"@openzeppelin/contracts@5.0.2/utils/math/Math.sol\":6317:6356  twos := add(div(sub(0, twos), twos), 1) */\n      swap1\n      pop\n        /* \"@openzeppelin/contracts@5.0.2/utils/math/Math.sol\":6453:6457  twos */\n      dup1\n        /* \"@openzeppelin/contracts@5.0.2/utils/math/Math.sol\":6445:6450  prod1 */\n      dup4\n        /* \"@openzeppelin/contracts@5.0.2/utils/math/Math.sol\":6445:6457  prod1 * twos */\n      mul\n        /* \"@openzeppelin/contracts@5.0.2/utils/math/Math.sol\":6436:6457  prod0 |= prod1 * twos */\n      dup5\n      or\n      swap4\n      pop\n        /* \"@openzeppelin/contracts@5.0.2/utils/math/Math.sol\":6775:6790  uint256 inverse */\n      0x00\n        /* \"@openzeppelin/contracts@5.0.2/utils/math/Math.sol\":6813:6814  2 */\n      0x02\n        /* \"@openzeppelin/contracts@5.0.2/utils/math/Math.sol\":6798:6809  denominator */\n      dup8\n        /* \"@openzeppelin/contracts@5.0.2/utils/math/Math.sol\":6794:6795  3 */\n      0x03\n        /* \"@openzeppelin/contracts@5.0.2/utils/math/Math.sol\":6794:6809  3 * denominator */\n      mul\n        /* \"@openzeppelin/contracts@5.0.2/utils/math/Math.sol\":6793:6814  (3 * denominator) ^ 2 */\n      xor\n        /* \"@openzeppelin/contracts@5.0.2/utils/math/Math.sol\":6775:6814  uint256 inverse = (3 * denominator) ^ 2 */\n      swap1\n      pop\n        /* \"@openzeppelin/contracts@5.0.2/utils/math/Math.sol\":7060:7067  inverse */\n      dup1\n        /* \"@openzeppelin/contracts@5.0.2/utils/math/Math.sol\":7046:7057  denominator */\n      dup8\n        /* \"@openzeppelin/contracts@5.0.2/utils/math/Math.sol\":7046:7067  denominator * inverse */\n      mul\n        /* \"@openzeppelin/contracts@5.0.2/utils/math/Math.sol\":7042:7043  2 */\n      0x02\n        /* \"@openzeppelin/contracts@5.0.2/utils/math/Math.sol\":7042:7067  2 - denominator * inverse */\n      sub\n        /* \"@openzeppelin/contracts@5.0.2/utils/math/Math.sol\":7031:7067  inverse *= 2 - denominator * inverse */\n      dup2\n      mul\n      swap1\n      pop\n        /* \"@openzeppelin/contracts@5.0.2/utils/math/Math.sol\":7129:7136  inverse */\n      dup1\n        /* \"@openzeppelin/contracts@5.0.2/utils/math/Math.sol\":7115:7126  denominator */\n      dup8\n        /* \"@openzeppelin/contracts@5.0.2/utils/math/Math.sol\":7115:7136  denominator * inverse */\n      mul\n        /* \"@openzeppelin/contracts@5.0.2/utils/math/Math.sol\":7111:7112  2 */\n      0x02\n        /* \"@openzeppelin/contracts@5.0.2/utils/math/Math.sol\":7111:7136  2 - denominator * inverse */\n      sub\n        /* \"@openzeppelin/contracts@5.0.2/utils/math/Math.sol\":7100:7136  inverse *= 2 - denominator * inverse */\n      dup2\n      mul\n      swap1\n      pop\n        /* \"@openzeppelin/contracts@5.0.2/utils/math/Math.sol\":7199:7206  inverse */\n      dup1\n        /* \"@openzeppelin/contracts@5.0.2/utils/math/Math.sol\":7185:7196  denominator */\n      dup8\n        /* \"@openzeppelin/contracts@5.0.2/utils/math/Math.sol\":7185:7206  denominator * inverse */\n      mul\n        /* \"@openzeppelin/contracts@5.0.2/utils/math/Math.sol\":7181:7182  2 */\n      0x02\n        /* \"@openzeppelin/contracts@5.0.2/utils/math/Math.sol\":7181:7206  2 - denominator * inverse */\n      sub\n        /* \"@openzeppelin/contracts@5.0.2/utils/math/Math.sol\":7170:7206  inverse *= 2 - denominator * inverse */\n      dup2\n      mul\n      swap1\n      pop\n        /* \"@openzeppelin/contracts@5.0.2/utils/math/Math.sol\":7269:7276  inverse */\n      dup1\n        /* \"@openzeppelin/contracts@5.0.2/utils/math/Math.sol\":7255:7266  denominator */\n      dup8\n        /* \"@openzeppelin/contracts@5.0.2/utils/math/Math.sol\":7255:7276  denominator * inverse */\n      mul\n        /* \"@openzeppelin/contracts@5.0.2/utils/math/Math.sol\":7251:7252  2 */\n      0x02\n        /* \"@openzeppelin/contracts@5.0.2/utils/math/Math.sol\":7251:7276  2 - denominator * inverse */\n      sub\n        /* \"@openzeppelin/contracts@5.0.2/utils/math/Math.sol\":7240:7276  inverse *= 2 - denominator * inverse */\n      dup2\n      mul\n      swap1\n      pop\n        /* \"@openzeppelin/contracts@5.0.2/utils/math/Math.sol\":7339:7346  inverse */\n      dup1\n        /* \"@openzeppelin/contracts@5.0.2/utils/math/Math.sol\":7325:7336  denominator */\n      dup8\n        /* \"@openzeppelin/contracts@5.0.2/utils/math/Math.sol\":7325:7346  denominator * inverse */\n      mul\n        /* \"@openzeppelin/contracts@5.0.2/utils/math/Math.sol\":7321:7322  2 */\n      0x02\n        /* \"@openzeppelin/contracts@5.0.2/utils/math/Math.sol\":7321:7346  2 - denominator * inverse */\n      sub\n        /* \"@openzeppelin/contracts@5.0.2/utils/math/Math.sol\":7310:7346  inverse *= 2 - denominator * inverse */\n      dup2\n      mul\n      swap1\n      pop\n        /* \"@openzeppelin/contracts@5.0.2/utils/math/Math.sol\":7410:7417  inverse */\n      dup1\n        /* \"@openzeppelin/contracts@5.0.2/utils/math/Math.sol\":7396:7407  denominator */\n      dup8\n        /* \"@openzeppelin/contracts@5.0.2/utils/math/Math.sol\":7396:7417  denominator * inverse */\n      mul\n        /* \"@openzeppelin/contracts@5.0.2/utils/math/Math.sol\":7392:7393  2 */\n      0x02\n        /* \"@openzeppelin/contracts@5.0.2/utils/math/Math.sol\":7392:7417  2 - denominator * inverse */\n      sub\n        /* \"@openzeppelin/contracts@5.0.2/utils/math/Math.sol\":7381:7417  inverse *= 2 - denominator * inverse */\n      dup2\n      mul\n      swap1\n      pop\n        /* \"@openzeppelin/contracts@5.0.2/utils/math/Math.sol\":7868:7875  inverse */\n      dup1\n        /* \"@openzeppelin/contracts@5.0.2/utils/math/Math.sol\":7860:7865  prod0 */\n      dup6\n        /* \"@openzeppelin/contracts@5.0.2/utils/math/Math.sol\":7860:7875  prod0 * inverse */\n      mul\n        /* \"@openzeppelin/contracts@5.0.2/utils/math/Math.sol\":7851:7875  result = prod0 * inverse */\n      swap6\n      pop\n        /* \"@openzeppelin/contracts@5.0.2/utils/math/Math.sol\":7889:7902  return result */\n      pop\n      pop\n      pop\n      pop\n      pop\n        /* \"@openzeppelin/contracts@5.0.2/utils/math/Math.sol\":3803:7919  function mulDiv(uint256 x, uint256 y, uint256 denominator) internal pure returns (uint256 result) {... */\n    tag_287:\n      swap4\n      swap3\n      pop\n      pop\n      pop\n      jump\t// out\n        /* \"@openzeppelin/contracts@5.0.2/utils/Context.sol\":656:752  function _msgSender() internal view virtual returns (address) {... */\n    tag_251:\n        /* \"@openzeppelin/contracts@5.0.2/utils/Context.sol\":709:716  address */\n      0x00\n        /* \"@openzeppelin/contracts@5.0.2/utils/Context.sol\":735:745  msg.sender */\n      caller\n        /* \"@openzeppelin/contracts@5.0.2/utils/Context.sol\":728:745  return msg.sender */\n      swap1\n      pop\n        /* \"@openzeppelin/contracts@5.0.2/utils/Context.sol\":656:752  function _msgSender() internal view virtual returns (address) {... */\n      swap1\n      jump\t// out\n        /* \"@openzeppelin/contracts@5.0.2/utils/Pausable.sol\":2202:2328  function _requirePaused() internal view virtual {... */\n    tag_258:\n        /* \"@openzeppelin/contracts@5.0.2/utils/Pausable.sol\":2265:2273  paused() */\n      tag_295\n        /* \"@openzeppelin/contracts@5.0.2/utils/Pausable.sol\":2265:2271  paused */\n      tag_46\n        /* \"@openzeppelin/contracts@5.0.2/utils/Pausable.sol\":2265:2273  paused() */\n      jump\t// in\n    tag_295:\n        /* \"@openzeppelin/contracts@5.0.2/utils/Pausable.sol\":2260:2322  if (!paused()) {... */\n      tag_296\n      jumpi\n        /* \"@openzeppelin/contracts@5.0.2/utils/Pausable.sol\":2296:2311  ExpectedPause() */\n      mload(0x40)\n      0x8dfc202b00000000000000000000000000000000000000000000000000000000\n      dup2\n      mstore\n      0x04\n      add\n      mload(0x40)\n      dup1\n      swap2\n      sub\n      swap1\n      revert\n        /* \"@openzeppelin/contracts@5.0.2/utils/Pausable.sol\":2260:2322  if (!paused()) {... */\n    tag_296:\n        /* \"@openzeppelin/contracts@5.0.2/utils/Pausable.sol\":2202:2328  function _requirePaused() internal view virtual {... */\n      jump\t// out\n        /* \"@openzeppelin/contracts@5.0.2/token/ERC20/utils/SafeERC20.sol\":4059:4688  function _callOptionalReturn(IERC20 token, bytes memory data) private {... */\n    tag_281:\n        /* \"@openzeppelin/contracts@5.0.2/token/ERC20/utils/SafeERC20.sol\":4478:4501  bytes memory returndata */\n      0x00\n        /* \"@openzeppelin/contracts@5.0.2/token/ERC20/utils/SafeERC20.sol\":4504:4537  address(token).functionCall(data) */\n      tag_298\n        /* \"@openzeppelin/contracts@5.0.2/token/ERC20/utils/SafeERC20.sol\":4532:4536  data */\n      dup3\n        /* \"@openzeppelin/contracts@5.0.2/token/ERC20/utils/SafeERC20.sol\":4512:4517  token */\n      dup5\n        /* \"@openzeppelin/contracts@5.0.2/token/ERC20/utils/SafeERC20.sol\":4504:4531  address(token).functionCall */\n      0xffffffffffffffffffffffffffffffffffffffff\n      and\n      tag_299\n      swap1\n        /* \"@openzeppelin/contracts@5.0.2/token/ERC20/utils/SafeERC20.sol\":4504:4537  address(token).functionCall(data) */\n      swap2\n      swap1\n      0xffffffff\n      and\n      jump\t// in\n    tag_298:\n        /* \"@openzeppelin/contracts@5.0.2/token/ERC20/utils/SafeERC20.sol\":4478:4537  bytes memory returndata = address(token).functionCall(data) */\n      swap1\n      pop\n        /* \"@openzeppelin/contracts@5.0.2/token/ERC20/utils/SafeERC20.sol\":4572:4573  0 */\n      0x00\n        /* \"@openzeppelin/contracts@5.0.2/token/ERC20/utils/SafeERC20.sol\":4551:4561  returndata */\n      dup2\n        /* \"@openzeppelin/contracts@5.0.2/token/ERC20/utils/SafeERC20.sol\":4551:4568  returndata.length */\n      mload\n        /* \"@openzeppelin/contracts@5.0.2/token/ERC20/utils/SafeERC20.sol\":4551:4573  returndata.length != 0 */\n      eq\n      iszero\n        /* \"@openzeppelin/contracts@5.0.2/token/ERC20/utils/SafeERC20.sol\":4551:4608  returndata.length != 0 && !abi.decode(returndata, (bool)) */\n      dup1\n      iszero\n      tag_300\n      jumpi\n      pop\n        /* \"@openzeppelin/contracts@5.0.2/token/ERC20/utils/SafeERC20.sol\":4589:4599  returndata */\n      dup1\n        /* \"@openzeppelin/contracts@5.0.2/token/ERC20/utils/SafeERC20.sol\":4578:4608  abi.decode(returndata, (bool)) */\n      dup1\n      0x20\n      add\n      swap1\n      mload\n      dup2\n      add\n      swap1\n      tag_301\n      swap2\n      swap1\n      tag_302\n      jump\t// in\n    tag_301:\n        /* \"@openzeppelin/contracts@5.0.2/token/ERC20/utils/SafeERC20.sol\":4577:4608  !abi.decode(returndata, (bool)) */\n      iszero\n        /* \"@openzeppelin/contracts@5.0.2/token/ERC20/utils/SafeERC20.sol\":4551:4608  returndata.length != 0 && !abi.decode(returndata, (bool)) */\n    tag_300:\n        /* \"@openzeppelin/contracts@5.0.2/token/ERC20/utils/SafeERC20.sol\":4547:4682  if (returndata.length != 0 && !abi.decode(returndata, (bool))) {... */\n      iszero\n      tag_303\n      jumpi\n        /* \"@openzeppelin/contracts@5.0.2/token/ERC20/utils/SafeERC20.sol\":4664:4669  token */\n      dup3\n        /* \"@openzeppelin/contracts@5.0.2/token/ERC20/utils/SafeERC20.sol\":4631:4671  SafeERC20FailedOperation(address(token)) */\n      mload(0x40)\n      0x5274afe700000000000000000000000000000000000000000000000000000000\n      dup2\n      mstore\n      0x04\n      add\n      tag_304\n      swap2\n      swap1\n      tag_44\n      jump\t// in\n    tag_304:\n      mload(0x40)\n      dup1\n      swap2\n      sub\n      swap1\n      revert\n        /* \"@openzeppelin/contracts@5.0.2/token/ERC20/utils/SafeERC20.sol\":4547:4682  if (returndata.length != 0 && !abi.decode(returndata, (bool))) {... */\n    tag_303:\n        /* \"@openzeppelin/contracts@5.0.2/token/ERC20/utils/SafeERC20.sol\":4129:4688  {... */\n      pop\n        /* \"@openzeppelin/contracts@5.0.2/token/ERC20/utils/SafeERC20.sol\":4059:4688  function _callOptionalReturn(IERC20 token, bytes memory data) private {... */\n      pop\n      pop\n      jump\t// out\n        /* \"@openzeppelin/contracts@5.0.2/utils/Address.sol\":2705:2856  function functionCall(address target, bytes memory data) internal returns (bytes memory) {... */\n    tag_299:\n        /* \"@openzeppelin/contracts@5.0.2/utils/Address.sol\":2780:2792  bytes memory */\n      0x60\n        /* \"@openzeppelin/contracts@5.0.2/utils/Address.sol\":2811:2849  functionCallWithValue(target, data, 0) */\n      tag_306\n        /* \"@openzeppelin/contracts@5.0.2/utils/Address.sol\":2833:2839  target */\n      dup4\n        /* \"@openzeppelin/contracts@5.0.2/utils/Address.sol\":2841:2845  data */\n      dup4\n        /* \"@openzeppelin/contracts@5.0.2/utils/Address.sol\":2847:2848  0 */\n      0x00\n        /* \"@openzeppelin/contracts@5.0.2/utils/Address.sol\":2811:2832  functionCallWithValue */\n      tag_307\n        /* \"@openzeppelin/contracts@5.0.2/utils/Address.sol\":2811:2849  functionCallWithValue(target, data, 0) */\n      jump\t// in\n    tag_306:\n        /* \"@openzeppelin/contracts@5.0.2/utils/Address.sol\":2804:2849  return functionCallWithValue(target, data, 0) */\n      swap1\n      pop\n        /* \"@openzeppelin/contracts@5.0.2/utils/Address.sol\":2705:2856  function functionCall(address target, bytes memory data) internal returns (bytes memory) {... */\n      swap3\n      swap2\n      pop\n      pop\n      jump\t// out\n        /* \"@openzeppelin/contracts@5.0.2/utils/Address.sol\":3180:3572  function functionCallWithValue(address target, bytes memory data, uint256 value) internal returns (bytes memory) {... */\n    tag_307:\n        /* \"@openzeppelin/contracts@5.0.2/utils/Address.sol\":3279:3291  bytes memory */\n      0x60\n        /* \"@openzeppelin/contracts@5.0.2/utils/Address.sol\":3331:3336  value */\n      dup2\n        /* \"@openzeppelin/contracts@5.0.2/utils/Address.sol\":3307:3328  address(this).balance */\n      selfbalance\n        /* \"@openzeppelin/contracts@5.0.2/utils/Address.sol\":3307:3336  address(this).balance < value */\n      lt\n        /* \"@openzeppelin/contracts@5.0.2/utils/Address.sol\":3303:3411  if (address(this).balance < value) {... */\n      iszero\n      tag_309\n      jumpi\n        /* \"@openzeppelin/contracts@5.0.2/utils/Address.sol\":3394:3398  this */\n      address\n        /* \"@openzeppelin/contracts@5.0.2/utils/Address.sol\":3359:3400  AddressInsufficientBalance(address(this)) */\n      mload(0x40)\n      0xcd78605900000000000000000000000000000000000000000000000000000000\n      dup2\n      mstore\n      0x04\n      add\n      tag_310\n      swap2\n      swap1\n      tag_44\n      jump\t// in\n    tag_310:\n      mload(0x40)\n      dup1\n      swap2\n      sub\n      swap1\n      revert\n        /* \"@openzeppelin/contracts@5.0.2/utils/Address.sol\":3303:3411  if (address(this).balance < value) {... */\n    tag_309:\n        /* \"@openzeppelin/contracts@5.0.2/utils/Address.sol\":3421:3433  bool success */\n      0x00\n        /* \"@openzeppelin/contracts@5.0.2/utils/Address.sol\":3435:3458  bytes memory returndata */\n      0x00\n        /* \"@openzeppelin/contracts@5.0.2/utils/Address.sol\":3462:3468  target */\n      dup6\n        /* \"@openzeppelin/contracts@5.0.2/utils/Address.sol\":3462:3473  target.call */\n      0xffffffffffffffffffffffffffffffffffffffff\n      and\n        /* \"@openzeppelin/contracts@5.0.2/utils/Address.sol\":3481:3486  value */\n      dup5\n        /* \"@openzeppelin/contracts@5.0.2/utils/Address.sol\":3488:3492  data */\n      dup7\n        /* \"@openzeppelin/contracts@5.0.2/utils/Address.sol\":3462:3493  target.call{value: value}(data) */\n      mload(0x40)\n      tag_311\n      swap2\n      swap1\n      tag_312\n      jump\t// in\n    tag_311:\n      0x00\n      mload(0x40)\n      dup1\n      dup4\n      sub\n      dup2\n      dup6\n      dup8\n      gas\n      call\n      swap3\n      pop\n      pop\n      pop\n      returndatasize\n      dup1\n      0x00\n      dup2\n      eq\n      tag_315\n      jumpi\n      mload(0x40)\n      swap2\n      pop\n      and(add(returndatasize, 0x3f), not(0x1f))\n      dup3\n      add\n      0x40\n      mstore\n      returndatasize\n      dup3\n      mstore\n      returndatasize\n      0x00\n      0x20\n      dup5\n      add\n      returndatacopy\n      jump(tag_314)\n    tag_315:\n      0x60\n      swap2\n      pop\n    tag_314:\n      pop\n        /* \"@openzeppelin/contracts@5.0.2/utils/Address.sol\":3420:3493  (bool success, bytes memory returndata) = target.call{value: value}(data) */\n      swap2\n      pop\n      swap2\n      pop\n        /* \"@openzeppelin/contracts@5.0.2/utils/Address.sol\":3510:3565  verifyCallResultFromTarget(target, success, returndata) */\n      tag_316\n        /* \"@openzeppelin/contracts@5.0.2/utils/Address.sol\":3537:3543  target */\n      dup7\n        /* \"@openzeppelin/contracts@5.0.2/utils/Address.sol\":3545:3552  success */\n      dup4\n        /* \"@openzeppelin/contracts@5.0.2/utils/Address.sol\":3554:3564  returndata */\n      dup4\n        /* \"@openzeppelin/contracts@5.0.2/utils/Address.sol\":3510:3536  verifyCallResultFromTarget */\n      tag_317\n        /* \"@openzeppelin/contracts@5.0.2/utils/Address.sol\":3510:3565  verifyCallResultFromTarget(target, success, returndata) */\n      jump\t// in\n    tag_316:\n        /* \"@openzeppelin/contracts@5.0.2/utils/Address.sol\":3503:3565  return verifyCallResultFromTarget(target, success, returndata) */\n      swap3\n      pop\n      pop\n      pop\n        /* \"@openzeppelin/contracts@5.0.2/utils/Address.sol\":3180:3572  function functionCallWithValue(address target, bytes memory data, uint256 value) internal returns (bytes memory) {... */\n      swap4\n      swap3\n      pop\n      pop\n      pop\n      jump\t// out\n        /* \"@openzeppelin/contracts@5.0.2/utils/Address.sol\":4625:5207  function verifyCallResultFromTarget(... */\n    tag_317:\n        /* \"@openzeppelin/contracts@5.0.2/utils/Address.sol\":4769:4781  bytes memory */\n      0x60\n        /* \"@openzeppelin/contracts@5.0.2/utils/Address.sol\":4798:4805  success */\n      dup3\n        /* \"@openzeppelin/contracts@5.0.2/utils/Address.sol\":4793:5201  if (!success) {... */\n      tag_319\n      jumpi\n        /* \"@openzeppelin/contracts@5.0.2/utils/Address.sol\":4821:4840  _revert(returndata) */\n      tag_320\n        /* \"@openzeppelin/contracts@5.0.2/utils/Address.sol\":4829:4839  returndata */\n      dup3\n        /* \"@openzeppelin/contracts@5.0.2/utils/Address.sol\":4821:4828  _revert */\n      tag_321\n        /* \"@openzeppelin/contracts@5.0.2/utils/Address.sol\":4821:4840  _revert(returndata) */\n      jump\t// in\n    tag_320:\n        /* \"@openzeppelin/contracts@5.0.2/utils/Address.sol\":4793:5201  if (!success) {... */\n      jump(tag_322)\n    tag_319:\n        /* \"@openzeppelin/contracts@5.0.2/utils/Address.sol\":5066:5067  0 */\n      0x00\n        /* \"@openzeppelin/contracts@5.0.2/utils/Address.sol\":5045:5055  returndata */\n      dup3\n        /* \"@openzeppelin/contracts@5.0.2/utils/Address.sol\":5045:5062  returndata.length */\n      mload\n        /* \"@openzeppelin/contracts@5.0.2/utils/Address.sol\":5045:5067  returndata.length == 0 */\n      eq\n        /* \"@openzeppelin/contracts@5.0.2/utils/Address.sol\":5045:5094  returndata.length == 0 && target.code.length == 0 */\n      dup1\n      iszero\n      tag_323\n      jumpi\n      pop\n        /* \"@openzeppelin/contracts@5.0.2/utils/Address.sol\":5093:5094  0 */\n      0x00\n        /* \"@openzeppelin/contracts@5.0.2/utils/Address.sol\":5071:5077  target */\n      dup5\n        /* \"@openzeppelin/contracts@5.0.2/utils/Address.sol\":5071:5089  target.code.length */\n      0xffffffffffffffffffffffffffffffffffffffff\n      and\n      extcodesize\n        /* \"@openzeppelin/contracts@5.0.2/utils/Address.sol\":5071:5094  target.code.length == 0 */\n      eq\n        /* \"@openzeppelin/contracts@5.0.2/utils/Address.sol\":5045:5094  returndata.length == 0 && target.code.length == 0 */\n    tag_323:\n        /* \"@openzeppelin/contracts@5.0.2/utils/Address.sol\":5041:5160  if (returndata.length == 0 && target.code.length == 0) {... */\n      iszero\n      tag_324\n      jumpi\n        /* \"@openzeppelin/contracts@5.0.2/utils/Address.sol\":5138:5144  target */\n      dup4\n        /* \"@openzeppelin/contracts@5.0.2/utils/Address.sol\":5121:5145  AddressEmptyCode(target) */\n      mload(0x40)\n      0x9996b31500000000000000000000000000000000000000000000000000000000\n      dup2\n      mstore\n      0x04\n      add\n      tag_325\n      swap2\n      swap1\n      tag_44\n      jump\t// in\n    tag_325:\n      mload(0x40)\n      dup1\n      swap2\n      sub\n      swap1\n      revert\n        /* \"@openzeppelin/contracts@5.0.2/utils/Address.sol\":5041:5160  if (returndata.length == 0 && target.code.length == 0) {... */\n    tag_324:\n        /* \"@openzeppelin/contracts@5.0.2/utils/Address.sol\":5180:5190  returndata */\n      dup2\n        /* \"@openzeppelin/contracts@5.0.2/utils/Address.sol\":5173:5190  return returndata */\n      swap1\n      pop\n      jump(tag_318)\n        /* \"@openzeppelin/contracts@5.0.2/utils/Address.sol\":4793:5201  if (!success) {... */\n    tag_322:\n        /* \"@openzeppelin/contracts@5.0.2/utils/Address.sol\":4625:5207  function verifyCallResultFromTarget(... */\n    tag_318:\n      swap4\n      swap3\n      pop\n      pop\n      pop\n      jump\t// out\n        /* \"@openzeppelin/contracts@5.0.2/utils/Address.sol\":5743:6259  function _revert(bytes memory returndata) private pure {... */\n    tag_321:\n        /* \"@openzeppelin/contracts@5.0.2/utils/Address.sol\":5894:5895  0 */\n      0x00\n        /* \"@openzeppelin/contracts@5.0.2/utils/Address.sol\":5874:5884  returndata */\n      dup2\n        /* \"@openzeppelin/contracts@5.0.2/utils/Address.sol\":5874:5891  returndata.length */\n      mload\n        /* \"@openzeppelin/contracts@5.0.2/utils/Address.sol\":5874:5895  returndata.length > 0 */\n      gt\n        /* \"@openzeppelin/contracts@5.0.2/utils/Address.sol\":5870:6253  if (returndata.length > 0) {... */\n      iszero\n      tag_327\n      jumpi\n        /* \"@openzeppelin/contracts@5.0.2/utils/Address.sol\":6102:6112  returndata */\n      dup1\n        /* \"@openzeppelin/contracts@5.0.2/utils/Address.sol\":6096:6113  mload(returndata) */\n      mload\n        /* \"@openzeppelin/contracts@5.0.2/utils/Address.sol\":6158:6173  returndata_size */\n      dup1\n        /* \"@openzeppelin/contracts@5.0.2/utils/Address.sol\":6145:6155  returndata */\n      dup3\n        /* \"@openzeppelin/contracts@5.0.2/utils/Address.sol\":6141:6143  32 */\n      0x20\n        /* \"@openzeppelin/contracts@5.0.2/utils/Address.sol\":6137:6156  add(32, returndata) */\n      add\n        /* \"@openzeppelin/contracts@5.0.2/utils/Address.sol\":6130:6174  revert(add(32, returndata), returndata_size) */\n      revert\n        /* \"@openzeppelin/contracts@5.0.2/utils/Address.sol\":5870:6253  if (returndata.length > 0) {... */\n    tag_327:\n        /* \"@openzeppelin/contracts@5.0.2/utils/Address.sol\":6225:6242  FailedInnerCall() */\n      mload(0x40)\n      0x1425ea4200000000000000000000000000000000000000000000000000000000\n      dup2\n      mstore\n      0x04\n      add\n      mload(0x40)\n      dup1\n      swap2\n      sub\n      swap1\n      revert\n    tag_97:\n      mload(0x40)\n      dup1\n      0xe0\n      add\n      0x40\n      mstore\n      dup1\n      0x00\n      dup2\n      mstore\n      0x20\n      add\n      and(0xffffffffffffffffffffffffffffffffffffffff, 0x00)\n      dup2\n      mstore\n      0x20\n      add\n      and(0xffffffffffffffffffffffffffffffffffffffff, 0x00)\n      dup2\n      mstore\n      0x20\n      add\n      and(0xffffffffffffffffffffffff, 0x00)\n      dup2\n      mstore\n      0x20\n      add\n      and(0xffffffffffffffff, 0x00)\n      dup2\n      mstore\n      0x20\n      add\n      and(0xffffffffffffffff, 0x00)\n      dup2\n      mstore\n      0x20\n      add\n      0x00\n      0x04\n      dup2\n      gt\n      iszero\n      tag_329\n      jumpi\n      tag_330\n      tag_101\n      jump\t// in\n    tag_330:\n    tag_329:\n      dup2\n      mstore\n      pop\n      swap1\n      jump\t// out\n        /* \"#utility.yul\":88:205   */\n    tag_332:\n        /* \"#utility.yul\":197:198   */\n      0x00\n        /* \"#utility.yul\":194:195   */\n      0x00\n        /* \"#utility.yul\":187:199   */\n      revert\n        /* \"#utility.yul\":334:411   */\n    tag_334:\n        /* \"#utility.yul\":371:378   */\n      0x00\n        /* \"#utility.yul\":400:405   */\n      dup2\n        /* \"#utility.yul\":389:405   */\n      swap1\n      pop\n        /* \"#utility.yul\":334:411   */\n      swap2\n      swap1\n      pop\n      jump\t// out\n        /* \"#utility.yul\":417:539   */\n    tag_335:\n        /* \"#utility.yul\":490:514   */\n      tag_399\n        /* \"#utility.yul\":508:513   */\n      dup2\n        /* \"#utility.yul\":490:514   */\n      tag_334\n      jump\t// in\n    tag_399:\n        /* \"#utility.yul\":483:488   */\n      dup2\n        /* \"#utility.yul\":480:515   */\n      eq\n        /* \"#utility.yul\":470:533   */\n      tag_400\n      jumpi\n        /* \"#utility.yul\":529:530   */\n      0x00\n        /* \"#utility.yul\":526:527   */\n      0x00\n        /* \"#utility.yul\":519:531   */\n      revert\n        /* \"#utility.yul\":470:533   */\n    tag_400:\n        /* \"#utility.yul\":417:539   */\n      pop\n      jump\t// out\n        /* \"#utility.yul\":545:684   */\n    tag_336:\n        /* \"#utility.yul\":591:596   */\n      0x00\n        /* \"#utility.yul\":629:635   */\n      dup2\n        /* \"#utility.yul\":616:636   */\n      calldataload\n        /* \"#utility.yul\":607:636   */\n      swap1\n      pop\n        /* \"#utility.yul\":645:678   */\n      tag_402\n        /* \"#utility.yul\":672:677   */\n      dup2\n        /* \"#utility.yul\":645:678   */\n      tag_335\n      jump\t// in\n    tag_402:\n        /* \"#utility.yul\":545:684   */\n      swap3\n      swap2\n      pop\n      pop\n      jump\t// out\n        /* \"#utility.yul\":690:1019   */\n    tag_27:\n        /* \"#utility.yul\":749:755   */\n      0x00\n        /* \"#utility.yul\":798:800   */\n      0x20\n        /* \"#utility.yul\":786:795   */\n      dup3\n        /* \"#utility.yul\":777:784   */\n      dup5\n        /* \"#utility.yul\":773:796   */\n      sub\n        /* \"#utility.yul\":769:801   */\n      slt\n        /* \"#utility.yul\":766:885   */\n      iszero\n      tag_404\n      jumpi\n        /* \"#utility.yul\":804:883   */\n      tag_405\n      tag_332\n      jump\t// in\n    tag_405:\n        /* \"#utility.yul\":766:885   */\n    tag_404:\n        /* \"#utility.yul\":924:925   */\n      0x00\n        /* \"#utility.yul\":949:1002   */\n      tag_406\n        /* \"#utility.yul\":994:1001   */\n      dup5\n        /* \"#utility.yul\":985:991   */\n      dup3\n        /* \"#utility.yul\":974:983   */\n      dup6\n        /* \"#utility.yul\":970:992   */\n      add\n        /* \"#utility.yul\":949:1002   */\n      tag_336\n      jump\t// in\n    tag_406:\n        /* \"#utility.yul\":939:1002   */\n      swap2\n      pop\n        /* \"#utility.yul\":895:1012   */\n      pop\n        /* \"#utility.yul\":690:1019   */\n      swap3\n      swap2\n      pop\n      pop\n      jump\t// out\n        /* \"#utility.yul\":1025:1133   */\n    tag_337:\n        /* \"#utility.yul\":1102:1126   */\n      tag_408\n        /* \"#utility.yul\":1120:1125   */\n      dup2\n        /* \"#utility.yul\":1102:1126   */\n      tag_334\n      jump\t// in\n    tag_408:\n        /* \"#utility.yul\":1097:1100   */\n      dup3\n        /* \"#utility.yul\":1090:1127   */\n      mstore\n        /* \"#utility.yul\":1025:1133   */\n      pop\n      pop\n      jump\t// out\n        /* \"#utility.yul\":1139:1265   */\n    tag_338:\n        /* \"#utility.yul\":1176:1183   */\n      0x00\n        /* \"#utility.yul\":1216:1258   */\n      0xffffffffffffffffffffffffffffffffffffffff\n        /* \"#utility.yul\":1209:1214   */\n      dup3\n        /* \"#utility.yul\":1205:1259   */\n      and\n        /* \"#utility.yul\":1194:1259   */\n      swap1\n      pop\n        /* \"#utility.yul\":1139:1265   */\n      swap2\n      swap1\n      pop\n      jump\t// out\n        /* \"#utility.yul\":1271:1367   */\n    tag_339:\n        /* \"#utility.yul\":1308:1315   */\n      0x00\n        /* \"#utility.yul\":1337:1361   */\n      tag_411\n        /* \"#utility.yul\":1355:1360   */\n      dup3\n        /* \"#utility.yul\":1337:1361   */\n      tag_338\n      jump\t// in\n    tag_411:\n        /* \"#utility.yul\":1326:1361   */\n      swap1\n      pop\n        /* \"#utility.yul\":1271:1367   */\n      swap2\n      swap1\n      pop\n      jump\t// out\n        /* \"#utility.yul\":1373:1481   */\n    tag_340:\n        /* \"#utility.yul\":1450:1474   */\n      tag_413\n        /* \"#utility.yul\":1468:1473   */\n      dup2\n        /* \"#utility.yul\":1450:1474   */\n      tag_339\n      jump\t// in\n    tag_413:\n        /* \"#utility.yul\":1445:1448   */\n      dup3\n        /* \"#utility.yul\":1438:1475   */\n      mstore\n        /* \"#utility.yul\":1373:1481   */\n      pop\n      pop\n      jump\t// out\n        /* \"#utility.yul\":1487:1596   */\n    tag_341:\n        /* \"#utility.yul\":1523:1530   */\n      0x00\n        /* \"#utility.yul\":1563:1589   */\n      0xffffffffffffffffffffffff\n        /* \"#utility.yul\":1556:1561   */\n      dup3\n        /* \"#utility.yul\":1552:1590   */\n      and\n        /* \"#utility.yul\":1541:1590   */\n      swap1\n      pop\n        /* \"#utility.yul\":1487:1596   */\n      swap2\n      swap1\n      pop\n      jump\t// out\n        /* \"#utility.yul\":1602:1707   */\n    tag_342:\n        /* \"#utility.yul\":1677:1700   */\n      tag_416\n        /* \"#utility.yul\":1694:1699   */\n      dup2\n        /* \"#utility.yul\":1677:1700   */\n      tag_341\n      jump\t// in\n    tag_416:\n        /* \"#utility.yul\":1672:1675   */\n      dup3\n        /* \"#utility.yul\":1665:1701   */\n      mstore\n        /* \"#utility.yul\":1602:1707   */\n      pop\n      pop\n      jump\t// out\n        /* \"#utility.yul\":1713:1814   */\n    tag_343:\n        /* \"#utility.yul\":1749:1756   */\n      0x00\n        /* \"#utility.yul\":1789:1807   */\n      0xffffffffffffffff\n        /* \"#utility.yul\":1782:1787   */\n      dup3\n        /* \"#utility.yul\":1778:1808   */\n      and\n        /* \"#utility.yul\":1767:1808   */\n      swap1\n      pop\n        /* \"#utility.yul\":1713:1814   */\n      swap2\n      swap1\n      pop\n      jump\t// out\n        /* \"#utility.yul\":1820:1925   */\n    tag_344:\n        /* \"#utility.yul\":1895:1918   */\n      tag_419\n        /* \"#utility.yul\":1912:1917   */\n      dup2\n        /* \"#utility.yul\":1895:1918   */\n      tag_343\n      jump\t// in\n    tag_419:\n        /* \"#utility.yul\":1890:1893   */\n      dup3\n        /* \"#utility.yul\":1883:1919   */\n      mstore\n        /* \"#utility.yul\":1820:1925   */\n      pop\n      pop\n      jump\t// out\n        /* \"#utility.yul\":1931:2111   */\n    tag_101:\n        /* \"#utility.yul\":1979:2056   */\n      0x4e487b7100000000000000000000000000000000000000000000000000000000\n        /* \"#utility.yul\":1976:1977   */\n      0x00\n        /* \"#utility.yul\":1969:2057   */\n      mstore\n        /* \"#utility.yul\":2076:2080   */\n      0x21\n        /* \"#utility.yul\":2073:2074   */\n      0x04\n        /* \"#utility.yul\":2066:2081   */\n      mstore\n        /* \"#utility.yul\":2100:2104   */\n      0x24\n        /* \"#utility.yul\":2097:2098   */\n      0x00\n        /* \"#utility.yul\":2090:2105   */\n      revert\n        /* \"#utility.yul\":2117:2233   */\n    tag_345:\n        /* \"#utility.yul\":2201:2202   */\n      0x05\n        /* \"#utility.yul\":2194:2199   */\n      dup2\n        /* \"#utility.yul\":2191:2203   */\n      lt\n        /* \"#utility.yul\":2181:2227   */\n      tag_422\n      jumpi\n        /* \"#utility.yul\":2207:2225   */\n      tag_423\n      tag_101\n      jump\t// in\n    tag_423:\n        /* \"#utility.yul\":2181:2227   */\n    tag_422:\n        /* \"#utility.yul\":2117:2233   */\n      pop\n      jump\t// out\n        /* \"#utility.yul\":2239:2372   */\n    tag_346:\n        /* \"#utility.yul\":2287:2294   */\n      0x00\n        /* \"#utility.yul\":2316:2321   */\n      dup2\n        /* \"#utility.yul\":2305:2321   */\n      swap1\n      pop\n        /* \"#utility.yul\":2322:2366   */\n      tag_425\n        /* \"#utility.yul\":2360:2365   */\n      dup3\n        /* \"#utility.yul\":2322:2366   */\n      tag_345\n      jump\t// in\n    tag_425:\n        /* \"#utility.yul\":2239:2372   */\n      swap2\n      swap1\n      pop\n      jump\t// out\n        /* \"#utility.yul\":2378:2511   */\n    tag_347:\n        /* \"#utility.yul\":2437:2446   */\n      0x00\n        /* \"#utility.yul\":2470:2505   */\n      tag_427\n        /* \"#utility.yul\":2499:2504   */\n      dup3\n        /* \"#utility.yul\":2470:2505   */\n      tag_346\n      jump\t// in\n    tag_427:\n        /* \"#utility.yul\":2457:2505   */\n      swap1\n      pop\n        /* \"#utility.yul\":2378:2511   */\n      swap2\n      swap1\n      pop\n      jump\t// out\n        /* \"#utility.yul\":2517:2656   */\n    tag_348:\n        /* \"#utility.yul\":2603:2649   */\n      tag_429\n        /* \"#utility.yul\":2643:2648   */\n      dup2\n        /* \"#utility.yul\":2603:2649   */\n      tag_347\n      jump\t// in\n    tag_429:\n        /* \"#utility.yul\":2598:2601   */\n      dup3\n        /* \"#utility.yul\":2591:2650   */\n      mstore\n        /* \"#utility.yul\":2517:2656   */\n      pop\n      pop\n      jump\t// out\n        /* \"#utility.yul\":2726:4132   */\n    tag_349:\n        /* \"#utility.yul\":2871:2875   */\n      0xe0\n        /* \"#utility.yul\":2866:2869   */\n      dup3\n        /* \"#utility.yul\":2862:2876   */\n      add\n        /* \"#utility.yul\":2964:2968   */\n      0x00\n        /* \"#utility.yul\":2957:2962   */\n      dup3\n        /* \"#utility.yul\":2953:2969   */\n      add\n        /* \"#utility.yul\":2947:2970   */\n      mload\n        /* \"#utility.yul\":2983:3046   */\n      tag_431\n        /* \"#utility.yul\":3040:3044   */\n      0x00\n        /* \"#utility.yul\":3035:3038   */\n      dup6\n        /* \"#utility.yul\":3031:3045   */\n      add\n        /* \"#utility.yul\":3017:3029   */\n      dup3\n        /* \"#utility.yul\":2983:3046   */\n      tag_337\n      jump\t// in\n    tag_431:\n        /* \"#utility.yul\":2886:3056   */\n      pop\n        /* \"#utility.yul\":3141:3145   */\n      0x20\n        /* \"#utility.yul\":3134:3139   */\n      dup3\n        /* \"#utility.yul\":3130:3146   */\n      add\n        /* \"#utility.yul\":3124:3147   */\n      mload\n        /* \"#utility.yul\":3160:3223   */\n      tag_432\n        /* \"#utility.yul\":3217:3221   */\n      0x20\n        /* \"#utility.yul\":3212:3215   */\n      dup6\n        /* \"#utility.yul\":3208:3222   */\n      add\n        /* \"#utility.yul\":3194:3206   */\n      dup3\n        /* \"#utility.yul\":3160:3223   */\n      tag_340\n      jump\t// in\n    tag_432:\n        /* \"#utility.yul\":3066:3233   */\n      pop\n        /* \"#utility.yul\":3319:3323   */\n      0x40\n        /* \"#utility.yul\":3312:3317   */\n      dup3\n        /* \"#utility.yul\":3308:3324   */\n      add\n        /* \"#utility.yul\":3302:3325   */\n      mload\n        /* \"#utility.yul\":3338:3401   */\n      tag_433\n        /* \"#utility.yul\":3395:3399   */\n      0x40\n        /* \"#utility.yul\":3390:3393   */\n      dup6\n        /* \"#utility.yul\":3386:3400   */\n      add\n        /* \"#utility.yul\":3372:3384   */\n      dup3\n        /* \"#utility.yul\":3338:3401   */\n      tag_340\n      jump\t// in\n    tag_433:\n        /* \"#utility.yul\":3243:3411   */\n      pop\n        /* \"#utility.yul\":3495:3499   */\n      0x60\n        /* \"#utility.yul\":3488:3493   */\n      dup3\n        /* \"#utility.yul\":3484:3500   */\n      add\n        /* \"#utility.yul\":3478:3501   */\n      mload\n        /* \"#utility.yul\":3514:3575   */\n      tag_434\n        /* \"#utility.yul\":3569:3573   */\n      0x60\n        /* \"#utility.yul\":3564:3567   */\n      dup6\n        /* \"#utility.yul\":3560:3574   */\n      add\n        /* \"#utility.yul\":3546:3558   */\n      dup3\n        /* \"#utility.yul\":3514:3575   */\n      tag_342\n      jump\t// in\n    tag_434:\n        /* \"#utility.yul\":3421:3585   */\n      pop\n        /* \"#utility.yul\":3671:3675   */\n      0x80\n        /* \"#utility.yul\":3664:3669   */\n      dup3\n        /* \"#utility.yul\":3660:3676   */\n      add\n        /* \"#utility.yul\":3654:3677   */\n      mload\n        /* \"#utility.yul\":3690:3751   */\n      tag_435\n        /* \"#utility.yul\":3745:3749   */\n      0x80\n        /* \"#utility.yul\":3740:3743   */\n      dup6\n        /* \"#utility.yul\":3736:3750   */\n      add\n        /* \"#utility.yul\":3722:3734   */\n      dup3\n        /* \"#utility.yul\":3690:3751   */\n      tag_344\n      jump\t// in\n    tag_435:\n        /* \"#utility.yul\":3595:3761   */\n      pop\n        /* \"#utility.yul\":3850:3854   */\n      0xa0\n        /* \"#utility.yul\":3843:3848   */\n      dup3\n        /* \"#utility.yul\":3839:3855   */\n      add\n        /* \"#utility.yul\":3833:3856   */\n      mload\n        /* \"#utility.yul\":3869:3930   */\n      tag_436\n        /* \"#utility.yul\":3924:3928   */\n      0xa0\n        /* \"#utility.yul\":3919:3922   */\n      dup6\n        /* \"#utility.yul\":3915:3929   */\n      add\n        /* \"#utility.yul\":3901:3913   */\n      dup3\n        /* \"#utility.yul\":3869:3930   */\n      tag_344\n      jump\t// in\n    tag_436:\n        /* \"#utility.yul\":3771:3940   */\n      pop\n        /* \"#utility.yul\":4024:4028   */\n      0xc0\n        /* \"#utility.yul\":4017:4022   */\n      dup3\n        /* \"#utility.yul\":4013:4029   */\n      add\n        /* \"#utility.yul\":4007:4030   */\n      mload\n        /* \"#utility.yul\":4043:4115   */\n      tag_437\n        /* \"#utility.yul\":4109:4113   */\n      0xc0\n        /* \"#utility.yul\":4104:4107   */\n      dup6\n        /* \"#utility.yul\":4100:4114   */\n      add\n        /* \"#utility.yul\":4086:4098   */\n      dup3\n        /* \"#utility.yul\":4043:4115   */\n      tag_348\n      jump\t// in\n    tag_437:\n        /* \"#utility.yul\":3950:4125   */\n      pop\n        /* \"#utility.yul\":2840:4132   */\n      pop\n        /* \"#utility.yul\":2726:4132   */\n      pop\n      pop\n      jump\t// out\n        /* \"#utility.yul\":4138:4457   */\n    tag_30:\n        /* \"#utility.yul\":4279:4283   */\n      0x00\n        /* \"#utility.yul\":4317:4320   */\n      0xe0\n        /* \"#utility.yul\":4306:4315   */\n      dup3\n        /* \"#utility.yul\":4302:4321   */\n      add\n        /* \"#utility.yul\":4294:4321   */\n      swap1\n      pop\n        /* \"#utility.yul\":4331:4450   */\n      tag_439\n        /* \"#utility.yul\":4447:4448   */\n      0x00\n        /* \"#utility.yul\":4436:4445   */\n      dup4\n        /* \"#utility.yul\":4432:4449   */\n      add\n        /* \"#utility.yul\":4423:4429   */\n      dup5\n        /* \"#utility.yul\":4331:4450   */\n      tag_349\n      jump\t// in\n    tag_439:\n        /* \"#utility.yul\":4138:4457   */\n      swap3\n      swap2\n      pop\n      pop\n      jump\t// out\n        /* \"#utility.yul\":4463:4552   */\n    tag_350:\n        /* \"#utility.yul\":4499:4506   */\n      0x00\n        /* \"#utility.yul\":4539:4545   */\n      0xffff\n        /* \"#utility.yul\":4532:4537   */\n      dup3\n        /* \"#utility.yul\":4528:4546   */\n      and\n        /* \"#utility.yul\":4517:4546   */\n      swap1\n      pop\n        /* \"#utility.yul\":4463:4552   */\n      swap2\n      swap1\n      pop\n      jump\t// out\n        /* \"#utility.yul\":4558:4673   */\n    tag_351:\n        /* \"#utility.yul\":4643:4666   */\n      tag_442\n        /* \"#utility.yul\":4660:4665   */\n      dup2\n        /* \"#utility.yul\":4643:4666   */\n      tag_350\n      jump\t// in\n    tag_442:\n        /* \"#utility.yul\":4638:4641   */\n      dup3\n        /* \"#utility.yul\":4631:4667   */\n      mstore\n        /* \"#utility.yul\":4558:4673   */\n      pop\n      pop\n      jump\t// out\n        /* \"#utility.yul\":4679:4897   */\n    tag_34:\n        /* \"#utility.yul\":4770:4774   */\n      0x00\n        /* \"#utility.yul\":4808:4810   */\n      0x20\n        /* \"#utility.yul\":4797:4806   */\n      dup3\n        /* \"#utility.yul\":4793:4811   */\n      add\n        /* \"#utility.yul\":4785:4811   */\n      swap1\n      pop\n        /* \"#utility.yul\":4821:4890   */\n      tag_444\n        /* \"#utility.yul\":4887:4888   */\n      0x00\n        /* \"#utility.yul\":4876:4885   */\n      dup4\n        /* \"#utility.yul\":4872:4889   */\n      add\n        /* \"#utility.yul\":4863:4869   */\n      dup5\n        /* \"#utility.yul\":4821:4890   */\n      tag_351\n      jump\t// in\n    tag_444:\n        /* \"#utility.yul\":4679:4897   */\n      swap3\n      swap2\n      pop\n      pop\n      jump\t// out\n        /* \"#utility.yul\":4903:4963   */\n    tag_352:\n        /* \"#utility.yul\":4931:4934   */\n      0x00\n        /* \"#utility.yul\":4952:4957   */\n      dup2\n        /* \"#utility.yul\":4945:4957   */\n      swap1\n      pop\n        /* \"#utility.yul\":4903:4963   */\n      swap2\n      swap1\n      pop\n      jump\t// out\n        /* \"#utility.yul\":4969:5111   */\n    tag_353:\n        /* \"#utility.yul\":5019:5028   */\n      0x00\n        /* \"#utility.yul\":5052:5105   */\n      tag_447\n        /* \"#utility.yul\":5070:5104   */\n      tag_448\n        /* \"#utility.yul\":5079:5103   */\n      tag_449\n        /* \"#utility.yul\":5097:5102   */\n      dup5\n        /* \"#utility.yul\":5079:5103   */\n      tag_338\n      jump\t// in\n    tag_449:\n        /* \"#utility.yul\":5070:5104   */\n      tag_352\n      jump\t// in\n    tag_448:\n        /* \"#utility.yul\":5052:5105   */\n      tag_338\n      jump\t// in\n    tag_447:\n        /* \"#utility.yul\":5039:5105   */\n      swap1\n      pop\n        /* \"#utility.yul\":4969:5111   */\n      swap2\n      swap1\n      pop\n      jump\t// out\n        /* \"#utility.yul\":5117:5243   */\n    tag_354:\n        /* \"#utility.yul\":5167:5176   */\n      0x00\n        /* \"#utility.yul\":5200:5237   */\n      tag_451\n        /* \"#utility.yul\":5231:5236   */\n      dup3\n        /* \"#utility.yul\":5200:5237   */\n      tag_353\n      jump\t// in\n    tag_451:\n        /* \"#utility.yul\":5187:5237   */\n      swap1\n      pop\n        /* \"#utility.yul\":5117:5243   */\n      swap2\n      swap1\n      pop\n      jump\t// out\n        /* \"#utility.yul\":5249:5389   */\n    tag_355:\n        /* \"#utility.yul\":5313:5322   */\n      0x00\n        /* \"#utility.yul\":5346:5383   */\n      tag_453\n        /* \"#utility.yul\":5377:5382   */\n      dup3\n        /* \"#utility.yul\":5346:5383   */\n      tag_354\n      jump\t// in\n    tag_453:\n        /* \"#utility.yul\":5333:5383   */\n      swap1\n      pop\n        /* \"#utility.yul\":5249:5389   */\n      swap2\n      swap1\n      pop\n      jump\t// out\n        /* \"#utility.yul\":5395:5554   */\n    tag_356:\n        /* \"#utility.yul\":5496:5547   */\n      tag_455\n        /* \"#utility.yul\":5541:5546   */\n      dup2\n        /* \"#utility.yul\":5496:5547   */\n      tag_355\n      jump\t// in\n    tag_455:\n        /* \"#utility.yul\":5491:5494   */\n      dup3\n        /* \"#utility.yul\":5484:5548   */\n      mstore\n        /* \"#utility.yul\":5395:5554   */\n      pop\n      pop\n      jump\t// out\n        /* \"#utility.yul\":5560:5810   */\n    tag_38:\n        /* \"#utility.yul\":5667:5671   */\n      0x00\n        /* \"#utility.yul\":5705:5707   */\n      0x20\n        /* \"#utility.yul\":5694:5703   */\n      dup3\n        /* \"#utility.yul\":5690:5708   */\n      add\n        /* \"#utility.yul\":5682:5708   */\n      swap1\n      pop\n        /* \"#utility.yul\":5718:5803   */\n      tag_457\n        /* \"#utility.yul\":5800:5801   */\n      0x00\n        /* \"#utility.yul\":5789:5798   */\n      dup4\n        /* \"#utility.yul\":5785:5802   */\n      add\n        /* \"#utility.yul\":5776:5782   */\n      dup5\n        /* \"#utility.yul\":5718:5803   */\n      tag_356\n      jump\t// in\n    tag_457:\n        /* \"#utility.yul\":5560:5810   */\n      swap3\n      swap2\n      pop\n      pop\n      jump\t// out\n        /* \"#utility.yul\":5816:5934   */\n    tag_357:\n        /* \"#utility.yul\":5903:5927   */\n      tag_459\n        /* \"#utility.yul\":5921:5926   */\n      dup2\n        /* \"#utility.yul\":5903:5927   */\n      tag_339\n      jump\t// in\n    tag_459:\n        /* \"#utility.yul\":5898:5901   */\n      dup3\n        /* \"#utility.yul\":5891:5928   */\n      mstore\n        /* \"#utility.yul\":5816:5934   */\n      pop\n      pop\n      jump\t// out\n        /* \"#utility.yul\":5940:6162   */\n    tag_44:\n        /* \"#utility.yul\":6033:6037   */\n      0x00\n        /* \"#utility.yul\":6071:6073   */\n      0x20\n        /* \"#utility.yul\":6060:6069   */\n      dup3\n        /* \"#utility.yul\":6056:6074   */\n      add\n        /* \"#utility.yul\":6048:6074   */\n      swap1\n      pop\n        /* \"#utility.yul\":6084:6155   */\n      tag_461\n        /* \"#utility.yul\":6152:6153   */\n      0x00\n        /* \"#utility.yul\":6141:6150   */\n      dup4\n        /* \"#utility.yul\":6137:6154   */\n      add\n        /* \"#utility.yul\":6128:6134   */\n      dup5\n        /* \"#utility.yul\":6084:6155   */\n      tag_357\n      jump\t// in\n    tag_461:\n        /* \"#utility.yul\":5940:6162   */\n      swap3\n      swap2\n      pop\n      pop\n      jump\t// out\n        /* \"#utility.yul\":6168:6258   */\n    tag_358:\n        /* \"#utility.yul\":6202:6209   */\n      0x00\n        /* \"#utility.yul\":6245:6250   */\n      dup2\n        /* \"#utility.yul\":6238:6251   */\n      iszero\n        /* \"#utility.yul\":6231:6252   */\n      iszero\n        /* \"#utility.yul\":6220:6252   */\n      swap1\n      pop\n        /* \"#utility.yul\":6168:6258   */\n      swap2\n      swap1\n      pop\n      jump\t// out\n        /* \"#utility.yul\":6264:6373   */\n    tag_359:\n        /* \"#utility.yul\":6345:6366   */\n      tag_464\n        /* \"#utility.yul\":6360:6365   */\n      dup2\n        /* \"#utility.yul\":6345:6366   */\n      tag_358\n      jump\t// in\n    tag_464:\n        /* \"#utility.yul\":6340:6343   */\n      dup3\n        /* \"#utility.yul\":6333:6367   */\n      mstore\n        /* \"#utility.yul\":6264:6373   */\n      pop\n      pop\n      jump\t// out\n        /* \"#utility.yul\":6379:6589   */\n    tag_48:\n        /* \"#utility.yul\":6466:6470   */\n      0x00\n        /* \"#utility.yul\":6504:6506   */\n      0x20\n        /* \"#utility.yul\":6493:6502   */\n      dup3\n        /* \"#utility.yul\":6489:6507   */\n      add\n        /* \"#utility.yul\":6481:6507   */\n      swap1\n      pop\n        /* \"#utility.yul\":6517:6582   */\n      tag_466\n        /* \"#utility.yul\":6579:6580   */\n      0x00\n        /* \"#utility.yul\":6568:6577   */\n      dup4\n        /* \"#utility.yul\":6564:6581   */\n      add\n        /* \"#utility.yul\":6555:6561   */\n      dup5\n        /* \"#utility.yul\":6517:6582   */\n      tag_359\n      jump\t// in\n    tag_466:\n        /* \"#utility.yul\":6379:6589   */\n      swap3\n      swap2\n      pop\n      pop\n      jump\t// out\n        /* \"#utility.yul\":6595:6681   */\n    tag_360:\n        /* \"#utility.yul\":6630:6637   */\n      0x00\n        /* \"#utility.yul\":6670:6674   */\n      0xff\n        /* \"#utility.yul\":6663:6668   */\n      dup3\n        /* \"#utility.yul\":6659:6675   */\n      and\n        /* \"#utility.yul\":6648:6675   */\n      swap1\n      pop\n        /* \"#utility.yul\":6595:6681   */\n      swap2\n      swap1\n      pop\n      jump\t// out\n        /* \"#utility.yul\":6687:6799   */\n    tag_361:\n        /* \"#utility.yul\":6770:6792   */\n      tag_469\n        /* \"#utility.yul\":6786:6791   */\n      dup2\n        /* \"#utility.yul\":6770:6792   */\n      tag_360\n      jump\t// in\n    tag_469:\n        /* \"#utility.yul\":6765:6768   */\n      dup3\n        /* \"#utility.yul\":6758:6793   */\n      mstore\n        /* \"#utility.yul\":6687:6799   */\n      pop\n      pop\n      jump\t// out\n        /* \"#utility.yul\":6805:7019   */\n    tag_54:\n        /* \"#utility.yul\":6894:6898   */\n      0x00\n        /* \"#utility.yul\":6932:6934   */\n      0x20\n        /* \"#utility.yul\":6921:6930   */\n      dup3\n        /* \"#utility.yul\":6917:6935   */\n      add\n        /* \"#utility.yul\":6909:6935   */\n      swap1\n      pop\n        /* \"#utility.yul\":6945:7012   */\n      tag_471\n        /* \"#utility.yul\":7009:7010   */\n      0x00\n        /* \"#utility.yul\":6998:7007   */\n      dup4\n        /* \"#utility.yul\":6994:7011   */\n      add\n        /* \"#utility.yul\":6985:6991   */\n      dup5\n        /* \"#utility.yul\":6945:7012   */\n      tag_361\n      jump\t// in\n    tag_471:\n        /* \"#utility.yul\":6805:7019   */\n      swap3\n      swap2\n      pop\n      pop\n      jump\t// out\n        /* \"#utility.yul\":7025:7147   */\n    tag_362:\n        /* \"#utility.yul\":7098:7122   */\n      tag_473\n        /* \"#utility.yul\":7116:7121   */\n      dup2\n        /* \"#utility.yul\":7098:7122   */\n      tag_339\n      jump\t// in\n    tag_473:\n        /* \"#utility.yul\":7091:7096   */\n      dup2\n        /* \"#utility.yul\":7088:7123   */\n      eq\n        /* \"#utility.yul\":7078:7141   */\n      tag_474\n      jumpi\n        /* \"#utility.yul\":7137:7138   */\n      0x00\n        /* \"#utility.yul\":7134:7135   */\n      0x00\n        /* \"#utility.yul\":7127:7139   */\n      revert\n        /* \"#utility.yul\":7078:7141   */\n    tag_474:\n        /* \"#utility.yul\":7025:7147   */\n      pop\n      jump\t// out\n        /* \"#utility.yul\":7153:7292   */\n    tag_363:\n        /* \"#utility.yul\":7199:7204   */\n      0x00\n        /* \"#utility.yul\":7237:7243   */\n      dup2\n        /* \"#utility.yul\":7224:7244   */\n      calldataload\n        /* \"#utility.yul\":7215:7244   */\n      swap1\n      pop\n        /* \"#utility.yul\":7253:7286   */\n      tag_476\n        /* \"#utility.yul\":7280:7285   */\n      dup2\n        /* \"#utility.yul\":7253:7286   */\n      tag_362\n      jump\t// in\n    tag_476:\n        /* \"#utility.yul\":7153:7292   */\n      swap3\n      swap2\n      pop\n      pop\n      jump\t// out\n        /* \"#utility.yul\":7298:7418   */\n    tag_364:\n        /* \"#utility.yul\":7370:7393   */\n      tag_478\n        /* \"#utility.yul\":7387:7392   */\n      dup2\n        /* \"#utility.yul\":7370:7393   */\n      tag_343\n      jump\t// in\n    tag_478:\n        /* \"#utility.yul\":7363:7368   */\n      dup2\n        /* \"#utility.yul\":7360:7394   */\n      eq\n        /* \"#utility.yul\":7350:7412   */\n      tag_479\n      jumpi\n        /* \"#utility.yul\":7408:7409   */\n      0x00\n        /* \"#utility.yul\":7405:7406   */\n      0x00\n        /* \"#utility.yul\":7398:7410   */\n      revert\n        /* \"#utility.yul\":7350:7412   */\n    tag_479:\n        /* \"#utility.yul\":7298:7418   */\n      pop\n      jump\t// out\n        /* \"#utility.yul\":7424:7561   */\n    tag_365:\n        /* \"#utility.yul\":7469:7474   */\n      0x00\n        /* \"#utility.yul\":7507:7513   */\n      dup2\n        /* \"#utility.yul\":7494:7514   */\n      calldataload\n        /* \"#utility.yul\":7485:7514   */\n      swap1\n      pop\n        /* \"#utility.yul\":7523:7555   */\n      tag_481\n        /* \"#utility.yul\":7549:7554   */\n      dup2\n        /* \"#utility.yul\":7523:7555   */\n      tag_364\n      jump\t// in\n    tag_481:\n        /* \"#utility.yul\":7424:7561   */\n      swap3\n      swap2\n      pop\n      pop\n      jump\t// out\n        /* \"#utility.yul\":7567:7644   */\n    tag_366:\n        /* \"#utility.yul\":7604:7611   */\n      0x00\n        /* \"#utility.yul\":7633:7638   */\n      dup2\n        /* \"#utility.yul\":7622:7638   */\n      swap1\n      pop\n        /* \"#utility.yul\":7567:7644   */\n      swap2\n      swap1\n      pop\n      jump\t// out\n        /* \"#utility.yul\":7650:7772   */\n    tag_367:\n        /* \"#utility.yul\":7723:7747   */\n      tag_484\n        /* \"#utility.yul\":7741:7746   */\n      dup2\n        /* \"#utility.yul\":7723:7747   */\n      tag_366\n      jump\t// in\n    tag_484:\n        /* \"#utility.yul\":7716:7721   */\n      dup2\n        /* \"#utility.yul\":7713:7748   */\n      eq\n        /* \"#utility.yul\":7703:7766   */\n      tag_485\n      jumpi\n        /* \"#utility.yul\":7762:7763   */\n      0x00\n        /* \"#utility.yul\":7759:7760   */\n      0x00\n        /* \"#utility.yul\":7752:7764   */\n      revert\n        /* \"#utility.yul\":7703:7766   */\n    tag_485:\n        /* \"#utility.yul\":7650:7772   */\n      pop\n      jump\t// out\n        /* \"#utility.yul\":7778:7917   */\n    tag_368:\n        /* \"#utility.yul\":7824:7829   */\n      0x00\n        /* \"#utility.yul\":7862:7868   */\n      dup2\n        /* \"#utility.yul\":7849:7869   */\n      calldataload\n        /* \"#utility.yul\":7840:7869   */\n      swap1\n      pop\n        /* \"#utility.yul\":7878:7911   */\n      tag_487\n        /* \"#utility.yul\":7905:7910   */\n      dup2\n        /* \"#utility.yul\":7878:7911   */\n      tag_367\n      jump\t// in\n    tag_487:\n        /* \"#utility.yul\":7778:7917   */\n      swap3\n      swap2\n      pop\n      pop\n      jump\t// out\n        /* \"#utility.yul\":7923:8830   */\n    tag_62:\n        /* \"#utility.yul\":8016:8022   */\n      0x00\n        /* \"#utility.yul\":8024:8030   */\n      0x00\n        /* \"#utility.yul\":8032:8038   */\n      0x00\n        /* \"#utility.yul\":8040:8046   */\n      0x00\n        /* \"#utility.yul\":8048:8054   */\n      0x00\n        /* \"#utility.yul\":8097:8100   */\n      0xa0\n        /* \"#utility.yul\":8085:8094   */\n      dup7\n        /* \"#utility.yul\":8076:8083   */\n      dup9\n        /* \"#utility.yul\":8072:8095   */\n      sub\n        /* \"#utility.yul\":8068:8101   */\n      slt\n        /* \"#utility.yul\":8065:8185   */\n      iszero\n      tag_489\n      jumpi\n        /* \"#utility.yul\":8104:8183   */\n      tag_490\n      tag_332\n      jump\t// in\n    tag_490:\n        /* \"#utility.yul\":8065:8185   */\n    tag_489:\n        /* \"#utility.yul\":8224:8225   */\n      0x00\n        /* \"#utility.yul\":8249:8302   */\n      tag_491\n        /* \"#utility.yul\":8294:8301   */\n      dup9\n        /* \"#utility.yul\":8285:8291   */\n      dup3\n        /* \"#utility.yul\":8274:8283   */\n      dup10\n        /* \"#utility.yul\":8270:8292   */\n      add\n        /* \"#utility.yul\":8249:8302   */\n      tag_363\n      jump\t// in\n    tag_491:\n        /* \"#utility.yul\":8239:8302   */\n      swap6\n      pop\n        /* \"#utility.yul\":8195:8312   */\n      pop\n        /* \"#utility.yul\":8351:8353   */\n      0x20\n        /* \"#utility.yul\":8377:8430   */\n      tag_492\n        /* \"#utility.yul\":8422:8429   */\n      dup9\n        /* \"#utility.yul\":8413:8419   */\n      dup3\n        /* \"#utility.yul\":8402:8411   */\n      dup10\n        /* \"#utility.yul\":8398:8420   */\n      add\n        /* \"#utility.yul\":8377:8430   */\n      tag_336\n      jump\t// in\n    tag_492:\n        /* \"#utility.yul\":8367:8430   */\n      swap5\n      pop\n        /* \"#utility.yul\":8322:8440   */\n      pop\n        /* \"#utility.yul\":8479:8481   */\n      0x40\n        /* \"#utility.yul\":8505:8557   */\n      tag_493\n        /* \"#utility.yul\":8549:8556   */\n      dup9\n        /* \"#utility.yul\":8540:8546   */\n      dup3\n        /* \"#utility.yul\":8529:8538   */\n      dup10\n        /* \"#utility.yul\":8525:8547   */\n      add\n        /* \"#utility.yul\":8505:8557   */\n      tag_365\n      jump\t// in\n    tag_493:\n        /* \"#utility.yul\":8495:8557   */\n      swap4\n      pop\n        /* \"#utility.yul\":8450:8567   */\n      pop\n        /* \"#utility.yul\":8606:8608   */\n      0x60\n        /* \"#utility.yul\":8632:8684   */\n      tag_494\n        /* \"#utility.yul\":8676:8683   */\n      dup9\n        /* \"#utility.yul\":8667:8673   */\n      dup3\n        /* \"#utility.yul\":8656:8665   */\n      dup10\n        /* \"#utility.yul\":8652:8674   */\n      add\n        /* \"#utility.yul\":8632:8684   */\n      tag_365\n      jump\t// in\n    tag_494:\n        /* \"#utility.yul\":8622:8684   */\n      swap3\n      pop\n        /* \"#utility.yul\":8577:8694   */\n      pop\n        /* \"#utility.yul\":8733:8736   */\n      0x80\n        /* \"#utility.yul\":8760:8813   */\n      tag_495\n        /* \"#utility.yul\":8805:8812   */\n      dup9\n        /* \"#utility.yul\":8796:8802   */\n      dup3\n        /* \"#utility.yul\":8785:8794   */\n      dup10\n        /* \"#utility.yul\":8781:8803   */\n      add\n        /* \"#utility.yul\":8760:8813   */\n      tag_368\n      jump\t// in\n    tag_495:\n        /* \"#utility.yul\":8750:8813   */\n      swap2\n      pop\n        /* \"#utility.yul\":8704:8823   */\n      pop\n        /* \"#utility.yul\":7923:8830   */\n      swap3\n      swap6\n      pop\n      swap3\n      swap6\n      swap1\n      swap4\n      pop\n      jump\t// out\n        /* \"#utility.yul\":8836:8954   */\n    tag_369:\n        /* \"#utility.yul\":8923:8947   */\n      tag_497\n        /* \"#utility.yul\":8941:8946   */\n      dup2\n        /* \"#utility.yul\":8923:8947   */\n      tag_334\n      jump\t// in\n    tag_497:\n        /* \"#utility.yul\":8918:8921   */\n      dup3\n        /* \"#utility.yul\":8911:8948   */\n      mstore\n        /* \"#utility.yul\":8836:8954   */\n      pop\n      pop\n      jump\t// out\n        /* \"#utility.yul\":8960:9182   */\n    tag_65:\n        /* \"#utility.yul\":9053:9057   */\n      0x00\n        /* \"#utility.yul\":9091:9093   */\n      0x20\n        /* \"#utility.yul\":9080:9089   */\n      dup3\n        /* \"#utility.yul\":9076:9094   */\n      add\n        /* \"#utility.yul\":9068:9094   */\n      swap1\n      pop\n        /* \"#utility.yul\":9104:9175   */\n      tag_499\n        /* \"#utility.yul\":9172:9173   */\n      0x00\n        /* \"#utility.yul\":9161:9170   */\n      dup4\n        /* \"#utility.yul\":9157:9174   */\n      add\n        /* \"#utility.yul\":9148:9154   */\n      dup5\n        /* \"#utility.yul\":9104:9175   */\n      tag_369\n      jump\t// in\n    tag_499:\n        /* \"#utility.yul\":8960:9182   */\n      swap3\n      swap2\n      pop\n      pop\n      jump\t// out\n        /* \"#utility.yul\":9188:9805   */\n    tag_74:\n        /* \"#utility.yul\":9264:9270   */\n      0x00\n        /* \"#utility.yul\":9272:9278   */\n      0x00\n        /* \"#utility.yul\":9280:9286   */\n      0x00\n        /* \"#utility.yul\":9329:9331   */\n      0x60\n        /* \"#utility.yul\":9317:9326   */\n      dup5\n        /* \"#utility.yul\":9308:9315   */\n      dup7\n        /* \"#utility.yul\":9304:9327   */\n      sub\n        /* \"#utility.yul\":9300:9332   */\n      slt\n        /* \"#utility.yul\":9297:9416   */\n      iszero\n      tag_501\n      jumpi\n        /* \"#utility.yul\":9335:9414   */\n      tag_502\n      tag_332\n      jump\t// in\n    tag_502:\n        /* \"#utility.yul\":9297:9416   */\n    tag_501:\n        /* \"#utility.yul\":9455:9456   */\n      0x00\n        /* \"#utility.yul\":9480:9533   */\n      tag_503\n        /* \"#utility.yul\":9525:9532   */\n      dup7\n        /* \"#utility.yul\":9516:9522   */\n      dup3\n        /* \"#utility.yul\":9505:9514   */\n      dup8\n        /* \"#utility.yul\":9501:9523   */\n      add\n        /* \"#utility.yul\":9480:9533   */\n      tag_363\n      jump\t// in\n    tag_503:\n        /* \"#utility.yul\":9470:9533   */\n      swap4\n      pop\n        /* \"#utility.yul\":9426:9543   */\n      pop\n        /* \"#utility.yul\":9582:9584   */\n      0x20\n        /* \"#utility.yul\":9608:9661   */\n      tag_504\n        /* \"#utility.yul\":9653:9660   */\n      dup7\n        /* \"#utility.yul\":9644:9650   */\n      dup3\n        /* \"#utility.yul\":9633:9642   */\n      dup8\n        /* \"#utility.yul\":9629:9651   */\n      add\n        /* \"#utility.yul\":9608:9661   */\n      tag_336\n      jump\t// in\n    tag_504:\n        /* \"#utility.yul\":9598:9661   */\n      swap3\n      pop\n        /* \"#utility.yul\":9553:9671   */\n      pop\n        /* \"#utility.yul\":9710:9712   */\n      0x40\n        /* \"#utility.yul\":9736:9788   */\n      tag_505\n        /* \"#utility.yul\":9780:9787   */\n      dup7\n        /* \"#utility.yul\":9771:9777   */\n      dup3\n        /* \"#utility.yul\":9760:9769   */\n      dup8\n        /* \"#utility.yul\":9756:9778   */\n      add\n        /* \"#utility.yul\":9736:9788   */\n      tag_365\n      jump\t// in\n    tag_505:\n        /* \"#utility.yul\":9726:9788   */\n      swap2\n      pop\n        /* \"#utility.yul\":9681:9798   */\n      pop\n        /* \"#utility.yul\":9188:9805   */\n      swap3\n      pop\n      swap3\n      pop\n      swap3\n      jump\t// out\n        /* \"#utility.yul\":9811:10285   */\n    tag_79:\n        /* \"#utility.yul\":9879:9885   */\n      0x00\n        /* \"#utility.yul\":9887:9893   */\n      0x00\n        /* \"#utility.yul\":9936:9938   */\n      0x40\n        /* \"#utility.yul\":9924:9933   */\n      dup4\n        /* \"#utility.yul\":9915:9922   */\n      dup6\n        /* \"#utility.yul\":9911:9934   */\n      sub\n        /* \"#utility.yul\":9907:9939   */\n      slt\n        /* \"#utility.yul\":9904:10023   */\n      iszero\n      tag_507\n      jumpi\n        /* \"#utility.yul\":9942:10021   */\n      tag_508\n      tag_332\n      jump\t// in\n    tag_508:\n        /* \"#utility.yul\":9904:10023   */\n    tag_507:\n        /* \"#utility.yul\":10062:10063   */\n      0x00\n        /* \"#utility.yul\":10087:10140   */\n      tag_509\n        /* \"#utility.yul\":10132:10139   */\n      dup6\n        /* \"#utility.yul\":10123:10129   */\n      dup3\n        /* \"#utility.yul\":10112:10121   */\n      dup7\n        /* \"#utility.yul\":10108:10130   */\n      add\n        /* \"#utility.yul\":10087:10140   */\n      tag_336\n      jump\t// in\n    tag_509:\n        /* \"#utility.yul\":10077:10140   */\n      swap3\n      pop\n        /* \"#utility.yul\":10033:10150   */\n      pop\n        /* \"#utility.yul\":10189:10191   */\n      0x20\n        /* \"#utility.yul\":10215:10268   */\n      tag_510\n        /* \"#utility.yul\":10260:10267   */\n      dup6\n        /* \"#utility.yul\":10251:10257   */\n      dup3\n        /* \"#utility.yul\":10240:10249   */\n      dup7\n        /* \"#utility.yul\":10236:10258   */\n      add\n        /* \"#utility.yul\":10215:10268   */\n      tag_363\n      jump\t// in\n    tag_510:\n        /* \"#utility.yul\":10205:10268   */\n      swap2\n      pop\n        /* \"#utility.yul\":10160:10278   */\n      pop\n        /* \"#utility.yul\":9811:10285   */\n      swap3\n      pop\n      swap3\n      swap1\n      pop\n      jump\t// out\n        /* \"#utility.yul\":10291:10411   */\n    tag_370:\n        /* \"#utility.yul\":10363:10386   */\n      tag_512\n        /* \"#utility.yul\":10380:10385   */\n      dup2\n        /* \"#utility.yul\":10363:10386   */\n      tag_350\n      jump\t// in\n    tag_512:\n        /* \"#utility.yul\":10356:10361   */\n      dup2\n        /* \"#utility.yul\":10353:10387   */\n      eq\n        /* \"#utility.yul\":10343:10405   */\n      tag_513\n      jumpi\n        /* \"#utility.yul\":10401:10402   */\n      0x00\n        /* \"#utility.yul\":10398:10399   */\n      0x00\n        /* \"#utility.yul\":10391:10403   */\n      revert\n        /* \"#utility.yul\":10343:10405   */\n    tag_513:\n        /* \"#utility.yul\":10291:10411   */\n      pop\n      jump\t// out\n        /* \"#utility.yul\":10417:10554   */\n    tag_371:\n        /* \"#utility.yul\":10462:10467   */\n      0x00\n        /* \"#utility.yul\":10500:10506   */\n      dup2\n        /* \"#utility.yul\":10487:10507   */\n      calldataload\n        /* \"#utility.yul\":10478:10507   */\n      swap1\n      pop\n        /* \"#utility.yul\":10516:10548   */\n      tag_515\n        /* \"#utility.yul\":10542:10547   */\n      dup2\n        /* \"#utility.yul\":10516:10548   */\n      tag_370\n      jump\t// in\n    tag_515:\n        /* \"#utility.yul\":10417:10554   */\n      swap3\n      swap2\n      pop\n      pop\n      jump\t// out\n        /* \"#utility.yul\":10560:11032   */\n    tag_86:\n        /* \"#utility.yul\":10627:10633   */\n      0x00\n        /* \"#utility.yul\":10635:10641   */\n      0x00\n        /* \"#utility.yul\":10684:10686   */\n      0x40\n        /* \"#utility.yul\":10672:10681   */\n      dup4\n        /* \"#utility.yul\":10663:10670   */\n      dup6\n        /* \"#utility.yul\":10659:10682   */\n      sub\n        /* \"#utility.yul\":10655:10687   */\n      slt\n        /* \"#utility.yul\":10652:10771   */\n      iszero\n      tag_517\n      jumpi\n        /* \"#utility.yul\":10690:10769   */\n      tag_518\n      tag_332\n      jump\t// in\n    tag_518:\n        /* \"#utility.yul\":10652:10771   */\n    tag_517:\n        /* \"#utility.yul\":10810:10811   */\n      0x00\n        /* \"#utility.yul\":10835:10887   */\n      tag_519\n        /* \"#utility.yul\":10879:10886   */\n      dup6\n        /* \"#utility.yul\":10870:10876   */\n      dup3\n        /* \"#utility.yul\":10859:10868   */\n      dup7\n        /* \"#utility.yul\":10855:10877   */\n      add\n        /* \"#utility.yul\":10835:10887   */\n      tag_371\n      jump\t// in\n    tag_519:\n        /* \"#utility.yul\":10825:10887   */\n      swap3\n      pop\n        /* \"#utility.yul\":10781:10897   */\n      pop\n        /* \"#utility.yul\":10936:10938   */\n      0x20\n        /* \"#utility.yul\":10962:11015   */\n      tag_520\n        /* \"#utility.yul\":11007:11014   */\n      dup6\n        /* \"#utility.yul\":10998:11004   */\n      dup3\n        /* \"#utility.yul\":10987:10996   */\n      dup7\n        /* \"#utility.yul\":10983:11005   */\n      add\n        /* \"#utility.yul\":10962:11015   */\n      tag_363\n      jump\t// in\n    tag_520:\n        /* \"#utility.yul\":10952:11015   */\n      swap2\n      pop\n        /* \"#utility.yul\":10907:11025   */\n      pop\n        /* \"#utility.yul\":10560:11032   */\n      swap3\n      pop\n      swap3\n      swap1\n      pop\n      jump\t// out\n        /* \"#utility.yul\":11038:11512   */\n    tag_90:\n        /* \"#utility.yul\":11106:11112   */\n      0x00\n        /* \"#utility.yul\":11114:11120   */\n      0x00\n        /* \"#utility.yul\":11163:11165   */\n      0x40\n        /* \"#utility.yul\":11151:11160   */\n      dup4\n        /* \"#utility.yul\":11142:11149   */\n      dup6\n        /* \"#utility.yul\":11138:11161   */\n      sub\n        /* \"#utility.yul\":11134:11166   */\n      slt\n        /* \"#utility.yul\":11131:11250   */\n      iszero\n      tag_522\n      jumpi\n        /* \"#utility.yul\":11169:11248   */\n      tag_523\n      tag_332\n      jump\t// in\n    tag_523:\n        /* \"#utility.yul\":11131:11250   */\n    tag_522:\n        /* \"#utility.yul\":11289:11290   */\n      0x00\n        /* \"#utility.yul\":11314:11367   */\n      tag_524\n        /* \"#utility.yul\":11359:11366   */\n      dup6\n        /* \"#utility.yul\":11350:11356   */\n      dup3\n        /* \"#utility.yul\":11339:11348   */\n      dup7\n        /* \"#utility.yul\":11335:11357   */\n      add\n        /* \"#utility.yul\":11314:11367   */\n      tag_336\n      jump\t// in\n    tag_524:\n        /* \"#utility.yul\":11304:11367   */\n      swap3\n      pop\n        /* \"#utility.yul\":11260:11377   */\n      pop\n        /* \"#utility.yul\":11416:11418   */\n      0x20\n        /* \"#utility.yul\":11442:11495   */\n      tag_525\n        /* \"#utility.yul\":11487:11494   */\n      dup6\n        /* \"#utility.yul\":11478:11484   */\n      dup3\n        /* \"#utility.yul\":11467:11476   */\n      dup7\n        /* \"#utility.yul\":11463:11485   */\n      add\n        /* \"#utility.yul\":11442:11495   */\n      tag_368\n      jump\t// in\n    tag_525:\n        /* \"#utility.yul\":11432:11495   */\n      swap2\n      pop\n        /* \"#utility.yul\":11387:11505   */\n      pop\n        /* \"#utility.yul\":11038:11512   */\n      swap3\n      pop\n      swap3\n      swap1\n      pop\n      jump\t// out\n        /* \"#utility.yul\":11518:11847   */\n    tag_94:\n        /* \"#utility.yul\":11577:11583   */\n      0x00\n        /* \"#utility.yul\":11626:11628   */\n      0x20\n        /* \"#utility.yul\":11614:11623   */\n      dup3\n        /* \"#utility.yul\":11605:11612   */\n      dup5\n        /* \"#utility.yul\":11601:11624   */\n      sub\n        /* \"#utility.yul\":11597:11629   */\n      slt\n        /* \"#utility.yul\":11594:11713   */\n      iszero\n      tag_527\n      jumpi\n        /* \"#utility.yul\":11632:11711   */\n      tag_528\n      tag_332\n      jump\t// in\n    tag_528:\n        /* \"#utility.yul\":11594:11713   */\n    tag_527:\n        /* \"#utility.yul\":11752:11753   */\n      0x00\n        /* \"#utility.yul\":11777:11830   */\n      tag_529\n        /* \"#utility.yul\":11822:11829   */\n      dup5\n        /* \"#utility.yul\":11813:11819   */\n      dup3\n        /* \"#utility.yul\":11802:11811   */\n      dup6\n        /* \"#utility.yul\":11798:11820   */\n      add\n        /* \"#utility.yul\":11777:11830   */\n      tag_363\n      jump\t// in\n    tag_529:\n        /* \"#utility.yul\":11767:11830   */\n      swap2\n      pop\n        /* \"#utility.yul\":11723:11840   */\n      pop\n        /* \"#utility.yul\":11518:11847   */\n      swap3\n      swap2\n      pop\n      pop\n      jump\t// out\n        /* \"#utility.yul\":11853:11968   */\n    tag_372:\n        /* \"#utility.yul\":11938:11961   */\n      tag_531\n        /* \"#utility.yul\":11955:11960   */\n      dup2\n        /* \"#utility.yul\":11938:11961   */\n      tag_343\n      jump\t// in\n    tag_531:\n        /* \"#utility.yul\":11933:11936   */\n      dup3\n        /* \"#utility.yul\":11926:11962   */\n      mstore\n        /* \"#utility.yul\":11853:11968   */\n      pop\n      pop\n      jump\t// out\n        /* \"#utility.yul\":11974:12092   */\n    tag_373:\n        /* \"#utility.yul\":12061:12085   */\n      tag_533\n        /* \"#utility.yul\":12079:12084   */\n      dup2\n        /* \"#utility.yul\":12061:12085   */\n      tag_366\n      jump\t// in\n    tag_533:\n        /* \"#utility.yul\":12056:12059   */\n      dup3\n        /* \"#utility.yul\":12049:12086   */\n      mstore\n        /* \"#utility.yul\":11974:12092   */\n      pop\n      pop\n      jump\t// out\n        /* \"#utility.yul\":12098:12643   */\n    tag_149:\n        /* \"#utility.yul\":12271:12275   */\n      0x00\n        /* \"#utility.yul\":12309:12312   */\n      0x80\n        /* \"#utility.yul\":12298:12307   */\n      dup3\n        /* \"#utility.yul\":12294:12313   */\n      add\n        /* \"#utility.yul\":12286:12313   */\n      swap1\n      pop\n        /* \"#utility.yul\":12323:12392   */\n      tag_535\n        /* \"#utility.yul\":12389:12390   */\n      0x00\n        /* \"#utility.yul\":12378:12387   */\n      dup4\n        /* \"#utility.yul\":12374:12391   */\n      add\n        /* \"#utility.yul\":12365:12371   */\n      dup8\n        /* \"#utility.yul\":12323:12392   */\n      tag_372\n      jump\t// in\n    tag_535:\n        /* \"#utility.yul\":12402:12472   */\n      tag_536\n        /* \"#utility.yul\":12468:12470   */\n      0x20\n        /* \"#utility.yul\":12457:12466   */\n      dup4\n        /* \"#utility.yul\":12453:12471   */\n      add\n        /* \"#utility.yul\":12444:12450   */\n      dup7\n        /* \"#utility.yul\":12402:12472   */\n      tag_372\n      jump\t// in\n    tag_536:\n        /* \"#utility.yul\":12482:12554   */\n      tag_537\n        /* \"#utility.yul\":12550:12552   */\n      0x40\n        /* \"#utility.yul\":12539:12548   */\n      dup4\n        /* \"#utility.yul\":12535:12553   */\n      add\n        /* \"#utility.yul\":12526:12532   */\n      dup6\n        /* \"#utility.yul\":12482:12554   */\n      tag_357\n      jump\t// in\n    tag_537:\n        /* \"#utility.yul\":12564:12636   */\n      tag_538\n        /* \"#utility.yul\":12632:12634   */\n      0x60\n        /* \"#utility.yul\":12621:12630   */\n      dup4\n        /* \"#utility.yul\":12617:12635   */\n      add\n        /* \"#utility.yul\":12608:12614   */\n      dup5\n        /* \"#utility.yul\":12564:12636   */\n      tag_373\n      jump\t// in\n    tag_538:\n        /* \"#utility.yul\":12098:12643   */\n      swap6\n      swap5\n      pop\n      pop\n      pop\n      pop\n      pop\n      jump\t// out\n        /* \"#utility.yul\":12649:12871   */\n    tag_169:\n        /* \"#utility.yul\":12742:12746   */\n      0x00\n        /* \"#utility.yul\":12780:12782   */\n      0x20\n        /* \"#utility.yul\":12769:12778   */\n      dup3\n        /* \"#utility.yul\":12765:12783   */\n      add\n        /* \"#utility.yul\":12757:12783   */\n      swap1\n      pop\n        /* \"#utility.yul\":12793:12864   */\n      tag_540\n        /* \"#utility.yul\":12861:12862   */\n      0x00\n        /* \"#utility.yul\":12850:12859   */\n      dup4\n        /* \"#utility.yul\":12846:12863   */\n      add\n        /* \"#utility.yul\":12837:12843   */\n      dup5\n        /* \"#utility.yul\":12793:12864   */\n      tag_373\n      jump\t// in\n    tag_540:\n        /* \"#utility.yul\":12649:12871   */\n      swap3\n      swap2\n      pop\n      pop\n      jump\t// out\n        /* \"#utility.yul\":12877:12971   */\n    tag_374:\n        /* \"#utility.yul\":12910:12918   */\n      0x00\n        /* \"#utility.yul\":12958:12963   */\n      dup2\n        /* \"#utility.yul\":12954:12956   */\n      0x60\n        /* \"#utility.yul\":12950:12964   */\n      shl\n        /* \"#utility.yul\":12929:12964   */\n      swap1\n      pop\n        /* \"#utility.yul\":12877:12971   */\n      swap2\n      swap1\n      pop\n      jump\t// out\n        /* \"#utility.yul\":12977:13071   */\n    tag_375:\n        /* \"#utility.yul\":13016:13023   */\n      0x00\n        /* \"#utility.yul\":13045:13065   */\n      tag_543\n        /* \"#utility.yul\":13059:13064   */\n      dup3\n        /* \"#utility.yul\":13045:13065   */\n      tag_374\n      jump\t// in\n    tag_543:\n        /* \"#utility.yul\":13034:13065   */\n      swap1\n      pop\n        /* \"#utility.yul\":12977:13071   */\n      swap2\n      swap1\n      pop\n      jump\t// out\n        /* \"#utility.yul\":13077:13177   */\n    tag_376:\n        /* \"#utility.yul\":13116:13123   */\n      0x00\n        /* \"#utility.yul\":13145:13171   */\n      tag_545\n        /* \"#utility.yul\":13165:13170   */\n      dup3\n        /* \"#utility.yul\":13145:13171   */\n      tag_375\n      jump\t// in\n    tag_545:\n        /* \"#utility.yul\":13134:13171   */\n      swap1\n      pop\n        /* \"#utility.yul\":13077:13177   */\n      swap2\n      swap1\n      pop\n      jump\t// out\n        /* \"#utility.yul\":13183:13340   */\n    tag_377:\n        /* \"#utility.yul\":13288:13333   */\n      tag_547\n        /* \"#utility.yul\":13308:13332   */\n      tag_548\n        /* \"#utility.yul\":13326:13331   */\n      dup3\n        /* \"#utility.yul\":13308:13332   */\n      tag_339\n      jump\t// in\n    tag_548:\n        /* \"#utility.yul\":13288:13333   */\n      tag_376\n      jump\t// in\n    tag_547:\n        /* \"#utility.yul\":13283:13286   */\n      dup3\n        /* \"#utility.yul\":13276:13334   */\n      mstore\n        /* \"#utility.yul\":13183:13340   */\n      pop\n      pop\n      jump\t// out\n        /* \"#utility.yul\":13346:13425   */\n    tag_378:\n        /* \"#utility.yul\":13385:13392   */\n      0x00\n        /* \"#utility.yul\":13414:13419   */\n      dup2\n        /* \"#utility.yul\":13403:13419   */\n      swap1\n      pop\n        /* \"#utility.yul\":13346:13425   */\n      swap2\n      swap1\n      pop\n      jump\t// out\n        /* \"#utility.yul\":13431:13588   */\n    tag_379:\n        /* \"#utility.yul\":13536:13581   */\n      tag_551\n        /* \"#utility.yul\":13556:13580   */\n      tag_552\n        /* \"#utility.yul\":13574:13579   */\n      dup3\n        /* \"#utility.yul\":13556:13580   */\n      tag_334\n      jump\t// in\n    tag_552:\n        /* \"#utility.yul\":13536:13581   */\n      tag_378\n      jump\t// in\n    tag_551:\n        /* \"#utility.yul\":13531:13534   */\n      dup3\n        /* \"#utility.yul\":13524:13582   */\n      mstore\n        /* \"#utility.yul\":13431:13588   */\n      pop\n      pop\n      jump\t// out\n        /* \"#utility.yul\":13594:13690   */\n    tag_380:\n        /* \"#utility.yul\":13628:13636   */\n      0x00\n        /* \"#utility.yul\":13677:13682   */\n      dup2\n        /* \"#utility.yul\":13672:13675   */\n      0xc0\n        /* \"#utility.yul\":13668:13683   */\n      shl\n        /* \"#utility.yul\":13647:13683   */\n      swap1\n      pop\n        /* \"#utility.yul\":13594:13690   */\n      swap2\n      swap1\n      pop\n      jump\t// out\n        /* \"#utility.yul\":13696:13790   */\n    tag_381:\n        /* \"#utility.yul\":13734:13741   */\n      0x00\n        /* \"#utility.yul\":13763:13784   */\n      tag_555\n        /* \"#utility.yul\":13778:13783   */\n      dup3\n        /* \"#utility.yul\":13763:13784   */\n      tag_380\n      jump\t// in\n    tag_555:\n        /* \"#utility.yul\":13752:13784   */\n      swap1\n      pop\n        /* \"#utility.yul\":13696:13790   */\n      swap2\n      swap1\n      pop\n      jump\t// out\n        /* \"#utility.yul\":13796:13949   */\n    tag_382:\n        /* \"#utility.yul\":13899:13942   */\n      tag_557\n        /* \"#utility.yul\":13918:13941   */\n      tag_558\n        /* \"#utility.yul\":13935:13940   */\n      dup3\n        /* \"#utility.yul\":13918:13941   */\n      tag_343\n      jump\t// in\n    tag_558:\n        /* \"#utility.yul\":13899:13942   */\n      tag_381\n      jump\t// in\n    tag_557:\n        /* \"#utility.yul\":13894:13897   */\n      dup3\n        /* \"#utility.yul\":13887:13943   */\n      mstore\n        /* \"#utility.yul\":13796:13949   */\n      pop\n      pop\n      jump\t// out\n        /* \"#utility.yul\":13955:14488   */\n    tag_191:\n        /* \"#utility.yul\":14121:14124   */\n      0x00\n        /* \"#utility.yul\":14136:14211   */\n      tag_560\n        /* \"#utility.yul\":14207:14210   */\n      dup3\n        /* \"#utility.yul\":14198:14204   */\n      dup7\n        /* \"#utility.yul\":14136:14211   */\n      tag_377\n      jump\t// in\n    tag_560:\n        /* \"#utility.yul\":14236:14238   */\n      0x14\n        /* \"#utility.yul\":14231:14234   */\n      dup3\n        /* \"#utility.yul\":14227:14239   */\n      add\n        /* \"#utility.yul\":14220:14239   */\n      swap2\n      pop\n        /* \"#utility.yul\":14249:14324   */\n      tag_561\n        /* \"#utility.yul\":14320:14323   */\n      dup3\n        /* \"#utility.yul\":14311:14317   */\n      dup6\n        /* \"#utility.yul\":14249:14324   */\n      tag_379\n      jump\t// in\n    tag_561:\n        /* \"#utility.yul\":14349:14351   */\n      0x20\n        /* \"#utility.yul\":14344:14347   */\n      dup3\n        /* \"#utility.yul\":14340:14352   */\n      add\n        /* \"#utility.yul\":14333:14352   */\n      swap2\n      pop\n        /* \"#utility.yul\":14362:14435   */\n      tag_562\n        /* \"#utility.yul\":14431:14434   */\n      dup3\n        /* \"#utility.yul\":14422:14428   */\n      dup5\n        /* \"#utility.yul\":14362:14435   */\n      tag_382\n      jump\t// in\n    tag_562:\n        /* \"#utility.yul\":14460:14461   */\n      0x08\n        /* \"#utility.yul\":14455:14458   */\n      dup3\n        /* \"#utility.yul\":14451:14462   */\n      add\n        /* \"#utility.yul\":14444:14462   */\n      swap2\n      pop\n        /* \"#utility.yul\":14479:14482   */\n      dup2\n        /* \"#utility.yul\":14472:14482   */\n      swap1\n      pop\n        /* \"#utility.yul\":13955:14488   */\n      swap5\n      swap4\n      pop\n      pop\n      pop\n      pop\n      jump\t// out\n        /* \"#utility.yul\":14494:14674   */\n    tag_383:\n        /* \"#utility.yul\":14542:14619   */\n      0x4e487b7100000000000000000000000000000000000000000000000000000000\n        /* \"#utility.yul\":14539:14540   */\n      0x00\n        /* \"#utility.yul\":14532:14620   */\n      mstore\n        /* \"#utility.yul\":14639:14643   */\n      0x11\n        /* \"#utility.yul\":14636:14637   */\n      0x04\n        /* \"#utility.yul\":14629:14644   */\n      mstore\n        /* \"#utility.yul\":14663:14667   */\n      0x24\n        /* \"#utility.yul\":14660:14661   */\n      0x00\n        /* \"#utility.yul\":14653:14668   */\n      revert\n        /* \"#utility.yul\":14680:14874   */\n    tag_209:\n        /* \"#utility.yul\":14720:14724   */\n      0x00\n        /* \"#utility.yul\":14740:14760   */\n      tag_565\n        /* \"#utility.yul\":14758:14759   */\n      dup3\n        /* \"#utility.yul\":14740:14760   */\n      tag_366\n      jump\t// in\n    tag_565:\n        /* \"#utility.yul\":14735:14760   */\n      swap2\n      pop\n        /* \"#utility.yul\":14774:14794   */\n      tag_566\n        /* \"#utility.yul\":14792:14793   */\n      dup4\n        /* \"#utility.yul\":14774:14794   */\n      tag_366\n      jump\t// in\n    tag_566:\n        /* \"#utility.yul\":14769:14794   */\n      swap3\n      pop\n        /* \"#utility.yul\":14818:14819   */\n      dup3\n        /* \"#utility.yul\":14815:14816   */\n      dup3\n        /* \"#utility.yul\":14811:14820   */\n      sub\n        /* \"#utility.yul\":14803:14820   */\n      swap1\n      pop\n        /* \"#utility.yul\":14842:14843   */\n      dup2\n        /* \"#utility.yul\":14836:14840   */\n      dup2\n        /* \"#utility.yul\":14833:14844   */\n      gt\n        /* \"#utility.yul\":14830:14867   */\n      iszero\n      tag_567\n      jumpi\n        /* \"#utility.yul\":14847:14865   */\n      tag_568\n      tag_383\n      jump\t// in\n    tag_568:\n        /* \"#utility.yul\":14830:14867   */\n    tag_567:\n        /* \"#utility.yul\":14680:14874   */\n      swap3\n      swap2\n      pop\n      pop\n      jump\t// out\n        /* \"#utility.yul\":14880:15212   */\n    tag_215:\n        /* \"#utility.yul\":15001:15005   */\n      0x00\n        /* \"#utility.yul\":15039:15041   */\n      0x40\n        /* \"#utility.yul\":15028:15037   */\n      dup3\n        /* \"#utility.yul\":15024:15042   */\n      add\n        /* \"#utility.yul\":15016:15042   */\n      swap1\n      pop\n        /* \"#utility.yul\":15052:15123   */\n      tag_570\n        /* \"#utility.yul\":15120:15121   */\n      0x00\n        /* \"#utility.yul\":15109:15118   */\n      dup4\n        /* \"#utility.yul\":15105:15122   */\n      add\n        /* \"#utility.yul\":15096:15102   */\n      dup6\n        /* \"#utility.yul\":15052:15123   */\n      tag_373\n      jump\t// in\n    tag_570:\n        /* \"#utility.yul\":15133:15205   */\n      tag_571\n        /* \"#utility.yul\":15201:15203   */\n      0x20\n        /* \"#utility.yul\":15190:15199   */\n      dup4\n        /* \"#utility.yul\":15186:15204   */\n      add\n        /* \"#utility.yul\":15177:15183   */\n      dup5\n        /* \"#utility.yul\":15133:15205   */\n      tag_373\n      jump\t// in\n    tag_571:\n        /* \"#utility.yul\":14880:15212   */\n      swap4\n      swap3\n      pop\n      pop\n      pop\n      jump\t// out\n        /* \"#utility.yul\":15218:15546   */\n    tag_223:\n        /* \"#utility.yul\":15337:15341   */\n      0x00\n        /* \"#utility.yul\":15375:15377   */\n      0x40\n        /* \"#utility.yul\":15364:15373   */\n      dup3\n        /* \"#utility.yul\":15360:15378   */\n      add\n        /* \"#utility.yul\":15352:15378   */\n      swap1\n      pop\n        /* \"#utility.yul\":15388:15457   */\n      tag_573\n        /* \"#utility.yul\":15454:15455   */\n      0x00\n        /* \"#utility.yul\":15443:15452   */\n      dup4\n        /* \"#utility.yul\":15439:15456   */\n      add\n        /* \"#utility.yul\":15430:15436   */\n      dup6\n        /* \"#utility.yul\":15388:15457   */\n      tag_351\n      jump\t// in\n    tag_573:\n        /* \"#utility.yul\":15467:15539   */\n      tag_574\n        /* \"#utility.yul\":15535:15537   */\n      0x20\n        /* \"#utility.yul\":15524:15533   */\n      dup4\n        /* \"#utility.yul\":15520:15538   */\n      add\n        /* \"#utility.yul\":15511:15517   */\n      dup5\n        /* \"#utility.yul\":15467:15539   */\n      tag_357\n      jump\t// in\n    tag_574:\n        /* \"#utility.yul\":15218:15546   */\n      swap4\n      swap3\n      pop\n      pop\n      pop\n      jump\t// out\n        /* \"#utility.yul\":15552:15743   */\n    tag_237:\n        /* \"#utility.yul\":15592:15595   */\n      0x00\n        /* \"#utility.yul\":15611:15631   */\n      tag_576\n        /* \"#utility.yul\":15629:15630   */\n      dup3\n        /* \"#utility.yul\":15611:15631   */\n      tag_366\n      jump\t// in\n    tag_576:\n        /* \"#utility.yul\":15606:15631   */\n      swap2\n      pop\n        /* \"#utility.yul\":15645:15665   */\n      tag_577\n        /* \"#utility.yul\":15663:15664   */\n      dup4\n        /* \"#utility.yul\":15645:15665   */\n      tag_366\n      jump\t// in\n    tag_577:\n        /* \"#utility.yul\":15640:15665   */\n      swap3\n      pop\n        /* \"#utility.yul\":15688:15689   */\n      dup3\n        /* \"#utility.yul\":15685:15686   */\n      dup3\n        /* \"#utility.yul\":15681:15690   */\n      add\n        /* \"#utility.yul\":15674:15690   */\n      swap1\n      pop\n        /* \"#utility.yul\":15709:15712   */\n      dup1\n        /* \"#utility.yul\":15706:15707   */\n      dup3\n        /* \"#utility.yul\":15703:15713   */\n      gt\n        /* \"#utility.yul\":15700:15736   */\n      iszero\n      tag_578\n      jumpi\n        /* \"#utility.yul\":15716:15734   */\n      tag_579\n      tag_383\n      jump\t// in\n    tag_579:\n        /* \"#utility.yul\":15700:15736   */\n    tag_578:\n        /* \"#utility.yul\":15552:15743   */\n      swap3\n      swap2\n      pop\n      pop\n      jump\t// out\n        /* \"#utility.yul\":15749:15835   */\n    tag_384:\n        /* \"#utility.yul\":15795:15802   */\n      0x00\n        /* \"#utility.yul\":15824:15829   */\n      dup2\n        /* \"#utility.yul\":15813:15829   */\n      swap1\n      pop\n        /* \"#utility.yul\":15749:15835   */\n      swap2\n      swap1\n      pop\n      jump\t// out\n        /* \"#utility.yul\":15841:15997   */\n    tag_385:\n        /* \"#utility.yul\":15898:15907   */\n      0x00\n        /* \"#utility.yul\":15931:15991   */\n      tag_582\n        /* \"#utility.yul\":15947:15990   */\n      tag_583\n        /* \"#utility.yul\":15956:15989   */\n      tag_584\n        /* \"#utility.yul\":15983:15988   */\n      dup5\n        /* \"#utility.yul\":15956:15989   */\n      tag_384\n      jump\t// in\n    tag_584:\n        /* \"#utility.yul\":15947:15990   */\n      tag_352\n      jump\t// in\n    tag_583:\n        /* \"#utility.yul\":15931:15991   */\n      tag_360\n      jump\t// in\n    tag_582:\n        /* \"#utility.yul\":15918:15991   */\n      swap1\n      pop\n        /* \"#utility.yul\":15841:15997   */\n      swap2\n      swap1\n      pop\n      jump\t// out\n        /* \"#utility.yul\":16003:16148   */\n    tag_386:\n        /* \"#utility.yul\":16097:16141   */\n      tag_586\n        /* \"#utility.yul\":16135:16140   */\n      dup2\n        /* \"#utility.yul\":16097:16141   */\n      tag_385\n      jump\t// in\n    tag_586:\n        /* \"#utility.yul\":16092:16095   */\n      dup3\n        /* \"#utility.yul\":16085:16142   */\n      mstore\n        /* \"#utility.yul\":16003:16148   */\n      pop\n      pop\n      jump\t// out\n        /* \"#utility.yul\":16154:16500   */\n    tag_276:\n        /* \"#utility.yul\":16282:16286   */\n      0x00\n        /* \"#utility.yul\":16320:16322   */\n      0x40\n        /* \"#utility.yul\":16309:16318   */\n      dup3\n        /* \"#utility.yul\":16305:16323   */\n      add\n        /* \"#utility.yul\":16297:16323   */\n      swap1\n      pop\n        /* \"#utility.yul\":16333:16411   */\n      tag_588\n        /* \"#utility.yul\":16408:16409   */\n      0x00\n        /* \"#utility.yul\":16397:16406   */\n      dup4\n        /* \"#utility.yul\":16393:16410   */\n      add\n        /* \"#utility.yul\":16384:16390   */\n      dup6\n        /* \"#utility.yul\":16333:16411   */\n      tag_386\n      jump\t// in\n    tag_588:\n        /* \"#utility.yul\":16421:16493   */\n      tag_589\n        /* \"#utility.yul\":16489:16491   */\n      0x20\n        /* \"#utility.yul\":16478:16487   */\n      dup4\n        /* \"#utility.yul\":16474:16492   */\n      add\n        /* \"#utility.yul\":16465:16471   */\n      dup5\n        /* \"#utility.yul\":16421:16493   */\n      tag_373\n      jump\t// in\n    tag_589:\n        /* \"#utility.yul\":16154:16500   */\n      swap4\n      swap3\n      pop\n      pop\n      pop\n      jump\t// out\n        /* \"#utility.yul\":16506:16948   */\n    tag_280:\n        /* \"#utility.yul\":16655:16659   */\n      0x00\n        /* \"#utility.yul\":16693:16695   */\n      0x60\n        /* \"#utility.yul\":16682:16691   */\n      dup3\n        /* \"#utility.yul\":16678:16696   */\n      add\n        /* \"#utility.yul\":16670:16696   */\n      swap1\n      pop\n        /* \"#utility.yul\":16706:16777   */\n      tag_591\n        /* \"#utility.yul\":16774:16775   */\n      0x00\n        /* \"#utility.yul\":16763:16772   */\n      dup4\n        /* \"#utility.yul\":16759:16776   */\n      add\n        /* \"#utility.yul\":16750:16756   */\n      dup7\n        /* \"#utility.yul\":16706:16777   */\n      tag_357\n      jump\t// in\n    tag_591:\n        /* \"#utility.yul\":16787:16859   */\n      tag_592\n        /* \"#utility.yul\":16855:16857   */\n      0x20\n        /* \"#utility.yul\":16844:16853   */\n      dup4\n        /* \"#utility.yul\":16840:16858   */\n      add\n        /* \"#utility.yul\":16831:16837   */\n      dup6\n        /* \"#utility.yul\":16787:16859   */\n      tag_357\n      jump\t// in\n    tag_592:\n        /* \"#utility.yul\":16869:16941   */\n      tag_593\n        /* \"#utility.yul\":16937:16939   */\n      0x40\n        /* \"#utility.yul\":16926:16935   */\n      dup4\n        /* \"#utility.yul\":16922:16940   */\n      add\n        /* \"#utility.yul\":16913:16919   */\n      dup5\n        /* \"#utility.yul\":16869:16941   */\n      tag_373\n      jump\t// in\n    tag_593:\n        /* \"#utility.yul\":16506:16948   */\n      swap5\n      swap4\n      pop\n      pop\n      pop\n      pop\n      jump\t// out\n        /* \"#utility.yul\":16954:17286   */\n    tag_286:\n        /* \"#utility.yul\":17075:17079   */\n      0x00\n        /* \"#utility.yul\":17113:17115   */\n      0x40\n        /* \"#utility.yul\":17102:17111   */\n      dup3\n        /* \"#utility.yul\":17098:17116   */\n      add\n        /* \"#utility.yul\":17090:17116   */\n      swap1\n      pop\n        /* \"#utility.yul\":17126:17197   */\n      tag_595\n        /* \"#utility.yul\":17194:17195   */\n      0x00\n        /* \"#utility.yul\":17183:17192   */\n      dup4\n        /* \"#utility.yul\":17179:17196   */\n      add\n        /* \"#utility.yul\":17170:17176   */\n      dup6\n        /* \"#utility.yul\":17126:17197   */\n      tag_357\n      jump\t// in\n    tag_595:\n        /* \"#utility.yul\":17207:17279   */\n      tag_596\n        /* \"#utility.yul\":17275:17277   */\n      0x20\n        /* \"#utility.yul\":17264:17273   */\n      dup4\n        /* \"#utility.yul\":17260:17278   */\n      add\n        /* \"#utility.yul\":17251:17257   */\n      dup5\n        /* \"#utility.yul\":17207:17279   */\n      tag_373\n      jump\t// in\n    tag_596:\n        /* \"#utility.yul\":16954:17286   */\n      swap4\n      swap3\n      pop\n      pop\n      pop\n      jump\t// out\n        /* \"#utility.yul\":17292:17472   */\n    tag_291:\n        /* \"#utility.yul\":17340:17417   */\n      0x4e487b7100000000000000000000000000000000000000000000000000000000\n        /* \"#utility.yul\":17337:17338   */\n      0x00\n        /* \"#utility.yul\":17330:17418   */\n      mstore\n        /* \"#utility.yul\":17437:17441   */\n      0x12\n        /* \"#utility.yul\":17434:17435   */\n      0x04\n        /* \"#utility.yul\":17427:17442   */\n      mstore\n        /* \"#utility.yul\":17461:17465   */\n      0x24\n        /* \"#utility.yul\":17458:17459   */\n      0x00\n        /* \"#utility.yul\":17451:17466   */\n      revert\n        /* \"#utility.yul\":17478:17594   */\n    tag_387:\n        /* \"#utility.yul\":17548:17569   */\n      tag_599\n        /* \"#utility.yul\":17563:17568   */\n      dup2\n        /* \"#utility.yul\":17548:17569   */\n      tag_358\n      jump\t// in\n    tag_599:\n        /* \"#utility.yul\":17541:17546   */\n      dup2\n        /* \"#utility.yul\":17538:17570   */\n      eq\n        /* \"#utility.yul\":17528:17588   */\n      tag_600\n      jumpi\n        /* \"#utility.yul\":17584:17585   */\n      0x00\n        /* \"#utility.yul\":17581:17582   */\n      0x00\n        /* \"#utility.yul\":17574:17586   */\n      revert\n        /* \"#utility.yul\":17528:17588   */\n    tag_600:\n        /* \"#utility.yul\":17478:17594   */\n      pop\n      jump\t// out\n        /* \"#utility.yul\":17600:17737   */\n    tag_388:\n        /* \"#utility.yul\":17654:17659   */\n      0x00\n        /* \"#utility.yul\":17685:17691   */\n      dup2\n        /* \"#utility.yul\":17679:17692   */\n      mload\n        /* \"#utility.yul\":17670:17692   */\n      swap1\n      pop\n        /* \"#utility.yul\":17701:17731   */\n      tag_602\n        /* \"#utility.yul\":17725:17730   */\n      dup2\n        /* \"#utility.yul\":17701:17731   */\n      tag_387\n      jump\t// in\n    tag_602:\n        /* \"#utility.yul\":17600:17737   */\n      swap3\n      swap2\n      pop\n      pop\n      jump\t// out\n        /* \"#utility.yul\":17743:18088   */\n    tag_302:\n        /* \"#utility.yul\":17810:17816   */\n      0x00\n        /* \"#utility.yul\":17859:17861   */\n      0x20\n        /* \"#utility.yul\":17847:17856   */\n      dup3\n        /* \"#utility.yul\":17838:17845   */\n      dup5\n        /* \"#utility.yul\":17834:17857   */\n      sub\n        /* \"#utility.yul\":17830:17862   */\n      slt\n        /* \"#utility.yul\":17827:17946   */\n      iszero\n      tag_604\n      jumpi\n        /* \"#utility.yul\":17865:17944   */\n      tag_605\n      tag_332\n      jump\t// in\n    tag_605:\n        /* \"#utility.yul\":17827:17946   */\n    tag_604:\n        /* \"#utility.yul\":17985:17986   */\n      0x00\n        /* \"#utility.yul\":18010:18071   */\n      tag_606\n        /* \"#utility.yul\":18063:18070   */\n      dup5\n        /* \"#utility.yul\":18054:18060   */\n      dup3\n        /* \"#utility.yul\":18043:18052   */\n      dup6\n        /* \"#utility.yul\":18039:18061   */\n      add\n        /* \"#utility.yul\":18010:18071   */\n      tag_388\n      jump\t// in\n    tag_606:\n        /* \"#utility.yul\":18000:18071   */\n      swap2\n      pop\n        /* \"#utility.yul\":17956:18081   */\n      pop\n        /* \"#utility.yul\":17743:18088   */\n      swap3\n      swap2\n      pop\n      pop\n      jump\t// out\n        /* \"#utility.yul\":18094:18192   */\n    tag_389:\n        /* \"#utility.yul\":18145:18151   */\n      0x00\n        /* \"#utility.yul\":18179:18184   */\n      dup2\n        /* \"#utility.yul\":18173:18185   */\n      mload\n        /* \"#utility.yul\":18163:18185   */\n      swap1\n      pop\n        /* \"#utility.yul\":18094:18192   */\n      swap2\n      swap1\n      pop\n      jump\t// out\n        /* \"#utility.yul\":18198:18345   */\n    tag_390:\n        /* \"#utility.yul\":18299:18310   */\n      0x00\n        /* \"#utility.yul\":18336:18339   */\n      dup2\n        /* \"#utility.yul\":18321:18339   */\n      swap1\n      pop\n        /* \"#utility.yul\":18198:18345   */\n      swap3\n      swap2\n      pop\n      pop\n      jump\t// out\n        /* \"#utility.yul\":18351:18490   */\n    tag_391:\n        /* \"#utility.yul\":18440:18446   */\n      dup3\n        /* \"#utility.yul\":18435:18438   */\n      dup2\n        /* \"#utility.yul\":18430:18433   */\n      dup4\n        /* \"#utility.yul\":18424:18447   */\n      mcopy\n        /* \"#utility.yul\":18481:18482   */\n      0x00\n        /* \"#utility.yul\":18472:18478   */\n      dup4\n        /* \"#utility.yul\":18467:18470   */\n      dup4\n        /* \"#utility.yul\":18463:18479   */\n      add\n        /* \"#utility.yul\":18456:18483   */\n      mstore\n        /* \"#utility.yul\":18351:18490   */\n      pop\n      pop\n      pop\n      jump\t// out\n        /* \"#utility.yul\":18496:18882   */\n    tag_392:\n        /* \"#utility.yul\":18600:18603   */\n      0x00\n        /* \"#utility.yul\":18628:18666   */\n      tag_611\n        /* \"#utility.yul\":18660:18665   */\n      dup3\n        /* \"#utility.yul\":18628:18666   */\n      tag_389\n      jump\t// in\n    tag_611:\n        /* \"#utility.yul\":18682:18770   */\n      tag_612\n        /* \"#utility.yul\":18763:18769   */\n      dup2\n        /* \"#utility.yul\":18758:18761   */\n      dup6\n        /* \"#utility.yul\":18682:18770   */\n      tag_390\n      jump\t// in\n    tag_612:\n        /* \"#utility.yul\":18675:18770   */\n      swap4\n      pop\n        /* \"#utility.yul\":18779:18844   */\n      tag_613\n        /* \"#utility.yul\":18837:18843   */\n      dup2\n        /* \"#utility.yul\":18832:18835   */\n      dup6\n        /* \"#utility.yul\":18825:18829   */\n      0x20\n        /* \"#utility.yul\":18818:18823   */\n      dup7\n        /* \"#utility.yul\":18814:18830   */\n      add\n        /* \"#utility.yul\":18779:18844   */\n      tag_391\n      jump\t// in\n    tag_613:\n        /* \"#utility.yul\":18869:18875   */\n      dup1\n        /* \"#utility.yul\":18864:18867   */\n      dup5\n        /* \"#utility.yul\":18860:18876   */\n      add\n        /* \"#utility.yul\":18853:18876   */\n      swap2\n      pop\n        /* \"#utility.yul\":18604:18882   */\n      pop\n        /* \"#utility.yul\":18496:18882   */\n      swap3\n      swap2\n      pop\n      pop\n      jump\t// out\n        /* \"#utility.yul\":18888:19159   */\n    tag_312:\n        /* \"#utility.yul\":19018:19021   */\n      0x00\n        /* \"#utility.yul\":19040:19133   */\n      tag_615\n        /* \"#utility.yul\":19129:19132   */\n      dup3\n        /* \"#utility.yul\":19120:19126   */\n      dup5\n        /* \"#utility.yul\":19040:19133   */\n      tag_392\n      jump\t// in\n    tag_615:\n        /* \"#utility.yul\":19033:19133   */\n      swap2\n      pop\n        /* \"#utility.yul\":19150:19153   */\n      dup2\n        /* \"#utility.yul\":19143:19153   */\n      swap1\n      pop\n        /* \"#utility.yul\":18888:19159   */\n      swap3\n      swap2\n      pop\n      pop\n      jump\t// out\n\n    auxdata: 0xa2646970667358221220fa2c85e239d774b1506cae5c4c4677b92d45b9017bc2f801c3633f437f28254b64736f6c634300081e0033\n}\n",
				"bytecode": {
					"linkReferences": {},
					"object": "60c060405234801561000f575f5ffd5b50604051612f1c380380612f1c83398181016040528101906100319190610463565b8060015f819055505f60015f6101000a81548160ff0219169083151502179055505f73ffffffffffffffffffffffffffffffffffffffff168173ffffffffffffffffffffffffffffffffffffffff16036100c2575f6040517f1e4fbdf70000000000000000000000000000000000000000000000000000000081526004016100b991906104d6565b60405180910390fd5b6100d18161030c60201b60201c565b505f73ffffffffffffffffffffffffffffffffffffffff168473ffffffffffffffffffffffffffffffffffffffff16148061013757505f73ffffffffffffffffffffffffffffffffffffffff168273ffffffffffffffffffffffffffffffffffffffff16145b8061016d57505f73ffffffffffffffffffffffffffffffffffffffff168173ffffffffffffffffffffffffffffffffffffffff16145b156101a4576040517fd92e233d00000000000000000000000000000000000000000000000000000000815260040160405180910390fd5b6103e861ffff168361ffff1611156101e8576040517fa86b651200000000000000000000000000000000000000000000000000000000815260040160405180910390fd5b8373ffffffffffffffffffffffffffffffffffffffff1660808173ffffffffffffffffffffffffffffffffffffffff16815250505f8473ffffffffffffffffffffffffffffffffffffffff1663313ce5676040518163ffffffff1660e01b8152600401602060405180830381865afa92505050801561028557506040513d601f19601f820116820180604052508101906102829190610525565b60015b6102925760069050610297565b809150505b8060ff1660a08160ff16815250508360035f6101000a81548161ffff021916908361ffff16021790555082600360026101000a81548173ffffffffffffffffffffffffffffffffffffffff021916908373ffffffffffffffffffffffffffffffffffffffff1602179055505050505050610550565b5f60018054906101000a900473ffffffffffffffffffffffffffffffffffffffff169050816001806101000a81548173ffffffffffffffffffffffffffffffffffffffff021916908373ffffffffffffffffffffffffffffffffffffffff1602179055508173ffffffffffffffffffffffffffffffffffffffff168173ffffffffffffffffffffffffffffffffffffffff167f8be0079c531659141344cd1fd0a4f28419497f9722a3daafe3b4186f6b6457e060405160405180910390a35050565b5f5ffd5b5f73ffffffffffffffffffffffffffffffffffffffff82169050919050565b5f6103fb826103d2565b9050919050565b61040b816103f1565b8114610415575f5ffd5b50565b5f8151905061042681610402565b92915050565b5f61ffff82169050919050565b6104428161042c565b811461044c575f5ffd5b50565b5f8151905061045d81610439565b92915050565b5f5f5f5f6080858703121561047b5761047a6103ce565b5b5f61048887828801610418565b94505060206104998782880161044f565b93505060406104aa87828801610418565b92505060606104bb87828801610418565b91505092959194509250565b6104d0816103f1565b82525050565b5f6020820190506104e95f8301846104c7565b92915050565b5f60ff82169050919050565b610504816104ef565b811461050e575f5ffd5b50565b5f8151905061051f816104fb565b92915050565b5f6020828403121561053a576105396103ce565b5b5f61054784828501610511565b91505092915050565b60805160a05161298161059b5f395f6105a201525f818161051b0152818161093101528181610bb901528181610eb3015281816111fb01528181611271015261168001526129815ff3fe608060405234801561000f575f5ffd5b506004361061011f575f3560e01c80638da5cb5b116100ab578063d16866041161006f578063d1686604146102bd578063d55be8c6146102d9578063e0120cf8146102f7578063e46bbc9e14610313578063f2fde38b1461032f5761011f565b80638da5cb5b14610207578063c23945ac14610225578063c4d252f514610255578063cc3e049b14610271578063cd2025c31461028d5761011f565b8063478222c2116100f2578063478222c2146101995780635c975abb146101b7578063715018a6146101d55780637bf42165146101df5780638456cb59146101fd5761011f565b80632417395c1461012357806324a9d853146101535780633e413bee146101715780633f4ba83a1461018f575b5f5ffd5b61013d60048036038101906101389190611fdf565b61034b565b60405161014a919061219f565b60405180910390f35b61015b610505565b60405161016891906121d4565b60405180910390f35b610179610518565b6040516101869190612248565b60405180910390f35b61019761053f565b005b6101a1610551565b6040516101ae9190612270565b60405180910390f35b6101bf610577565b6040516101cc91906122a3565b60405180910390f35b6101dd61058c565b005b6101e761059f565b6040516101f491906122d7565b60405180910390f35b6102056105c6565b005b61020f6105d8565b60405161021c9190612270565b60405180910390f35b61023f600480360381019061023a9190612377565b6105ff565b60405161024c91906123fd565b60405180910390f35b61026f600480360381019061026a9190611fdf565b6109de565b005b61028b60048036038101906102869190611fdf565b610c7d565b005b6102a760048036038101906102a29190612416565b610f77565b6040516102b491906123fd565b60405180910390f35b6102d760048036038101906102d29190612466565b610fac565b005b6102e1611317565b6040516102ee91906121d4565b60405180910390f35b610311600480360381019061030c91906124ce565b61131d565b005b61032d6004803603810190610328919061250c565b611468565b005b6103496004803603810190610344919061254a565b61170b565b005b610353611f12565b60025f8381526020019081526020015f206040518060e00160405290815f8201548152602001600182015f9054906101000a900473ffffffffffffffffffffffffffffffffffffffff1673ffffffffffffffffffffffffffffffffffffffff1673ffffffffffffffffffffffffffffffffffffffff168152602001600282015f9054906101000a900473ffffffffffffffffffffffffffffffffffffffff1673ffffffffffffffffffffffffffffffffffffffff1673ffffffffffffffffffffffffffffffffffffffff1681526020016002820160149054906101000a90046bffffffffffffffffffffffff166bffffffffffffffffffffffff166bffffffffffffffffffffffff168152602001600382015f9054906101000a900467ffffffffffffffff1667ffffffffffffffff1667ffffffffffffffff1681526020016003820160089054906101000a900467ffffffffffffffff1667ffffffffffffffff1667ffffffffffffffff1681526020016003820160109054906101000a900460ff1660048111156104e8576104e76120a0565b5b60048111156104fa576104f96120a0565b5b815250509050919050565b60035f9054906101000a900461ffff1681565b5f7f0000000000000000000000000000000000000000000000000000000000000000905090565b61054761178f565b61054f611816565b565b600360029054906101000a900473ffffffffffffffffffffffffffffffffffffffff1681565b5f60015f9054906101000a900460ff16905090565b61059461178f565b61059d5f611877565b565b5f7f0000000000000000000000000000000000000000000000000000000000000000905090565b6105ce61178f565b6105d6611939565b565b5f60018054906101000a900473ffffffffffffffffffffffffffffffffffffffff16905090565b5f61060861199a565b6106106119de565b5f73ffffffffffffffffffffffffffffffffffffffff168673ffffffffffffffffffffffffffffffffffffffff1603610675576040517fd92e233d00000000000000000000000000000000000000000000000000000000815260040160405180910390fd5b5f5f1b85148061068e57505f8467ffffffffffffffff16145b156106c5576040517fa86b651200000000000000000000000000000000000000000000000000000000815260040160405180910390fd5b428367ffffffffffffffff1611610708576040517fa86b651200000000000000000000000000000000000000000000000000000000815260040160405180910390fd5b5f8203610741576040517f1f2a200500000000000000000000000000000000000000000000000000000000815260040160405180910390fd5b61074c338686610f77565b90505f6004811115610761576107606120a0565b5b60025f8381526020019081526020015f2060030160109054906101000a900460ff166004811115610795576107946120a0565b5b146107cc576040517f23369fa600000000000000000000000000000000000000000000000000000000815260040160405180910390fd5b5f60025f8381526020019081526020015f20905085815f018190555033816001015f6101000a81548173ffffffffffffffffffffffffffffffffffffffff021916908373ffffffffffffffffffffffffffffffffffffffff16021790555086816002015f6101000a81548173ffffffffffffffffffffffffffffffffffffffff021916908373ffffffffffffffffffffffffffffffffffffffff16021790555061087583611a1f565b8160020160146101000a8154816bffffffffffffffffffffffff02191690836bffffffffffffffffffffffff16021790555083816003015f6101000a81548167ffffffffffffffff021916908367ffffffffffffffff160217905550848160030160086101000a81548167ffffffffffffffff021916908367ffffffffffffffff16021790555060018160030160106101000a81548160ff02191690836004811115610924576109236120a0565b5b02179055506109763330857f000000000000000000000000000000000000000000000000000000000000000073ffffffffffffffffffffffffffffffffffffffff16611a7e909392919063ffffffff16565b853373ffffffffffffffffffffffffffffffffffffffff16837fb9f72851bf0c89db77e8b273bf29aef517207f92830df76851a309f1a6c5c80e88888c896040516109c49493929190612593565b60405180910390a4506109d5611b00565b95945050505050565b6109e661199a565b6109ee6119de565b5f60025f8381526020019081526020015f20905060016004811115610a1657610a156120a0565b5b8160030160109054906101000a900460ff166004811115610a3a57610a396120a0565b5b14610a71576040517fddafad9800000000000000000000000000000000000000000000000000000000815260040160405180910390fd5b806001015f9054906101000a900473ffffffffffffffffffffffffffffffffffffffff1673ffffffffffffffffffffffffffffffffffffffff163373ffffffffffffffffffffffffffffffffffffffff1614610af9576040517fdf4795c700000000000000000000000000000000000000000000000000000000815260040160405180910390fd5b60048160030160106101000a81548160ff02191690836004811115610b2157610b206120a0565b5b02179055505f8160020160149054906101000a90046bffffffffffffffffffffffff166bffffffffffffffffffffffff1690505f8260020160146101000a8154816bffffffffffffffffffffffff02191690836bffffffffffffffffffffffff1602179055505f811115610bfe57610bfd826001015f9054906101000a900473ffffffffffffffffffffffffffffffffffffffff16827f000000000000000000000000000000000000000000000000000000000000000073ffffffffffffffffffffffffffffffffffffffff16611b099092919063ffffffff16565b5b816001015f9054906101000a900473ffffffffffffffffffffffffffffffffffffffff1673ffffffffffffffffffffffffffffffffffffffff16837f13ca42b383dddac8a499886c122185485535c8144d34355991f87265cfbee4cc83604051610c6891906125d6565b60405180910390a35050610c7a611b00565b50565b610c8561199a565b610c8d6119de565b5f60025f8381526020019081526020015f20905060016004811115610cb557610cb46120a0565b5b8160030160109054906101000a900460ff166004811115610cd957610cd86120a0565b5b14610d10576040517fddafad9800000000000000000000000000000000000000000000000000000000815260040160405180910390fd5b806003015f9054906101000a900467ffffffffffffffff1667ffffffffffffffff16421015610d6b576040517f66ec4ee600000000000000000000000000000000000000000000000000000000815260040160405180910390fd5b806001015f9054906101000a900473ffffffffffffffffffffffffffffffffffffffff1673ffffffffffffffffffffffffffffffffffffffff163373ffffffffffffffffffffffffffffffffffffffff1614610df3576040517fdf4795c700000000000000000000000000000000000000000000000000000000815260040160405180910390fd5b60038160030160106101000a81548160ff02191690836004811115610e1b57610e1a6120a0565b5b02179055505f8160020160149054906101000a90046bffffffffffffffffffffffff166bffffffffffffffffffffffff1690505f8260020160146101000a8154816bffffffffffffffffffffffff02191690836bffffffffffffffffffffffff1602179055505f811115610ef857610ef7826001015f9054906101000a900473ffffffffffffffffffffffffffffffffffffffff16827f000000000000000000000000000000000000000000000000000000000000000073ffffffffffffffffffffffffffffffffffffffff16611b099092919063ffffffff16565b5b816001015f9054906101000a900473ffffffffffffffffffffffffffffffffffffffff1673ffffffffffffffffffffffffffffffffffffffff16837ff552ca82e113ac3c539c3d617f29fcd19c172a0c75dad017555c9e109f7fe18383604051610f6291906125d6565b60405180910390a35050610f74611b00565b50565b5f838383604051602001610f8d93929190612688565b6040516020818303038152906040528051906020012090509392505050565b610fb461199a565b610fbc6119de565b5f73ffffffffffffffffffffffffffffffffffffffff168173ffffffffffffffffffffffffffffffffffffffff1603611021576040517fd92e233d00000000000000000000000000000000000000000000000000000000815260040160405180910390fd5b5f60025f8481526020019081526020015f20905060016004811115611049576110486120a0565b5b8160030160109054906101000a900460ff16600481111561106d5761106c6120a0565b5b146110a4576040517fddafad9800000000000000000000000000000000000000000000000000000000815260040160405180910390fd5b806002015f9054906101000a900473ffffffffffffffffffffffffffffffffffffffff1673ffffffffffffffffffffffffffffffffffffffff163373ffffffffffffffffffffffffffffffffffffffff161461112c576040517fba2a9fc200000000000000000000000000000000000000000000000000000000815260040160405180910390fd5b60028160030160106101000a81548160ff02191690836004811115611154576111536120a0565b5b02179055505f8160020160149054906101000a90046bffffffffffffffffffffffff166bffffffffffffffffffffffff1690505f8260020160146101000a8154816bffffffffffffffffffffffff02191690836bffffffffffffffffffffffff1602179055505f6111db8260035f9054906101000a900461ffff1661ffff16612710611b88565b90505f81836111ea91906126f1565b90505f8111156112405761123f85827f000000000000000000000000000000000000000000000000000000000000000073ffffffffffffffffffffffffffffffffffffffff16611b099092919063ffffffff16565b5b5f8211156112b6576112b5600360029054906101000a900473ffffffffffffffffffffffffffffffffffffffff16837f000000000000000000000000000000000000000000000000000000000000000073ffffffffffffffffffffffffffffffffffffffff16611b099092919063ffffffff16565b5b8473ffffffffffffffffffffffffffffffffffffffff16867f461dc02513380b552c1c7e42377606be7a1c06610e50589fc4664dd29bf47fc083856040516112ff929190612724565b60405180910390a350505050611313611b00565b5050565b6103e881565b61132561178f565b5f73ffffffffffffffffffffffffffffffffffffffff168173ffffffffffffffffffffffffffffffffffffffff160361138a576040517fd92e233d00000000000000000000000000000000000000000000000000000000815260040160405180910390fd5b6103e861ffff168261ffff1611156113ce576040517fa86b651200000000000000000000000000000000000000000000000000000000815260040160405180910390fd5b8160035f6101000a81548161ffff021916908361ffff16021790555080600360026101000a81548173ffffffffffffffffffffffffffffffffffffffff021916908373ffffffffffffffffffffffffffffffffffffffff1602179055507f553bd03bb9146c7a9c7ad0a260aed36e8d47650815df076dfb60f9d47e6cf727828260405161145c92919061274b565b60405180910390a15050565b61147061199a565b6114786119de565b5f60025f8481526020019081526020015f209050600160048111156114a05761149f6120a0565b5b8160030160109054906101000a900460ff1660048111156114c4576114c36120a0565b5b146114fb576040517fddafad9800000000000000000000000000000000000000000000000000000000815260040160405180910390fd5b806001015f9054906101000a900473ffffffffffffffffffffffffffffffffffffffff1673ffffffffffffffffffffffffffffffffffffffff163373ffffffffffffffffffffffffffffffffffffffff1614611583576040517fdf4795c700000000000000000000000000000000000000000000000000000000815260040160405180910390fd5b5f82036115bc576040517f1f2a200500000000000000000000000000000000000000000000000000000000815260040160405180910390fd5b5f828260020160149054906101000a90046bffffffffffffffffffffffff166bffffffffffffffffffffffff166115f39190612772565b90506bffffffffffffffffffffffff801681111561163d576040517fa86b651200000000000000000000000000000000000000000000000000000000815260040160405180910390fd5b61164681611a1f565b8260020160146101000a8154816bffffffffffffffffffffffff02191690836bffffffffffffffffffffffff1602179055506116c53330857f000000000000000000000000000000000000000000000000000000000000000073ffffffffffffffffffffffffffffffffffffffff16611a7e909392919063ffffffff16565b837f9f4592c3bd42bd33860ee93dc92d07f06e3f4fb6e19a9ca214982fe7c1bdb037826040516116f591906125d6565b60405180910390a25050611707611b00565b5050565b61171361178f565b5f73ffffffffffffffffffffffffffffffffffffffff168173ffffffffffffffffffffffffffffffffffffffff1603611783575f6040517f1e4fbdf700000000000000000000000000000000000000000000000000000000815260040161177a9190612270565b60405180910390fd5b61178c81611877565b50565b611797611c87565b73ffffffffffffffffffffffffffffffffffffffff166117b56105d8565b73ffffffffffffffffffffffffffffffffffffffff1614611814576117d8611c87565b6040517f118cdaa700000000000000000000000000000000000000000000000000000000815260040161180b9190612270565b60405180910390fd5b565b61181e611c8e565b5f60015f6101000a81548160ff0219169083151502179055507f5db9ee0a495bf2e6ff9c91a7834c1ba4fdd244a5e8aa4e537bd38aeae4b073aa611860611c87565b60405161186d9190612270565b60405180910390a1565b5f60018054906101000a900473ffffffffffffffffffffffffffffffffffffffff169050816001806101000a81548173ffffffffffffffffffffffffffffffffffffffff021916908373ffffffffffffffffffffffffffffffffffffffff1602179055508173ffffffffffffffffffffffffffffffffffffffff168173ffffffffffffffffffffffffffffffffffffffff167f8be0079c531659141344cd1fd0a4f28419497f9722a3daafe3b4186f6b6457e060405160405180910390a35050565b6119416119de565b6001805f6101000a81548160ff0219169083151502179055507f62e78cea01bee320cd4e420270b5ea74000d11b0c9f74754ebdbfc544b05a258611983611c87565b6040516119909190612270565b60405180910390a1565b60025f54036119d5576040517f3ee5aeb500000000000000000000000000000000000000000000000000000000815260040160405180910390fd5b60025f81905550565b6119e6610577565b15611a1d576040517fd93c066500000000000000000000000000000000000000000000000000000000815260040160405180910390fd5b565b5f6bffffffffffffffffffffffff8016821115611a76576060826040517f6dfcc650000000000000000000000000000000000000000000000000000000008152600401611a6d9291906127de565b60405180910390fd5b819050919050565b611afa848573ffffffffffffffffffffffffffffffffffffffff166323b872dd868686604051602401611ab393929190612805565b604051602081830303815290604052915060e01b6020820180517bffffffffffffffffffffffffffffffffffffffffffffffffffffffff8381831617835250505050611cce565b50505050565b60015f81905550565b611b83838473ffffffffffffffffffffffffffffffffffffffff1663a9059cbb8585604051602401611b3c92919061283a565b604051602081830303815290604052915060e01b6020820180517bffffffffffffffffffffffffffffffffffffffffffffffffffffffff8381831617835250505050611cce565b505050565b5f5f83850290505f5f19858709828110838203039150505f8103611bc057838281611bb657611bb5612861565b5b0492505050611c80565b808411611bf9576040517f227bc15300000000000000000000000000000000000000000000000000000000815260040160405180910390fd5b5f8486880990508281118203915080830392505f855f038616905080860495508084049350600181825f0304019050808302841793505f600287600302189050808702600203810290508087026002038102905080870260020381029050808702600203810290508087026002038102905080870260020381029050808502955050505050505b9392505050565b5f33905090565b611c96610577565b611ccc576040517f8dfc202b00000000000000000000000000000000000000000000000000000000815260040160405180910390fd5b565b5f611cf8828473ffffffffffffffffffffffffffffffffffffffff16611d6390919063ffffffff16565b90505f815114158015611d1c575080806020019051810190611d1a91906128b8565b155b15611d5e57826040517f5274afe7000000000000000000000000000000000000000000000000000000008152600401611d559190612270565b60405180910390fd5b505050565b6060611d7083835f611d78565b905092915050565b606081471015611dbf57306040517fcd786059000000000000000000000000000000000000000000000000000000008152600401611db69190612270565b60405180910390fd5b5f5f8573ffffffffffffffffffffffffffffffffffffffff168486604051611de79190612935565b5f6040518083038185875af1925050503d805f8114611e21576040519150601f19603f3d011682016040523d82523d5f602084013e611e26565b606091505b5091509150611e36868383611e41565b925050509392505050565b606082611e5657611e5182611ece565b611ec6565b5f8251148015611e7c57505f8473ffffffffffffffffffffffffffffffffffffffff163b145b15611ebe57836040517f9996b315000000000000000000000000000000000000000000000000000000008152600401611eb59190612270565b60405180910390fd5b819050611ec7565b5b9392505050565b5f81511115611ee05780518082602001fd5b6040517f1425ea4200000000000000000000000000000000000000000000000000000000815260040160405180910390fd5b6040518060e001604052805f81526020015f73ffffffffffffffffffffffffffffffffffffffff1681526020015f73ffffffffffffffffffffffffffffffffffffffff1681526020015f6bffffffffffffffffffffffff1681526020015f67ffffffffffffffff1681526020015f67ffffffffffffffff1681526020015f6004811115611fa257611fa16120a0565b5b81525090565b5f5ffd5b5f819050919050565b611fbe81611fac565b8114611fc8575f5ffd5b50565b5f81359050611fd981611fb5565b92915050565b5f60208284031215611ff457611ff3611fa8565b5b5f61200184828501611fcb565b91505092915050565b61201381611fac565b82525050565b5f73ffffffffffffffffffffffffffffffffffffffff82169050919050565b5f61204282612019565b9050919050565b61205281612038565b82525050565b5f6bffffffffffffffffffffffff82169050919050565b61207881612058565b82525050565b5f67ffffffffffffffff82169050919050565b61209a8161207e565b82525050565b7f4e487b71000000000000000000000000000000000000000000000000000000005f52602160045260245ffd5b600581106120de576120dd6120a0565b5b50565b5f8190506120ee826120cd565b919050565b5f6120fd826120e1565b9050919050565b61210d816120f3565b82525050565b60e082015f8201516121275f85018261200a565b50602082015161213a6020850182612049565b50604082015161214d6040850182612049565b506060820151612160606085018261206f565b5060808201516121736080850182612091565b5060a082015161218660a0850182612091565b5060c082015161219960c0850182612104565b50505050565b5f60e0820190506121b25f830184612113565b92915050565b5f61ffff82169050919050565b6121ce816121b8565b82525050565b5f6020820190506121e75f8301846121c5565b92915050565b5f819050919050565b5f61221061220b61220684612019565b6121ed565b612019565b9050919050565b5f612221826121f6565b9050919050565b5f61223282612217565b9050919050565b61224281612228565b82525050565b5f60208201905061225b5f830184612239565b92915050565b61226a81612038565b82525050565b5f6020820190506122835f830184612261565b92915050565b5f8115159050919050565b61229d81612289565b82525050565b5f6020820190506122b65f830184612294565b92915050565b5f60ff82169050919050565b6122d1816122bc565b82525050565b5f6020820190506122ea5f8301846122c8565b92915050565b6122f981612038565b8114612303575f5ffd5b50565b5f81359050612314816122f0565b92915050565b6123238161207e565b811461232d575f5ffd5b50565b5f8135905061233e8161231a565b92915050565b5f819050919050565b61235681612344565b8114612360575f5ffd5b50565b5f813590506123718161234d565b92915050565b5f5f5f5f5f60a086880312156123905761238f611fa8565b5b5f61239d88828901612306565b95505060206123ae88828901611fcb565b94505060406123bf88828901612330565b93505060606123d088828901612330565b92505060806123e188828901612363565b9150509295509295909350565b6123f781611fac565b82525050565b5f6020820190506124105f8301846123ee565b92915050565b5f5f5f6060848603121561242d5761242c611fa8565b5b5f61243a86828701612306565b935050602061244b86828701611fcb565b925050604061245c86828701612330565b9150509250925092565b5f5f6040838503121561247c5761247b611fa8565b5b5f61248985828601611fcb565b925050602061249a85828601612306565b9150509250929050565b6124ad816121b8565b81146124b7575f5ffd5b50565b5f813590506124c8816124a4565b92915050565b5f5f604083850312156124e4576124e3611fa8565b5b5f6124f1858286016124ba565b925050602061250285828601612306565b9150509250929050565b5f5f6040838503121561252257612521611fa8565b5b5f61252f85828601611fcb565b925050602061254085828601612363565b9150509250929050565b5f6020828403121561255f5761255e611fa8565b5b5f61256c84828501612306565b91505092915050565b61257e8161207e565b82525050565b61258d81612344565b82525050565b5f6080820190506125a65f830187612575565b6125b36020830186612575565b6125c06040830185612261565b6125cd6060830184612584565b95945050505050565b5f6020820190506125e95f830184612584565b92915050565b5f8160601b9050919050565b5f612605826125ef565b9050919050565b5f612616826125fb565b9050919050565b61262e61262982612038565b61260c565b82525050565b5f819050919050565b61264e61264982611fac565b612634565b82525050565b5f8160c01b9050919050565b5f61266a82612654565b9050919050565b61268261267d8261207e565b612660565b82525050565b5f612693828661261d565b6014820191506126a3828561263d565b6020820191506126b38284612671565b600882019150819050949350505050565b7f4e487b71000000000000000000000000000000000000000000000000000000005f52601160045260245ffd5b5f6126fb82612344565b915061270683612344565b925082820390508181111561271e5761271d6126c4565b5b92915050565b5f6040820190506127375f830185612584565b6127446020830184612584565b9392505050565b5f60408201905061275e5f8301856121c5565b61276b6020830184612261565b9392505050565b5f61277c82612344565b915061278783612344565b925082820190508082111561279f5761279e6126c4565b5b92915050565b5f819050919050565b5f6127c86127c36127be846127a5565b6121ed565b6122bc565b9050919050565b6127d8816127ae565b82525050565b5f6040820190506127f15f8301856127cf565b6127fe6020830184612584565b9392505050565b5f6060820190506128185f830186612261565b6128256020830185612261565b6128326040830184612584565b949350505050565b5f60408201905061284d5f830185612261565b61285a6020830184612584565b9392505050565b7f4e487b71000000000000000000000000000000000000000000000000000000005f52601260045260245ffd5b61289781612289565b81146128a1575f5ffd5b50565b5f815190506128b28161288e565b92915050565b5f602082840312156128cd576128cc611fa8565b5b5f6128da848285016128a4565b91505092915050565b5f81519050919050565b5f81905092915050565b8281835e5f83830152505050565b5f61290f826128e3565b61291981856128ed565b93506129298185602086016128f7565b80840191505092915050565b5f6129408284612905565b91508190509291505056fea2646970667358221220fa2c85e239d774b1506cae5c4c4677b92d45b9017bc2f801c3633f437f28254b64736f6c634300081e0033",
					"opcodes": "PUSH1 0xC0 PUSH1 0x40 MSTORE CALLVALUE DUP1 ISZERO PUSH2 0xF JUMPI PUSH0 PUSH0 REVERT JUMPDEST POP PUSH1 0x40 MLOAD PUSH2 0x2F1C CODESIZE SUB DUP1 PUSH2 0x2F1C DUP4 CODECOPY DUP2 DUP2 ADD PUSH1 0x40 MSTORE DUP2 ADD SWAP1 PUSH2 0x31 SWAP2 SWAP1 PUSH2 0x463 JUMP JUMPDEST DUP1 PUSH1 0x1 PUSH0 DUP2 SWAP1 SSTORE POP PUSH0 PUSH1 0x1 PUSH0 PUSH2 0x100 EXP DUP2 SLOAD DUP2 PUSH1 0xFF MUL NOT AND SWAP1 DUP4 ISZERO ISZERO MUL OR SWAP1 SSTORE POP PUSH0 PUSH20 0xFFFFFFFFFFFFFFFFFFFFFFFFFFFFFFFFFFFFFFFF AND DUP2 PUSH20 0xFFFFFFFFFFFFFFFFFFFFFFFFFFFFFFFFFFFFFFFF AND SUB PUSH2 0xC2 JUMPI PUSH0 PUSH1 0x40 MLOAD PUSH32 0x1E4FBDF700000000000000000000000000000000000000000000000000000000 DUP2 MSTORE PUSH1 0x4 ADD PUSH2 0xB9 SWAP2 SWAP1 PUSH2 0x4D6 JUMP JUMPDEST PUSH1 0x40 MLOAD DUP1 SWAP2 SUB SWAP1 REVERT JUMPDEST PUSH2 0xD1 DUP2 PUSH2 0x30C PUSH1 0x20 SHL PUSH1 0x20 SHR JUMP JUMPDEST POP PUSH0 PUSH20 0xFFFFFFFFFFFFFFFFFFFFFFFFFFFFFFFFFFFFFFFF AND DUP5 PUSH20 0xFFFFFFFFFFFFFFFFFFFFFFFFFFFFFFFFFFFFFFFF AND EQ DUP1 PUSH2 0x137 JUMPI POP PUSH0 PUSH20 0xFFFFFFFFFFFFFFFFFFFFFFFFFFFFFFFFFFFFFFFF AND DUP3 PUSH20 0xFFFFFFFFFFFFFFFFFFFFFFFFFFFFFFFFFFFFFFFF AND EQ JUMPDEST DUP1 PUSH2 0x16D JUMPI POP PUSH0 PUSH20 0xFFFFFFFFFFFFFFFFFFFFFFFFFFFFFFFFFFFFFFFF AND DUP2 PUSH20 0xFFFFFFFFFFFFFFFFFFFFFFFFFFFFFFFFFFFFFFFF AND EQ JUMPDEST ISZERO PUSH2 0x1A4 JUMPI PUSH1 0x40 MLOAD PUSH32 0xD92E233D00000000000000000000000000000000000000000000000000000000 DUP2 MSTORE PUSH1 0x4 ADD PUSH1 0x40 MLOAD DUP1 SWAP2 SUB SWAP1 REVERT JUMPDEST PUSH2 0x3E8 PUSH2 0xFFFF AND DUP4 PUSH2 0xFFFF AND GT ISZERO PUSH2 0x1E8 JUMPI PUSH1 0x40 MLOAD PUSH32 0xA86B651200000000000000000000000000000000000000000000000000000000 DUP2 MSTORE PUSH1 0x4 ADD PUSH1 0x40 MLOAD DUP1 SWAP2 SUB SWAP1 REVERT JUMPDEST DUP4 PUSH20 0xFFFFFFFFFFFFFFFFFFFFFFFFFFFFFFFFFFFFFFFF AND PUSH1 0x80 DUP2 PUSH20 0xFFFFFFFFFFFFFFFFFFFFFFFFFFFFFFFFFFFFFFFF AND DUP2 MSTORE POP POP PUSH0 DUP5 PUSH20 0xFFFFFFFFFFFFFFFFFFFFFFFFFFFFFFFFFFFFFFFF AND PUSH4 0x313CE567 PUSH1 0x40 MLOAD DUP2 PUSH4 0xFFFFFFFF AND PUSH1 0xE0 SHL DUP2 MSTORE PUSH1 0x4 ADD PUSH1 0x20 PUSH1 0x40 MLOAD DUP1 DUP4 SUB DUP2 DUP7 GAS STATICCALL SWAP3 POP POP POP DUP1 ISZERO PUSH2 0x285 JUMPI POP PUSH1 0x40 MLOAD RETURNDATASIZE PUSH1 0x1F NOT PUSH1 0x1F DUP3 ADD AND DUP3 ADD DUP1 PUSH1 0x40 MSTORE POP DUP2 ADD SWAP1 PUSH2 0x282 SWAP2 SWAP1 PUSH2 0x525 JUMP JUMPDEST PUSH1 0x1 JUMPDEST PUSH2 0x292 JUMPI PUSH1 0x6 SWAP1 POP PUSH2 0x297 JUMP JUMPDEST DUP1 SWAP2 POP POP JUMPDEST DUP1 PUSH1 0xFF AND PUSH1 0xA0 DUP2 PUSH1 0xFF AND DUP2 MSTORE POP POP DUP4 PUSH1 0x3 PUSH0 PUSH2 0x100 EXP DUP2 SLOAD DUP2 PUSH2 0xFFFF MUL NOT AND SWAP1 DUP4 PUSH2 0xFFFF AND MUL OR SWAP1 SSTORE POP DUP3 PUSH1 0x3 PUSH1 0x2 PUSH2 0x100 EXP DUP2 SLOAD DUP2 PUSH20 0xFFFFFFFFFFFFFFFFFFFFFFFFFFFFFFFFFFFFFFFF MUL NOT AND SWAP1 DUP4 PUSH20 0xFFFFFFFFFFFFFFFFFFFFFFFFFFFFFFFFFFFFFFFF AND MUL OR SWAP1 SSTORE POP POP POP POP POP POP PUSH2 0x550 JUMP JUMPDEST PUSH0 PUSH1 0x1 DUP1 SLOAD SWAP1 PUSH2 0x100 EXP SWAP1 DIV PUSH20 0xFFFFFFFFFFFFFFFFFFFFFFFFFFFFFFFFFFFFFFFF AND SWAP1 POP DUP2 PUSH1 0x1 DUP1 PUSH2 0x100 EXP DUP2 SLOAD DUP2 PUSH20 0xFFFFFFFFFFFFFFFFFFFFFFFFFFFFFFFFFFFFFFFF MUL NOT AND SWAP1 DUP4 PUSH20 0xFFFFFFFFFFFFFFFFFFFFFFFFFFFFFFFFFFFFFFFF AND MUL OR SWAP1 SSTORE POP DUP2 PUSH20 0xFFFFFFFFFFFFFFFFFFFFFFFFFFFFFFFFFFFFFFFF AND DUP2 PUSH20 0xFFFFFFFFFFFFFFFFFFFFFFFFFFFFFFFFFFFFFFFF AND PUSH32 0x8BE0079C531659141344CD1FD0A4F28419497F9722A3DAAFE3B4186F6B6457E0 PUSH1 0x40 MLOAD PUSH1 0x40 MLOAD DUP1 SWAP2 SUB SWAP1 LOG3 POP POP JUMP JUMPDEST PUSH0 PUSH0 REVERT JUMPDEST PUSH0 PUSH20 0xFFFFFFFFFFFFFFFFFFFFFFFFFFFFFFFFFFFFFFFF DUP3 AND SWAP1 POP SWAP2 SWAP1 POP JUMP JUMPDEST PUSH0 PUSH2 0x3FB DUP3 PUSH2 0x3D2 JUMP JUMPDEST SWAP1 POP SWAP2 SWAP1 POP JUMP JUMPDEST PUSH2 0x40B DUP2 PUSH2 0x3F1 JUMP JUMPDEST DUP2 EQ PUSH2 0x415 JUMPI PUSH0 PUSH0 REVERT JUMPDEST POP JUMP JUMPDEST PUSH0 DUP2 MLOAD SWAP1 POP PUSH2 0x426 DUP2 PUSH2 0x402 JUMP JUMPDEST SWAP3 SWAP2 POP POP JUMP JUMPDEST PUSH0 PUSH2 0xFFFF DUP3 AND SWAP1 POP SWAP2 SWAP1 POP JUMP JUMPDEST PUSH2 0x442 DUP2 PUSH2 0x42C JUMP JUMPDEST DUP2 EQ PUSH2 0x44C JUMPI PUSH0 PUSH0 REVERT JUMPDEST POP JUMP JUMPDEST PUSH0 DUP2 MLOAD SWAP1 POP PUSH2 0x45D DUP2 PUSH2 0x439 JUMP JUMPDEST SWAP3 SWAP2 POP POP JUMP JUMPDEST PUSH0 PUSH0 PUSH0 PUSH0 PUSH1 0x80 DUP6 DUP8 SUB SLT ISZERO PUSH2 0x47B JUMPI PUSH2 0x47A PUSH2 0x3CE JUMP JUMPDEST JUMPDEST PUSH0 PUSH2 0x488 DUP8 DUP3 DUP9 ADD PUSH2 0x418 JUMP JUMPDEST SWAP5 POP POP PUSH1 0x20 PUSH2 0x499 DUP8 DUP3 DUP9 ADD PUSH2 0x44F JUMP JUMPDEST SWAP4 POP POP PUSH1 0x40 PUSH2 0x4AA DUP8 DUP3 DUP9 ADD PUSH2 0x418 JUMP JUMPDEST SWAP3 POP POP PUSH1 0x60 PUSH2 0x4BB DUP8 DUP3 DUP9 ADD PUSH2 0x418 JUMP JUMPDEST SWAP2 POP POP SWAP3 SWAP6 SWAP2 SWAP5 POP SWAP3 POP JUMP JUMPDEST PUSH2 0x4D0 DUP2 PUSH2 0x3F1 JUMP JUMPDEST DUP3 MSTORE POP POP JUMP JUMPDEST PUSH0 PUSH1 0x20 DUP3 ADD SWAP1 POP PUSH2 0x4E9 PUSH0 DUP4 ADD DUP5 PUSH2 0x4C7 JUMP JUMPDEST SWAP3 SWAP2 POP POP JUMP JUMPDEST PUSH0 PUSH1 0xFF DUP3 AND SWAP1 POP SWAP2 SWAP1 POP JUMP JUMPDEST PUSH2 0x504 DUP2 PUSH2 0x4EF JUMP JUMPDEST DUP2 EQ PUSH2 0x50E JUMPI PUSH0 PUSH0 REVERT JUMPDEST POP JUMP JUMPDEST PUSH0 DUP2 MLOAD SWAP1 POP PUSH2 0x51F DUP2 PUSH2 0x4FB JUMP JUMPDEST SWAP3 SWAP2 POP POP JUMP JUMPDEST PUSH0 PUSH1 0x20 DUP3 DUP5 SUB SLT ISZERO PUSH2 0x53A JUMPI PUSH2 0x539 PUSH2 0x3CE JUMP JUMPDEST JUMPDEST PUSH0 PUSH2 0x547 DUP5 DUP3 DUP6 ADD PUSH2 0x511 JUMP JUMPDEST SWAP2 POP POP SWAP3 SWAP2 POP POP JUMP JUMPDEST PUSH1 0x80 MLOAD PUSH1 0xA0 MLOAD PUSH2 0x2981 PUSH2 0x59B PUSH0 CODECOPY PUSH0 PUSH2 0x5A2 ADD MSTORE PUSH0 DUP2 DUP2 PUSH2 0x51B ADD MSTORE DUP2 DUP2 PUSH2 0x931 ADD MSTORE DUP2 DUP2 PUSH2 0xBB9 ADD MSTORE DUP2 DUP2 PUSH2 0xEB3 ADD MSTORE DUP2 DUP2 PUSH2 0x11FB ADD MSTORE DUP2 DUP2 PUSH2 0x1271 ADD MSTORE PUSH2 0x1680 ADD MSTORE PUSH2 0x2981 PUSH0 RETURN INVALID PUSH1 0x80 PUSH1 0x40 MSTORE CALLVALUE DUP1 ISZERO PUSH2 0xF JUMPI PUSH0 PUSH0 REVERT JUMPDEST POP PUSH1 0x4 CALLDATASIZE LT PUSH2 0x11F JUMPI PUSH0 CALLDATALOAD PUSH1 0xE0 SHR DUP1 PUSH4 0x8DA5CB5B GT PUSH2 0xAB JUMPI DUP1 PUSH4 0xD1686604 GT PUSH2 0x6F JUMPI DUP1 PUSH4 0xD1686604 EQ PUSH2 0x2BD JUMPI DUP1 PUSH4 0xD55BE8C6 EQ PUSH2 0x2D9 JUMPI DUP1 PUSH4 0xE0120CF8 EQ PUSH2 0x2F7 JUMPI DUP1 PUSH4 0xE46BBC9E EQ PUSH2 0x313 JUMPI DUP1 PUSH4 0xF2FDE38B EQ PUSH2 0x32F JUMPI PUSH2 0x11F JUMP JUMPDEST DUP1 PUSH4 0x8DA5CB5B EQ PUSH2 0x207 JUMPI DUP1 PUSH4 0xC23945AC EQ PUSH2 0x225 JUMPI DUP1 PUSH4 0xC4D252F5 EQ PUSH2 0x255 JUMPI DUP1 PUSH4 0xCC3E049B EQ PUSH2 0x271 JUMPI DUP1 PUSH4 0xCD2025C3 EQ PUSH2 0x28D JUMPI PUSH2 0x11F JUMP JUMPDEST DUP1 PUSH4 0x478222C2 GT PUSH2 0xF2 JUMPI DUP1 PUSH4 0x478222C2 EQ PUSH2 0x199 JUMPI DUP1 PUSH4 0x5C975ABB EQ PUSH2 0x1B7 JUMPI DUP1 PUSH4 0x715018A6 EQ PUSH2 0x1D5 JUMPI DUP1 PUSH4 0x7BF42165 EQ PUSH2 0x1DF JUMPI DUP1 PUSH4 0x8456CB59 EQ PUSH2 0x1FD JUMPI PUSH2 0x11F JUMP JUMPDEST DUP1 PUSH4 0x2417395C EQ PUSH2 0x123 JUMPI DUP1 PUSH4 0x24A9D853 EQ PUSH2 0x153 JUMPI DUP1 PUSH4 0x3E413BEE EQ PUSH2 0x171 JUMPI DUP1 PUSH4 0x3F4BA83A EQ PUSH2 0x18F JUMPI JUMPDEST PUSH0 PUSH0 REVERT JUMPDEST PUSH2 0x13D PUSH1 0x4 DUP1 CALLDATASIZE SUB DUP2 ADD SWAP1 PUSH2 0x138 SWAP2 SWAP1 PUSH2 0x1FDF JUMP JUMPDEST PUSH2 0x34B JUMP JUMPDEST PUSH1 0x40 MLOAD PUSH2 0x14A SWAP2 SWAP1 PUSH2 0x219F JUMP JUMPDEST PUSH1 0x40 MLOAD DUP1 SWAP2 SUB SWAP1 RETURN JUMPDEST PUSH2 0x15B PUSH2 0x505 JUMP JUMPDEST PUSH1 0x40 MLOAD PUSH2 0x168 SWAP2 SWAP1 PUSH2 0x21D4 JUMP JUMPDEST PUSH1 0x40 MLOAD DUP1 SWAP2 SUB SWAP1 RETURN JUMPDEST PUSH2 0x179 PUSH2 0x518 JUMP JUMPDEST PUSH1 0x40 MLOAD PUSH2 0x186 SWAP2 SWAP1 PUSH2 0x2248 JUMP JUMPDEST PUSH1 0x40 MLOAD DUP1 SWAP2 SUB SWAP1 RETURN JUMPDEST PUSH2 0x197 PUSH2 0x53F JUMP JUMPDEST STOP JUMPDEST PUSH2 0x1A1 PUSH2 0x551 JUMP JUMPDEST PUSH1 0x40 MLOAD PUSH2 0x1AE SWAP2 SWAP1 PUSH2 0x2270 JUMP JUMPDEST PUSH1 0x40 MLOAD DUP1 SWAP2 SUB SWAP1 RETURN JUMPDEST PUSH2 0x1BF PUSH2 0x577 JUMP JUMPDEST PUSH1 0x40 MLOAD PUSH2 0x1CC SWAP2 SWAP1 PUSH2 0x22A3 JUMP JUMPDEST PUSH1 0x40 MLOAD DUP1 SWAP2 SUB SWAP1 RETURN JUMPDEST PUSH2 0x1DD PUSH2 0x58C JUMP JUMPDEST STOP JUMPDEST PUSH2 0x1E7 PUSH2 0x59F JUMP JUMPDEST PUSH1 0x40 MLOAD PUSH2 0x1F4 SWAP2 SWAP1 PUSH2 0x22D7 JUMP JUMPDEST PUSH1 0x40 MLOAD DUP1 SWAP2 SUB SWAP1 RETURN JUMPDEST PUSH2 0x205 PUSH2 0x5C6 JUMP JUMPDEST STOP JUMPDEST PUSH2 0x20F PUSH2 0x5D8 JUMP JUMPDEST PUSH1 0x40 MLOAD PUSH2 0x21C SWAP2 SWAP1 PUSH2 0x2270 JUMP JUMPDEST PUSH1 0x40 MLOAD DUP1 SWAP2 SUB SWAP1 RETURN JUMPDEST PUSH2 0x23F PUSH1 0x4 DUP1 CALLDATASIZE SUB DUP2 ADD SWAP1 PUSH2 0x23A SWAP2 SWAP1 PUSH2 0x2377 JUMP JUMPDEST PUSH2 0x5FF JUMP JUMPDEST PUSH1 0x40 MLOAD PUSH2 0x24C SWAP2 SWAP1 PUSH2 0x23FD JUMP JUMPDEST PUSH1 0x40 MLOAD DUP1 SWAP2 SUB SWAP1 RETURN JUMPDEST PUSH2 0x26F PUSH1 0x4 DUP1 CALLDATASIZE SUB DUP2 ADD SWAP1 PUSH2 0x26A SWAP2 SWAP1 PUSH2 0x1FDF JUMP JUMPDEST PUSH2 0x9DE JUMP JUMPDEST STOP JUMPDEST PUSH2 0x28B PUSH1 0x4 DUP1 CALLDATASIZE SUB DUP2 ADD SWAP1 PUSH2 0x286 SWAP2 SWAP1 PUSH2 0x1FDF JUMP JUMPDEST PUSH2 0xC7D JUMP JUMPDEST STOP JUMPDEST PUSH2 0x2A7 PUSH1 0x4 DUP1 CALLDATASIZE SUB DUP2 ADD SWAP1 PUSH2 0x2A2 SWAP2 SWAP1 PUSH2 0x2416 JUMP JUMPDEST PUSH2 0xF77 JUMP JUMPDEST PUSH1 0x40 MLOAD PUSH2 0x2B4 SWAP2 SWAP1 PUSH2 0x23FD JUMP JUMPDEST PUSH1 0x40 MLOAD DUP1 SWAP2 SUB SWAP1 RETURN JUMPDEST PUSH2 0x2D7 PUSH1 0x4 DUP1 CALLDATASIZE SUB DUP2 ADD SWAP1 PUSH2 0x2D2 SWAP2 SWAP1 PUSH2 0x2466 JUMP JUMPDEST PUSH2 0xFAC JUMP JUMPDEST STOP JUMPDEST PUSH2 0x2E1 PUSH2 0x1317 JUMP JUMPDEST PUSH1 0x40 MLOAD PUSH2 0x2EE SWAP2 SWAP1 PUSH2 0x21D4 JUMP JUMPDEST PUSH1 0x40 MLOAD DUP1 SWAP2 SUB SWAP1 RETURN JUMPDEST PUSH2 0x311 PUSH1 0x4 DUP1 CALLDATASIZE SUB DUP2 ADD SWAP1 PUSH2 0x30C SWAP2 SWAP1 PUSH2 0x24CE JUMP JUMPDEST PUSH2 0x131D JUMP JUMPDEST STOP JUMPDEST PUSH2 0x32D PUSH1 0x4 DUP1 CALLDATASIZE SUB DUP2 ADD SWAP1 PUSH2 0x328 SWAP2 SWAP1 PUSH2 0x250C JUMP JUMPDEST PUSH2 0x1468 JUMP JUMPDEST STOP JUMPDEST PUSH2 0x349 PUSH1 0x4 DUP1 CALLDATASIZE SUB DUP2 ADD SWAP1 PUSH2 0x344 SWAP2 SWAP1 PUSH2 0x254A JUMP JUMPDEST PUSH2 0x170B JUMP JUMPDEST STOP JUMPDEST PUSH2 0x353 PUSH2 0x1F12 JUMP JUMPDEST PUSH1 0x2 PUSH0 DUP4 DUP2 MSTORE PUSH1 0x20 ADD SWAP1 DUP2 MSTORE PUSH1 0x20 ADD PUSH0 KECCAK256 PUSH1 0x40 MLOAD DUP1 PUSH1 0xE0 ADD PUSH1 0x40 MSTORE SWAP1 DUP2 PUSH0 DUP3 ADD SLOAD DUP2 MSTORE PUSH1 0x20 ADD PUSH1 0x1 DUP3 ADD PUSH0 SWAP1 SLOAD SWAP1 PUSH2 0x100 EXP SWAP1 DIV PUSH20 0xFFFFFFFFFFFFFFFFFFFFFFFFFFFFFFFFFFFFFFFF AND PUSH20 0xFFFFFFFFFFFFFFFFFFFFFFFFFFFFFFFFFFFFFFFF AND PUSH20 0xFFFFFFFFFFFFFFFFFFFFFFFFFFFFFFFFFFFFFFFF AND DUP2 MSTORE PUSH1 0x20 ADD PUSH1 0x2 DUP3 ADD PUSH0 SWAP1 SLOAD SWAP1 PUSH2 0x100 EXP SWAP1 DIV PUSH20 0xFFFFFFFFFFFFFFFFFFFFFFFFFFFFFFFFFFFFFFFF AND PUSH20 0xFFFFFFFFFFFFFFFFFFFFFFFFFFFFFFFFFFFFFFFF AND PUSH20 0xFFFFFFFFFFFFFFFFFFFFFFFFFFFFFFFFFFFFFFFF AND DUP2 MSTORE PUSH1 0x20 ADD PUSH1 0x2 DUP3 ADD PUSH1 0x14 SWAP1 SLOAD SWAP1 PUSH2 0x100 EXP SWAP1 DIV PUSH12 0xFFFFFFFFFFFFFFFFFFFFFFFF AND PUSH12 0xFFFFFFFFFFFFFFFFFFFFFFFF AND PUSH12 0xFFFFFFFFFFFFFFFFFFFFFFFF AND DUP2 MSTORE PUSH1 0x20 ADD PUSH1 0x3 DUP3 ADD PUSH0 SWAP1 SLOAD SWAP1 PUSH2 0x100 EXP SWAP1 DIV PUSH8 0xFFFFFFFFFFFFFFFF AND PUSH8 0xFFFFFFFFFFFFFFFF AND PUSH8 0xFFFFFFFFFFFFFFFF AND DUP2 MSTORE PUSH1 0x20 ADD PUSH1 0x3 DUP3 ADD PUSH1 0x8 SWAP1 SLOAD SWAP1 PUSH2 0x100 EXP SWAP1 DIV PUSH8 0xFFFFFFFFFFFFFFFF AND PUSH8 0xFFFFFFFFFFFFFFFF AND PUSH8 0xFFFFFFFFFFFFFFFF AND DUP2 MSTORE PUSH1 0x20 ADD PUSH1 0x3 DUP3 ADD PUSH1 0x10 SWAP1 SLOAD SWAP1 PUSH2 0x100 EXP SWAP1 DIV PUSH1 0xFF AND PUSH1 0x4 DUP2 GT ISZERO PUSH2 0x4E8 JUMPI PUSH2 0x4E7 PUSH2 0x20A0 JUMP JUMPDEST JUMPDEST PUSH1 0x4 DUP2 GT ISZERO PUSH2 0x4FA JUMPI PUSH2 0x4F9 PUSH2 0x20A0 JUMP JUMPDEST JUMPDEST DUP2 MSTORE POP POP SWAP1 POP SWAP2 SWAP1 POP JUMP JUMPDEST PUSH1 0x3 PUSH0 SWAP1 SLOAD SWAP1 PUSH2 0x100 EXP SWAP1 DIV PUSH2 0xFFFF AND DUP2 JUMP JUMPDEST PUSH0 PUSH32 0x0 SWAP1 POP SWAP1 JUMP JUMPDEST PUSH2 0x547 PUSH2 0x178F JUMP JUMPDEST PUSH2 0x54F PUSH2 0x1816 JUMP JUMPDEST JUMP JUMPDEST PUSH1 0x3 PUSH1 0x2 SWAP1 SLOAD SWAP1 PUSH2 0x100 EXP SWAP1 DIV PUSH20 0xFFFFFFFFFFFFFFFFFFFFFFFFFFFFFFFFFFFFFFFF AND DUP2 JUMP JUMPDEST PUSH0 PUSH1 0x1 PUSH0 SWAP1 SLOAD SWAP1 PUSH2 0x100 EXP SWAP1 DIV PUSH1 0xFF AND SWAP1 POP SWAP1 JUMP JUMPDEST PUSH2 0x594 PUSH2 0x178F JUMP JUMPDEST PUSH2 0x59D PUSH0 PUSH2 0x1877 JUMP JUMPDEST JUMP JUMPDEST PUSH0 PUSH32 0x0 SWAP1 POP SWAP1 JUMP JUMPDEST PUSH2 0x5CE PUSH2 0x178F JUMP JUMPDEST PUSH2 0x5D6 PUSH2 0x1939 JUMP JUMPDEST JUMP JUMPDEST PUSH0 PUSH1 0x1 DUP1 SLOAD SWAP1 PUSH2 0x100 EXP SWAP1 DIV PUSH20 0xFFFFFFFFFFFFFFFFFFFFFFFFFFFFFFFFFFFFFFFF AND SWAP1 POP SWAP1 JUMP JUMPDEST PUSH0 PUSH2 0x608 PUSH2 0x199A JUMP JUMPDEST PUSH2 0x610 PUSH2 0x19DE JUMP JUMPDEST PUSH0 PUSH20 0xFFFFFFFFFFFFFFFFFFFFFFFFFFFFFFFFFFFFFFFF AND DUP7 PUSH20 0xFFFFFFFFFFFFFFFFFFFFFFFFFFFFFFFFFFFFFFFF AND SUB PUSH2 0x675 JUMPI PUSH1 0x40 MLOAD PUSH32 0xD92E233D00000000000000000000000000000000000000000000000000000000 DUP2 MSTORE PUSH1 0x4 ADD PUSH1 0x40 MLOAD DUP1 SWAP2 SUB SWAP1 REVERT JUMPDEST PUSH0 PUSH0 SHL DUP6 EQ DUP1 PUSH2 0x68E JUMPI POP PUSH0 DUP5 PUSH8 0xFFFFFFFFFFFFFFFF AND EQ JUMPDEST ISZERO PUSH2 0x6C5 JUMPI PUSH1 0x40 MLOAD PUSH32 0xA86B651200000000000000000000000000000000000000000000000000000000 DUP2 MSTORE PUSH1 0x4 ADD PUSH1 0x40 MLOAD DUP1 SWAP2 SUB SWAP1 REVERT JUMPDEST TIMESTAMP DUP4 PUSH8 0xFFFFFFFFFFFFFFFF AND GT PUSH2 0x708 JUMPI PUSH1 0x40 MLOAD PUSH32 0xA86B651200000000000000000000000000000000000000000000000000000000 DUP2 MSTORE PUSH1 0x4 ADD PUSH1 0x40 MLOAD DUP1 SWAP2 SUB SWAP1 REVERT JUMPDEST PUSH0 DUP3 SUB PUSH2 0x741 JUMPI PUSH1 0x40 MLOAD PUSH32 0x1F2A200500000000000000000000000000000000000000000000000000000000 DUP2 MSTORE PUSH1 0x4 ADD PUSH1 0x40 MLOAD DUP1 SWAP2 SUB SWAP1 REVERT JUMPDEST PUSH2 0x74C CALLER DUP7 DUP7 PUSH2 0xF77 JUMP JUMPDEST SWAP1 POP PUSH0 PUSH1 0x4 DUP2 GT ISZERO PUSH2 0x761 JUMPI PUSH2 0x760 PUSH2 0x20A0 JUMP JUMPDEST JUMPDEST PUSH1 0x2 PUSH0 DUP4 DUP2 MSTORE PUSH1 0x20 ADD SWAP1 DUP2 MSTORE PUSH1 0x20 ADD PUSH0 KECCAK256 PUSH1 0x3 ADD PUSH1 0x10 SWAP1 SLOAD SWAP1 PUSH2 0x100 EXP SWAP1 DIV PUSH1 0xFF AND PUSH1 0x4 DUP2 GT ISZERO PUSH2 0x795 JUMPI PUSH2 0x794 PUSH2 0x20A0 JUMP JUMPDEST JUMPDEST EQ PUSH2 0x7CC JUMPI PUSH1 0x40 MLOAD PUSH32 0x23369FA600000000000000000000000000000000000000000000000000000000 DUP2 MSTORE PUSH1 0x4 ADD PUSH1 0x40 MLOAD DUP1 SWAP2 SUB SWAP1 REVERT JUMPDEST PUSH0 PUSH1 0x2 PUSH0 DUP4 DUP2 MSTORE PUSH1 0x20 ADD SWAP1 DUP2 MSTORE PUSH1 0x20 ADD PUSH0 KECCAK256 SWAP1 POP DUP6 DUP2 PUSH0 ADD DUP2 SWAP1 SSTORE POP CALLER DUP2 PUSH1 0x1 ADD PUSH0 PUSH2 0x100 EXP DUP2 SLOAD DUP2 PUSH20 0xFFFFFFFFFFFFFFFFFFFFFFFFFFFFFFFFFFFFFFFF MUL NOT AND SWAP1 DUP4 PUSH20 0xFFFFFFFFFFFFFFFFFFFFFFFFFFFFFFFFFFFFFFFF AND MUL OR SWAP1 SSTORE POP DUP7 DUP2 PUSH1 0x2 ADD PUSH0 PUSH2 0x100 EXP DUP2 SLOAD DUP2 PUSH20 0xFFFFFFFFFFFFFFFFFFFFFFFFFFFFFFFFFFFFFFFF MUL NOT AND SWAP1 DUP4 PUSH20 0xFFFFFFFFFFFFFFFFFFFFFFFFFFFFFFFFFFFFFFFF AND MUL OR SWAP1 SSTORE POP PUSH2 0x875 DUP4 PUSH2 0x1A1F JUMP JUMPDEST DUP2 PUSH1 0x2 ADD PUSH1 0x14 PUSH2 0x100 EXP DUP2 SLOAD DUP2 PUSH12 0xFFFFFFFFFFFFFFFFFFFFFFFF MUL NOT AND SWAP1 DUP4 PUSH12 0xFFFFFFFFFFFFFFFFFFFFFFFF AND MUL OR SWAP1 SSTORE POP DUP4 DUP2 PUSH1 0x3 ADD PUSH0 PUSH2 0x100 EXP DUP2 SLOAD DUP2 PUSH8 0xFFFFFFFFFFFFFFFF MUL NOT AND SWAP1 DUP4 PUSH8 0xFFFFFFFFFFFFFFFF AND MUL OR SWAP1 SSTORE POP DUP5 DUP2 PUSH1 0x3 ADD PUSH1 0x8 PUSH2 0x100 EXP DUP2 SLOAD DUP2 PUSH8 0xFFFFFFFFFFFFFFFF MUL NOT AND SWAP1 DUP4 PUSH8 0xFFFFFFFFFFFFFFFF AND MUL OR SWAP1 SSTORE POP PUSH1 0x1 DUP2 PUSH1 0x3 ADD PUSH1 0x10 PUSH2 0x100 EXP DUP2 SLOAD DUP2 PUSH1 0xFF MUL NOT AND SWAP1 DUP4 PUSH1 0x4 DUP2 GT ISZERO PUSH2 0x924 JUMPI PUSH2 0x923 PUSH2 0x20A0 JUMP JUMPDEST JUMPDEST MUL OR SWAP1 SSTORE POP PUSH2 0x976 CALLER ADDRESS DUP6 PUSH32 0x0 PUSH20 0xFFFFFFFFFFFFFFFFFFFFFFFFFFFFFFFFFFFFFFFF AND PUSH2 0x1A7E SWAP1 SWAP4 SWAP3 SWAP2 SWAP1 PUSH4 0xFFFFFFFF AND JUMP JUMPDEST DUP6 CALLER PUSH20 0xFFFFFFFFFFFFFFFFFFFFFFFFFFFFFFFFFFFFFFFF AND DUP4 PUSH32 0xB9F72851BF0C89DB77E8B273BF29AEF517207F92830DF76851A309F1A6C5C80E DUP9 DUP9 DUP13 DUP10 PUSH1 0x40 MLOAD PUSH2 0x9C4 SWAP5 SWAP4 SWAP3 SWAP2 SWAP1 PUSH2 0x2593 JUMP JUMPDEST PUSH1 0x40 MLOAD DUP1 SWAP2 SUB SWAP1 LOG4 POP PUSH2 0x9D5 PUSH2 0x1B00 JUMP JUMPDEST SWAP6 SWAP5 POP POP POP POP POP JUMP JUMPDEST PUSH2 0x9E6 PUSH2 0x199A JUMP JUMPDEST PUSH2 0x9EE PUSH2 0x19DE JUMP JUMPDEST PUSH0 PUSH1 0x2 PUSH0 DUP4 DUP2 MSTORE PUSH1 0x20 ADD SWAP1 DUP2 MSTORE PUSH1 0x20 ADD PUSH0 KECCAK256 SWAP1 POP PUSH1 0x1 PUSH1 0x4 DUP2 GT ISZERO PUSH2 0xA16 JUMPI PUSH2 0xA15 PUSH2 0x20A0 JUMP JUMPDEST JUMPDEST DUP2 PUSH1 0x3 ADD PUSH1 0x10 SWAP1 SLOAD SWAP1 PUSH2 0x100 EXP SWAP1 DIV PUSH1 0xFF AND PUSH1 0x4 DUP2 GT ISZERO PUSH2 0xA3A JUMPI PUSH2 0xA39 PUSH2 0x20A0 JUMP JUMPDEST JUMPDEST EQ PUSH2 0xA71 JUMPI PUSH1 0x40 MLOAD PUSH32 0xDDAFAD9800000000000000000000000000000000000000000000000000000000 DUP2 MSTORE PUSH1 0x4 ADD PUSH1 0x40 MLOAD DUP1 SWAP2 SUB SWAP1 REVERT JUMPDEST DUP1 PUSH1 0x1 ADD PUSH0 SWAP1 SLOAD SWAP1 PUSH2 0x100 EXP SWAP1 DIV PUSH20 0xFFFFFFFFFFFFFFFFFFFFFFFFFFFFFFFFFFFFFFFF AND PUSH20 0xFFFFFFFFFFFFFFFFFFFFFFFFFFFFFFFFFFFFFFFF AND CALLER PUSH20 0xFFFFFFFFFFFFFFFFFFFFFFFFFFFFFFFFFFFFFFFF AND EQ PUSH2 0xAF9 JUMPI PUSH1 0x40 MLOAD PUSH32 0xDF4795C700000000000000000000000000000000000000000000000000000000 DUP2 MSTORE PUSH1 0x4 ADD PUSH1 0x40 MLOAD DUP1 SWAP2 SUB SWAP1 REVERT JUMPDEST PUSH1 0x4 DUP2 PUSH1 0x3 ADD PUSH1 0x10 PUSH2 0x100 EXP DUP2 SLOAD DUP2 PUSH1 0xFF MUL NOT AND SWAP1 DUP4 PUSH1 0x4 DUP2 GT ISZERO PUSH2 0xB21 JUMPI PUSH2 0xB20 PUSH2 0x20A0 JUMP JUMPDEST JUMPDEST MUL OR SWAP1 SSTORE POP PUSH0 DUP2 PUSH1 0x2 ADD PUSH1 0x14 SWAP1 SLOAD SWAP1 PUSH2 0x100 EXP SWAP1 DIV PUSH12 0xFFFFFFFFFFFFFFFFFFFFFFFF AND PUSH12 0xFFFFFFFFFFFFFFFFFFFFFFFF AND SWAP1 POP PUSH0 DUP3 PUSH1 0x2 ADD PUSH1 0x14 PUSH2 0x100 EXP DUP2 SLOAD DUP2 PUSH12 0xFFFFFFFFFFFFFFFFFFFFFFFF MUL NOT AND SWAP1 DUP4 PUSH12 0xFFFFFFFFFFFFFFFFFFFFFFFF AND MUL OR SWAP1 SSTORE POP PUSH0 DUP2 GT ISZERO PUSH2 0xBFE JUMPI PUSH2 0xBFD DUP3 PUSH1 0x1 ADD PUSH0 SWAP1 SLOAD SWAP1 PUSH2 0x100 EXP SWAP1 DIV PUSH20 0xFFFFFFFFFFFFFFFFFFFFFFFFFFFFFFFFFFFFFFFF AND DUP3 PUSH32 0x0 PUSH20 0xFFFFFFFFFFFFFFFFFFFFFFFFFFFFFFFFFFFFFFFF AND PUSH2 0x1B09 SWAP1 SWAP3 SWAP2 SWAP1 PUSH4 0xFFFFFFFF AND JUMP JUMPDEST JUMPDEST DUP2 PUSH1 0x1 ADD PUSH0 SWAP1 SLOAD SWAP1 PUSH2 0x100 EXP SWAP1 DIV PUSH20 0xFFFFFFFFFFFFFFFFFFFFFFFFFFFFFFFFFFFFFFFF AND PUSH20 0xFFFFFFFFFFFFFFFFFFFFFFFFFFFFFFFFFFFFFFFF AND DUP4 PUSH32 0x13CA42B383DDDAC8A499886C122185485535C8144D34355991F87265CFBEE4CC DUP4 PUSH1 0x40 MLOAD PUSH2 0xC68 SWAP2 SWAP1 PUSH2 0x25D6 JUMP JUMPDEST PUSH1 0x40 MLOAD DUP1 SWAP2 SUB SWAP1 LOG3 POP POP PUSH2 0xC7A PUSH2 0x1B00 JUMP JUMPDEST POP JUMP JUMPDEST PUSH2 0xC85 PUSH2 0x199A JUMP JUMPDEST PUSH2 0xC8D PUSH2 0x19DE JUMP JUMPDEST PUSH0 PUSH1 0x2 PUSH0 DUP4 DUP2 MSTORE PUSH1 0x20 ADD SWAP1 DUP2 MSTORE PUSH1 0x20 ADD PUSH0 KECCAK256 SWAP1 POP PUSH1 0x1 PUSH1 0x4 DUP2 GT ISZERO PUSH2 0xCB5 JUMPI PUSH2 0xCB4 PUSH2 0x20A0 JUMP JUMPDEST JUMPDEST DUP2 PUSH1 0x3 ADD PUSH1 0x10 SWAP1 SLOAD SWAP1 PUSH2 0x100 EXP SWAP1 DIV PUSH1 0xFF AND PUSH1 0x4 DUP2 GT ISZERO PUSH2 0xCD9 JUMPI PUSH2 0xCD8 PUSH2 0x20A0 JUMP JUMPDEST JUMPDEST EQ PUSH2 0xD10 JUMPI PUSH1 0x40 MLOAD PUSH32 0xDDAFAD9800000000000000000000000000000000000000000000000000000000 DUP2 MSTORE PUSH1 0x4 ADD PUSH1 0x40 MLOAD DUP1 SWAP2 SUB SWAP1 REVERT JUMPDEST DUP1 PUSH1 0x3 ADD PUSH0 SWAP1 SLOAD SWAP1 PUSH2 0x100 EXP SWAP1 DIV PUSH8 0xFFFFFFFFFFFFFFFF AND PUSH8 0xFFFFFFFFFFFFFFFF AND TIMESTAMP LT ISZERO PUSH2 0xD6B JUMPI PUSH1 0x40 MLOAD PUSH32 0x66EC4EE600000000000000000000000000000000000000000000000000000000 DUP2 MSTORE PUSH1 0x4 ADD PUSH1 0x40 MLOAD DUP1 SWAP2 SUB SWAP1 REVERT JUMPDEST DUP1 PUSH1 0x1 ADD PUSH0 SWAP1 SLOAD SWAP1 PUSH2 0x100 EXP SWAP1 DIV PUSH20 0xFFFFFFFFFFFFFFFFFFFFFFFFFFFFFFFFFFFFFFFF AND PUSH20 0xFFFFFFFFFFFFFFFFFFFFFFFFFFFFFFFFFFFFFFFF AND CALLER PUSH20 0xFFFFFFFFFFFFFFFFFFFFFFFFFFFFFFFFFFFFFFFF AND EQ PUSH2 0xDF3 JUMPI PUSH1 0x40 MLOAD PUSH32 0xDF4795C700000000000000000000000000000000000000000000000000000000 DUP2 MSTORE PUSH1 0x4 ADD PUSH1 0x40 MLOAD DUP1 SWAP2 SUB SWAP1 REVERT JUMPDEST PUSH1 0x3 DUP2 PUSH1 0x3 ADD PUSH1 0x10 PUSH2 0x100 EXP DUP2 SLOAD DUP2 PUSH1 0xFF MUL NOT AND SWAP1 DUP4 PUSH1 0x4 DUP2 GT ISZERO PUSH2 0xE1B JUMPI PUSH2 0xE1A PUSH2 0x20A0 JUMP JUMPDEST JUMPDEST MUL OR SWAP1 SSTORE POP PUSH0 DUP2 PUSH1 0x2 ADD PUSH1 0x14 SWAP1 SLOAD SWAP1 PUSH2 0x100 EXP SWAP1 DIV PUSH12 0xFFFFFFFFFFFFFFFFFFFFFFFF AND PUSH12 0xFFFFFFFFFFFFFFFFFFFFFFFF AND SWAP1 POP PUSH0 DUP3 PUSH1 0x2 ADD PUSH1 0x14 PUSH2 0x100 EXP DUP2 SLOAD DUP2 PUSH12 0xFFFFFFFFFFFFFFFFFFFFFFFF MUL NOT AND SWAP1 DUP4 PUSH12 0xFFFFFFFFFFFFFFFFFFFFFFFF AND MUL OR SWAP1 SSTORE POP PUSH0 DUP2 GT ISZERO PUSH2 0xEF8 JUMPI PUSH2 0xEF7 DUP3 PUSH1 0x1 ADD PUSH0 SWAP1 SLOAD SWAP1 PUSH2 0x100 EXP SWAP1 DIV PUSH20 0xFFFFFFFFFFFFFFFFFFFFFFFFFFFFFFFFFFFFFFFF AND DUP3 PUSH32 0x0 PUSH20 0xFFFFFFFFFFFFFFFFFFFFFFFFFFFFFFFFFFFFFFFF AND PUSH2 0x1B09 SWAP1 SWAP3 SWAP2 SWAP1 PUSH4 0xFFFFFFFF AND JUMP JUMPDEST JUMPDEST DUP2 PUSH1 0x1 ADD PUSH0 SWAP1 SLOAD SWAP1 PUSH2 0x100 EXP SWAP1 DIV PUSH20 0xFFFFFFFFFFFFFFFFFFFFFFFFFFFFFFFFFFFFFFFF AND PUSH20 0xFFFFFFFFFFFFFFFFFFFFFFFFFFFFFFFFFFFFFFFF AND DUP4 PUSH32 0xF552CA82E113AC3C539C3D617F29FCD19C172A0C75DAD017555C9E109F7FE183 DUP4 PUSH1 0x40 MLOAD PUSH2 0xF62 SWAP2 SWAP1 PUSH2 0x25D6 JUMP JUMPDEST PUSH1 0x40 MLOAD DUP1 SWAP2 SUB SWAP1 LOG3 POP POP PUSH2 0xF74 PUSH2 0x1B00 JUMP JUMPDEST POP JUMP JUMPDEST PUSH0 DUP4 DUP4 DUP4 PUSH1 0x40 MLOAD PUSH1 0x20 ADD PUSH2 0xF8D SWAP4 SWAP3 SWAP2 SWAP1 PUSH2 0x2688 JUMP JUMPDEST PUSH1 0x40 MLOAD PUSH1 0x20 DUP2 DUP4 SUB SUB DUP2 MSTORE SWAP1 PUSH1 0x40 MSTORE DUP1 MLOAD SWAP1 PUSH1 0x20 ADD KECCAK256 SWAP1 POP SWAP4 SWAP3 POP POP POP JUMP JUMPDEST PUSH2 0xFB4 PUSH2 0x199A JUMP JUMPDEST PUSH2 0xFBC PUSH2 0x19DE JUMP JUMPDEST PUSH0 PUSH20 0xFFFFFFFFFFFFFFFFFFFFFFFFFFFFFFFFFFFFFFFF AND DUP2 PUSH20 0xFFFFFFFFFFFFFFFFFFFFFFFFFFFFFFFFFFFFFFFF AND SUB PUSH2 0x1021 JUMPI PUSH1 0x40 MLOAD PUSH32 0xD92E233D00000000000000000000000000000000000000000000000000000000 DUP2 MSTORE PUSH1 0x4 ADD PUSH1 0x40 MLOAD DUP1 SWAP2 SUB SWAP1 REVERT JUMPDEST PUSH0 PUSH1 0x2 PUSH0 DUP5 DUP2 MSTORE PUSH1 0x20 ADD SWAP1 DUP2 MSTORE PUSH1 0x20 ADD PUSH0 KECCAK256 SWAP1 POP PUSH1 0x1 PUSH1 0x4 DUP2 GT ISZERO PUSH2 0x1049 JUMPI PUSH2 0x1048 PUSH2 0x20A0 JUMP JUMPDEST JUMPDEST DUP2 PUSH1 0x3 ADD PUSH1 0x10 SWAP1 SLOAD SWAP1 PUSH2 0x100 EXP SWAP1 DIV PUSH1 0xFF AND PUSH1 0x4 DUP2 GT ISZERO PUSH2 0x106D JUMPI PUSH2 0x106C PUSH2 0x20A0 JUMP JUMPDEST JUMPDEST EQ PUSH2 0x10A4 JUMPI PUSH1 0x40 MLOAD PUSH32 0xDDAFAD9800000000000000000000000000000000000000000000000000000000 DUP2 MSTORE PUSH1 0x4 ADD PUSH1 0x40 MLOAD DUP1 SWAP2 SUB SWAP1 REVERT JUMPDEST DUP1 PUSH1 0x2 ADD PUSH0 SWAP1 SLOAD SWAP1 PUSH2 0x100 EXP SWAP1 DIV PUSH20 0xFFFFFFFFFFFFFFFFFFFFFFFFFFFFFFFFFFFFFFFF AND PUSH20 0xFFFFFFFFFFFFFFFFFFFFFFFFFFFFFFFFFFFFFFFF AND CALLER PUSH20 0xFFFFFFFFFFFFFFFFFFFFFFFFFFFFFFFFFFFFFFFF AND EQ PUSH2 0x112C JUMPI PUSH1 0x40 MLOAD PUSH32 0xBA2A9FC200000000000000000000000000000000000000000000000000000000 DUP2 MSTORE PUSH1 0x4 ADD PUSH1 0x40 MLOAD DUP1 SWAP2 SUB SWAP1 REVERT JUMPDEST PUSH1 0x2 DUP2 PUSH1 0x3 ADD PUSH1 0x10 PUSH2 0x100 EXP DUP2 SLOAD DUP2 PUSH1 0xFF MUL NOT AND SWAP1 DUP4 PUSH1 0x4 DUP2 GT ISZERO PUSH2 0x1154 JUMPI PUSH2 0x1153 PUSH2 0x20A0 JUMP JUMPDEST JUMPDEST MUL OR SWAP1 SSTORE POP PUSH0 DUP2 PUSH1 0x2 ADD PUSH1 0x14 SWAP1 SLOAD SWAP1 PUSH2 0x100 EXP SWAP1 DIV PUSH12 0xFFFFFFFFFFFFFFFFFFFFFFFF AND PUSH12 0xFFFFFFFFFFFFFFFFFFFFFFFF AND SWAP1 POP PUSH0 DUP3 PUSH1 0x2 ADD PUSH1 0x14 PUSH2 0x100 EXP DUP2 SLOAD DUP2 PUSH12 0xFFFFFFFFFFFFFFFFFFFFFFFF MUL NOT AND SWAP1 DUP4 PUSH12 0xFFFFFFFFFFFFFFFFFFFFFFFF AND MUL OR SWAP1 SSTORE POP PUSH0 PUSH2 0x11DB DUP3 PUSH1 0x3 PUSH0 SWAP1 SLOAD SWAP1 PUSH2 0x100 EXP SWAP1 DIV PUSH2 0xFFFF AND PUSH2 0xFFFF AND PUSH2 0x2710 PUSH2 0x1B88 JUMP JUMPDEST SWAP1 POP PUSH0 DUP2 DUP4 PUSH2 0x11EA SWAP2 SWAP1 PUSH2 0x26F1 JUMP JUMPDEST SWAP1 POP PUSH0 DUP2 GT ISZERO PUSH2 0x1240 JUMPI PUSH2 0x123F DUP6 DUP3 PUSH32 0x0 PUSH20 0xFFFFFFFFFFFFFFFFFFFFFFFFFFFFFFFFFFFFFFFF AND PUSH2 0x1B09 SWAP1 SWAP3 SWAP2 SWAP1 PUSH4 0xFFFFFFFF AND JUMP JUMPDEST JUMPDEST PUSH0 DUP3 GT ISZERO PUSH2 0x12B6 JUMPI PUSH2 0x12B5 PUSH1 0x3 PUSH1 0x2 SWAP1 SLOAD SWAP1 PUSH2 0x100 EXP SWAP1 DIV PUSH20 0xFFFFFFFFFFFFFFFFFFFFFFFFFFFFFFFFFFFFFFFF AND DUP4 PUSH32 0x0 PUSH20 0xFFFFFFFFFFFFFFFFFFFFFFFFFFFFFFFFFFFFFFFF AND PUSH2 0x1B09 SWAP1 SWAP3 SWAP2 SWAP1 PUSH4 0xFFFFFFFF AND JUMP JUMPDEST JUMPDEST DUP5 PUSH20 0xFFFFFFFFFFFFFFFFFFFFFFFFFFFFFFFFFFFFFFFF AND DUP7 PUSH32 0x461DC02513380B552C1C7E42377606BE7A1C06610E50589FC4664DD29BF47FC0 DUP4 DUP6 PUSH1 0x40 MLOAD PUSH2 0x12FF SWAP3 SWAP2 SWAP1 PUSH2 0x2724 JUMP JUMPDEST PUSH1 0x40 MLOAD DUP1 SWAP2 SUB SWAP1 LOG3 POP POP POP POP PUSH2 0x1313 PUSH2 0x1B00 JUMP JUMPDEST POP POP JUMP JUMPDEST PUSH2 0x3E8 DUP2 JUMP JUMPDEST PUSH2 0x1325 PUSH2 0x178F JUMP JUMPDEST PUSH0 PUSH20 0xFFFFFFFFFFFFFFFFFFFFFFFFFFFFFFFFFFFFFFFF AND DUP2 PUSH20 0xFFFFFFFFFFFFFFFFFFFFFFFFFFFFFFFFFFFFFFFF AND SUB PUSH2 0x138A JUMPI PUSH1 0x40 MLOAD PUSH32 0xD92E233D00000000000000000000000000000000000000000000000000000000 DUP2 MSTORE PUSH1 0x4 ADD PUSH1 0x40 MLOAD DUP1 SWAP2 SUB SWAP1 REVERT JUMPDEST PUSH2 0x3E8 PUSH2 0xFFFF AND DUP3 PUSH2 0xFFFF AND GT ISZERO PUSH2 0x13CE JUMPI PUSH1 0x40 MLOAD PUSH32 0xA86B651200000000000000000000000000000000000000000000000000000000 DUP2 MSTORE PUSH1 0x4 ADD PUSH1 0x40 MLOAD DUP1 SWAP2 SUB SWAP1 REVERT JUMPDEST DUP2 PUSH1 0x3 PUSH0 PUSH2 0x100 EXP DUP2 SLOAD DUP2 PUSH2 0xFFFF MUL NOT AND SWAP1 DUP4 PUSH2 0xFFFF AND MUL OR SWAP1 SSTORE POP DUP1 PUSH1 0x3 PUSH1 0x2 PUSH2 0x100 EXP DUP2 SLOAD DUP2 PUSH20 0xFFFFFFFFFFFFFFFFFFFFFFFFFFFFFFFFFFFFFFFF MUL NOT AND SWAP1 DUP4 PUSH20 0xFFFFFFFFFFFFFFFFFFFFFFFFFFFFFFFFFFFFFFFF AND MUL OR SWAP1 SSTORE POP PUSH32 0x553BD03BB9146C7A9C7AD0A260AED36E8D47650815DF076DFB60F9D47E6CF727 DUP3 DUP3 PUSH1 0x40 MLOAD PUSH2 0x145C SWAP3 SWAP2 SWAP1 PUSH2 0x274B JUMP JUMPDEST PUSH1 0x40 MLOAD DUP1 SWAP2 SUB SWAP1 LOG1 POP POP JUMP JUMPDEST PUSH2 0x1470 PUSH2 0x199A JUMP JUMPDEST PUSH2 0x1478 PUSH2 0x19DE JUMP JUMPDEST PUSH0 PUSH1 0x2 PUSH0 DUP5 DUP2 MSTORE PUSH1 0x20 ADD SWAP1 DUP2 MSTORE PUSH1 0x20 ADD PUSH0 KECCAK256 SWAP1 POP PUSH1 0x1 PUSH1 0x4 DUP2 GT ISZERO PUSH2 0x14A0 JUMPI PUSH2 0x149F PUSH2 0x20A0 JUMP JUMPDEST JUMPDEST DUP2 PUSH1 0x3 ADD PUSH1 0x10 SWAP1 SLOAD SWAP1 PUSH2 0x100 EXP SWAP1 DIV PUSH1 0xFF AND PUSH1 0x4 DUP2 GT ISZERO PUSH2 0x14C4 JUMPI PUSH2 0x14C3 PUSH2 0x20A0 JUMP JUMPDEST JUMPDEST EQ PUSH2 0x14FB JUMPI PUSH1 0x40 MLOAD PUSH32 0xDDAFAD9800000000000000000000000000000000000000000000000000000000 DUP2 MSTORE PUSH1 0x4 ADD PUSH1 0x40 MLOAD DUP1 SWAP2 SUB SWAP1 REVERT JUMPDEST DUP1 PUSH1 0x1 ADD PUSH0 SWAP1 SLOAD SWAP1 PUSH2 0x100 EXP SWAP1 DIV PUSH20 0xFFFFFFFFFFFFFFFFFFFFFFFFFFFFFFFFFFFFFFFF AND PUSH20 0xFFFFFFFFFFFFFFFFFFFFFFFFFFFFFFFFFFFFFFFF AND CALLER PUSH20 0xFFFFFFFFFFFFFFFFFFFFFFFFFFFFFFFFFFFFFFFF AND EQ PUSH2 0x1583 JUMPI PUSH1 0x40 MLOAD PUSH32 0xDF4795C700000000000000000000000000000000000000000000000000000000 DUP2 MSTORE PUSH1 0x4 ADD PUSH1 0x40 MLOAD DUP1 SWAP2 SUB SWAP1 REVERT JUMPDEST PUSH0 DUP3 SUB PUSH2 0x15BC JUMPI PUSH1 0x40 MLOAD PUSH32 0x1F2A200500000000000000000000000000000000000000000000000000000000 DUP2 MSTORE PUSH1 0x4 ADD PUSH1 0x40 MLOAD DUP1 SWAP2 SUB SWAP1 REVERT JUMPDEST PUSH0 DUP3 DUP3 PUSH1 0x2 ADD PUSH1 0x14 SWAP1 SLOAD SWAP1 PUSH2 0x100 EXP SWAP1 DIV PUSH12 0xFFFFFFFFFFFFFFFFFFFFFFFF AND PUSH12 0xFFFFFFFFFFFFFFFFFFFFFFFF AND PUSH2 0x15F3 SWAP2 SWAP1 PUSH2 0x2772 JUMP JUMPDEST SWAP1 POP PUSH12 0xFFFFFFFFFFFFFFFFFFFFFFFF DUP1 AND DUP2 GT ISZERO PUSH2 0x163D JUMPI PUSH1 0x40 MLOAD PUSH32 0xA86B651200000000000000000000000000000000000000000000000000000000 DUP2 MSTORE PUSH1 0x4 ADD PUSH1 0x40 MLOAD DUP1 SWAP2 SUB SWAP1 REVERT JUMPDEST PUSH2 0x1646 DUP2 PUSH2 0x1A1F JUMP JUMPDEST DUP3 PUSH1 0x2 ADD PUSH1 0x14 PUSH2 0x100 EXP DUP2 SLOAD DUP2 PUSH12 0xFFFFFFFFFFFFFFFFFFFFFFFF MUL NOT AND SWAP1 DUP4 PUSH12 0xFFFFFFFFFFFFFFFFFFFFFFFF AND MUL OR SWAP1 SSTORE POP PUSH2 0x16C5 CALLER ADDRESS DUP6 PUSH32 0x0 PUSH20 0xFFFFFFFFFFFFFFFFFFFFFFFFFFFFFFFFFFFFFFFF AND PUSH2 0x1A7E SWAP1 SWAP4 SWAP3 SWAP2 SWAP1 PUSH4 0xFFFFFFFF AND JUMP JUMPDEST DUP4 PUSH32 0x9F4592C3BD42BD33860EE93DC92D07F06E3F4FB6E19A9CA214982FE7C1BDB037 DUP3 PUSH1 0x40 MLOAD PUSH2 0x16F5 SWAP2 SWAP1 PUSH2 0x25D6 JUMP JUMPDEST PUSH1 0x40 MLOAD DUP1 SWAP2 SUB SWAP1 LOG2 POP POP PUSH2 0x1707 PUSH2 0x1B00 JUMP JUMPDEST POP POP JUMP JUMPDEST PUSH2 0x1713 PUSH2 0x178F JUMP JUMPDEST PUSH0 PUSH20 0xFFFFFFFFFFFFFFFFFFFFFFFFFFFFFFFFFFFFFFFF AND DUP2 PUSH20 0xFFFFFFFFFFFFFFFFFFFFFFFFFFFFFFFFFFFFFFFF AND SUB PUSH2 0x1783 JUMPI PUSH0 PUSH1 0x40 MLOAD PUSH32 0x1E4FBDF700000000000000000000000000000000000000000000000000000000 DUP2 MSTORE PUSH1 0x4 ADD PUSH2 0x177A SWAP2 SWAP1 PUSH2 0x2270 JUMP JUMPDEST PUSH1 0x40 MLOAD DUP1 SWAP2 SUB SWAP1 REVERT JUMPDEST PUSH2 0x178C DUP2 PUSH2 0x1877 JUMP JUMPDEST POP JUMP JUMPDEST PUSH2 0x1797 PUSH2 0x1C87 JUMP JUMPDEST PUSH20 0xFFFFFFFFFFFFFFFFFFFFFFFFFFFFFFFFFFFFFFFF AND PUSH2 0x17B5 PUSH2 0x5D8 JUMP JUMPDEST PUSH20 0xFFFFFFFFFFFFFFFFFFFFFFFFFFFFFFFFFFFFFFFF AND EQ PUSH2 0x1814 JUMPI PUSH2 0x17D8 PUSH2 0x1C87 JUMP JUMPDEST PUSH1 0x40 MLOAD PUSH32 0x118CDAA700000000000000000000000000000000000000000000000000000000 DUP2 MSTORE PUSH1 0x4 ADD PUSH2 0x180B SWAP2 SWAP1 PUSH2 0x2270 JUMP JUMPDEST PUSH1 0x40 MLOAD DUP1 SWAP2 SUB SWAP1 REVERT JUMPDEST JUMP JUMPDEST PUSH2 0x181E PUSH2 0x1C8E JUMP JUMPDEST PUSH0 PUSH1 0x1 PUSH0 PUSH2 0x100 EXP DUP2 SLOAD DUP2 PUSH1 0xFF MUL NOT AND SWAP1 DUP4 ISZERO ISZERO MUL OR SWAP1 SSTORE POP PUSH32 0x5DB9EE0A495BF2E6FF9C91A7834C1BA4FDD244A5E8AA4E537BD38AEAE4B073AA PUSH2 0x1860 PUSH2 0x1C87 JUMP JUMPDEST PUSH1 0x40 MLOAD PUSH2 0x186D SWAP2 SWAP1 PUSH2 0x2270 JUMP JUMPDEST PUSH1 0x40 MLOAD DUP1 SWAP2 SUB SWAP1 LOG1 JUMP JUMPDEST PUSH0 PUSH1 0x1 DUP1 SLOAD SWAP1 PUSH2 0x100 EXP SWAP1 DIV PUSH20 0xFFFFFFFFFFFFFFFFFFFFFFFFFFFFFFFFFFFFFFFF AND SWAP1 POP DUP2 PUSH1 0x1 DUP1 PUSH2 0x100 EXP DUP2 SLOAD DUP2 PUSH20 0xFFFFFFFFFFFFFFFFFFFFFFFFFFFFFFFFFFFFFFFF MUL NOT AND SWAP1 DUP4 PUSH20 0xFFFFFFFFFFFFFFFFFFFFFFFFFFFFFFFFFFFFFFFF AND MUL OR SWAP1 SSTORE POP DUP2 PUSH20 0xFFFFFFFFFFFFFFFFFFFFFFFFFFFFFFFFFFFFFFFF AND DUP2 PUSH20 0xFFFFFFFFFFFFFFFFFFFFFFFFFFFFFFFFFFFFFFFF AND PUSH32 0x8BE0079C531659141344CD1FD0A4F28419497F9722A3DAAFE3B4186F6B6457E0 PUSH1 0x40 MLOAD PUSH1 0x40 MLOAD DUP1 SWAP2 SUB SWAP1 LOG3 POP POP JUMP JUMPDEST PUSH2 0x1941 PUSH2 0x19DE JUMP JUMPDEST PUSH1 0x1 DUP1 PUSH0 PUSH2 0x100 EXP DUP2 SLOAD DUP2 PUSH1 0xFF MUL NOT AND SWAP1 DUP4 ISZERO ISZERO MUL OR SWAP1 SSTORE POP PUSH32 0x62E78CEA01BEE320CD4E420270B5EA74000D11B0C9F74754EBDBFC544B05A258 PUSH2 0x1983 PUSH2 0x1C87 JUMP JUMPDEST PUSH1 0x40 MLOAD PUSH2 0x1990 SWAP2 SWAP1 PUSH2 0x2270 JUMP JUMPDEST PUSH1 0x40 MLOAD DUP1 SWAP2 SUB SWAP1 LOG1 JUMP JUMPDEST PUSH1 0x2 PUSH0 SLOAD SUB PUSH2 0x19D5 JUMPI PUSH1 0x40 MLOAD PUSH32 0x3EE5AEB500000000000000000000000000000000000000000000000000000000 DUP2 MSTORE PUSH1 0x4 ADD PUSH1 0x40 MLOAD DUP1 SWAP2 SUB SWAP1 REVERT JUMPDEST PUSH1 0x2 PUSH0 DUP2 SWAP1 SSTORE POP JUMP JUMPDEST PUSH2 0x19E6 PUSH2 0x577 JUMP JUMPDEST ISZERO PUSH2 0x1A1D JUMPI PUSH1 0x40 MLOAD PUSH32 0xD93C066500000000000000000000000000000000000000000000000000000000 DUP2 MSTORE PUSH1 0x4 ADD PUSH1 0x40 MLOAD DUP1 SWAP2 SUB SWAP1 REVERT JUMPDEST JUMP JUMPDEST PUSH0 PUSH12 0xFFFFFFFFFFFFFFFFFFFFFFFF DUP1 AND DUP3 GT ISZERO PUSH2 0x1A76 JUMPI PUSH1 0x60 DUP3 PUSH1 0x40 MLOAD PUSH32 0x6DFCC65000000000000000000000000000000000000000000000000000000000 DUP2 MSTORE PUSH1 0x4 ADD PUSH2 0x1A6D SWAP3 SWAP2 SWAP1 PUSH2 0x27DE JUMP JUMPDEST PUSH1 0x40 MLOAD DUP1 SWAP2 SUB SWAP1 REVERT JUMPDEST DUP2 SWAP1 POP SWAP2 SWAP1 POP JUMP JUMPDEST PUSH2 0x1AFA DUP5 DUP6 PUSH20 0xFFFFFFFFFFFFFFFFFFFFFFFFFFFFFFFFFFFFFFFF AND PUSH4 0x23B872DD DUP7 DUP7 DUP7 PUSH1 0x40 MLOAD PUSH1 0x24 ADD PUSH2 0x1AB3 SWAP4 SWAP3 SWAP2 SWAP1 PUSH2 0x2805 JUMP JUMPDEST PUSH1 0x40 MLOAD PUSH1 0x20 DUP2 DUP4 SUB SUB DUP2 MSTORE SWAP1 PUSH1 0x40 MSTORE SWAP2 POP PUSH1 0xE0 SHL PUSH1 0x20 DUP3 ADD DUP1 MLOAD PUSH28 0xFFFFFFFFFFFFFFFFFFFFFFFFFFFFFFFFFFFFFFFFFFFFFFFFFFFFFFFF DUP4 DUP2 DUP4 AND OR DUP4 MSTORE POP POP POP POP PUSH2 0x1CCE JUMP JUMPDEST POP POP POP POP JUMP JUMPDEST PUSH1 0x1 PUSH0 DUP2 SWAP1 SSTORE POP JUMP JUMPDEST PUSH2 0x1B83 DUP4 DUP5 PUSH20 0xFFFFFFFFFFFFFFFFFFFFFFFFFFFFFFFFFFFFFFFF AND PUSH4 0xA9059CBB DUP6 DUP6 PUSH1 0x40 MLOAD PUSH1 0x24 ADD PUSH2 0x1B3C SWAP3 SWAP2 SWAP1 PUSH2 0x283A JUMP JUMPDEST PUSH1 0x40 MLOAD PUSH1 0x20 DUP2 DUP4 SUB SUB DUP2 MSTORE SWAP1 PUSH1 0x40 MSTORE SWAP2 POP PUSH1 0xE0 SHL PUSH1 0x20 DUP3 ADD DUP1 MLOAD PUSH28 0xFFFFFFFFFFFFFFFFFFFFFFFFFFFFFFFFFFFFFFFFFFFFFFFFFFFFFFFF DUP4 DUP2 DUP4 AND OR DUP4 MSTORE POP POP POP POP PUSH2 0x1CCE JUMP JUMPDEST POP POP POP JUMP JUMPDEST PUSH0 PUSH0 DUP4 DUP6 MUL SWAP1 POP PUSH0 PUSH0 NOT DUP6 DUP8 MULMOD DUP3 DUP2 LT DUP4 DUP3 SUB SUB SWAP2 POP POP PUSH0 DUP2 SUB PUSH2 0x1BC0 JUMPI DUP4 DUP3 DUP2 PUSH2 0x1BB6 JUMPI PUSH2 0x1BB5 PUSH2 0x2861 JUMP JUMPDEST JUMPDEST DIV SWAP3 POP POP POP PUSH2 0x1C80 JUMP JUMPDEST DUP1 DUP5 GT PUSH2 0x1BF9 JUMPI PUSH1 0x40 MLOAD PUSH32 0x227BC15300000000000000000000000000000000000000000000000000000000 DUP2 MSTORE PUSH1 0x4 ADD PUSH1 0x40 MLOAD DUP1 SWAP2 SUB SWAP1 REVERT JUMPDEST PUSH0 DUP5 DUP7 DUP9 MULMOD SWAP1 POP DUP3 DUP2 GT DUP3 SUB SWAP2 POP DUP1 DUP4 SUB SWAP3 POP PUSH0 DUP6 PUSH0 SUB DUP7 AND SWAP1 POP DUP1 DUP7 DIV SWAP6 POP DUP1 DUP5 DIV SWAP4 POP PUSH1 0x1 DUP2 DUP3 PUSH0 SUB DIV ADD SWAP1 POP DUP1 DUP4 MUL DUP5 OR SWAP4 POP PUSH0 PUSH1 0x2 DUP8 PUSH1 0x3 MUL XOR SWAP1 POP DUP1 DUP8 MUL PUSH1 0x2 SUB DUP2 MUL SWAP1 POP DUP1 DUP8 MUL PUSH1 0x2 SUB DUP2 MUL SWAP1 POP DUP1 DUP8 MUL PUSH1 0x2 SUB DUP2 MUL SWAP1 POP DUP1 DUP8 MUL PUSH1 0x2 SUB DUP2 MUL SWAP1 POP DUP1 DUP8 MUL PUSH1 0x2 SUB DUP2 MUL SWAP1 POP DUP1 DUP8 MUL PUSH1 0x2 SUB DUP2 MUL SWAP1 POP DUP1 DUP6 MUL SWAP6 POP POP POP POP POP POP JUMPDEST SWAP4 SWAP3 POP POP POP JUMP JUMPDEST PUSH0 CALLER SWAP1 POP SWAP1 JUMP JUMPDEST PUSH2 0x1C96 PUSH2 0x577 JUMP JUMPDEST PUSH2 0x1CCC JUMPI PUSH1 0x40 MLOAD PUSH32 0x8DFC202B00000000000000000000000000000000000000000000000000000000 DUP2 MSTORE PUSH1 0x4 ADD PUSH1 0x40 MLOAD DUP1 SWAP2 SUB SWAP1 REVERT JUMPDEST JUMP JUMPDEST PUSH0 PUSH2 0x1CF8 DUP3 DUP5 PUSH20 0xFFFFFFFFFFFFFFFFFFFFFFFFFFFFFFFFFFFFFFFF AND PUSH2 0x1D63 SWAP1 SWAP2 SWAP1 PUSH4 0xFFFFFFFF AND JUMP JUMPDEST SWAP1 POP PUSH0 DUP2 MLOAD EQ ISZERO DUP1 ISZERO PUSH2 0x1D1C JUMPI POP DUP1 DUP1 PUSH1 0x20 ADD SWAP1 MLOAD DUP2 ADD SWAP1 PUSH2 0x1D1A SWAP2 SWAP1 PUSH2 0x28B8 JUMP JUMPDEST ISZERO JUMPDEST ISZERO PUSH2 0x1D5E JUMPI DUP3 PUSH1 0x40 MLOAD PUSH32 0x5274AFE700000000000000000000000000000000000000000000000000000000 DUP2 MSTORE PUSH1 0x4 ADD PUSH2 0x1D55 SWAP2 SWAP1 PUSH2 0x2270 JUMP JUMPDEST PUSH1 0x40 MLOAD DUP1 SWAP2 SUB SWAP1 REVERT JUMPDEST POP POP POP JUMP JUMPDEST PUSH1 0x60 PUSH2 0x1D70 DUP4 DUP4 PUSH0 PUSH2 0x1D78 JUMP JUMPDEST SWAP1 POP SWAP3 SWAP2 POP POP JUMP JUMPDEST PUSH1 0x60 DUP2 SELFBALANCE LT ISZERO PUSH2 0x1DBF JUMPI ADDRESS PUSH1 0x40 MLOAD PUSH32 0xCD78605900000000000000000000000000000000000000000000000000000000 DUP2 MSTORE PUSH1 0x4 ADD PUSH2 0x1DB6 SWAP2 SWAP1 PUSH2 0x2270 JUMP JUMPDEST PUSH1 0x40 MLOAD DUP1 SWAP2 SUB SWAP1 REVERT JUMPDEST PUSH0 PUSH0 DUP6 PUSH20 0xFFFFFFFFFFFFFFFFFFFFFFFFFFFFFFFFFFFFFFFF AND DUP5 DUP7 PUSH1 0x40 MLOAD PUSH2 0x1DE7 SWAP2 SWAP1 PUSH2 0x2935 JUMP JUMPDEST PUSH0 PUSH1 0x40 MLOAD DUP1 DUP4 SUB DUP2 DUP6 DUP8 GAS CALL SWAP3 POP POP POP RETURNDATASIZE DUP1 PUSH0 DUP2 EQ PUSH2 0x1E21 JUMPI PUSH1 0x40 MLOAD SWAP2 POP PUSH1 0x1F NOT PUSH1 0x3F RETURNDATASIZE ADD AND DUP3 ADD PUSH1 0x40 MSTORE RETURNDATASIZE DUP3 MSTORE RETURNDATASIZE PUSH0 PUSH1 0x20 DUP5 ADD RETURNDATACOPY PUSH2 0x1E26 JUMP JUMPDEST PUSH1 0x60 SWAP2 POP JUMPDEST POP SWAP2 POP SWAP2 POP PUSH2 0x1E36 DUP7 DUP4 DUP4 PUSH2 0x1E41 JUMP JUMPDEST SWAP3 POP POP POP SWAP4 SWAP3 POP POP POP JUMP JUMPDEST PUSH1 0x60 DUP3 PUSH2 0x1E56 JUMPI PUSH2 0x1E51 DUP3 PUSH2 0x1ECE JUMP JUMPDEST PUSH2 0x1EC6 JUMP JUMPDEST PUSH0 DUP3 MLOAD EQ DUP1 ISZERO PUSH2 0x1E7C JUMPI POP PUSH0 DUP5 PUSH20 0xFFFFFFFFFFFFFFFFFFFFFFFFFFFFFFFFFFFFFFFF AND EXTCODESIZE EQ JUMPDEST ISZERO PUSH2 0x1EBE JUMPI DUP4 PUSH1 0x40 MLOAD PUSH32 0x9996B31500000000000000000000000000000000000000000000000000000000 DUP2 MSTORE PUSH1 0x4 ADD PUSH2 0x1EB5 SWAP2 SWAP1 PUSH2 0x2270 JUMP JUMPDEST PUSH1 0x40 MLOAD DUP1 SWAP2 SUB SWAP1 REVERT JUMPDEST DUP2 SWAP1 POP PUSH2 0x1EC7 JUMP JUMPDEST JUMPDEST SWAP4 SWAP3 POP POP POP JUMP JUMPDEST PUSH0 DUP2 MLOAD GT ISZERO PUSH2 0x1EE0 JUMPI DUP1 MLOAD DUP1 DUP3 PUSH1 0x20 ADD REVERT JUMPDEST PUSH1 0x40 MLOAD PUSH32 0x1425EA4200000000000000000000000000000000000000000000000000000000 DUP2 MSTORE PUSH1 0x4 ADD PUSH1 0x40 MLOAD DUP1 SWAP2 SUB SWAP1 REVERT JUMPDEST PUSH1 0x40 MLOAD DUP1 PUSH1 0xE0 ADD PUSH1 0x40 MSTORE DUP1 PUSH0 DUP2 MSTORE PUSH1 0x20 ADD PUSH0 PUSH20 0xFFFFFFFFFFFFFFFFFFFFFFFFFFFFFFFFFFFFFFFF AND DUP2 MSTORE PUSH1 0x20 ADD PUSH0 PUSH20 0xFFFFFFFFFFFFFFFFFFFFFFFFFFFFFFFFFFFFFFFF AND DUP2 MSTORE PUSH1 0x20 ADD PUSH0 PUSH12 0xFFFFFFFFFFFFFFFFFFFFFFFF AND DUP2 MSTORE PUSH1 0x20 ADD PUSH0 PUSH8 0xFFFFFFFFFFFFFFFF AND DUP2 MSTORE PUSH1 0x20 ADD PUSH0 PUSH8 0xFFFFFFFFFFFFFFFF AND DUP2 MSTORE PUSH1 0x20 ADD PUSH0 PUSH1 0x4 DUP2 GT ISZERO PUSH2 0x1FA2 JUMPI PUSH2 0x1FA1 PUSH2 0x20A0 JUMP JUMPDEST JUMPDEST DUP2 MSTORE POP SWAP1 JUMP JUMPDEST PUSH0 PUSH0 REVERT JUMPDEST PUSH0 DUP2 SWAP1 POP SWAP2 SWAP1 POP JUMP JUMPDEST PUSH2 0x1FBE DUP2 PUSH2 0x1FAC JUMP JUMPDEST DUP2 EQ PUSH2 0x1FC8 JUMPI PUSH0 PUSH0 REVERT JUMPDEST POP JUMP JUMPDEST PUSH0 DUP2 CALLDATALOAD SWAP1 POP PUSH2 0x1FD9 DUP2 PUSH2 0x1FB5 JUMP JUMPDEST SWAP3 SWAP2 POP POP JUMP JUMPDEST PUSH0 PUSH1 0x20 DUP3 DUP5 SUB SLT ISZERO PUSH2 0x1FF4 JUMPI PUSH2 0x1FF3 PUSH2 0x1FA8 JUMP JUMPDEST JUMPDEST PUSH0 PUSH2 0x2001 DUP5 DUP3 DUP6 ADD PUSH2 0x1FCB JUMP JUMPDEST SWAP2 POP POP SWAP3 SWAP2 POP POP JUMP JUMPDEST PUSH2 0x2013 DUP2 PUSH2 0x1FAC JUMP JUMPDEST DUP3 MSTORE POP POP JUMP JUMPDEST PUSH0 PUSH20 0xFFFFFFFFFFFFFFFFFFFFFFFFFFFFFFFFFFFFFFFF DUP3 AND SWAP1 POP SWAP2 SWAP1 POP JUMP JUMPDEST PUSH0 PUSH2 0x2042 DUP3 PUSH2 0x2019 JUMP JUMPDEST SWAP1 POP SWAP2 SWAP1 POP JUMP JUMPDEST PUSH2 0x2052 DUP2 PUSH2 0x2038 JUMP JUMPDEST DUP3 MSTORE POP POP JUMP JUMPDEST PUSH0 PUSH12 0xFFFFFFFFFFFFFFFFFFFFFFFF DUP3 AND SWAP1 POP SWAP2 SWAP1 POP JUMP JUMPDEST PUSH2 0x2078 DUP2 PUSH2 0x2058 JUMP JUMPDEST DUP3 MSTORE POP POP JUMP JUMPDEST PUSH0 PUSH8 0xFFFFFFFFFFFFFFFF DUP3 AND SWAP1 POP SWAP2 SWAP1 POP JUMP JUMPDEST PUSH2 0x209A DUP2 PUSH2 0x207E JUMP JUMPDEST DUP3 MSTORE POP POP JUMP JUMPDEST PUSH32 0x4E487B7100000000000000000000000000000000000000000000000000000000 PUSH0 MSTORE PUSH1 0x21 PUSH1 0x4 MSTORE PUSH1 0x24 PUSH0 REVERT JUMPDEST PUSH1 0x5 DUP2 LT PUSH2 0x20DE JUMPI PUSH2 0x20DD PUSH2 0x20A0 JUMP JUMPDEST JUMPDEST POP JUMP JUMPDEST PUSH0 DUP2 SWAP1 POP PUSH2 0x20EE DUP3 PUSH2 0x20CD JUMP JUMPDEST SWAP2 SWAP1 POP JUMP JUMPDEST PUSH0 PUSH2 0x20FD DUP3 PUSH2 0x20E1 JUMP JUMPDEST SWAP1 POP SWAP2 SWAP1 POP JUMP JUMPDEST PUSH2 0x210D DUP2 PUSH2 0x20F3 JUMP JUMPDEST DUP3 MSTORE POP POP JUMP JUMPDEST PUSH1 0xE0 DUP3 ADD PUSH0 DUP3 ADD MLOAD PUSH2 0x2127 PUSH0 DUP6 ADD DUP3 PUSH2 0x200A JUMP JUMPDEST POP PUSH1 0x20 DUP3 ADD MLOAD PUSH2 0x213A PUSH1 0x20 DUP6 ADD DUP3 PUSH2 0x2049 JUMP JUMPDEST POP PUSH1 0x40 DUP3 ADD MLOAD PUSH2 0x214D PUSH1 0x40 DUP6 ADD DUP3 PUSH2 0x2049 JUMP JUMPDEST POP PUSH1 0x60 DUP3 ADD MLOAD PUSH2 0x2160 PUSH1 0x60 DUP6 ADD DUP3 PUSH2 0x206F JUMP JUMPDEST POP PUSH1 0x80 DUP3 ADD MLOAD PUSH2 0x2173 PUSH1 0x80 DUP6 ADD DUP3 PUSH2 0x2091 JUMP JUMPDEST POP PUSH1 0xA0 DUP3 ADD MLOAD PUSH2 0x2186 PUSH1 0xA0 DUP6 ADD DUP3 PUSH2 0x2091 JUMP JUMPDEST POP PUSH1 0xC0 DUP3 ADD MLOAD PUSH2 0x2199 PUSH1 0xC0 DUP6 ADD DUP3 PUSH2 0x2104 JUMP JUMPDEST POP POP POP POP JUMP JUMPDEST PUSH0 PUSH1 0xE0 DUP3 ADD SWAP1 POP PUSH2 0x21B2 PUSH0 DUP4 ADD DUP5 PUSH2 0x2113 JUMP JUMPDEST SWAP3 SWAP2 POP POP JUMP JUMPDEST PUSH0 PUSH2 0xFFFF DUP3 AND SWAP1 POP SWAP2 SWAP1 POP JUMP JUMPDEST PUSH2 0x21CE DUP2 PUSH2 0x21B8 JUMP JUMPDEST DUP3 MSTORE POP POP JUMP JUMPDEST PUSH0 PUSH1 0x20 DUP3 ADD SWAP1 POP PUSH2 0x21E7 PUSH0 DUP4 ADD DUP5 PUSH2 0x21C5 JUMP JUMPDEST SWAP3 SWAP2 POP POP JUMP JUMPDEST PUSH0 DUP2 SWAP1 POP SWAP2 SWAP1 POP JUMP JUMPDEST PUSH0 PUSH2 0x2210 PUSH2 0x220B PUSH2 0x2206 DUP5 PUSH2 0x2019 JUMP JUMPDEST PUSH2 0x21ED JUMP JUMPDEST PUSH2 0x2019 JUMP JUMPDEST SWAP1 POP SWAP2 SWAP1 POP JUMP JUMPDEST PUSH0 PUSH2 0x2221 DUP3 PUSH2 0x21F6 JUMP JUMPDEST SWAP1 POP SWAP2 SWAP1 POP JUMP JUMPDEST PUSH0 PUSH2 0x2232 DUP3 PUSH2 0x2217 JUMP JUMPDEST SWAP1 POP SWAP2 SWAP1 POP JUMP JUMPDEST PUSH2 0x2242 DUP2 PUSH2 0x2228 JUMP JUMPDEST DUP3 MSTORE POP POP JUMP JUMPDEST PUSH0 PUSH1 0x20 DUP3 ADD SWAP1 POP PUSH2 0x225B PUSH0 DUP4 ADD DUP5 PUSH2 0x2239 JUMP JUMPDEST SWAP3 SWAP2 POP POP JUMP JUMPDEST PUSH2 0x226A DUP2 PUSH2 0x2038 JUMP JUMPDEST DUP3 MSTORE POP POP JUMP JUMPDEST PUSH0 PUSH1 0x20 DUP3 ADD SWAP1 POP PUSH2 0x2283 PUSH0 DUP4 ADD DUP5 PUSH2 0x2261 JUMP JUMPDEST SWAP3 SWAP2 POP POP JUMP JUMPDEST PUSH0 DUP2 ISZERO ISZERO SWAP1 POP SWAP2 SWAP1 POP JUMP JUMPDEST PUSH2 0x229D DUP2 PUSH2 0x2289 JUMP JUMPDEST DUP3 MSTORE POP POP JUMP JUMPDEST PUSH0 PUSH1 0x20 DUP3 ADD SWAP1 POP PUSH2 0x22B6 PUSH0 DUP4 ADD DUP5 PUSH2 0x2294 JUMP JUMPDEST SWAP3 SWAP2 POP POP JUMP JUMPDEST PUSH0 PUSH1 0xFF DUP3 AND SWAP1 POP SWAP2 SWAP1 POP JUMP JUMPDEST PUSH2 0x22D1 DUP2 PUSH2 0x22BC JUMP JUMPDEST DUP3 MSTORE POP POP JUMP JUMPDEST PUSH0 PUSH1 0x20 DUP3 ADD SWAP1 POP PUSH2 0x22EA PUSH0 DUP4 ADD DUP5 PUSH2 0x22C8 JUMP JUMPDEST SWAP3 SWAP2 POP POP JUMP JUMPDEST PUSH2 0x22F9 DUP2 PUSH2 0x2038 JUMP JUMPDEST DUP2 EQ PUSH2 0x2303 JUMPI PUSH0 PUSH0 REVERT JUMPDEST POP JUMP JUMPDEST PUSH0 DUP2 CALLDATALOAD SWAP1 POP PUSH2 0x2314 DUP2 PUSH2 0x22F0 JUMP JUMPDEST SWAP3 SWAP2 POP POP JUMP JUMPDEST PUSH2 0x2323 DUP2 PUSH2 0x207E JUMP JUMPDEST DUP2 EQ PUSH2 0x232D JUMPI PUSH0 PUSH0 REVERT JUMPDEST POP JUMP JUMPDEST PUSH0 DUP2 CALLDATALOAD SWAP1 POP PUSH2 0x233E DUP2 PUSH2 0x231A JUMP JUMPDEST SWAP3 SWAP2 POP POP JUMP JUMPDEST PUSH0 DUP2 SWAP1 POP SWAP2 SWAP1 POP JUMP JUMPDEST PUSH2 0x2356 DUP2 PUSH2 0x2344 JUMP JUMPDEST DUP2 EQ PUSH2 0x2360 JUMPI PUSH0 PUSH0 REVERT JUMPDEST POP JUMP JUMPDEST PUSH0 DUP2 CALLDATALOAD SWAP1 POP PUSH2 0x2371 DUP2 PUSH2 0x234D JUMP JUMPDEST SWAP3 SWAP2 POP POP JUMP JUMPDEST PUSH0 PUSH0 PUSH0 PUSH0 PUSH0 PUSH1 0xA0 DUP7 DUP9 SUB SLT ISZERO PUSH2 0x2390 JUMPI PUSH2 0x238F PUSH2 0x1FA8 JUMP JUMPDEST JUMPDEST PUSH0 PUSH2 0x239D DUP9 DUP3 DUP10 ADD PUSH2 0x2306 JUMP JUMPDEST SWAP6 POP POP PUSH1 0x20 PUSH2 0x23AE DUP9 DUP3 DUP10 ADD PUSH2 0x1FCB JUMP JUMPDEST SWAP5 POP POP PUSH1 0x40 PUSH2 0x23BF DUP9 DUP3 DUP10 ADD PUSH2 0x2330 JUMP JUMPDEST SWAP4 POP POP PUSH1 0x60 PUSH2 0x23D0 DUP9 DUP3 DUP10 ADD PUSH2 0x2330 JUMP JUMPDEST SWAP3 POP POP PUSH1 0x80 PUSH2 0x23E1 DUP9 DUP3 DUP10 ADD PUSH2 0x2363 JUMP JUMPDEST SWAP2 POP POP SWAP3 SWAP6 POP SWAP3 SWAP6 SWAP1 SWAP4 POP JUMP JUMPDEST PUSH2 0x23F7 DUP2 PUSH2 0x1FAC JUMP JUMPDEST DUP3 MSTORE POP POP JUMP JUMPDEST PUSH0 PUSH1 0x20 DUP3 ADD SWAP1 POP PUSH2 0x2410 PUSH0 DUP4 ADD DUP5 PUSH2 0x23EE JUMP JUMPDEST SWAP3 SWAP2 POP POP JUMP JUMPDEST PUSH0 PUSH0 PUSH0 PUSH1 0x60 DUP5 DUP7 SUB SLT ISZERO PUSH2 0x242D JUMPI PUSH2 0x242C PUSH2 0x1FA8 JUMP JUMPDEST JUMPDEST PUSH0 PUSH2 0x243A DUP7 DUP3 DUP8 ADD PUSH2 0x2306 JUMP JUMPDEST SWAP4 POP POP PUSH1 0x20 PUSH2 0x244B DUP7 DUP3 DUP8 ADD PUSH2 0x1FCB JUMP JUMPDEST SWAP3 POP POP PUSH1 0x40 PUSH2 0x245C DUP7 DUP3 DUP8 ADD PUSH2 0x2330 JUMP JUMPDEST SWAP2 POP POP SWAP3 POP SWAP3 POP SWAP3 JUMP JUMPDEST PUSH0 PUSH0 PUSH1 0x40 DUP4 DUP6 SUB SLT ISZERO PUSH2 0x247C JUMPI PUSH2 0x247B PUSH2 0x1FA8 JUMP JUMPDEST JUMPDEST PUSH0 PUSH2 0x2489 DUP6 DUP3 DUP7 ADD PUSH2 0x1FCB JUMP JUMPDEST SWAP3 POP POP PUSH1 0x20 PUSH2 0x249A DUP6 DUP3 DUP7 ADD PUSH2 0x2306 JUMP JUMPDEST SWAP2 POP POP SWAP3 POP SWAP3 SWAP1 POP JUMP JUMPDEST PUSH2 0x24AD DUP2 PUSH2 0x21B8 JUMP JUMPDEST DUP2 EQ PUSH2 0x24B7 JUMPI PUSH0 PUSH0 REVERT JUMPDEST POP JUMP JUMPDEST PUSH0 DUP2 CALLDATALOAD SWAP1 POP PUSH2 0x24C8 DUP2 PUSH2 0x24A4 JUMP JUMPDEST SWAP3 SWAP2 POP POP JUMP JUMPDEST PUSH0 PUSH0 PUSH1 0x40 DUP4 DUP6 SUB SLT ISZERO PUSH2 0x24E4 JUMPI PUSH2 0x24E3 PUSH2 0x1FA8 JUMP JUMPDEST JUMPDEST PUSH0 PUSH2 0x24F1 DUP6 DUP3 DUP7 ADD PUSH2 0x24BA JUMP JUMPDEST SWAP3 POP POP PUSH1 0x20 PUSH2 0x2502 DUP6 DUP3 DUP7 ADD PUSH2 0x2306 JUMP JUMPDEST SWAP2 POP POP SWAP3 POP SWAP3 SWAP1 POP JUMP JUMPDEST PUSH0 PUSH0 PUSH1 0x40 DUP4 DUP6 SUB SLT ISZERO PUSH2 0x2522 JUMPI PUSH2 0x2521 PUSH2 0x1FA8 JUMP JUMPDEST JUMPDEST PUSH0 PUSH2 0x252F DUP6 DUP3 DUP7 ADD PUSH2 0x1FCB JUMP JUMPDEST SWAP3 POP POP PUSH1 0x20 PUSH2 0x2540 DUP6 DUP3 DUP7 ADD PUSH2 0x2363 JUMP JUMPDEST SWAP2 POP POP SWAP3 POP SWAP3 SWAP1 POP JUMP JUMPDEST PUSH0 PUSH1 0x20 DUP3 DUP5 SUB SLT ISZERO PUSH2 0x255F JUMPI PUSH2 0x255E PUSH2 0x1FA8 JUMP JUMPDEST JUMPDEST PUSH0 PUSH2 0x256C DUP5 DUP3 DUP6 ADD PUSH2 0x2306 JUMP JUMPDEST SWAP2 POP POP SWAP3 SWAP2 POP POP JUMP JUMPDEST PUSH2 0x257E DUP2 PUSH2 0x207E JUMP JUMPDEST DUP3 MSTORE POP POP JUMP JUMPDEST PUSH2 0x258D DUP2 PUSH2 0x2344 JUMP JUMPDEST DUP3 MSTORE POP POP JUMP JUMPDEST PUSH0 PUSH1 0x80 DUP3 ADD SWAP1 POP PUSH2 0x25A6 PUSH0 DUP4 ADD DUP8 PUSH2 0x2575 JUMP JUMPDEST PUSH2 0x25B3 PUSH1 0x20 DUP4 ADD DUP7 PUSH2 0x2575 JUMP JUMPDEST PUSH2 0x25C0 PUSH1 0x40 DUP4 ADD DUP6 PUSH2 0x2261 JUMP JUMPDEST PUSH2 0x25CD PUSH1 0x60 DUP4 ADD DUP5 PUSH2 0x2584 JUMP JUMPDEST SWAP6 SWAP5 POP POP POP POP POP JUMP JUMPDEST PUSH0 PUSH1 0x20 DUP3 ADD SWAP1 POP PUSH2 0x25E9 PUSH0 DUP4 ADD DUP5 PUSH2 0x2584 JUMP JUMPDEST SWAP3 SWAP2 POP POP JUMP JUMPDEST PUSH0 DUP2 PUSH1 0x60 SHL SWAP1 POP SWAP2 SWAP1 POP JUMP JUMPDEST PUSH0 PUSH2 0x2605 DUP3 PUSH2 0x25EF JUMP JUMPDEST SWAP1 POP SWAP2 SWAP1 POP JUMP JUMPDEST PUSH0 PUSH2 0x2616 DUP3 PUSH2 0x25FB JUMP JUMPDEST SWAP1 POP SWAP2 SWAP1 POP JUMP JUMPDEST PUSH2 0x262E PUSH2 0x2629 DUP3 PUSH2 0x2038 JUMP JUMPDEST PUSH2 0x260C JUMP JUMPDEST DUP3 MSTORE POP POP JUMP JUMPDEST PUSH0 DUP2 SWAP1 POP SWAP2 SWAP1 POP JUMP JUMPDEST PUSH2 0x264E PUSH2 0x2649 DUP3 PUSH2 0x1FAC JUMP JUMPDEST PUSH2 0x2634 JUMP JUMPDEST DUP3 MSTORE POP POP JUMP JUMPDEST PUSH0 DUP2 PUSH1 0xC0 SHL SWAP1 POP SWAP2 SWAP1 POP JUMP JUMPDEST PUSH0 PUSH2 0x266A DUP3 PUSH2 0x2654 JUMP JUMPDEST SWAP1 POP SWAP2 SWAP1 POP JUMP JUMPDEST PUSH2 0x2682 PUSH2 0x267D DUP3 PUSH2 0x207E JUMP JUMPDEST PUSH2 0x2660 JUMP JUMPDEST DUP3 MSTORE POP POP JUMP JUMPDEST PUSH0 PUSH2 0x2693 DUP3 DUP7 PUSH2 0x261D JUMP JUMPDEST PUSH1 0x14 DUP3 ADD SWAP2 POP PUSH2 0x26A3 DUP3 DUP6 PUSH2 0x263D JUMP JUMPDEST PUSH1 0x20 DUP3 ADD SWAP2 POP PUSH2 0x26B3 DUP3 DUP5 PUSH2 0x2671 JUMP JUMPDEST PUSH1 0x8 DUP3 ADD SWAP2 POP DUP2 SWAP1 POP SWAP5 SWAP4 POP POP POP POP JUMP JUMPDEST PUSH32 0x4E487B7100000000000000000000000000000000000000000000000000000000 PUSH0 MSTORE PUSH1 0x11 PUSH1 0x4 MSTORE PUSH1 0x24 PUSH0 REVERT JUMPDEST PUSH0 PUSH2 0x26FB DUP3 PUSH2 0x2344 JUMP JUMPDEST SWAP2 POP PUSH2 0x2706 DUP4 PUSH2 0x2344 JUMP JUMPDEST SWAP3 POP DUP3 DUP3 SUB SWAP1 POP DUP2 DUP2 GT ISZERO PUSH2 0x271E JUMPI PUSH2 0x271D PUSH2 0x26C4 JUMP JUMPDEST JUMPDEST SWAP3 SWAP2 POP POP JUMP JUMPDEST PUSH0 PUSH1 0x40 DUP3 ADD SWAP1 POP PUSH2 0x2737 PUSH0 DUP4 ADD DUP6 PUSH2 0x2584 JUMP JUMPDEST PUSH2 0x2744 PUSH1 0x20 DUP4 ADD DUP5 PUSH2 0x2584 JUMP JUMPDEST SWAP4 SWAP3 POP POP POP JUMP JUMPDEST PUSH0 PUSH1 0x40 DUP3 ADD SWAP1 POP PUSH2 0x275E PUSH0 DUP4 ADD DUP6 PUSH2 0x21C5 JUMP JUMPDEST PUSH2 0x276B PUSH1 0x20 DUP4 ADD DUP5 PUSH2 0x2261 JUMP JUMPDEST SWAP4 SWAP3 POP POP POP JUMP JUMPDEST PUSH0 PUSH2 0x277C DUP3 PUSH2 0x2344 JUMP JUMPDEST SWAP2 POP PUSH2 0x2787 DUP4 PUSH2 0x2344 JUMP JUMPDEST SWAP3 POP DUP3 DUP3 ADD SWAP1 POP DUP1 DUP3 GT ISZERO PUSH2 0x279F JUMPI PUSH2 0x279E PUSH2 0x26C4 JUMP JUMPDEST JUMPDEST SWAP3 SWAP2 POP POP JUMP JUMPDEST PUSH0 DUP2 SWAP1 POP SWAP2 SWAP1 POP JUMP JUMPDEST PUSH0 PUSH2 0x27C8 PUSH2 0x27C3 PUSH2 0x27BE DUP5 PUSH2 0x27A5 JUMP JUMPDEST PUSH2 0x21ED JUMP JUMPDEST PUSH2 0x22BC JUMP JUMPDEST SWAP1 POP SWAP2 SWAP1 POP JUMP JUMPDEST PUSH2 0x27D8 DUP2 PUSH2 0x27AE JUMP JUMPDEST DUP3 MSTORE POP POP JUMP JUMPDEST PUSH0 PUSH1 0x40 DUP3 ADD SWAP1 POP PUSH2 0x27F1 PUSH0 DUP4 ADD DUP6 PUSH2 0x27CF JUMP JUMPDEST PUSH2 0x27FE PUSH1 0x20 DUP4 ADD DUP5 PUSH2 0x2584 JUMP JUMPDEST SWAP4 SWAP3 POP POP POP JUMP JUMPDEST PUSH0 PUSH1 0x60 DUP3 ADD SWAP1 POP PUSH2 0x2818 PUSH0 DUP4 ADD DUP7 PUSH2 0x2261 JUMP JUMPDEST PUSH2 0x2825 PUSH1 0x20 DUP4 ADD DUP6 PUSH2 0x2261 JUMP JUMPDEST PUSH2 0x2832 PUSH1 0x40 DUP4 ADD DUP5 PUSH2 0x2584 JUMP JUMPDEST SWAP5 SWAP4 POP POP POP POP JUMP JUMPDEST PUSH0 PUSH1 0x40 DUP3 ADD SWAP1 POP PUSH2 0x284D PUSH0 DUP4 ADD DUP6 PUSH2 0x2261 JUMP JUMPDEST PUSH2 0x285A PUSH1 0x20 DUP4 ADD DUP5 PUSH2 0x2584 JUMP JUMPDEST SWAP4 SWAP3 POP POP POP JUMP JUMPDEST PUSH32 0x4E487B7100000000000000000000000000000000000000000000000000000000 PUSH0 MSTORE PUSH1 0x12 PUSH1 0x4 MSTORE PUSH1 0x24 PUSH0 REVERT JUMPDEST PUSH2 0x2897 DUP2 PUSH2 0x2289 JUMP JUMPDEST DUP2 EQ PUSH2 0x28A1 JUMPI PUSH0 PUSH0 REVERT JUMPDEST POP JUMP JUMPDEST PUSH0 DUP2 MLOAD SWAP1 POP PUSH2 0x28B2 DUP2 PUSH2 0x288E JUMP JUMPDEST SWAP3 SWAP2 POP POP JUMP JUMPDEST PUSH0 PUSH1 0x20 DUP3 DUP5 SUB SLT ISZERO PUSH2 0x28CD JUMPI PUSH2 0x28CC PUSH2 0x1FA8 JUMP JUMPDEST JUMPDEST PUSH0 PUSH2 0x28DA DUP5 DUP3 DUP6 ADD PUSH2 0x28A4 JUMP JUMPDEST SWAP2 POP POP SWAP3 SWAP2 POP POP JUMP JUMPDEST PUSH0 DUP2 MLOAD SWAP1 POP SWAP2 SWAP1 POP JUMP JUMPDEST PUSH0 DUP2 SWAP1 POP SWAP3 SWAP2 POP POP JUMP JUMPDEST DUP3 DUP2 DUP4 MCOPY PUSH0 DUP4 DUP4 ADD MSTORE POP POP POP JUMP JUMPDEST PUSH0 PUSH2 0x290F DUP3 PUSH2 0x28E3 JUMP JUMPDEST PUSH2 0x2919 DUP2 DUP6 PUSH2 0x28ED JUMP JUMPDEST SWAP4 POP PUSH2 0x2929 DUP2 DUP6 PUSH1 0x20 DUP7 ADD PUSH2 0x28F7 JUMP JUMPDEST DUP1 DUP5 ADD SWAP2 POP POP SWAP3 SWAP2 POP POP JUMP JUMPDEST PUSH0 PUSH2 0x2940 DUP3 DUP5 PUSH2 0x2905 JUMP JUMPDEST SWAP2 POP DUP2 SWAP1 POP SWAP3 SWAP2 POP POP JUMP INVALID LOG2 PUSH5 0x6970667358 0x22 SLT KECCAK256 STATICCALL 0x2C DUP6 0xE2 CODECOPY 0xD7 PUSH21 0xB1506CAE5C4C4677B92D45B9017BC2F801C3633F43 PUSH32 0x28254B64736F6C634300081E0033000000000000000000000000000000000000 "
				},
				"gasEstimates": {
					"creation": {
						"codeDepositCost": "2125000",
						"executionCost": "infinite",
						"totalCost": "infinite"
					},
					"external": {
						"MAX_FEE_BPS()": "375",
						"cancel(bytes32)": "infinite",
						"computeBountyId(address,bytes32,uint64)": "infinite",
						"createBounty(address,bytes32,uint64,uint64,uint256)": "infinite",
						"feeBps()": "2512",
						"feeVault()": "2582",
						"fund(bytes32,uint256)": "infinite",
						"getBounty(bytes32)": "infinite",
						"owner()": "2586",
						"pause()": "infinite",
						"paused()": "2518",
						"refundExpired(bytes32)": "infinite",
						"renounceOwnership()": "infinite",
						"resolve(bytes32,address)": "infinite",
						"setFeeParams(uint16,address)": "infinite",
						"transferOwnership(address)": "infinite",
						"unpause()": "infinite",
						"usdc()": "infinite",
						"usdcDecimals()": "infinite"
					}
				},
				"methodIdentifiers": {
					"MAX_FEE_BPS()": "d55be8c6",
					"cancel(bytes32)": "c4d252f5",
					"computeBountyId(address,bytes32,uint64)": "cd2025c3",
					"createBounty(address,bytes32,uint64,uint64,uint256)": "c23945ac",
					"feeBps()": "24a9d853",
					"feeVault()": "478222c2",
					"fund(bytes32,uint256)": "e46bbc9e",
					"getBounty(bytes32)": "2417395c",
					"owner()": "8da5cb5b",
					"pause()": "8456cb59",
					"paused()": "5c975abb",
					"refundExpired(bytes32)": "cc3e049b",
					"renounceOwnership()": "715018a6",
					"resolve(bytes32,address)": "d1686604",
					"setFeeParams(uint16,address)": "e0120cf8",
					"transferOwnership(address)": "f2fde38b",
					"unpause()": "3f4ba83a",
					"usdc()": "3e413bee",
					"usdcDecimals()": "7bf42165"
				}
			},
			"storageLayout": {
				"storage": [
					{
						"astId": 988,
						"contract": "contracts/BountyEscrow.sol:BountyEscrow",
						"label": "_status",
						"offset": 0,
						"slot": "0",
						"type": "t_uint256"
					},
					{
						"astId": 869,
						"contract": "contracts/BountyEscrow.sol:BountyEscrow",
						"label": "_paused",
						"offset": 0,
						"slot": "1",
						"type": "t_bool"
					},
					{
						"astId": 8,
						"contract": "contracts/BountyEscrow.sol:BountyEscrow",
						"label": "_owner",
						"offset": 1,
						"slot": "1",
						"type": "t_address"
					},
					{
						"astId": 3932,
						"contract": "contracts/BountyEscrow.sol:BountyEscrow",
						"label": "_bounties",
						"offset": 0,
						"slot": "2",
						"type": "t_mapping(t_bytes32,t_struct(Bounty)3919_storage)"
					},
					{
						"astId": 3935,
						"contract": "contracts/BountyEscrow.sol:BountyEscrow",
						"label": "feeBps",
						"offset": 0,
						"slot": "3",
						"type": "t_uint16"
					},
					{
						"astId": 3938,
						"contract": "contracts/BountyEscrow.sol:BountyEscrow",
						"label": "feeVault",
						"offset": 2,
						"slot": "3",
						"type": "t_address"
					}
				],
				"types": {
					"t_address": {
						"encoding": "inplace",
						"label": "address",
						"numberOfBytes": "20"
					},
					"t_bool": {
						"encoding": "inplace",
						"label": "bool",
						"numberOfBytes": "1"
					},
					"t_bytes32": {
						"encoding": "inplace",
						"label": "bytes32",
						"numberOfBytes": "32"
					},
					"t_enum(Status)3902": {
						"encoding": "inplace",
						"label": "enum BountyEscrow.Status",
						"numberOfBytes": "1"
					},
					"t_mapping(t_bytes32,t_struct(Bounty)3919_storage)": {
						"encoding": "mapping",
						"key": "t_bytes32",
						"label": "mapping(bytes32 => struct BountyEscrow.Bounty)",
						"numberOfBytes": "32",
						"value": "t_struct(Bounty)3919_storage"
					},
					"t_struct(Bounty)3919_storage": {
						"encoding": "inplace",
						"label": "struct BountyEscrow.Bounty",
						"members": [
							{
								"astId": 3905,
								"contract": "contracts/BountyEscrow.sol:BountyEscrow",
								"label": "repoIdHash",
								"offset": 0,
								"slot": "0",
								"type": "t_bytes32"
							},
							{
								"astId": 3907,
								"contract": "contracts/BountyEscrow.sol:BountyEscrow",
								"label": "sponsor",
								"offset": 0,
								"slot": "1",
								"type": "t_address"
							},
							{
								"astId": 3909,
								"contract": "contracts/BountyEscrow.sol:BountyEscrow",
								"label": "resolver",
								"offset": 0,
								"slot": "2",
								"type": "t_address"
							},
							{
								"astId": 3911,
								"contract": "contracts/BountyEscrow.sol:BountyEscrow",
								"label": "amount",
								"offset": 20,
								"slot": "2",
								"type": "t_uint96"
							},
							{
								"astId": 3913,
								"contract": "contracts/BountyEscrow.sol:BountyEscrow",
								"label": "deadline",
								"offset": 0,
								"slot": "3",
								"type": "t_uint64"
							},
							{
								"astId": 3915,
								"contract": "contracts/BountyEscrow.sol:BountyEscrow",
								"label": "issueNumber",
								"offset": 8,
								"slot": "3",
								"type": "t_uint64"
							},
							{
								"astId": 3918,
								"contract": "contracts/BountyEscrow.sol:BountyEscrow",
								"label": "status",
								"offset": 16,
								"slot": "3",
								"type": "t_enum(Status)3902"
							}
						],
						"numberOfBytes": "128"
					},
					"t_uint16": {
						"encoding": "inplace",
						"label": "uint16",
						"numberOfBytes": "2"
					},
					"t_uint256": {
						"encoding": "inplace",
						"label": "uint256",
						"numberOfBytes": "32"
					},
					"t_uint64": {
						"encoding": "inplace",
						"label": "uint64",
						"numberOfBytes": "8"
					},
					"t_uint96": {
						"encoding": "inplace",
						"label": "uint96",
						"numberOfBytes": "12"
					}
				}
			},
			"userdoc": {
				"errors": {
					"AlreadyExists()": [
						{
							"notice": "Thrown when attempting to create a bounty that already exists."
						}
					],
					"DeadlineNotReached()": [
						{
							"notice": "Thrown when refund attempted before deadline."
						}
					],
					"InvalidParams()": [
						{
							"notice": "Thrown when parameters fail validation (range/overflow/state)."
						}
					],
					"NotOpen()": [
						{
							"notice": "Thrown when action requires an Open bounty but it is not Open."
						}
					],
					"NotResolver()": [
						{
							"notice": "Thrown when caller is not the designated resolver."
						}
					],
					"NotSponsor()": [
						{
							"notice": "Thrown when caller is not the bounty sponsor."
						}
					],
					"ZeroAddress()": [
						{
							"notice": "Thrown when an address argument is zero."
						}
					],
					"ZeroAmount()": [
						{
							"notice": "Thrown when an amount argument is zero."
						}
					]
				},
				"events": {
					"BountyCreated(bytes32,address,bytes32,uint64,uint64,address,uint256)": {
						"notice": "Emitted when a bounty is created and funded."
					},
					"Canceled(bytes32,address,uint256)": {
						"notice": "Emitted when an Open bounty is canceled by the sponsor before deadline."
					},
					"FeeParamsUpdated(uint16,address)": {
						"notice": "Emitted when fee parameters are updated by owner."
					},
					"Funded(bytes32,uint256)": {
						"notice": "Emitted when the sponsor tops up an existing Open bounty."
					},
					"Refunded(bytes32,address,uint256)": {
						"notice": "Emitted when an expired Open bounty is refunded to the sponsor."
					},
					"Resolved(bytes32,address,uint256,uint256)": {
						"notice": "Emitted on successful resolution and payout."
					}
				},
				"kind": "user",
				"methods": {
					"MAX_FEE_BPS()": {
						"notice": "Maximum protocol fee in basis points (1_000 = 10%)."
					},
					"cancel(bytes32)": {
						"notice": "Cancel an Open bounty before the deadline and retrieve funds."
					},
					"computeBountyId(address,bytes32,uint64)": {
						"notice": "Compute the deterministic bounty id."
					},
					"createBounty(address,bytes32,uint64,uint64,uint256)": {
						"notice": "Create a new bounty and fund it in a single transaction."
					},
					"feeBps()": {
						"notice": "Protocol fee in basis points (out of 10_000)."
					},
					"feeVault()": {
						"notice": "Address that receives protocol fees upon resolution."
					},
					"fund(bytes32,uint256)": {
						"notice": "Top up an existing Open bounty."
					},
					"getBounty(bytes32)": {
						"notice": "Read the full Bounty struct for a given id."
					},
					"pause()": {
						"notice": "Pause all state-changing functions."
					},
					"refundExpired(bytes32)": {
						"notice": "Refund an Open bounty after the deadline back to the sponsor."
					},
					"resolve(bytes32,address)": {
						"notice": "Resolve an Open bounty to a recipient, paying out net amount and fee."
					},
					"setFeeParams(uint16,address)": {
						"notice": "Update protocol fee and fee vault address."
					},
					"unpause()": {
						"notice": "Unpause all state-changing functions."
					},
					"usdc()": {
						"notice": "ERC-20 token used for escrow (intended USDC)."
					},
					"usdcDecimals()": {
						"notice": "Cached decimals of the escrow token (best-effort; default 6)."
					}
				},
				"notice": "Minimal, USDC-based escrow for GitHub issue bounties.         Sponsor funds a bounty; a designated resolver can settle to a recipient before the deadline;         sponsors can cancel or refund after deadline. Owner sets fee params and can pause.",
				"version": 1
			}
		}
	}
}