{
	"data": {
		"bytecode": {
			"linkReferences": {},
			"object": "60c060405234801561000f575f5ffd5b50604051612f1c380380612f1c83398181016040528101906100319190610463565b8060015f819055505f60015f6101000a81548160ff0219169083151502179055505f73ffffffffffffffffffffffffffffffffffffffff168173ffffffffffffffffffffffffffffffffffffffff16036100c2575f6040517f1e4fbdf70000000000000000000000000000000000000000000000000000000081526004016100b991906104d6565b60405180910390fd5b6100d18161030c60201b60201c565b505f73ffffffffffffffffffffffffffffffffffffffff168473ffffffffffffffffffffffffffffffffffffffff16148061013757505f73ffffffffffffffffffffffffffffffffffffffff168273ffffffffffffffffffffffffffffffffffffffff16145b8061016d57505f73ffffffffffffffffffffffffffffffffffffffff168173ffffffffffffffffffffffffffffffffffffffff16145b156101a4576040517fd92e233d00000000000000000000000000000000000000000000000000000000815260040160405180910390fd5b6103e861ffff168361ffff1611156101e8576040517fa86b651200000000000000000000000000000000000000000000000000000000815260040160405180910390fd5b8373ffffffffffffffffffffffffffffffffffffffff1660808173ffffffffffffffffffffffffffffffffffffffff16815250505f8473ffffffffffffffffffffffffffffffffffffffff1663313ce5676040518163ffffffff1660e01b8152600401602060405180830381865afa92505050801561028557506040513d601f19601f820116820180604052508101906102829190610525565b60015b6102925760069050610297565b809150505b8060ff1660a08160ff16815250508360035f6101000a81548161ffff021916908361ffff16021790555082600360026101000a81548173ffffffffffffffffffffffffffffffffffffffff021916908373ffffffffffffffffffffffffffffffffffffffff1602179055505050505050610550565b5f60018054906101000a900473ffffffffffffffffffffffffffffffffffffffff169050816001806101000a81548173ffffffffffffffffffffffffffffffffffffffff021916908373ffffffffffffffffffffffffffffffffffffffff1602179055508173ffffffffffffffffffffffffffffffffffffffff168173ffffffffffffffffffffffffffffffffffffffff167f8be0079c531659141344cd1fd0a4f28419497f9722a3daafe3b4186f6b6457e060405160405180910390a35050565b5f5ffd5b5f73ffffffffffffffffffffffffffffffffffffffff82169050919050565b5f6103fb826103d2565b9050919050565b61040b816103f1565b8114610415575f5ffd5b50565b5f8151905061042681610402565b92915050565b5f61ffff82169050919050565b6104428161042c565b811461044c575f5ffd5b50565b5f8151905061045d81610439565b92915050565b5f5f5f5f6080858703121561047b5761047a6103ce565b5b5f61048887828801610418565b94505060206104998782880161044f565b93505060406104aa87828801610418565b92505060606104bb87828801610418565b91505092959194509250565b6104d0816103f1565b82525050565b5f6020820190506104e95f8301846104c7565b92915050565b5f60ff82169050919050565b610504816104ef565b811461050e575f5ffd5b50565b5f8151905061051f816104fb565b92915050565b5f6020828403121561053a576105396103ce565b5b5f61054784828501610511565b91505092915050565b60805160a05161298161059b5f395f6105a201525f818161051b0152818161093101528181610bb901528181610eb3015281816111fb01528181611271015261168001526129815ff3fe608060405234801561000f575f5ffd5b506004361061011f575f3560e01c80638da5cb5b116100ab578063d16866041161006f578063d1686604146102bd578063d55be8c6146102d9578063e0120cf8146102f7578063e46bbc9e14610313578063f2fde38b1461032f5761011f565b80638da5cb5b14610207578063c23945ac14610225578063c4d252f514610255578063cc3e049b14610271578063cd2025c31461028d5761011f565b8063478222c2116100f2578063478222c2146101995780635c975abb146101b7578063715018a6146101d55780637bf42165146101df5780638456cb59146101fd5761011f565b80632417395c1461012357806324a9d853146101535780633e413bee146101715780633f4ba83a1461018f575b5f5ffd5b61013d60048036038101906101389190611fdf565b61034b565b60405161014a919061219f565b60405180910390f35b61015b610505565b60405161016891906121d4565b60405180910390f35b610179610518565b6040516101869190612248565b60405180910390f35b61019761053f565b005b6101a1610551565b6040516101ae9190612270565b60405180910390f35b6101bf610577565b6040516101cc91906122a3565b60405180910390f35b6101dd61058c565b005b6101e761059f565b6040516101f491906122d7565b60405180910390f35b6102056105c6565b005b61020f6105d8565b60405161021c9190612270565b60405180910390f35b61023f600480360381019061023a9190612377565b6105ff565b60405161024c91906123fd565b60405180910390f35b61026f600480360381019061026a9190611fdf565b6109de565b005b61028b60048036038101906102869190611fdf565b610c7d565b005b6102a760048036038101906102a29190612416565b610f77565b6040516102b491906123fd565b60405180910390f35b6102d760048036038101906102d29190612466565b610fac565b005b6102e1611317565b6040516102ee91906121d4565b60405180910390f35b610311600480360381019061030c91906124ce565b61131d565b005b61032d6004803603810190610328919061250c565b611468565b005b6103496004803603810190610344919061254a565b61170b565b005b610353611f12565b60025f8381526020019081526020015f206040518060e00160405290815f8201548152602001600182015f9054906101000a900473ffffffffffffffffffffffffffffffffffffffff1673ffffffffffffffffffffffffffffffffffffffff1673ffffffffffffffffffffffffffffffffffffffff168152602001600282015f9054906101000a900473ffffffffffffffffffffffffffffffffffffffff1673ffffffffffffffffffffffffffffffffffffffff1673ffffffffffffffffffffffffffffffffffffffff1681526020016002820160149054906101000a90046bffffffffffffffffffffffff166bffffffffffffffffffffffff166bffffffffffffffffffffffff168152602001600382015f9054906101000a900467ffffffffffffffff1667ffffffffffffffff1667ffffffffffffffff1681526020016003820160089054906101000a900467ffffffffffffffff1667ffffffffffffffff1667ffffffffffffffff1681526020016003820160109054906101000a900460ff1660048111156104e8576104e76120a0565b5b60048111156104fa576104f96120a0565b5b815250509050919050565b60035f9054906101000a900461ffff1681565b5f7f0000000000000000000000000000000000000000000000000000000000000000905090565b61054761178f565b61054f611816565b565b600360029054906101000a900473ffffffffffffffffffffffffffffffffffffffff1681565b5f60015f9054906101000a900460ff16905090565b61059461178f565b61059d5f611877565b565b5f7f0000000000000000000000000000000000000000000000000000000000000000905090565b6105ce61178f565b6105d6611939565b565b5f60018054906101000a900473ffffffffffffffffffffffffffffffffffffffff16905090565b5f61060861199a565b6106106119de565b5f73ffffffffffffffffffffffffffffffffffffffff168673ffffffffffffffffffffffffffffffffffffffff1603610675576040517fd92e233d00000000000000000000000000000000000000000000000000000000815260040160405180910390fd5b5f5f1b85148061068e57505f8467ffffffffffffffff16145b156106c5576040517fa86b651200000000000000000000000000000000000000000000000000000000815260040160405180910390fd5b428367ffffffffffffffff1611610708576040517fa86b651200000000000000000000000000000000000000000000000000000000815260040160405180910390fd5b5f8203610741576040517f1f2a200500000000000000000000000000000000000000000000000000000000815260040160405180910390fd5b61074c338686610f77565b90505f6004811115610761576107606120a0565b5b60025f8381526020019081526020015f2060030160109054906101000a900460ff166004811115610795576107946120a0565b5b146107cc576040517f23369fa600000000000000000000000000000000000000000000000000000000815260040160405180910390fd5b5f60025f8381526020019081526020015f20905085815f018190555033816001015f6101000a81548173ffffffffffffffffffffffffffffffffffffffff021916908373ffffffffffffffffffffffffffffffffffffffff16021790555086816002015f6101000a81548173ffffffffffffffffffffffffffffffffffffffff021916908373ffffffffffffffffffffffffffffffffffffffff16021790555061087583611a1f565b8160020160146101000a8154816bffffffffffffffffffffffff02191690836bffffffffffffffffffffffff16021790555083816003015f6101000a81548167ffffffffffffffff021916908367ffffffffffffffff160217905550848160030160086101000a81548167ffffffffffffffff021916908367ffffffffffffffff16021790555060018160030160106101000a81548160ff02191690836004811115610924576109236120a0565b5b02179055506109763330857f000000000000000000000000000000000000000000000000000000000000000073ffffffffffffffffffffffffffffffffffffffff16611a7e909392919063ffffffff16565b853373ffffffffffffffffffffffffffffffffffffffff16837fb9f72851bf0c89db77e8b273bf29aef517207f92830df76851a309f1a6c5c80e88888c896040516109c49493929190612593565b60405180910390a4506109d5611b00565b95945050505050565b6109e661199a565b6109ee6119de565b5f60025f8381526020019081526020015f20905060016004811115610a1657610a156120a0565b5b8160030160109054906101000a900460ff166004811115610a3a57610a396120a0565b5b14610a71576040517fddafad9800000000000000000000000000000000000000000000000000000000815260040160405180910390fd5b806001015f9054906101000a900473ffffffffffffffffffffffffffffffffffffffff1673ffffffffffffffffffffffffffffffffffffffff163373ffffffffffffffffffffffffffffffffffffffff1614610af9576040517fdf4795c700000000000000000000000000000000000000000000000000000000815260040160405180910390fd5b60048160030160106101000a81548160ff02191690836004811115610b2157610b206120a0565b5b02179055505f8160020160149054906101000a90046bffffffffffffffffffffffff166bffffffffffffffffffffffff1690505f8260020160146101000a8154816bffffffffffffffffffffffff02191690836bffffffffffffffffffffffff1602179055505f811115610bfe57610bfd826001015f9054906101000a900473ffffffffffffffffffffffffffffffffffffffff16827f000000000000000000000000000000000000000000000000000000000000000073ffffffffffffffffffffffffffffffffffffffff16611b099092919063ffffffff16565b5b816001015f9054906101000a900473ffffffffffffffffffffffffffffffffffffffff1673ffffffffffffffffffffffffffffffffffffffff16837f13ca42b383dddac8a499886c122185485535c8144d34355991f87265cfbee4cc83604051610c6891906125d6565b60405180910390a35050610c7a611b00565b50565b610c8561199a565b610c8d6119de565b5f60025f8381526020019081526020015f20905060016004811115610cb557610cb46120a0565b5b8160030160109054906101000a900460ff166004811115610cd957610cd86120a0565b5b14610d10576040517fddafad9800000000000000000000000000000000000000000000000000000000815260040160405180910390fd5b806003015f9054906101000a900467ffffffffffffffff1667ffffffffffffffff16421015610d6b576040517f66ec4ee600000000000000000000000000000000000000000000000000000000815260040160405180910390fd5b806001015f9054906101000a900473ffffffffffffffffffffffffffffffffffffffff1673ffffffffffffffffffffffffffffffffffffffff163373ffffffffffffffffffffffffffffffffffffffff1614610df3576040517fdf4795c700000000000000000000000000000000000000000000000000000000815260040160405180910390fd5b60038160030160106101000a81548160ff02191690836004811115610e1b57610e1a6120a0565b5b02179055505f8160020160149054906101000a90046bffffffffffffffffffffffff166bffffffffffffffffffffffff1690505f8260020160146101000a8154816bffffffffffffffffffffffff02191690836bffffffffffffffffffffffff1602179055505f811115610ef857610ef7826001015f9054906101000a900473ffffffffffffffffffffffffffffffffffffffff16827f000000000000000000000000000000000000000000000000000000000000000073ffffffffffffffffffffffffffffffffffffffff16611b099092919063ffffffff16565b5b816001015f9054906101000a900473ffffffffffffffffffffffffffffffffffffffff1673ffffffffffffffffffffffffffffffffffffffff16837ff552ca82e113ac3c539c3d617f29fcd19c172a0c75dad017555c9e109f7fe18383604051610f6291906125d6565b60405180910390a35050610f74611b00565b50565b5f838383604051602001610f8d93929190612688565b6040516020818303038152906040528051906020012090509392505050565b610fb461199a565b610fbc6119de565b5f73ffffffffffffffffffffffffffffffffffffffff168173ffffffffffffffffffffffffffffffffffffffff1603611021576040517fd92e233d00000000000000000000000000000000000000000000000000000000815260040160405180910390fd5b5f60025f8481526020019081526020015f20905060016004811115611049576110486120a0565b5b8160030160109054906101000a900460ff16600481111561106d5761106c6120a0565b5b146110a4576040517fddafad9800000000000000000000000000000000000000000000000000000000815260040160405180910390fd5b806002015f9054906101000a900473ffffffffffffffffffffffffffffffffffffffff1673ffffffffffffffffffffffffffffffffffffffff163373ffffffffffffffffffffffffffffffffffffffff161461112c576040517fba2a9fc200000000000000000000000000000000000000000000000000000000815260040160405180910390fd5b60028160030160106101000a81548160ff02191690836004811115611154576111536120a0565b5b02179055505f8160020160149054906101000a90046bffffffffffffffffffffffff166bffffffffffffffffffffffff1690505f8260020160146101000a8154816bffffffffffffffffffffffff02191690836bffffffffffffffffffffffff1602179055505f6111db8260035f9054906101000a900461ffff1661ffff16612710611b88565b90505f81836111ea91906126f1565b90505f8111156112405761123f85827f000000000000000000000000000000000000000000000000000000000000000073ffffffffffffffffffffffffffffffffffffffff16611b099092919063ffffffff16565b5b5f8211156112b6576112b5600360029054906101000a900473ffffffffffffffffffffffffffffffffffffffff16837f000000000000000000000000000000000000000000000000000000000000000073ffffffffffffffffffffffffffffffffffffffff16611b099092919063ffffffff16565b5b8473ffffffffffffffffffffffffffffffffffffffff16867f461dc02513380b552c1c7e42377606be7a1c06610e50589fc4664dd29bf47fc083856040516112ff929190612724565b60405180910390a350505050611313611b00565b5050565b6103e881565b61132561178f565b5f73ffffffffffffffffffffffffffffffffffffffff168173ffffffffffffffffffffffffffffffffffffffff160361138a576040517fd92e233d00000000000000000000000000000000000000000000000000000000815260040160405180910390fd5b6103e861ffff168261ffff1611156113ce576040517fa86b651200000000000000000000000000000000000000000000000000000000815260040160405180910390fd5b8160035f6101000a81548161ffff021916908361ffff16021790555080600360026101000a81548173ffffffffffffffffffffffffffffffffffffffff021916908373ffffffffffffffffffffffffffffffffffffffff1602179055507f553bd03bb9146c7a9c7ad0a260aed36e8d47650815df076dfb60f9d47e6cf727828260405161145c92919061274b565b60405180910390a15050565b61147061199a565b6114786119de565b5f60025f8481526020019081526020015f209050600160048111156114a05761149f6120a0565b5b8160030160109054906101000a900460ff1660048111156114c4576114c36120a0565b5b146114fb576040517fddafad9800000000000000000000000000000000000000000000000000000000815260040160405180910390fd5b806001015f9054906101000a900473ffffffffffffffffffffffffffffffffffffffff1673ffffffffffffffffffffffffffffffffffffffff163373ffffffffffffffffffffffffffffffffffffffff1614611583576040517fdf4795c700000000000000000000000000000000000000000000000000000000815260040160405180910390fd5b5f82036115bc576040517f1f2a200500000000000000000000000000000000000000000000000000000000815260040160405180910390fd5b5f828260020160149054906101000a90046bffffffffffffffffffffffff166bffffffffffffffffffffffff166115f39190612772565b90506bffffffffffffffffffffffff801681111561163d576040517fa86b651200000000000000000000000000000000000000000000000000000000815260040160405180910390fd5b61164681611a1f565b8260020160146101000a8154816bffffffffffffffffffffffff02191690836bffffffffffffffffffffffff1602179055506116c53330857f000000000000000000000000000000000000000000000000000000000000000073ffffffffffffffffffffffffffffffffffffffff16611a7e909392919063ffffffff16565b837f9f4592c3bd42bd33860ee93dc92d07f06e3f4fb6e19a9ca214982fe7c1bdb037826040516116f591906125d6565b60405180910390a25050611707611b00565b5050565b61171361178f565b5f73ffffffffffffffffffffffffffffffffffffffff168173ffffffffffffffffffffffffffffffffffffffff1603611783575f6040517f1e4fbdf700000000000000000000000000000000000000000000000000000000815260040161177a9190612270565b60405180910390fd5b61178c81611877565b50565b611797611c87565b73ffffffffffffffffffffffffffffffffffffffff166117b56105d8565b73ffffffffffffffffffffffffffffffffffffffff1614611814576117d8611c87565b6040517f118cdaa700000000000000000000000000000000000000000000000000000000815260040161180b9190612270565b60405180910390fd5b565b61181e611c8e565b5f60015f6101000a81548160ff0219169083151502179055507f5db9ee0a495bf2e6ff9c91a7834c1ba4fdd244a5e8aa4e537bd38aeae4b073aa611860611c87565b60405161186d9190612270565b60405180910390a1565b5f60018054906101000a900473ffffffffffffffffffffffffffffffffffffffff169050816001806101000a81548173ffffffffffffffffffffffffffffffffffffffff021916908373ffffffffffffffffffffffffffffffffffffffff1602179055508173ffffffffffffffffffffffffffffffffffffffff168173ffffffffffffffffffffffffffffffffffffffff167f8be0079c531659141344cd1fd0a4f28419497f9722a3daafe3b4186f6b6457e060405160405180910390a35050565b6119416119de565b6001805f6101000a81548160ff0219169083151502179055507f62e78cea01bee320cd4e420270b5ea74000d11b0c9f74754ebdbfc544b05a258611983611c87565b6040516119909190612270565b60405180910390a1565b60025f54036119d5576040517f3ee5aeb500000000000000000000000000000000000000000000000000000000815260040160405180910390fd5b60025f81905550565b6119e6610577565b15611a1d576040517fd93c066500000000000000000000000000000000000000000000000000000000815260040160405180910390fd5b565b5f6bffffffffffffffffffffffff8016821115611a76576060826040517f6dfcc650000000000000000000000000000000000000000000000000000000008152600401611a6d9291906127de565b60405180910390fd5b819050919050565b611afa848573ffffffffffffffffffffffffffffffffffffffff166323b872dd868686604051602401611ab393929190612805565b604051602081830303815290604052915060e01b6020820180517bffffffffffffffffffffffffffffffffffffffffffffffffffffffff8381831617835250505050611cce565b50505050565b60015f81905550565b611b83838473ffffffffffffffffffffffffffffffffffffffff1663a9059cbb8585604051602401611b3c92919061283a565b604051602081830303815290604052915060e01b6020820180517bffffffffffffffffffffffffffffffffffffffffffffffffffffffff8381831617835250505050611cce565b505050565b5f5f83850290505f5f19858709828110838203039150505f8103611bc057838281611bb657611bb5612861565b5b0492505050611c80565b808411611bf9576040517f227bc15300000000000000000000000000000000000000000000000000000000815260040160405180910390fd5b5f8486880990508281118203915080830392505f855f038616905080860495508084049350600181825f0304019050808302841793505f600287600302189050808702600203810290508087026002038102905080870260020381029050808702600203810290508087026002038102905080870260020381029050808502955050505050505b9392505050565b5f33905090565b611c96610577565b611ccc576040517f8dfc202b00000000000000000000000000000000000000000000000000000000815260040160405180910390fd5b565b5f611cf8828473ffffffffffffffffffffffffffffffffffffffff16611d6390919063ffffffff16565b90505f815114158015611d1c575080806020019051810190611d1a91906128b8565b155b15611d5e57826040517f5274afe7000000000000000000000000000000000000000000000000000000008152600401611d559190612270565b60405180910390fd5b505050565b6060611d7083835f611d78565b905092915050565b606081471015611dbf57306040517fcd786059000000000000000000000000000000000000000000000000000000008152600401611db69190612270565b60405180910390fd5b5f5f8573ffffffffffffffffffffffffffffffffffffffff168486604051611de79190612935565b5f6040518083038185875af1925050503d805f8114611e21576040519150601f19603f3d011682016040523d82523d5f602084013e611e26565b606091505b5091509150611e36868383611e41565b925050509392505050565b606082611e5657611e5182611ece565b611ec6565b5f8251148015611e7c57505f8473ffffffffffffffffffffffffffffffffffffffff163b145b15611ebe57836040517f9996b315000000000000000000000000000000000000000000000000000000008152600401611eb59190612270565b60405180910390fd5b819050611ec7565b5b9392505050565b5f81511115611ee05780518082602001fd5b6040517f1425ea4200000000000000000000000000000000000000000000000000000000815260040160405180910390fd5b6040518060e001604052805f81526020015f73ffffffffffffffffffffffffffffffffffffffff1681526020015f73ffffffffffffffffffffffffffffffffffffffff1681526020015f6bffffffffffffffffffffffff1681526020015f67ffffffffffffffff1681526020015f67ffffffffffffffff1681526020015f6004811115611fa257611fa16120a0565b5b81525090565b5f5ffd5b5f819050919050565b611fbe81611fac565b8114611fc8575f5ffd5b50565b5f81359050611fd981611fb5565b92915050565b5f60208284031215611ff457611ff3611fa8565b5b5f61200184828501611fcb565b91505092915050565b61201381611fac565b82525050565b5f73ffffffffffffffffffffffffffffffffffffffff82169050919050565b5f61204282612019565b9050919050565b61205281612038565b82525050565b5f6bffffffffffffffffffffffff82169050919050565b61207881612058565b82525050565b5f67ffffffffffffffff82169050919050565b61209a8161207e565b82525050565b7f4e487b71000000000000000000000000000000000000000000000000000000005f52602160045260245ffd5b600581106120de576120dd6120a0565b5b50565b5f8190506120ee826120cd565b919050565b5f6120fd826120e1565b9050919050565b61210d816120f3565b82525050565b60e082015f8201516121275f85018261200a565b50602082015161213a6020850182612049565b50604082015161214d6040850182612049565b506060820151612160606085018261206f565b5060808201516121736080850182612091565b5060a082015161218660a0850182612091565b5060c082015161219960c0850182612104565b50505050565b5f60e0820190506121b25f830184612113565b92915050565b5f61ffff82169050919050565b6121ce816121b8565b82525050565b5f6020820190506121e75f8301846121c5565b92915050565b5f819050919050565b5f61221061220b61220684612019565b6121ed565b612019565b9050919050565b5f612221826121f6565b9050919050565b5f61223282612217565b9050919050565b61224281612228565b82525050565b5f60208201905061225b5f830184612239565b92915050565b61226a81612038565b82525050565b5f6020820190506122835f830184612261565b92915050565b5f8115159050919050565b61229d81612289565b82525050565b5f6020820190506122b65f830184612294565b92915050565b5f60ff82169050919050565b6122d1816122bc565b82525050565b5f6020820190506122ea5f8301846122c8565b92915050565b6122f981612038565b8114612303575f5ffd5b50565b5f81359050612314816122f0565b92915050565b6123238161207e565b811461232d575f5ffd5b50565b5f8135905061233e8161231a565b92915050565b5f819050919050565b61235681612344565b8114612360575f5ffd5b50565b5f813590506123718161234d565b92915050565b5f5f5f5f5f60a086880312156123905761238f611fa8565b5b5f61239d88828901612306565b95505060206123ae88828901611fcb565b94505060406123bf88828901612330565b93505060606123d088828901612330565b92505060806123e188828901612363565b9150509295509295909350565b6123f781611fac565b82525050565b5f6020820190506124105f8301846123ee565b92915050565b5f5f5f6060848603121561242d5761242c611fa8565b5b5f61243a86828701612306565b935050602061244b86828701611fcb565b925050604061245c86828701612330565b9150509250925092565b5f5f6040838503121561247c5761247b611fa8565b5b5f61248985828601611fcb565b925050602061249a85828601612306565b9150509250929050565b6124ad816121b8565b81146124b7575f5ffd5b50565b5f813590506124c8816124a4565b92915050565b5f5f604083850312156124e4576124e3611fa8565b5b5f6124f1858286016124ba565b925050602061250285828601612306565b9150509250929050565b5f5f6040838503121561252257612521611fa8565b5b5f61252f85828601611fcb565b925050602061254085828601612363565b9150509250929050565b5f6020828403121561255f5761255e611fa8565b5b5f61256c84828501612306565b91505092915050565b61257e8161207e565b82525050565b61258d81612344565b82525050565b5f6080820190506125a65f830187612575565b6125b36020830186612575565b6125c06040830185612261565b6125cd6060830184612584565b95945050505050565b5f6020820190506125e95f830184612584565b92915050565b5f8160601b9050919050565b5f612605826125ef565b9050919050565b5f612616826125fb565b9050919050565b61262e61262982612038565b61260c565b82525050565b5f819050919050565b61264e61264982611fac565b612634565b82525050565b5f8160c01b9050919050565b5f61266a82612654565b9050919050565b61268261267d8261207e565b612660565b82525050565b5f612693828661261d565b6014820191506126a3828561263d565b6020820191506126b38284612671565b600882019150819050949350505050565b7f4e487b71000000000000000000000000000000000000000000000000000000005f52601160045260245ffd5b5f6126fb82612344565b915061270683612344565b925082820390508181111561271e5761271d6126c4565b5b92915050565b5f6040820190506127375f830185612584565b6127446020830184612584565b9392505050565b5f60408201905061275e5f8301856121c5565b61276b6020830184612261565b9392505050565b5f61277c82612344565b915061278783612344565b925082820190508082111561279f5761279e6126c4565b5b92915050565b5f819050919050565b5f6127c86127c36127be846127a5565b6121ed565b6122bc565b9050919050565b6127d8816127ae565b82525050565b5f6040820190506127f15f8301856127cf565b6127fe6020830184612584565b9392505050565b5f6060820190506128185f830186612261565b6128256020830185612261565b6128326040830184612584565b949350505050565b5f60408201905061284d5f830185612261565b61285a6020830184612584565b9392505050565b7f4e487b71000000000000000000000000000000000000000000000000000000005f52601260045260245ffd5b61289781612289565b81146128a1575f5ffd5b50565b5f815190506128b28161288e565b92915050565b5f602082840312156128cd576128cc611fa8565b5b5f6128da848285016128a4565b91505092915050565b5f81519050919050565b5f81905092915050565b8281835e5f83830152505050565b5f61290f826128e3565b61291981856128ed565b93506129298185602086016128f7565b80840191505092915050565b5f6129408284612905565b91508190509291505056fea2646970667358221220fa2c85e239d774b1506cae5c4c4677b92d45b9017bc2f801c3633f437f28254b64736f6c634300081e0033",
			"opcodes": "PUSH1 0xC0 PUSH1 0x40 MSTORE CALLVALUE DUP1 ISZERO PUSH2 0xF JUMPI PUSH0 PUSH0 REVERT JUMPDEST POP PUSH1 0x40 MLOAD PUSH2 0x2F1C CODESIZE SUB DUP1 PUSH2 0x2F1C DUP4 CODECOPY DUP2 DUP2 ADD PUSH1 0x40 MSTORE DUP2 ADD SWAP1 PUSH2 0x31 SWAP2 SWAP1 PUSH2 0x463 JUMP JUMPDEST DUP1 PUSH1 0x1 PUSH0 DUP2 SWAP1 SSTORE POP PUSH0 PUSH1 0x1 PUSH0 PUSH2 0x100 EXP DUP2 SLOAD DUP2 PUSH1 0xFF MUL NOT AND SWAP1 DUP4 ISZERO ISZERO MUL OR SWAP1 SSTORE POP PUSH0 PUSH20 0xFFFFFFFFFFFFFFFFFFFFFFFFFFFFFFFFFFFFFFFF AND DUP2 PUSH20 0xFFFFFFFFFFFFFFFFFFFFFFFFFFFFFFFFFFFFFFFF AND SUB PUSH2 0xC2 JUMPI PUSH0 PUSH1 0x40 MLOAD PUSH32 0x1E4FBDF700000000000000000000000000000000000000000000000000000000 DUP2 MSTORE PUSH1 0x4 ADD PUSH2 0xB9 SWAP2 SWAP1 PUSH2 0x4D6 JUMP JUMPDEST PUSH1 0x40 MLOAD DUP1 SWAP2 SUB SWAP1 REVERT JUMPDEST PUSH2 0xD1 DUP2 PUSH2 0x30C PUSH1 0x20 SHL PUSH1 0x20 SHR JUMP JUMPDEST POP PUSH0 PUSH20 0xFFFFFFFFFFFFFFFFFFFFFFFFFFFFFFFFFFFFFFFF AND DUP5 PUSH20 0xFFFFFFFFFFFFFFFFFFFFFFFFFFFFFFFFFFFFFFFF AND EQ DUP1 PUSH2 0x137 JUMPI POP PUSH0 PUSH20 0xFFFFFFFFFFFFFFFFFFFFFFFFFFFFFFFFFFFFFFFF AND DUP3 PUSH20 0xFFFFFFFFFFFFFFFFFFFFFFFFFFFFFFFFFFFFFFFF AND EQ JUMPDEST DUP1 PUSH2 0x16D JUMPI POP PUSH0 PUSH20 0xFFFFFFFFFFFFFFFFFFFFFFFFFFFFFFFFFFFFFFFF AND DUP2 PUSH20 0xFFFFFFFFFFFFFFFFFFFFFFFFFFFFFFFFFFFFFFFF AND EQ JUMPDEST ISZERO PUSH2 0x1A4 JUMPI PUSH1 0x40 MLOAD PUSH32 0xD92E233D00000000000000000000000000000000000000000000000000000000 DUP2 MSTORE PUSH1 0x4 ADD PUSH1 0x40 MLOAD DUP1 SWAP2 SUB SWAP1 REVERT JUMPDEST PUSH2 0x3E8 PUSH2 0xFFFF AND DUP4 PUSH2 0xFFFF AND GT ISZERO PUSH2 0x1E8 JUMPI PUSH1 0x40 MLOAD PUSH32 0xA86B651200000000000000000000000000000000000000000000000000000000 DUP2 MSTORE PUSH1 0x4 ADD PUSH1 0x40 MLOAD DUP1 SWAP2 SUB SWAP1 REVERT JUMPDEST DUP4 PUSH20 0xFFFFFFFFFFFFFFFFFFFFFFFFFFFFFFFFFFFFFFFF AND PUSH1 0x80 DUP2 PUSH20 0xFFFFFFFFFFFFFFFFFFFFFFFFFFFFFFFFFFFFFFFF AND DUP2 MSTORE POP POP PUSH0 DUP5 PUSH20 0xFFFFFFFFFFFFFFFFFFFFFFFFFFFFFFFFFFFFFFFF AND PUSH4 0x313CE567 PUSH1 0x40 MLOAD DUP2 PUSH4 0xFFFFFFFF AND PUSH1 0xE0 SHL DUP2 MSTORE PUSH1 0x4 ADD PUSH1 0x20 PUSH1 0x40 MLOAD DUP1 DUP4 SUB DUP2 DUP7 GAS STATICCALL SWAP3 POP POP POP DUP1 ISZERO PUSH2 0x285 JUMPI POP PUSH1 0x40 MLOAD RETURNDATASIZE PUSH1 0x1F NOT PUSH1 0x1F DUP3 ADD AND DUP3 ADD DUP1 PUSH1 0x40 MSTORE POP DUP2 ADD SWAP1 PUSH2 0x282 SWAP2 SWAP1 PUSH2 0x525 JUMP JUMPDEST PUSH1 0x1 JUMPDEST PUSH2 0x292 JUMPI PUSH1 0x6 SWAP1 POP PUSH2 0x297 JUMP JUMPDEST DUP1 SWAP2 POP POP JUMPDEST DUP1 PUSH1 0xFF AND PUSH1 0xA0 DUP2 PUSH1 0xFF AND DUP2 MSTORE POP POP DUP4 PUSH1 0x3 PUSH0 PUSH2 0x100 EXP DUP2 SLOAD DUP2 PUSH2 0xFFFF MUL NOT AND SWAP1 DUP4 PUSH2 0xFFFF AND MUL OR SWAP1 SSTORE POP DUP3 PUSH1 0x3 PUSH1 0x2 PUSH2 0x100 EXP DUP2 SLOAD DUP2 PUSH20 0xFFFFFFFFFFFFFFFFFFFFFFFFFFFFFFFFFFFFFFFF MUL NOT AND SWAP1 DUP4 PUSH20 0xFFFFFFFFFFFFFFFFFFFFFFFFFFFFFFFFFFFFFFFF AND MUL OR SWAP1 SSTORE POP POP POP POP POP POP PUSH2 0x550 JUMP JUMPDEST PUSH0 PUSH1 0x1 DUP1 SLOAD SWAP1 PUSH2 0x100 EXP SWAP1 DIV PUSH20 0xFFFFFFFFFFFFFFFFFFFFFFFFFFFFFFFFFFFFFFFF AND SWAP1 POP DUP2 PUSH1 0x1 DUP1 PUSH2 0x100 EXP DUP2 SLOAD DUP2 PUSH20 0xFFFFFFFFFFFFFFFFFFFFFFFFFFFFFFFFFFFFFFFF MUL NOT AND SWAP1 DUP4 PUSH20 0xFFFFFFFFFFFFFFFFFFFFFFFFFFFFFFFFFFFFFFFF AND MUL OR SWAP1 SSTORE POP DUP2 PUSH20 0xFFFFFFFFFFFFFFFFFFFFFFFFFFFFFFFFFFFFFFFF AND DUP2 PUSH20 0xFFFFFFFFFFFFFFFFFFFFFFFFFFFFFFFFFFFFFFFF AND PUSH32 0x8BE0079C531659141344CD1FD0A4F28419497F9722A3DAAFE3B4186F6B6457E0 PUSH1 0x40 MLOAD PUSH1 0x40 MLOAD DUP1 SWAP2 SUB SWAP1 LOG3 POP POP JUMP JUMPDEST PUSH0 PUSH0 REVERT JUMPDEST PUSH0 PUSH20 0xFFFFFFFFFFFFFFFFFFFFFFFFFFFFFFFFFFFFFFFF DUP3 AND SWAP1 POP SWAP2 SWAP1 POP JUMP JUMPDEST PUSH0 PUSH2 0x3FB DUP3 PUSH2 0x3D2 JUMP JUMPDEST SWAP1 POP SWAP2 SWAP1 POP JUMP JUMPDEST PUSH2 0x40B DUP2 PUSH2 0x3F1 JUMP JUMPDEST DUP2 EQ PUSH2 0x415 JUMPI PUSH0 PUSH0 REVERT JUMPDEST POP JUMP JUMPDEST PUSH0 DUP2 MLOAD SWAP1 POP PUSH2 0x426 DUP2 PUSH2 0x402 JUMP JUMPDEST SWAP3 SWAP2 POP POP JUMP JUMPDEST PUSH0 PUSH2 0xFFFF DUP3 AND SWAP1 POP SWAP2 SWAP1 POP JUMP JUMPDEST PUSH2 0x442 DUP2 PUSH2 0x42C JUMP JUMPDEST DUP2 EQ PUSH2 0x44C JUMPI PUSH0 PUSH0 REVERT JUMPDEST POP JUMP JUMPDEST PUSH0 DUP2 MLOAD SWAP1 POP PUSH2 0x45D DUP2 PUSH2 0x439 JUMP JUMPDEST SWAP3 SWAP2 POP POP JUMP JUMPDEST PUSH0 PUSH0 PUSH0 PUSH0 PUSH1 0x80 DUP6 DUP8 SUB SLT ISZERO PUSH2 0x47B JUMPI PUSH2 0x47A PUSH2 0x3CE JUMP JUMPDEST JUMPDEST PUSH0 PUSH2 0x488 DUP8 DUP3 DUP9 ADD PUSH2 0x418 JUMP JUMPDEST SWAP5 POP POP PUSH1 0x20 PUSH2 0x499 DUP8 DUP3 DUP9 ADD PUSH2 0x44F JUMP JUMPDEST SWAP4 POP POP PUSH1 0x40 PUSH2 0x4AA DUP8 DUP3 DUP9 ADD PUSH2 0x418 JUMP JUMPDEST SWAP3 POP POP PUSH1 0x60 PUSH2 0x4BB DUP8 DUP3 DUP9 ADD PUSH2 0x418 JUMP JUMPDEST SWAP2 POP POP SWAP3 SWAP6 SWAP2 SWAP5 POP SWAP3 POP JUMP JUMPDEST PUSH2 0x4D0 DUP2 PUSH2 0x3F1 JUMP JUMPDEST DUP3 MSTORE POP POP JUMP JUMPDEST PUSH0 PUSH1 0x20 DUP3 ADD SWAP1 POP PUSH2 0x4E9 PUSH0 DUP4 ADD DUP5 PUSH2 0x4C7 JUMP JUMPDEST SWAP3 SWAP2 POP POP JUMP JUMPDEST PUSH0 PUSH1 0xFF DUP3 AND SWAP1 POP SWAP2 SWAP1 POP JUMP JUMPDEST PUSH2 0x504 DUP2 PUSH2 0x4EF JUMP JUMPDEST DUP2 EQ PUSH2 0x50E JUMPI PUSH0 PUSH0 REVERT JUMPDEST POP JUMP JUMPDEST PUSH0 DUP2 MLOAD SWAP1 POP PUSH2 0x51F DUP2 PUSH2 0x4FB JUMP JUMPDEST SWAP3 SWAP2 POP POP JUMP JUMPDEST PUSH0 PUSH1 0x20 DUP3 DUP5 SUB SLT ISZERO PUSH2 0x53A JUMPI PUSH2 0x539 PUSH2 0x3CE JUMP JUMPDEST JUMPDEST PUSH0 PUSH2 0x547 DUP5 DUP3 DUP6 ADD PUSH2 0x511 JUMP JUMPDEST SWAP2 POP POP SWAP3 SWAP2 POP POP JUMP JUMPDEST PUSH1 0x80 MLOAD PUSH1 0xA0 MLOAD PUSH2 0x2981 PUSH2 0x59B PUSH0 CODECOPY PUSH0 PUSH2 0x5A2 ADD MSTORE PUSH0 DUP2 DUP2 PUSH2 0x51B ADD MSTORE DUP2 DUP2 PUSH2 0x931 ADD MSTORE DUP2 DUP2 PUSH2 0xBB9 ADD MSTORE DUP2 DUP2 PUSH2 0xEB3 ADD MSTORE DUP2 DUP2 PUSH2 0x11FB ADD MSTORE DUP2 DUP2 PUSH2 0x1271 ADD MSTORE PUSH2 0x1680 ADD MSTORE PUSH2 0x2981 PUSH0 RETURN INVALID PUSH1 0x80 PUSH1 0x40 MSTORE CALLVALUE DUP1 ISZERO PUSH2 0xF JUMPI PUSH0 PUSH0 REVERT JUMPDEST POP PUSH1 0x4 CALLDATASIZE LT PUSH2 0x11F JUMPI PUSH0 CALLDATALOAD PUSH1 0xE0 SHR DUP1 PUSH4 0x8DA5CB5B GT PUSH2 0xAB JUMPI DUP1 PUSH4 0xD1686604 GT PUSH2 0x6F JUMPI DUP1 PUSH4 0xD1686604 EQ PUSH2 0x2BD JUMPI DUP1 PUSH4 0xD55BE8C6 EQ PUSH2 0x2D9 JUMPI DUP1 PUSH4 0xE0120CF8 EQ PUSH2 0x2F7 JUMPI DUP1 PUSH4 0xE46BBC9E EQ PUSH2 0x313 JUMPI DUP1 PUSH4 0xF2FDE38B EQ PUSH2 0x32F JUMPI PUSH2 0x11F JUMP JUMPDEST DUP1 PUSH4 0x8DA5CB5B EQ PUSH2 0x207 JUMPI DUP1 PUSH4 0xC23945AC EQ PUSH2 0x225 JUMPI DUP1 PUSH4 0xC4D252F5 EQ PUSH2 0x255 JUMPI DUP1 PUSH4 0xCC3E049B EQ PUSH2 0x271 JUMPI DUP1 PUSH4 0xCD2025C3 EQ PUSH2 0x28D JUMPI PUSH2 0x11F JUMP JUMPDEST DUP1 PUSH4 0x478222C2 GT PUSH2 0xF2 JUMPI DUP1 PUSH4 0x478222C2 EQ PUSH2 0x199 JUMPI DUP1 PUSH4 0x5C975ABB EQ PUSH2 0x1B7 JUMPI DUP1 PUSH4 0x715018A6 EQ PUSH2 0x1D5 JUMPI DUP1 PUSH4 0x7BF42165 EQ PUSH2 0x1DF JUMPI DUP1 PUSH4 0x8456CB59 EQ PUSH2 0x1FD JUMPI PUSH2 0x11F JUMP JUMPDEST DUP1 PUSH4 0x2417395C EQ PUSH2 0x123 JUMPI DUP1 PUSH4 0x24A9D853 EQ PUSH2 0x153 JUMPI DUP1 PUSH4 0x3E413BEE EQ PUSH2 0x171 JUMPI DUP1 PUSH4 0x3F4BA83A EQ PUSH2 0x18F JUMPI JUMPDEST PUSH0 PUSH0 REVERT JUMPDEST PUSH2 0x13D PUSH1 0x4 DUP1 CALLDATASIZE SUB DUP2 ADD SWAP1 PUSH2 0x138 SWAP2 SWAP1 PUSH2 0x1FDF JUMP JUMPDEST PUSH2 0x34B JUMP JUMPDEST PUSH1 0x40 MLOAD PUSH2 0x14A SWAP2 SWAP1 PUSH2 0x219F JUMP JUMPDEST PUSH1 0x40 MLOAD DUP1 SWAP2 SUB SWAP1 RETURN JUMPDEST PUSH2 0x15B PUSH2 0x505 JUMP JUMPDEST PUSH1 0x40 MLOAD PUSH2 0x168 SWAP2 SWAP1 PUSH2 0x21D4 JUMP JUMPDEST PUSH1 0x40 MLOAD DUP1 SWAP2 SUB SWAP1 RETURN JUMPDEST PUSH2 0x179 PUSH2 0x518 JUMP JUMPDEST PUSH1 0x40 MLOAD PUSH2 0x186 SWAP2 SWAP1 PUSH2 0x2248 JUMP JUMPDEST PUSH1 0x40 MLOAD DUP1 SWAP2 SUB SWAP1 RETURN JUMPDEST PUSH2 0x197 PUSH2 0x53F JUMP JUMPDEST STOP JUMPDEST PUSH2 0x1A1 PUSH2 0x551 JUMP JUMPDEST PUSH1 0x40 MLOAD PUSH2 0x1AE SWAP2 SWAP1 PUSH2 0x2270 JUMP JUMPDEST PUSH1 0x40 MLOAD DUP1 SWAP2 SUB SWAP1 RETURN JUMPDEST PUSH2 0x1BF PUSH2 0x577 JUMP JUMPDEST PUSH1 0x40 MLOAD PUSH2 0x1CC SWAP2 SWAP1 PUSH2 0x22A3 JUMP JUMPDEST PUSH1 0x40 MLOAD DUP1 SWAP2 SUB SWAP1 RETURN JUMPDEST PUSH2 0x1DD PUSH2 0x58C JUMP JUMPDEST STOP JUMPDEST PUSH2 0x1E7 PUSH2 0x59F JUMP JUMPDEST PUSH1 0x40 MLOAD PUSH2 0x1F4 SWAP2 SWAP1 PUSH2 0x22D7 JUMP JUMPDEST PUSH1 0x40 MLOAD DUP1 SWAP2 SUB SWAP1 RETURN JUMPDEST PUSH2 0x205 PUSH2 0x5C6 JUMP JUMPDEST STOP JUMPDEST PUSH2 0x20F PUSH2 0x5D8 JUMP JUMPDEST PUSH1 0x40 MLOAD PUSH2 0x21C SWAP2 SWAP1 PUSH2 0x2270 JUMP JUMPDEST PUSH1 0x40 MLOAD DUP1 SWAP2 SUB SWAP1 RETURN JUMPDEST PUSH2 0x23F PUSH1 0x4 DUP1 CALLDATASIZE SUB DUP2 ADD SWAP1 PUSH2 0x23A SWAP2 SWAP1 PUSH2 0x2377 JUMP JUMPDEST PUSH2 0x5FF JUMP JUMPDEST PUSH1 0x40 MLOAD PUSH2 0x24C SWAP2 SWAP1 PUSH2 0x23FD JUMP JUMPDEST PUSH1 0x40 MLOAD DUP1 SWAP2 SUB SWAP1 RETURN JUMPDEST PUSH2 0x26F PUSH1 0x4 DUP1 CALLDATASIZE SUB DUP2 ADD SWAP1 PUSH2 0x26A SWAP2 SWAP1 PUSH2 0x1FDF JUMP JUMPDEST PUSH2 0x9DE JUMP JUMPDEST STOP JUMPDEST PUSH2 0x28B PUSH1 0x4 DUP1 CALLDATASIZE SUB DUP2 ADD SWAP1 PUSH2 0x286 SWAP2 SWAP1 PUSH2 0x1FDF JUMP JUMPDEST PUSH2 0xC7D JUMP JUMPDEST STOP JUMPDEST PUSH2 0x2A7 PUSH1 0x4 DUP1 CALLDATASIZE SUB DUP2 ADD SWAP1 PUSH2 0x2A2 SWAP2 SWAP1 PUSH2 0x2416 JUMP JUMPDEST PUSH2 0xF77 JUMP JUMPDEST PUSH1 0x40 MLOAD PUSH2 0x2B4 SWAP2 SWAP1 PUSH2 0x23FD JUMP JUMPDEST PUSH1 0x40 MLOAD DUP1 SWAP2 SUB SWAP1 RETURN JUMPDEST PUSH2 0x2D7 PUSH1 0x4 DUP1 CALLDATASIZE SUB DUP2 ADD SWAP1 PUSH2 0x2D2 SWAP2 SWAP1 PUSH2 0x2466 JUMP JUMPDEST PUSH2 0xFAC JUMP JUMPDEST STOP JUMPDEST PUSH2 0x2E1 PUSH2 0x1317 JUMP JUMPDEST PUSH1 0x40 MLOAD PUSH2 0x2EE SWAP2 SWAP1 PUSH2 0x21D4 JUMP JUMPDEST PUSH1 0x40 MLOAD DUP1 SWAP2 SUB SWAP1 RETURN JUMPDEST PUSH2 0x311 PUSH1 0x4 DUP1 CALLDATASIZE SUB DUP2 ADD SWAP1 PUSH2 0x30C SWAP2 SWAP1 PUSH2 0x24CE JUMP JUMPDEST PUSH2 0x131D JUMP JUMPDEST STOP JUMPDEST PUSH2 0x32D PUSH1 0x4 DUP1 CALLDATASIZE SUB DUP2 ADD SWAP1 PUSH2 0x328 SWAP2 SWAP1 PUSH2 0x250C JUMP JUMPDEST PUSH2 0x1468 JUMP JUMPDEST STOP JUMPDEST PUSH2 0x349 PUSH1 0x4 DUP1 CALLDATASIZE SUB DUP2 ADD SWAP1 PUSH2 0x344 SWAP2 SWAP1 PUSH2 0x254A JUMP JUMPDEST PUSH2 0x170B JUMP JUMPDEST STOP JUMPDEST PUSH2 0x353 PUSH2 0x1F12 JUMP JUMPDEST PUSH1 0x2 PUSH0 DUP4 DUP2 MSTORE PUSH1 0x20 ADD SWAP1 DUP2 MSTORE PUSH1 0x20 ADD PUSH0 KECCAK256 PUSH1 0x40 MLOAD DUP1 PUSH1 0xE0 ADD PUSH1 0x40 MSTORE SWAP1 DUP2 PUSH0 DUP3 ADD SLOAD DUP2 MSTORE PUSH1 0x20 ADD PUSH1 0x1 DUP3 ADD PUSH0 SWAP1 SLOAD SWAP1 PUSH2 0x100 EXP SWAP1 DIV PUSH20 0xFFFFFFFFFFFFFFFFFFFFFFFFFFFFFFFFFFFFFFFF AND PUSH20 0xFFFFFFFFFFFFFFFFFFFFFFFFFFFFFFFFFFFFFFFF AND PUSH20 0xFFFFFFFFFFFFFFFFFFFFFFFFFFFFFFFFFFFFFFFF AND DUP2 MSTORE PUSH1 0x20 ADD PUSH1 0x2 DUP3 ADD PUSH0 SWAP1 SLOAD SWAP1 PUSH2 0x100 EXP SWAP1 DIV PUSH20 0xFFFFFFFFFFFFFFFFFFFFFFFFFFFFFFFFFFFFFFFF AND PUSH20 0xFFFFFFFFFFFFFFFFFFFFFFFFFFFFFFFFFFFFFFFF AND PUSH20 0xFFFFFFFFFFFFFFFFFFFFFFFFFFFFFFFFFFFFFFFF AND DUP2 MSTORE PUSH1 0x20 ADD PUSH1 0x2 DUP3 ADD PUSH1 0x14 SWAP1 SLOAD SWAP1 PUSH2 0x100 EXP SWAP1 DIV PUSH12 0xFFFFFFFFFFFFFFFFFFFFFFFF AND PUSH12 0xFFFFFFFFFFFFFFFFFFFFFFFF AND PUSH12 0xFFFFFFFFFFFFFFFFFFFFFFFF AND DUP2 MSTORE PUSH1 0x20 ADD PUSH1 0x3 DUP3 ADD PUSH0 SWAP1 SLOAD SWAP1 PUSH2 0x100 EXP SWAP1 DIV PUSH8 0xFFFFFFFFFFFFFFFF AND PUSH8 0xFFFFFFFFFFFFFFFF AND PUSH8 0xFFFFFFFFFFFFFFFF AND DUP2 MSTORE PUSH1 0x20 ADD PUSH1 0x3 DUP3 ADD PUSH1 0x8 SWAP1 SLOAD SWAP1 PUSH2 0x100 EXP SWAP1 DIV PUSH8 0xFFFFFFFFFFFFFFFF AND PUSH8 0xFFFFFFFFFFFFFFFF AND PUSH8 0xFFFFFFFFFFFFFFFF AND DUP2 MSTORE PUSH1 0x20 ADD PUSH1 0x3 DUP3 ADD PUSH1 0x10 SWAP1 SLOAD SWAP1 PUSH2 0x100 EXP SWAP1 DIV PUSH1 0xFF AND PUSH1 0x4 DUP2 GT ISZERO PUSH2 0x4E8 JUMPI PUSH2 0x4E7 PUSH2 0x20A0 JUMP JUMPDEST JUMPDEST PUSH1 0x4 DUP2 GT ISZERO PUSH2 0x4FA JUMPI PUSH2 0x4F9 PUSH2 0x20A0 JUMP JUMPDEST JUMPDEST DUP2 MSTORE POP POP SWAP1 POP SWAP2 SWAP1 POP JUMP JUMPDEST PUSH1 0x3 PUSH0 SWAP1 SLOAD SWAP1 PUSH2 0x100 EXP SWAP1 DIV PUSH2 0xFFFF AND DUP2 JUMP JUMPDEST PUSH0 PUSH32 0x0 SWAP1 POP SWAP1 JUMP JUMPDEST PUSH2 0x547 PUSH2 0x178F JUMP JUMPDEST PUSH2 0x54F PUSH2 0x1816 JUMP JUMPDEST JUMP JUMPDEST PUSH1 0x3 PUSH1 0x2 SWAP1 SLOAD SWAP1 PUSH2 0x100 EXP SWAP1 DIV PUSH20 0xFFFFFFFFFFFFFFFFFFFFFFFFFFFFFFFFFFFFFFFF AND DUP2 JUMP JUMPDEST PUSH0 PUSH1 0x1 PUSH0 SWAP1 SLOAD SWAP1 PUSH2 0x100 EXP SWAP1 DIV PUSH1 0xFF AND SWAP1 POP SWAP1 JUMP JUMPDEST PUSH2 0x594 PUSH2 0x178F JUMP JUMPDEST PUSH2 0x59D PUSH0 PUSH2 0x1877 JUMP JUMPDEST JUMP JUMPDEST PUSH0 PUSH32 0x0 SWAP1 POP SWAP1 JUMP JUMPDEST PUSH2 0x5CE PUSH2 0x178F JUMP JUMPDEST PUSH2 0x5D6 PUSH2 0x1939 JUMP JUMPDEST JUMP JUMPDEST PUSH0 PUSH1 0x1 DUP1 SLOAD SWAP1 PUSH2 0x100 EXP SWAP1 DIV PUSH20 0xFFFFFFFFFFFFFFFFFFFFFFFFFFFFFFFFFFFFFFFF AND SWAP1 POP SWAP1 JUMP JUMPDEST PUSH0 PUSH2 0x608 PUSH2 0x199A JUMP JUMPDEST PUSH2 0x610 PUSH2 0x19DE JUMP JUMPDEST PUSH0 PUSH20 0xFFFFFFFFFFFFFFFFFFFFFFFFFFFFFFFFFFFFFFFF AND DUP7 PUSH20 0xFFFFFFFFFFFFFFFFFFFFFFFFFFFFFFFFFFFFFFFF AND SUB PUSH2 0x675 JUMPI PUSH1 0x40 MLOAD PUSH32 0xD92E233D00000000000000000000000000000000000000000000000000000000 DUP2 MSTORE PUSH1 0x4 ADD PUSH1 0x40 MLOAD DUP1 SWAP2 SUB SWAP1 REVERT JUMPDEST PUSH0 PUSH0 SHL DUP6 EQ DUP1 PUSH2 0x68E JUMPI POP PUSH0 DUP5 PUSH8 0xFFFFFFFFFFFFFFFF AND EQ JUMPDEST ISZERO PUSH2 0x6C5 JUMPI PUSH1 0x40 MLOAD PUSH32 0xA86B651200000000000000000000000000000000000000000000000000000000 DUP2 MSTORE PUSH1 0x4 ADD PUSH1 0x40 MLOAD DUP1 SWAP2 SUB SWAP1 REVERT JUMPDEST TIMESTAMP DUP4 PUSH8 0xFFFFFFFFFFFFFFFF AND GT PUSH2 0x708 JUMPI PUSH1 0x40 MLOAD PUSH32 0xA86B651200000000000000000000000000000000000000000000000000000000 DUP2 MSTORE PUSH1 0x4 ADD PUSH1 0x40 MLOAD DUP1 SWAP2 SUB SWAP1 REVERT JUMPDEST PUSH0 DUP3 SUB PUSH2 0x741 JUMPI PUSH1 0x40 MLOAD PUSH32 0x1F2A200500000000000000000000000000000000000000000000000000000000 DUP2 MSTORE PUSH1 0x4 ADD PUSH1 0x40 MLOAD DUP1 SWAP2 SUB SWAP1 REVERT JUMPDEST PUSH2 0x74C CALLER DUP7 DUP7 PUSH2 0xF77 JUMP JUMPDEST SWAP1 POP PUSH0 PUSH1 0x4 DUP2 GT ISZERO PUSH2 0x761 JUMPI PUSH2 0x760 PUSH2 0x20A0 JUMP JUMPDEST JUMPDEST PUSH1 0x2 PUSH0 DUP4 DUP2 MSTORE PUSH1 0x20 ADD SWAP1 DUP2 MSTORE PUSH1 0x20 ADD PUSH0 KECCAK256 PUSH1 0x3 ADD PUSH1 0x10 SWAP1 SLOAD SWAP1 PUSH2 0x100 EXP SWAP1 DIV PUSH1 0xFF AND PUSH1 0x4 DUP2 GT ISZERO PUSH2 0x795 JUMPI PUSH2 0x794 PUSH2 0x20A0 JUMP JUMPDEST JUMPDEST EQ PUSH2 0x7CC JUMPI PUSH1 0x40 MLOAD PUSH32 0x23369FA600000000000000000000000000000000000000000000000000000000 DUP2 MSTORE PUSH1 0x4 ADD PUSH1 0x40 MLOAD DUP1 SWAP2 SUB SWAP1 REVERT JUMPDEST PUSH0 PUSH1 0x2 PUSH0 DUP4 DUP2 MSTORE PUSH1 0x20 ADD SWAP1 DUP2 MSTORE PUSH1 0x20 ADD PUSH0 KECCAK256 SWAP1 POP DUP6 DUP2 PUSH0 ADD DUP2 SWAP1 SSTORE POP CALLER DUP2 PUSH1 0x1 ADD PUSH0 PUSH2 0x100 EXP DUP2 SLOAD DUP2 PUSH20 0xFFFFFFFFFFFFFFFFFFFFFFFFFFFFFFFFFFFFFFFF MUL NOT AND SWAP1 DUP4 PUSH20 0xFFFFFFFFFFFFFFFFFFFFFFFFFFFFFFFFFFFFFFFF AND MUL OR SWAP1 SSTORE POP DUP7 DUP2 PUSH1 0x2 ADD PUSH0 PUSH2 0x100 EXP DUP2 SLOAD DUP2 PUSH20 0xFFFFFFFFFFFFFFFFFFFFFFFFFFFFFFFFFFFFFFFF MUL NOT AND SWAP1 DUP4 PUSH20 0xFFFFFFFFFFFFFFFFFFFFFFFFFFFFFFFFFFFFFFFF AND MUL OR SWAP1 SSTORE POP PUSH2 0x875 DUP4 PUSH2 0x1A1F JUMP JUMPDEST DUP2 PUSH1 0x2 ADD PUSH1 0x14 PUSH2 0x100 EXP DUP2 SLOAD DUP2 PUSH12 0xFFFFFFFFFFFFFFFFFFFFFFFF MUL NOT AND SWAP1 DUP4 PUSH12 0xFFFFFFFFFFFFFFFFFFFFFFFF AND MUL OR SWAP1 SSTORE POP DUP4 DUP2 PUSH1 0x3 ADD PUSH0 PUSH2 0x100 EXP DUP2 SLOAD DUP2 PUSH8 0xFFFFFFFFFFFFFFFF MUL NOT AND SWAP1 DUP4 PUSH8 0xFFFFFFFFFFFFFFFF AND MUL OR SWAP1 SSTORE POP DUP5 DUP2 PUSH1 0x3 ADD PUSH1 0x8 PUSH2 0x100 EXP DUP2 SLOAD DUP2 PUSH8 0xFFFFFFFFFFFFFFFF MUL NOT AND SWAP1 DUP4 PUSH8 0xFFFFFFFFFFFFFFFF AND MUL OR SWAP1 SSTORE POP PUSH1 0x1 DUP2 PUSH1 0x3 ADD PUSH1 0x10 PUSH2 0x100 EXP DUP2 SLOAD DUP2 PUSH1 0xFF MUL NOT AND SWAP1 DUP4 PUSH1 0x4 DUP2 GT ISZERO PUSH2 0x924 JUMPI PUSH2 0x923 PUSH2 0x20A0 JUMP JUMPDEST JUMPDEST MUL OR SWAP1 SSTORE POP PUSH2 0x976 CALLER ADDRESS DUP6 PUSH32 0x0 PUSH20 0xFFFFFFFFFFFFFFFFFFFFFFFFFFFFFFFFFFFFFFFF AND PUSH2 0x1A7E SWAP1 SWAP4 SWAP3 SWAP2 SWAP1 PUSH4 0xFFFFFFFF AND JUMP JUMPDEST DUP6 CALLER PUSH20 0xFFFFFFFFFFFFFFFFFFFFFFFFFFFFFFFFFFFFFFFF AND DUP4 PUSH32 0xB9F72851BF0C89DB77E8B273BF29AEF517207F92830DF76851A309F1A6C5C80E DUP9 DUP9 DUP13 DUP10 PUSH1 0x40 MLOAD PUSH2 0x9C4 SWAP5 SWAP4 SWAP3 SWAP2 SWAP1 PUSH2 0x2593 JUMP JUMPDEST PUSH1 0x40 MLOAD DUP1 SWAP2 SUB SWAP1 LOG4 POP PUSH2 0x9D5 PUSH2 0x1B00 JUMP JUMPDEST SWAP6 SWAP5 POP POP POP POP POP JUMP JUMPDEST PUSH2 0x9E6 PUSH2 0x199A JUMP JUMPDEST PUSH2 0x9EE PUSH2 0x19DE JUMP JUMPDEST PUSH0 PUSH1 0x2 PUSH0 DUP4 DUP2 MSTORE PUSH1 0x20 ADD SWAP1 DUP2 MSTORE PUSH1 0x20 ADD PUSH0 KECCAK256 SWAP1 POP PUSH1 0x1 PUSH1 0x4 DUP2 GT ISZERO PUSH2 0xA16 JUMPI PUSH2 0xA15 PUSH2 0x20A0 JUMP JUMPDEST JUMPDEST DUP2 PUSH1 0x3 ADD PUSH1 0x10 SWAP1 SLOAD SWAP1 PUSH2 0x100 EXP SWAP1 DIV PUSH1 0xFF AND PUSH1 0x4 DUP2 GT ISZERO PUSH2 0xA3A JUMPI PUSH2 0xA39 PUSH2 0x20A0 JUMP JUMPDEST JUMPDEST EQ PUSH2 0xA71 JUMPI PUSH1 0x40 MLOAD PUSH32 0xDDAFAD9800000000000000000000000000000000000000000000000000000000 DUP2 MSTORE PUSH1 0x4 ADD PUSH1 0x40 MLOAD DUP1 SWAP2 SUB SWAP1 REVERT JUMPDEST DUP1 PUSH1 0x1 ADD PUSH0 SWAP1 SLOAD SWAP1 PUSH2 0x100 EXP SWAP1 DIV PUSH20 0xFFFFFFFFFFFFFFFFFFFFFFFFFFFFFFFFFFFFFFFF AND PUSH20 0xFFFFFFFFFFFFFFFFFFFFFFFFFFFFFFFFFFFFFFFF AND CALLER PUSH20 0xFFFFFFFFFFFFFFFFFFFFFFFFFFFFFFFFFFFFFFFF AND EQ PUSH2 0xAF9 JUMPI PUSH1 0x40 MLOAD PUSH32 0xDF4795C700000000000000000000000000000000000000000000000000000000 DUP2 MSTORE PUSH1 0x4 ADD PUSH1 0x40 MLOAD DUP1 SWAP2 SUB SWAP1 REVERT JUMPDEST PUSH1 0x4 DUP2 PUSH1 0x3 ADD PUSH1 0x10 PUSH2 0x100 EXP DUP2 SLOAD DUP2 PUSH1 0xFF MUL NOT AND SWAP1 DUP4 PUSH1 0x4 DUP2 GT ISZERO PUSH2 0xB21 JUMPI PUSH2 0xB20 PUSH2 0x20A0 JUMP JUMPDEST JUMPDEST MUL OR SWAP1 SSTORE POP PUSH0 DUP2 PUSH1 0x2 ADD PUSH1 0x14 SWAP1 SLOAD SWAP1 PUSH2 0x100 EXP SWAP1 DIV PUSH12 0xFFFFFFFFFFFFFFFFFFFFFFFF AND PUSH12 0xFFFFFFFFFFFFFFFFFFFFFFFF AND SWAP1 POP PUSH0 DUP3 PUSH1 0x2 ADD PUSH1 0x14 PUSH2 0x100 EXP DUP2 SLOAD DUP2 PUSH12 0xFFFFFFFFFFFFFFFFFFFFFFFF MUL NOT AND SWAP1 DUP4 PUSH12 0xFFFFFFFFFFFFFFFFFFFFFFFF AND MUL OR SWAP1 SSTORE POP PUSH0 DUP2 GT ISZERO PUSH2 0xBFE JUMPI PUSH2 0xBFD DUP3 PUSH1 0x1 ADD PUSH0 SWAP1 SLOAD SWAP1 PUSH2 0x100 EXP SWAP1 DIV PUSH20 0xFFFFFFFFFFFFFFFFFFFFFFFFFFFFFFFFFFFFFFFF AND DUP3 PUSH32 0x0 PUSH20 0xFFFFFFFFFFFFFFFFFFFFFFFFFFFFFFFFFFFFFFFF AND PUSH2 0x1B09 SWAP1 SWAP3 SWAP2 SWAP1 PUSH4 0xFFFFFFFF AND JUMP JUMPDEST JUMPDEST DUP2 PUSH1 0x1 ADD PUSH0 SWAP1 SLOAD SWAP1 PUSH2 0x100 EXP SWAP1 DIV PUSH20 0xFFFFFFFFFFFFFFFFFFFFFFFFFFFFFFFFFFFFFFFF AND PUSH20 0xFFFFFFFFFFFFFFFFFFFFFFFFFFFFFFFFFFFFFFFF AND DUP4 PUSH32 0x13CA42B383DDDAC8A499886C122185485535C8144D34355991F87265CFBEE4CC DUP4 PUSH1 0x40 MLOAD PUSH2 0xC68 SWAP2 SWAP1 PUSH2 0x25D6 JUMP JUMPDEST PUSH1 0x40 MLOAD DUP1 SWAP2 SUB SWAP1 LOG3 POP POP PUSH2 0xC7A PUSH2 0x1B00 JUMP JUMPDEST POP JUMP JUMPDEST PUSH2 0xC85 PUSH2 0x199A JUMP JUMPDEST PUSH2 0xC8D PUSH2 0x19DE JUMP JUMPDEST PUSH0 PUSH1 0x2 PUSH0 DUP4 DUP2 MSTORE PUSH1 0x20 ADD SWAP1 DUP2 MSTORE PUSH1 0x20 ADD PUSH0 KECCAK256 SWAP1 POP PUSH1 0x1 PUSH1 0x4 DUP2 GT ISZERO PUSH2 0xCB5 JUMPI PUSH2 0xCB4 PUSH2 0x20A0 JUMP JUMPDEST JUMPDEST DUP2 PUSH1 0x3 ADD PUSH1 0x10 SWAP1 SLOAD SWAP1 PUSH2 0x100 EXP SWAP1 DIV PUSH1 0xFF AND PUSH1 0x4 DUP2 GT ISZERO PUSH2 0xCD9 JUMPI PUSH2 0xCD8 PUSH2 0x20A0 JUMP JUMPDEST JUMPDEST EQ PUSH2 0xD10 JUMPI PUSH1 0x40 MLOAD PUSH32 0xDDAFAD9800000000000000000000000000000000000000000000000000000000 DUP2 MSTORE PUSH1 0x4 ADD PUSH1 0x40 MLOAD DUP1 SWAP2 SUB SWAP1 REVERT JUMPDEST DUP1 PUSH1 0x3 ADD PUSH0 SWAP1 SLOAD SWAP1 PUSH2 0x100 EXP SWAP1 DIV PUSH8 0xFFFFFFFFFFFFFFFF AND PUSH8 0xFFFFFFFFFFFFFFFF AND TIMESTAMP LT ISZERO PUSH2 0xD6B JUMPI PUSH1 0x40 MLOAD PUSH32 0x66EC4EE600000000000000000000000000000000000000000000000000000000 DUP2 MSTORE PUSH1 0x4 ADD PUSH1 0x40 MLOAD DUP1 SWAP2 SUB SWAP1 REVERT JUMPDEST DUP1 PUSH1 0x1 ADD PUSH0 SWAP1 SLOAD SWAP1 PUSH2 0x100 EXP SWAP1 DIV PUSH20 0xFFFFFFFFFFFFFFFFFFFFFFFFFFFFFFFFFFFFFFFF AND PUSH20 0xFFFFFFFFFFFFFFFFFFFFFFFFFFFFFFFFFFFFFFFF AND CALLER PUSH20 0xFFFFFFFFFFFFFFFFFFFFFFFFFFFFFFFFFFFFFFFF AND EQ PUSH2 0xDF3 JUMPI PUSH1 0x40 MLOAD PUSH32 0xDF4795C700000000000000000000000000000000000000000000000000000000 DUP2 MSTORE PUSH1 0x4 ADD PUSH1 0x40 MLOAD DUP1 SWAP2 SUB SWAP1 REVERT JUMPDEST PUSH1 0x3 DUP2 PUSH1 0x3 ADD PUSH1 0x10 PUSH2 0x100 EXP DUP2 SLOAD DUP2 PUSH1 0xFF MUL NOT AND SWAP1 DUP4 PUSH1 0x4 DUP2 GT ISZERO PUSH2 0xE1B JUMPI PUSH2 0xE1A PUSH2 0x20A0 JUMP JUMPDEST JUMPDEST MUL OR SWAP1 SSTORE POP PUSH0 DUP2 PUSH1 0x2 ADD PUSH1 0x14 SWAP1 SLOAD SWAP1 PUSH2 0x100 EXP SWAP1 DIV PUSH12 0xFFFFFFFFFFFFFFFFFFFFFFFF AND PUSH12 0xFFFFFFFFFFFFFFFFFFFFFFFF AND SWAP1 POP PUSH0 DUP3 PUSH1 0x2 ADD PUSH1 0x14 PUSH2 0x100 EXP DUP2 SLOAD DUP2 PUSH12 0xFFFFFFFFFFFFFFFFFFFFFFFF MUL NOT AND SWAP1 DUP4 PUSH12 0xFFFFFFFFFFFFFFFFFFFFFFFF AND MUL OR SWAP1 SSTORE POP PUSH0 DUP2 GT ISZERO PUSH2 0xEF8 JUMPI PUSH2 0xEF7 DUP3 PUSH1 0x1 ADD PUSH0 SWAP1 SLOAD SWAP1 PUSH2 0x100 EXP SWAP1 DIV PUSH20 0xFFFFFFFFFFFFFFFFFFFFFFFFFFFFFFFFFFFFFFFF AND DUP3 PUSH32 0x0 PUSH20 0xFFFFFFFFFFFFFFFFFFFFFFFFFFFFFFFFFFFFFFFF AND PUSH2 0x1B09 SWAP1 SWAP3 SWAP2 SWAP1 PUSH4 0xFFFFFFFF AND JUMP JUMPDEST JUMPDEST DUP2 PUSH1 0x1 ADD PUSH0 SWAP1 SLOAD SWAP1 PUSH2 0x100 EXP SWAP1 DIV PUSH20 0xFFFFFFFFFFFFFFFFFFFFFFFFFFFFFFFFFFFFFFFF AND PUSH20 0xFFFFFFFFFFFFFFFFFFFFFFFFFFFFFFFFFFFFFFFF AND DUP4 PUSH32 0xF552CA82E113AC3C539C3D617F29FCD19C172A0C75DAD017555C9E109F7FE183 DUP4 PUSH1 0x40 MLOAD PUSH2 0xF62 SWAP2 SWAP1 PUSH2 0x25D6 JUMP JUMPDEST PUSH1 0x40 MLOAD DUP1 SWAP2 SUB SWAP1 LOG3 POP POP PUSH2 0xF74 PUSH2 0x1B00 JUMP JUMPDEST POP JUMP JUMPDEST PUSH0 DUP4 DUP4 DUP4 PUSH1 0x40 MLOAD PUSH1 0x20 ADD PUSH2 0xF8D SWAP4 SWAP3 SWAP2 SWAP1 PUSH2 0x2688 JUMP JUMPDEST PUSH1 0x40 MLOAD PUSH1 0x20 DUP2 DUP4 SUB SUB DUP2 MSTORE SWAP1 PUSH1 0x40 MSTORE DUP1 MLOAD SWAP1 PUSH1 0x20 ADD KECCAK256 SWAP1 POP SWAP4 SWAP3 POP POP POP JUMP JUMPDEST PUSH2 0xFB4 PUSH2 0x199A JUMP JUMPDEST PUSH2 0xFBC PUSH2 0x19DE JUMP JUMPDEST PUSH0 PUSH20 0xFFFFFFFFFFFFFFFFFFFFFFFFFFFFFFFFFFFFFFFF AND DUP2 PUSH20 0xFFFFFFFFFFFFFFFFFFFFFFFFFFFFFFFFFFFFFFFF AND SUB PUSH2 0x1021 JUMPI PUSH1 0x40 MLOAD PUSH32 0xD92E233D00000000000000000000000000000000000000000000000000000000 DUP2 MSTORE PUSH1 0x4 ADD PUSH1 0x40 MLOAD DUP1 SWAP2 SUB SWAP1 REVERT JUMPDEST PUSH0 PUSH1 0x2 PUSH0 DUP5 DUP2 MSTORE PUSH1 0x20 ADD SWAP1 DUP2 MSTORE PUSH1 0x20 ADD PUSH0 KECCAK256 SWAP1 POP PUSH1 0x1 PUSH1 0x4 DUP2 GT ISZERO PUSH2 0x1049 JUMPI PUSH2 0x1048 PUSH2 0x20A0 JUMP JUMPDEST JUMPDEST DUP2 PUSH1 0x3 ADD PUSH1 0x10 SWAP1 SLOAD SWAP1 PUSH2 0x100 EXP SWAP1 DIV PUSH1 0xFF AND PUSH1 0x4 DUP2 GT ISZERO PUSH2 0x106D JUMPI PUSH2 0x106C PUSH2 0x20A0 JUMP JUMPDEST JUMPDEST EQ PUSH2 0x10A4 JUMPI PUSH1 0x40 MLOAD PUSH32 0xDDAFAD9800000000000000000000000000000000000000000000000000000000 DUP2 MSTORE PUSH1 0x4 ADD PUSH1 0x40 MLOAD DUP1 SWAP2 SUB SWAP1 REVERT JUMPDEST DUP1 PUSH1 0x2 ADD PUSH0 SWAP1 SLOAD SWAP1 PUSH2 0x100 EXP SWAP1 DIV PUSH20 0xFFFFFFFFFFFFFFFFFFFFFFFFFFFFFFFFFFFFFFFF AND PUSH20 0xFFFFFFFFFFFFFFFFFFFFFFFFFFFFFFFFFFFFFFFF AND CALLER PUSH20 0xFFFFFFFFFFFFFFFFFFFFFFFFFFFFFFFFFFFFFFFF AND EQ PUSH2 0x112C JUMPI PUSH1 0x40 MLOAD PUSH32 0xBA2A9FC200000000000000000000000000000000000000000000000000000000 DUP2 MSTORE PUSH1 0x4 ADD PUSH1 0x40 MLOAD DUP1 SWAP2 SUB SWAP1 REVERT JUMPDEST PUSH1 0x2 DUP2 PUSH1 0x3 ADD PUSH1 0x10 PUSH2 0x100 EXP DUP2 SLOAD DUP2 PUSH1 0xFF MUL NOT AND SWAP1 DUP4 PUSH1 0x4 DUP2 GT ISZERO PUSH2 0x1154 JUMPI PUSH2 0x1153 PUSH2 0x20A0 JUMP JUMPDEST JUMPDEST MUL OR SWAP1 SSTORE POP PUSH0 DUP2 PUSH1 0x2 ADD PUSH1 0x14 SWAP1 SLOAD SWAP1 PUSH2 0x100 EXP SWAP1 DIV PUSH12 0xFFFFFFFFFFFFFFFFFFFFFFFF AND PUSH12 0xFFFFFFFFFFFFFFFFFFFFFFFF AND SWAP1 POP PUSH0 DUP3 PUSH1 0x2 ADD PUSH1 0x14 PUSH2 0x100 EXP DUP2 SLOAD DUP2 PUSH12 0xFFFFFFFFFFFFFFFFFFFFFFFF MUL NOT AND SWAP1 DUP4 PUSH12 0xFFFFFFFFFFFFFFFFFFFFFFFF AND MUL OR SWAP1 SSTORE POP PUSH0 PUSH2 0x11DB DUP3 PUSH1 0x3 PUSH0 SWAP1 SLOAD SWAP1 PUSH2 0x100 EXP SWAP1 DIV PUSH2 0xFFFF AND PUSH2 0xFFFF AND PUSH2 0x2710 PUSH2 0x1B88 JUMP JUMPDEST SWAP1 POP PUSH0 DUP2 DUP4 PUSH2 0x11EA SWAP2 SWAP1 PUSH2 0x26F1 JUMP JUMPDEST SWAP1 POP PUSH0 DUP2 GT ISZERO PUSH2 0x1240 JUMPI PUSH2 0x123F DUP6 DUP3 PUSH32 0x0 PUSH20 0xFFFFFFFFFFFFFFFFFFFFFFFFFFFFFFFFFFFFFFFF AND PUSH2 0x1B09 SWAP1 SWAP3 SWAP2 SWAP1 PUSH4 0xFFFFFFFF AND JUMP JUMPDEST JUMPDEST PUSH0 DUP3 GT ISZERO PUSH2 0x12B6 JUMPI PUSH2 0x12B5 PUSH1 0x3 PUSH1 0x2 SWAP1 SLOAD SWAP1 PUSH2 0x100 EXP SWAP1 DIV PUSH20 0xFFFFFFFFFFFFFFFFFFFFFFFFFFFFFFFFFFFFFFFF AND DUP4 PUSH32 0x0 PUSH20 0xFFFFFFFFFFFFFFFFFFFFFFFFFFFFFFFFFFFFFFFF AND PUSH2 0x1B09 SWAP1 SWAP3 SWAP2 SWAP1 PUSH4 0xFFFFFFFF AND JUMP JUMPDEST JUMPDEST DUP5 PUSH20 0xFFFFFFFFFFFFFFFFFFFFFFFFFFFFFFFFFFFFFFFF AND DUP7 PUSH32 0x461DC02513380B552C1C7E42377606BE7A1C06610E50589FC4664DD29BF47FC0 DUP4 DUP6 PUSH1 0x40 MLOAD PUSH2 0x12FF SWAP3 SWAP2 SWAP1 PUSH2 0x2724 JUMP JUMPDEST PUSH1 0x40 MLOAD DUP1 SWAP2 SUB SWAP1 LOG3 POP POP POP POP PUSH2 0x1313 PUSH2 0x1B00 JUMP JUMPDEST POP POP JUMP JUMPDEST PUSH2 0x3E8 DUP2 JUMP JUMPDEST PUSH2 0x1325 PUSH2 0x178F JUMP JUMPDEST PUSH0 PUSH20 0xFFFFFFFFFFFFFFFFFFFFFFFFFFFFFFFFFFFFFFFF AND DUP2 PUSH20 0xFFFFFFFFFFFFFFFFFFFFFFFFFFFFFFFFFFFFFFFF AND SUB PUSH2 0x138A JUMPI PUSH1 0x40 MLOAD PUSH32 0xD92E233D00000000000000000000000000000000000000000000000000000000 DUP2 MSTORE PUSH1 0x4 ADD PUSH1 0x40 MLOAD DUP1 SWAP2 SUB SWAP1 REVERT JUMPDEST PUSH2 0x3E8 PUSH2 0xFFFF AND DUP3 PUSH2 0xFFFF AND GT ISZERO PUSH2 0x13CE JUMPI PUSH1 0x40 MLOAD PUSH32 0xA86B651200000000000000000000000000000000000000000000000000000000 DUP2 MSTORE PUSH1 0x4 ADD PUSH1 0x40 MLOAD DUP1 SWAP2 SUB SWAP1 REVERT JUMPDEST DUP2 PUSH1 0x3 PUSH0 PUSH2 0x100 EXP DUP2 SLOAD DUP2 PUSH2 0xFFFF MUL NOT AND SWAP1 DUP4 PUSH2 0xFFFF AND MUL OR SWAP1 SSTORE POP DUP1 PUSH1 0x3 PUSH1 0x2 PUSH2 0x100 EXP DUP2 SLOAD DUP2 PUSH20 0xFFFFFFFFFFFFFFFFFFFFFFFFFFFFFFFFFFFFFFFF MUL NOT AND SWAP1 DUP4 PUSH20 0xFFFFFFFFFFFFFFFFFFFFFFFFFFFFFFFFFFFFFFFF AND MUL OR SWAP1 SSTORE POP PUSH32 0x553BD03BB9146C7A9C7AD0A260AED36E8D47650815DF076DFB60F9D47E6CF727 DUP3 DUP3 PUSH1 0x40 MLOAD PUSH2 0x145C SWAP3 SWAP2 SWAP1 PUSH2 0x274B JUMP JUMPDEST PUSH1 0x40 MLOAD DUP1 SWAP2 SUB SWAP1 LOG1 POP POP JUMP JUMPDEST PUSH2 0x1470 PUSH2 0x199A JUMP JUMPDEST PUSH2 0x1478 PUSH2 0x19DE JUMP JUMPDEST PUSH0 PUSH1 0x2 PUSH0 DUP5 DUP2 MSTORE PUSH1 0x20 ADD SWAP1 DUP2 MSTORE PUSH1 0x20 ADD PUSH0 KECCAK256 SWAP1 POP PUSH1 0x1 PUSH1 0x4 DUP2 GT ISZERO PUSH2 0x14A0 JUMPI PUSH2 0x149F PUSH2 0x20A0 JUMP JUMPDEST JUMPDEST DUP2 PUSH1 0x3 ADD PUSH1 0x10 SWAP1 SLOAD SWAP1 PUSH2 0x100 EXP SWAP1 DIV PUSH1 0xFF AND PUSH1 0x4 DUP2 GT ISZERO PUSH2 0x14C4 JUMPI PUSH2 0x14C3 PUSH2 0x20A0 JUMP JUMPDEST JUMPDEST EQ PUSH2 0x14FB JUMPI PUSH1 0x40 MLOAD PUSH32 0xDDAFAD9800000000000000000000000000000000000000000000000000000000 DUP2 MSTORE PUSH1 0x4 ADD PUSH1 0x40 MLOAD DUP1 SWAP2 SUB SWAP1 REVERT JUMPDEST DUP1 PUSH1 0x1 ADD PUSH0 SWAP1 SLOAD SWAP1 PUSH2 0x100 EXP SWAP1 DIV PUSH20 0xFFFFFFFFFFFFFFFFFFFFFFFFFFFFFFFFFFFFFFFF AND PUSH20 0xFFFFFFFFFFFFFFFFFFFFFFFFFFFFFFFFFFFFFFFF AND CALLER PUSH20 0xFFFFFFFFFFFFFFFFFFFFFFFFFFFFFFFFFFFFFFFF AND EQ PUSH2 0x1583 JUMPI PUSH1 0x40 MLOAD PUSH32 0xDF4795C700000000000000000000000000000000000000000000000000000000 DUP2 MSTORE PUSH1 0x4 ADD PUSH1 0x40 MLOAD DUP1 SWAP2 SUB SWAP1 REVERT JUMPDEST PUSH0 DUP3 SUB PUSH2 0x15BC JUMPI PUSH1 0x40 MLOAD PUSH32 0x1F2A200500000000000000000000000000000000000000000000000000000000 DUP2 MSTORE PUSH1 0x4 ADD PUSH1 0x40 MLOAD DUP1 SWAP2 SUB SWAP1 REVERT JUMPDEST PUSH0 DUP3 DUP3 PUSH1 0x2 ADD PUSH1 0x14 SWAP1 SLOAD SWAP1 PUSH2 0x100 EXP SWAP1 DIV PUSH12 0xFFFFFFFFFFFFFFFFFFFFFFFF AND PUSH12 0xFFFFFFFFFFFFFFFFFFFFFFFF AND PUSH2 0x15F3 SWAP2 SWAP1 PUSH2 0x2772 JUMP JUMPDEST SWAP1 POP PUSH12 0xFFFFFFFFFFFFFFFFFFFFFFFF DUP1 AND DUP2 GT ISZERO PUSH2 0x163D JUMPI PUSH1 0x40 MLOAD PUSH32 0xA86B651200000000000000000000000000000000000000000000000000000000 DUP2 MSTORE PUSH1 0x4 ADD PUSH1 0x40 MLOAD DUP1 SWAP2 SUB SWAP1 REVERT JUMPDEST PUSH2 0x1646 DUP2 PUSH2 0x1A1F JUMP JUMPDEST DUP3 PUSH1 0x2 ADD PUSH1 0x14 PUSH2 0x100 EXP DUP2 SLOAD DUP2 PUSH12 0xFFFFFFFFFFFFFFFFFFFFFFFF MUL NOT AND SWAP1 DUP4 PUSH12 0xFFFFFFFFFFFFFFFFFFFFFFFF AND MUL OR SWAP1 SSTORE POP PUSH2 0x16C5 CALLER ADDRESS DUP6 PUSH32 0x0 PUSH20 0xFFFFFFFFFFFFFFFFFFFFFFFFFFFFFFFFFFFFFFFF AND PUSH2 0x1A7E SWAP1 SWAP4 SWAP3 SWAP2 SWAP1 PUSH4 0xFFFFFFFF AND JUMP JUMPDEST DUP4 PUSH32 0x9F4592C3BD42BD33860EE93DC92D07F06E3F4FB6E19A9CA214982FE7C1BDB037 DUP3 PUSH1 0x40 MLOAD PUSH2 0x16F5 SWAP2 SWAP1 PUSH2 0x25D6 JUMP JUMPDEST PUSH1 0x40 MLOAD DUP1 SWAP2 SUB SWAP1 LOG2 POP POP PUSH2 0x1707 PUSH2 0x1B00 JUMP JUMPDEST POP POP JUMP JUMPDEST PUSH2 0x1713 PUSH2 0x178F JUMP JUMPDEST PUSH0 PUSH20 0xFFFFFFFFFFFFFFFFFFFFFFFFFFFFFFFFFFFFFFFF AND DUP2 PUSH20 0xFFFFFFFFFFFFFFFFFFFFFFFFFFFFFFFFFFFFFFFF AND SUB PUSH2 0x1783 JUMPI PUSH0 PUSH1 0x40 MLOAD PUSH32 0x1E4FBDF700000000000000000000000000000000000000000000000000000000 DUP2 MSTORE PUSH1 0x4 ADD PUSH2 0x177A SWAP2 SWAP1 PUSH2 0x2270 JUMP JUMPDEST PUSH1 0x40 MLOAD DUP1 SWAP2 SUB SWAP1 REVERT JUMPDEST PUSH2 0x178C DUP2 PUSH2 0x1877 JUMP JUMPDEST POP JUMP JUMPDEST PUSH2 0x1797 PUSH2 0x1C87 JUMP JUMPDEST PUSH20 0xFFFFFFFFFFFFFFFFFFFFFFFFFFFFFFFFFFFFFFFF AND PUSH2 0x17B5 PUSH2 0x5D8 JUMP JUMPDEST PUSH20 0xFFFFFFFFFFFFFFFFFFFFFFFFFFFFFFFFFFFFFFFF AND EQ PUSH2 0x1814 JUMPI PUSH2 0x17D8 PUSH2 0x1C87 JUMP JUMPDEST PUSH1 0x40 MLOAD PUSH32 0x118CDAA700000000000000000000000000000000000000000000000000000000 DUP2 MSTORE PUSH1 0x4 ADD PUSH2 0x180B SWAP2 SWAP1 PUSH2 0x2270 JUMP JUMPDEST PUSH1 0x40 MLOAD DUP1 SWAP2 SUB SWAP1 REVERT JUMPDEST JUMP JUMPDEST PUSH2 0x181E PUSH2 0x1C8E JUMP JUMPDEST PUSH0 PUSH1 0x1 PUSH0 PUSH2 0x100 EXP DUP2 SLOAD DUP2 PUSH1 0xFF MUL NOT AND SWAP1 DUP4 ISZERO ISZERO MUL OR SWAP1 SSTORE POP PUSH32 0x5DB9EE0A495BF2E6FF9C91A7834C1BA4FDD244A5E8AA4E537BD38AEAE4B073AA PUSH2 0x1860 PUSH2 0x1C87 JUMP JUMPDEST PUSH1 0x40 MLOAD PUSH2 0x186D SWAP2 SWAP1 PUSH2 0x2270 JUMP JUMPDEST PUSH1 0x40 MLOAD DUP1 SWAP2 SUB SWAP1 LOG1 JUMP JUMPDEST PUSH0 PUSH1 0x1 DUP1 SLOAD SWAP1 PUSH2 0x100 EXP SWAP1 DIV PUSH20 0xFFFFFFFFFFFFFFFFFFFFFFFFFFFFFFFFFFFFFFFF AND SWAP1 POP DUP2 PUSH1 0x1 DUP1 PUSH2 0x100 EXP DUP2 SLOAD DUP2 PUSH20 0xFFFFFFFFFFFFFFFFFFFFFFFFFFFFFFFFFFFFFFFF MUL NOT AND SWAP1 DUP4 PUSH20 0xFFFFFFFFFFFFFFFFFFFFFFFFFFFFFFFFFFFFFFFF AND MUL OR SWAP1 SSTORE POP DUP2 PUSH20 0xFFFFFFFFFFFFFFFFFFFFFFFFFFFFFFFFFFFFFFFF AND DUP2 PUSH20 0xFFFFFFFFFFFFFFFFFFFFFFFFFFFFFFFFFFFFFFFF AND PUSH32 0x8BE0079C531659141344CD1FD0A4F28419497F9722A3DAAFE3B4186F6B6457E0 PUSH1 0x40 MLOAD PUSH1 0x40 MLOAD DUP1 SWAP2 SUB SWAP1 LOG3 POP POP JUMP JUMPDEST PUSH2 0x1941 PUSH2 0x19DE JUMP JUMPDEST PUSH1 0x1 DUP1 PUSH0 PUSH2 0x100 EXP DUP2 SLOAD DUP2 PUSH1 0xFF MUL NOT AND SWAP1 DUP4 ISZERO ISZERO MUL OR SWAP1 SSTORE POP PUSH32 0x62E78CEA01BEE320CD4E420270B5EA74000D11B0C9F74754EBDBFC544B05A258 PUSH2 0x1983 PUSH2 0x1C87 JUMP JUMPDEST PUSH1 0x40 MLOAD PUSH2 0x1990 SWAP2 SWAP1 PUSH2 0x2270 JUMP JUMPDEST PUSH1 0x40 MLOAD DUP1 SWAP2 SUB SWAP1 LOG1 JUMP JUMPDEST PUSH1 0x2 PUSH0 SLOAD SUB PUSH2 0x19D5 JUMPI PUSH1 0x40 MLOAD PUSH32 0x3EE5AEB500000000000000000000000000000000000000000000000000000000 DUP2 MSTORE PUSH1 0x4 ADD PUSH1 0x40 MLOAD DUP1 SWAP2 SUB SWAP1 REVERT JUMPDEST PUSH1 0x2 PUSH0 DUP2 SWAP1 SSTORE POP JUMP JUMPDEST PUSH2 0x19E6 PUSH2 0x577 JUMP JUMPDEST ISZERO PUSH2 0x1A1D JUMPI PUSH1 0x40 MLOAD PUSH32 0xD93C066500000000000000000000000000000000000000000000000000000000 DUP2 MSTORE PUSH1 0x4 ADD PUSH1 0x40 MLOAD DUP1 SWAP2 SUB SWAP1 REVERT JUMPDEST JUMP JUMPDEST PUSH0 PUSH12 0xFFFFFFFFFFFFFFFFFFFFFFFF DUP1 AND DUP3 GT ISZERO PUSH2 0x1A76 JUMPI PUSH1 0x60 DUP3 PUSH1 0x40 MLOAD PUSH32 0x6DFCC65000000000000000000000000000000000000000000000000000000000 DUP2 MSTORE PUSH1 0x4 ADD PUSH2 0x1A6D SWAP3 SWAP2 SWAP1 PUSH2 0x27DE JUMP JUMPDEST PUSH1 0x40 MLOAD DUP1 SWAP2 SUB SWAP1 REVERT JUMPDEST DUP2 SWAP1 POP SWAP2 SWAP1 POP JUMP JUMPDEST PUSH2 0x1AFA DUP5 DUP6 PUSH20 0xFFFFFFFFFFFFFFFFFFFFFFFFFFFFFFFFFFFFFFFF AND PUSH4 0x23B872DD DUP7 DUP7 DUP7 PUSH1 0x40 MLOAD PUSH1 0x24 ADD PUSH2 0x1AB3 SWAP4 SWAP3 SWAP2 SWAP1 PUSH2 0x2805 JUMP JUMPDEST PUSH1 0x40 MLOAD PUSH1 0x20 DUP2 DUP4 SUB SUB DUP2 MSTORE SWAP1 PUSH1 0x40 MSTORE SWAP2 POP PUSH1 0xE0 SHL PUSH1 0x20 DUP3 ADD DUP1 MLOAD PUSH28 0xFFFFFFFFFFFFFFFFFFFFFFFFFFFFFFFFFFFFFFFFFFFFFFFFFFFFFFFF DUP4 DUP2 DUP4 AND OR DUP4 MSTORE POP POP POP POP PUSH2 0x1CCE JUMP JUMPDEST POP POP POP POP JUMP JUMPDEST PUSH1 0x1 PUSH0 DUP2 SWAP1 SSTORE POP JUMP JUMPDEST PUSH2 0x1B83 DUP4 DUP5 PUSH20 0xFFFFFFFFFFFFFFFFFFFFFFFFFFFFFFFFFFFFFFFF AND PUSH4 0xA9059CBB DUP6 DUP6 PUSH1 0x40 MLOAD PUSH1 0x24 ADD PUSH2 0x1B3C SWAP3 SWAP2 SWAP1 PUSH2 0x283A JUMP JUMPDEST PUSH1 0x40 MLOAD PUSH1 0x20 DUP2 DUP4 SUB SUB DUP2 MSTORE SWAP1 PUSH1 0x40 MSTORE SWAP2 POP PUSH1 0xE0 SHL PUSH1 0x20 DUP3 ADD DUP1 MLOAD PUSH28 0xFFFFFFFFFFFFFFFFFFFFFFFFFFFFFFFFFFFFFFFFFFFFFFFFFFFFFFFF DUP4 DUP2 DUP4 AND OR DUP4 MSTORE POP POP POP POP PUSH2 0x1CCE JUMP JUMPDEST POP POP POP JUMP JUMPDEST PUSH0 PUSH0 DUP4 DUP6 MUL SWAP1 POP PUSH0 PUSH0 NOT DUP6 DUP8 MULMOD DUP3 DUP2 LT DUP4 DUP3 SUB SUB SWAP2 POP POP PUSH0 DUP2 SUB PUSH2 0x1BC0 JUMPI DUP4 DUP3 DUP2 PUSH2 0x1BB6 JUMPI PUSH2 0x1BB5 PUSH2 0x2861 JUMP JUMPDEST JUMPDEST DIV SWAP3 POP POP POP PUSH2 0x1C80 JUMP JUMPDEST DUP1 DUP5 GT PUSH2 0x1BF9 JUMPI PUSH1 0x40 MLOAD PUSH32 0x227BC15300000000000000000000000000000000000000000000000000000000 DUP2 MSTORE PUSH1 0x4 ADD PUSH1 0x40 MLOAD DUP1 SWAP2 SUB SWAP1 REVERT JUMPDEST PUSH0 DUP5 DUP7 DUP9 MULMOD SWAP1 POP DUP3 DUP2 GT DUP3 SUB SWAP2 POP DUP1 DUP4 SUB SWAP3 POP PUSH0 DUP6 PUSH0 SUB DUP7 AND SWAP1 POP DUP1 DUP7 DIV SWAP6 POP DUP1 DUP5 DIV SWAP4 POP PUSH1 0x1 DUP2 DUP3 PUSH0 SUB DIV ADD SWAP1 POP DUP1 DUP4 MUL DUP5 OR SWAP4 POP PUSH0 PUSH1 0x2 DUP8 PUSH1 0x3 MUL XOR SWAP1 POP DUP1 DUP8 MUL PUSH1 0x2 SUB DUP2 MUL SWAP1 POP DUP1 DUP8 MUL PUSH1 0x2 SUB DUP2 MUL SWAP1 POP DUP1 DUP8 MUL PUSH1 0x2 SUB DUP2 MUL SWAP1 POP DUP1 DUP8 MUL PUSH1 0x2 SUB DUP2 MUL SWAP1 POP DUP1 DUP8 MUL PUSH1 0x2 SUB DUP2 MUL SWAP1 POP DUP1 DUP8 MUL PUSH1 0x2 SUB DUP2 MUL SWAP1 POP DUP1 DUP6 MUL SWAP6 POP POP POP POP POP POP JUMPDEST SWAP4 SWAP3 POP POP POP JUMP JUMPDEST PUSH0 CALLER SWAP1 POP SWAP1 JUMP JUMPDEST PUSH2 0x1C96 PUSH2 0x577 JUMP JUMPDEST PUSH2 0x1CCC JUMPI PUSH1 0x40 MLOAD PUSH32 0x8DFC202B00000000000000000000000000000000000000000000000000000000 DUP2 MSTORE PUSH1 0x4 ADD PUSH1 0x40 MLOAD DUP1 SWAP2 SUB SWAP1 REVERT JUMPDEST JUMP JUMPDEST PUSH0 PUSH2 0x1CF8 DUP3 DUP5 PUSH20 0xFFFFFFFFFFFFFFFFFFFFFFFFFFFFFFFFFFFFFFFF AND PUSH2 0x1D63 SWAP1 SWAP2 SWAP1 PUSH4 0xFFFFFFFF AND JUMP JUMPDEST SWAP1 POP PUSH0 DUP2 MLOAD EQ ISZERO DUP1 ISZERO PUSH2 0x1D1C JUMPI POP DUP1 DUP1 PUSH1 0x20 ADD SWAP1 MLOAD DUP2 ADD SWAP1 PUSH2 0x1D1A SWAP2 SWAP1 PUSH2 0x28B8 JUMP JUMPDEST ISZERO JUMPDEST ISZERO PUSH2 0x1D5E JUMPI DUP3 PUSH1 0x40 MLOAD PUSH32 0x5274AFE700000000000000000000000000000000000000000000000000000000 DUP2 MSTORE PUSH1 0x4 ADD PUSH2 0x1D55 SWAP2 SWAP1 PUSH2 0x2270 JUMP JUMPDEST PUSH1 0x40 MLOAD DUP1 SWAP2 SUB SWAP1 REVERT JUMPDEST POP POP POP JUMP JUMPDEST PUSH1 0x60 PUSH2 0x1D70 DUP4 DUP4 PUSH0 PUSH2 0x1D78 JUMP JUMPDEST SWAP1 POP SWAP3 SWAP2 POP POP JUMP JUMPDEST PUSH1 0x60 DUP2 SELFBALANCE LT ISZERO PUSH2 0x1DBF JUMPI ADDRESS PUSH1 0x40 MLOAD PUSH32 0xCD78605900000000000000000000000000000000000000000000000000000000 DUP2 MSTORE PUSH1 0x4 ADD PUSH2 0x1DB6 SWAP2 SWAP1 PUSH2 0x2270 JUMP JUMPDEST PUSH1 0x40 MLOAD DUP1 SWAP2 SUB SWAP1 REVERT JUMPDEST PUSH0 PUSH0 DUP6 PUSH20 0xFFFFFFFFFFFFFFFFFFFFFFFFFFFFFFFFFFFFFFFF AND DUP5 DUP7 PUSH1 0x40 MLOAD PUSH2 0x1DE7 SWAP2 SWAP1 PUSH2 0x2935 JUMP JUMPDEST PUSH0 PUSH1 0x40 MLOAD DUP1 DUP4 SUB DUP2 DUP6 DUP8 GAS CALL SWAP3 POP POP POP RETURNDATASIZE DUP1 PUSH0 DUP2 EQ PUSH2 0x1E21 JUMPI PUSH1 0x40 MLOAD SWAP2 POP PUSH1 0x1F NOT PUSH1 0x3F RETURNDATASIZE ADD AND DUP3 ADD PUSH1 0x40 MSTORE RETURNDATASIZE DUP3 MSTORE RETURNDATASIZE PUSH0 PUSH1 0x20 DUP5 ADD RETURNDATACOPY PUSH2 0x1E26 JUMP JUMPDEST PUSH1 0x60 SWAP2 POP JUMPDEST POP SWAP2 POP SWAP2 POP PUSH2 0x1E36 DUP7 DUP4 DUP4 PUSH2 0x1E41 JUMP JUMPDEST SWAP3 POP POP POP SWAP4 SWAP3 POP POP POP JUMP JUMPDEST PUSH1 0x60 DUP3 PUSH2 0x1E56 JUMPI PUSH2 0x1E51 DUP3 PUSH2 0x1ECE JUMP JUMPDEST PUSH2 0x1EC6 JUMP JUMPDEST PUSH0 DUP3 MLOAD EQ DUP1 ISZERO PUSH2 0x1E7C JUMPI POP PUSH0 DUP5 PUSH20 0xFFFFFFFFFFFFFFFFFFFFFFFFFFFFFFFFFFFFFFFF AND EXTCODESIZE EQ JUMPDEST ISZERO PUSH2 0x1EBE JUMPI DUP4 PUSH1 0x40 MLOAD PUSH32 0x9996B31500000000000000000000000000000000000000000000000000000000 DUP2 MSTORE PUSH1 0x4 ADD PUSH2 0x1EB5 SWAP2 SWAP1 PUSH2 0x2270 JUMP JUMPDEST PUSH1 0x40 MLOAD DUP1 SWAP2 SUB SWAP1 REVERT JUMPDEST DUP2 SWAP1 POP PUSH2 0x1EC7 JUMP JUMPDEST JUMPDEST SWAP4 SWAP3 POP POP POP JUMP JUMPDEST PUSH0 DUP2 MLOAD GT ISZERO PUSH2 0x1EE0 JUMPI DUP1 MLOAD DUP1 DUP3 PUSH1 0x20 ADD REVERT JUMPDEST PUSH1 0x40 MLOAD PUSH32 0x1425EA4200000000000000000000000000000000000000000000000000000000 DUP2 MSTORE PUSH1 0x4 ADD PUSH1 0x40 MLOAD DUP1 SWAP2 SUB SWAP1 REVERT JUMPDEST PUSH1 0x40 MLOAD DUP1 PUSH1 0xE0 ADD PUSH1 0x40 MSTORE DUP1 PUSH0 DUP2 MSTORE PUSH1 0x20 ADD PUSH0 PUSH20 0xFFFFFFFFFFFFFFFFFFFFFFFFFFFFFFFFFFFFFFFF AND DUP2 MSTORE PUSH1 0x20 ADD PUSH0 PUSH20 0xFFFFFFFFFFFFFFFFFFFFFFFFFFFFFFFFFFFFFFFF AND DUP2 MSTORE PUSH1 0x20 ADD PUSH0 PUSH12 0xFFFFFFFFFFFFFFFFFFFFFFFF AND DUP2 MSTORE PUSH1 0x20 ADD PUSH0 PUSH8 0xFFFFFFFFFFFFFFFF AND DUP2 MSTORE PUSH1 0x20 ADD PUSH0 PUSH8 0xFFFFFFFFFFFFFFFF AND DUP2 MSTORE PUSH1 0x20 ADD PUSH0 PUSH1 0x4 DUP2 GT ISZERO PUSH2 0x1FA2 JUMPI PUSH2 0x1FA1 PUSH2 0x20A0 JUMP JUMPDEST JUMPDEST DUP2 MSTORE POP SWAP1 JUMP JUMPDEST PUSH0 PUSH0 REVERT JUMPDEST PUSH0 DUP2 SWAP1 POP SWAP2 SWAP1 POP JUMP JUMPDEST PUSH2 0x1FBE DUP2 PUSH2 0x1FAC JUMP JUMPDEST DUP2 EQ PUSH2 0x1FC8 JUMPI PUSH0 PUSH0 REVERT JUMPDEST POP JUMP JUMPDEST PUSH0 DUP2 CALLDATALOAD SWAP1 POP PUSH2 0x1FD9 DUP2 PUSH2 0x1FB5 JUMP JUMPDEST SWAP3 SWAP2 POP POP JUMP JUMPDEST PUSH0 PUSH1 0x20 DUP3 DUP5 SUB SLT ISZERO PUSH2 0x1FF4 JUMPI PUSH2 0x1FF3 PUSH2 0x1FA8 JUMP JUMPDEST JUMPDEST PUSH0 PUSH2 0x2001 DUP5 DUP3 DUP6 ADD PUSH2 0x1FCB JUMP JUMPDEST SWAP2 POP POP SWAP3 SWAP2 POP POP JUMP JUMPDEST PUSH2 0x2013 DUP2 PUSH2 0x1FAC JUMP JUMPDEST DUP3 MSTORE POP POP JUMP JUMPDEST PUSH0 PUSH20 0xFFFFFFFFFFFFFFFFFFFFFFFFFFFFFFFFFFFFFFFF DUP3 AND SWAP1 POP SWAP2 SWAP1 POP JUMP JUMPDEST PUSH0 PUSH2 0x2042 DUP3 PUSH2 0x2019 JUMP JUMPDEST SWAP1 POP SWAP2 SWAP1 POP JUMP JUMPDEST PUSH2 0x2052 DUP2 PUSH2 0x2038 JUMP JUMPDEST DUP3 MSTORE POP POP JUMP JUMPDEST PUSH0 PUSH12 0xFFFFFFFFFFFFFFFFFFFFFFFF DUP3 AND SWAP1 POP SWAP2 SWAP1 POP JUMP JUMPDEST PUSH2 0x2078 DUP2 PUSH2 0x2058 JUMP JUMPDEST DUP3 MSTORE POP POP JUMP JUMPDEST PUSH0 PUSH8 0xFFFFFFFFFFFFFFFF DUP3 AND SWAP1 POP SWAP2 SWAP1 POP JUMP JUMPDEST PUSH2 0x209A DUP2 PUSH2 0x207E JUMP JUMPDEST DUP3 MSTORE POP POP JUMP JUMPDEST PUSH32 0x4E487B7100000000000000000000000000000000000000000000000000000000 PUSH0 MSTORE PUSH1 0x21 PUSH1 0x4 MSTORE PUSH1 0x24 PUSH0 REVERT JUMPDEST PUSH1 0x5 DUP2 LT PUSH2 0x20DE JUMPI PUSH2 0x20DD PUSH2 0x20A0 JUMP JUMPDEST JUMPDEST POP JUMP JUMPDEST PUSH0 DUP2 SWAP1 POP PUSH2 0x20EE DUP3 PUSH2 0x20CD JUMP JUMPDEST SWAP2 SWAP1 POP JUMP JUMPDEST PUSH0 PUSH2 0x20FD DUP3 PUSH2 0x20E1 JUMP JUMPDEST SWAP1 POP SWAP2 SWAP1 POP JUMP JUMPDEST PUSH2 0x210D DUP2 PUSH2 0x20F3 JUMP JUMPDEST DUP3 MSTORE POP POP JUMP JUMPDEST PUSH1 0xE0 DUP3 ADD PUSH0 DUP3 ADD MLOAD PUSH2 0x2127 PUSH0 DUP6 ADD DUP3 PUSH2 0x200A JUMP JUMPDEST POP PUSH1 0x20 DUP3 ADD MLOAD PUSH2 0x213A PUSH1 0x20 DUP6 ADD DUP3 PUSH2 0x2049 JUMP JUMPDEST POP PUSH1 0x40 DUP3 ADD MLOAD PUSH2 0x214D PUSH1 0x40 DUP6 ADD DUP3 PUSH2 0x2049 JUMP JUMPDEST POP PUSH1 0x60 DUP3 ADD MLOAD PUSH2 0x2160 PUSH1 0x60 DUP6 ADD DUP3 PUSH2 0x206F JUMP JUMPDEST POP PUSH1 0x80 DUP3 ADD MLOAD PUSH2 0x2173 PUSH1 0x80 DUP6 ADD DUP3 PUSH2 0x2091 JUMP JUMPDEST POP PUSH1 0xA0 DUP3 ADD MLOAD PUSH2 0x2186 PUSH1 0xA0 DUP6 ADD DUP3 PUSH2 0x2091 JUMP JUMPDEST POP PUSH1 0xC0 DUP3 ADD MLOAD PUSH2 0x2199 PUSH1 0xC0 DUP6 ADD DUP3 PUSH2 0x2104 JUMP JUMPDEST POP POP POP POP JUMP JUMPDEST PUSH0 PUSH1 0xE0 DUP3 ADD SWAP1 POP PUSH2 0x21B2 PUSH0 DUP4 ADD DUP5 PUSH2 0x2113 JUMP JUMPDEST SWAP3 SWAP2 POP POP JUMP JUMPDEST PUSH0 PUSH2 0xFFFF DUP3 AND SWAP1 POP SWAP2 SWAP1 POP JUMP JUMPDEST PUSH2 0x21CE DUP2 PUSH2 0x21B8 JUMP JUMPDEST DUP3 MSTORE POP POP JUMP JUMPDEST PUSH0 PUSH1 0x20 DUP3 ADD SWAP1 POP PUSH2 0x21E7 PUSH0 DUP4 ADD DUP5 PUSH2 0x21C5 JUMP JUMPDEST SWAP3 SWAP2 POP POP JUMP JUMPDEST PUSH0 DUP2 SWAP1 POP SWAP2 SWAP1 POP JUMP JUMPDEST PUSH0 PUSH2 0x2210 PUSH2 0x220B PUSH2 0x2206 DUP5 PUSH2 0x2019 JUMP JUMPDEST PUSH2 0x21ED JUMP JUMPDEST PUSH2 0x2019 JUMP JUMPDEST SWAP1 POP SWAP2 SWAP1 POP JUMP JUMPDEST PUSH0 PUSH2 0x2221 DUP3 PUSH2 0x21F6 JUMP JUMPDEST SWAP1 POP SWAP2 SWAP1 POP JUMP JUMPDEST PUSH0 PUSH2 0x2232 DUP3 PUSH2 0x2217 JUMP JUMPDEST SWAP1 POP SWAP2 SWAP1 POP JUMP JUMPDEST PUSH2 0x2242 DUP2 PUSH2 0x2228 JUMP JUMPDEST DUP3 MSTORE POP POP JUMP JUMPDEST PUSH0 PUSH1 0x20 DUP3 ADD SWAP1 POP PUSH2 0x225B PUSH0 DUP4 ADD DUP5 PUSH2 0x2239 JUMP JUMPDEST SWAP3 SWAP2 POP POP JUMP JUMPDEST PUSH2 0x226A DUP2 PUSH2 0x2038 JUMP JUMPDEST DUP3 MSTORE POP POP JUMP JUMPDEST PUSH0 PUSH1 0x20 DUP3 ADD SWAP1 POP PUSH2 0x2283 PUSH0 DUP4 ADD DUP5 PUSH2 0x2261 JUMP JUMPDEST SWAP3 SWAP2 POP POP JUMP JUMPDEST PUSH0 DUP2 ISZERO ISZERO SWAP1 POP SWAP2 SWAP1 POP JUMP JUMPDEST PUSH2 0x229D DUP2 PUSH2 0x2289 JUMP JUMPDEST DUP3 MSTORE POP POP JUMP JUMPDEST PUSH0 PUSH1 0x20 DUP3 ADD SWAP1 POP PUSH2 0x22B6 PUSH0 DUP4 ADD DUP5 PUSH2 0x2294 JUMP JUMPDEST SWAP3 SWAP2 POP POP JUMP JUMPDEST PUSH0 PUSH1 0xFF DUP3 AND SWAP1 POP SWAP2 SWAP1 POP JUMP JUMPDEST PUSH2 0x22D1 DUP2 PUSH2 0x22BC JUMP JUMPDEST DUP3 MSTORE POP POP JUMP JUMPDEST PUSH0 PUSH1 0x20 DUP3 ADD SWAP1 POP PUSH2 0x22EA PUSH0 DUP4 ADD DUP5 PUSH2 0x22C8 JUMP JUMPDEST SWAP3 SWAP2 POP POP JUMP JUMPDEST PUSH2 0x22F9 DUP2 PUSH2 0x2038 JUMP JUMPDEST DUP2 EQ PUSH2 0x2303 JUMPI PUSH0 PUSH0 REVERT JUMPDEST POP JUMP JUMPDEST PUSH0 DUP2 CALLDATALOAD SWAP1 POP PUSH2 0x2314 DUP2 PUSH2 0x22F0 JUMP JUMPDEST SWAP3 SWAP2 POP POP JUMP JUMPDEST PUSH2 0x2323 DUP2 PUSH2 0x207E JUMP JUMPDEST DUP2 EQ PUSH2 0x232D JUMPI PUSH0 PUSH0 REVERT JUMPDEST POP JUMP JUMPDEST PUSH0 DUP2 CALLDATALOAD SWAP1 POP PUSH2 0x233E DUP2 PUSH2 0x231A JUMP JUMPDEST SWAP3 SWAP2 POP POP JUMP JUMPDEST PUSH0 DUP2 SWAP1 POP SWAP2 SWAP1 POP JUMP JUMPDEST PUSH2 0x2356 DUP2 PUSH2 0x2344 JUMP JUMPDEST DUP2 EQ PUSH2 0x2360 JUMPI PUSH0 PUSH0 REVERT JUMPDEST POP JUMP JUMPDEST PUSH0 DUP2 CALLDATALOAD SWAP1 POP PUSH2 0x2371 DUP2 PUSH2 0x234D JUMP JUMPDEST SWAP3 SWAP2 POP POP JUMP JUMPDEST PUSH0 PUSH0 PUSH0 PUSH0 PUSH0 PUSH1 0xA0 DUP7 DUP9 SUB SLT ISZERO PUSH2 0x2390 JUMPI PUSH2 0x238F PUSH2 0x1FA8 JUMP JUMPDEST JUMPDEST PUSH0 PUSH2 0x239D DUP9 DUP3 DUP10 ADD PUSH2 0x2306 JUMP JUMPDEST SWAP6 POP POP PUSH1 0x20 PUSH2 0x23AE DUP9 DUP3 DUP10 ADD PUSH2 0x1FCB JUMP JUMPDEST SWAP5 POP POP PUSH1 0x40 PUSH2 0x23BF DUP9 DUP3 DUP10 ADD PUSH2 0x2330 JUMP JUMPDEST SWAP4 POP POP PUSH1 0x60 PUSH2 0x23D0 DUP9 DUP3 DUP10 ADD PUSH2 0x2330 JUMP JUMPDEST SWAP3 POP POP PUSH1 0x80 PUSH2 0x23E1 DUP9 DUP3 DUP10 ADD PUSH2 0x2363 JUMP JUMPDEST SWAP2 POP POP SWAP3 SWAP6 POP SWAP3 SWAP6 SWAP1 SWAP4 POP JUMP JUMPDEST PUSH2 0x23F7 DUP2 PUSH2 0x1FAC JUMP JUMPDEST DUP3 MSTORE POP POP JUMP JUMPDEST PUSH0 PUSH1 0x20 DUP3 ADD SWAP1 POP PUSH2 0x2410 PUSH0 DUP4 ADD DUP5 PUSH2 0x23EE JUMP JUMPDEST SWAP3 SWAP2 POP POP JUMP JUMPDEST PUSH0 PUSH0 PUSH0 PUSH1 0x60 DUP5 DUP7 SUB SLT ISZERO PUSH2 0x242D JUMPI PUSH2 0x242C PUSH2 0x1FA8 JUMP JUMPDEST JUMPDEST PUSH0 PUSH2 0x243A DUP7 DUP3 DUP8 ADD PUSH2 0x2306 JUMP JUMPDEST SWAP4 POP POP PUSH1 0x20 PUSH2 0x244B DUP7 DUP3 DUP8 ADD PUSH2 0x1FCB JUMP JUMPDEST SWAP3 POP POP PUSH1 0x40 PUSH2 0x245C DUP7 DUP3 DUP8 ADD PUSH2 0x2330 JUMP JUMPDEST SWAP2 POP POP SWAP3 POP SWAP3 POP SWAP3 JUMP JUMPDEST PUSH0 PUSH0 PUSH1 0x40 DUP4 DUP6 SUB SLT ISZERO PUSH2 0x247C JUMPI PUSH2 0x247B PUSH2 0x1FA8 JUMP JUMPDEST JUMPDEST PUSH0 PUSH2 0x2489 DUP6 DUP3 DUP7 ADD PUSH2 0x1FCB JUMP JUMPDEST SWAP3 POP POP PUSH1 0x20 PUSH2 0x249A DUP6 DUP3 DUP7 ADD PUSH2 0x2306 JUMP JUMPDEST SWAP2 POP POP SWAP3 POP SWAP3 SWAP1 POP JUMP JUMPDEST PUSH2 0x24AD DUP2 PUSH2 0x21B8 JUMP JUMPDEST DUP2 EQ PUSH2 0x24B7 JUMPI PUSH0 PUSH0 REVERT JUMPDEST POP JUMP JUMPDEST PUSH0 DUP2 CALLDATALOAD SWAP1 POP PUSH2 0x24C8 DUP2 PUSH2 0x24A4 JUMP JUMPDEST SWAP3 SWAP2 POP POP JUMP JUMPDEST PUSH0 PUSH0 PUSH1 0x40 DUP4 DUP6 SUB SLT ISZERO PUSH2 0x24E4 JUMPI PUSH2 0x24E3 PUSH2 0x1FA8 JUMP JUMPDEST JUMPDEST PUSH0 PUSH2 0x24F1 DUP6 DUP3 DUP7 ADD PUSH2 0x24BA JUMP JUMPDEST SWAP3 POP POP PUSH1 0x20 PUSH2 0x2502 DUP6 DUP3 DUP7 ADD PUSH2 0x2306 JUMP JUMPDEST SWAP2 POP POP SWAP3 POP SWAP3 SWAP1 POP JUMP JUMPDEST PUSH0 PUSH0 PUSH1 0x40 DUP4 DUP6 SUB SLT ISZERO PUSH2 0x2522 JUMPI PUSH2 0x2521 PUSH2 0x1FA8 JUMP JUMPDEST JUMPDEST PUSH0 PUSH2 0x252F DUP6 DUP3 DUP7 ADD PUSH2 0x1FCB JUMP JUMPDEST SWAP3 POP POP PUSH1 0x20 PUSH2 0x2540 DUP6 DUP3 DUP7 ADD PUSH2 0x2363 JUMP JUMPDEST SWAP2 POP POP SWAP3 POP SWAP3 SWAP1 POP JUMP JUMPDEST PUSH0 PUSH1 0x20 DUP3 DUP5 SUB SLT ISZERO PUSH2 0x255F JUMPI PUSH2 0x255E PUSH2 0x1FA8 JUMP JUMPDEST JUMPDEST PUSH0 PUSH2 0x256C DUP5 DUP3 DUP6 ADD PUSH2 0x2306 JUMP JUMPDEST SWAP2 POP POP SWAP3 SWAP2 POP POP JUMP JUMPDEST PUSH2 0x257E DUP2 PUSH2 0x207E JUMP JUMPDEST DUP3 MSTORE POP POP JUMP JUMPDEST PUSH2 0x258D DUP2 PUSH2 0x2344 JUMP JUMPDEST DUP3 MSTORE POP POP JUMP JUMPDEST PUSH0 PUSH1 0x80 DUP3 ADD SWAP1 POP PUSH2 0x25A6 PUSH0 DUP4 ADD DUP8 PUSH2 0x2575 JUMP JUMPDEST PUSH2 0x25B3 PUSH1 0x20 DUP4 ADD DUP7 PUSH2 0x2575 JUMP JUMPDEST PUSH2 0x25C0 PUSH1 0x40 DUP4 ADD DUP6 PUSH2 0x2261 JUMP JUMPDEST PUSH2 0x25CD PUSH1 0x60 DUP4 ADD DUP5 PUSH2 0x2584 JUMP JUMPDEST SWAP6 SWAP5 POP POP POP POP POP JUMP JUMPDEST PUSH0 PUSH1 0x20 DUP3 ADD SWAP1 POP PUSH2 0x25E9 PUSH0 DUP4 ADD DUP5 PUSH2 0x2584 JUMP JUMPDEST SWAP3 SWAP2 POP POP JUMP JUMPDEST PUSH0 DUP2 PUSH1 0x60 SHL SWAP1 POP SWAP2 SWAP1 POP JUMP JUMPDEST PUSH0 PUSH2 0x2605 DUP3 PUSH2 0x25EF JUMP JUMPDEST SWAP1 POP SWAP2 SWAP1 POP JUMP JUMPDEST PUSH0 PUSH2 0x2616 DUP3 PUSH2 0x25FB JUMP JUMPDEST SWAP1 POP SWAP2 SWAP1 POP JUMP JUMPDEST PUSH2 0x262E PUSH2 0x2629 DUP3 PUSH2 0x2038 JUMP JUMPDEST PUSH2 0x260C JUMP JUMPDEST DUP3 MSTORE POP POP JUMP JUMPDEST PUSH0 DUP2 SWAP1 POP SWAP2 SWAP1 POP JUMP JUMPDEST PUSH2 0x264E PUSH2 0x2649 DUP3 PUSH2 0x1FAC JUMP JUMPDEST PUSH2 0x2634 JUMP JUMPDEST DUP3 MSTORE POP POP JUMP JUMPDEST PUSH0 DUP2 PUSH1 0xC0 SHL SWAP1 POP SWAP2 SWAP1 POP JUMP JUMPDEST PUSH0 PUSH2 0x266A DUP3 PUSH2 0x2654 JUMP JUMPDEST SWAP1 POP SWAP2 SWAP1 POP JUMP JUMPDEST PUSH2 0x2682 PUSH2 0x267D DUP3 PUSH2 0x207E JUMP JUMPDEST PUSH2 0x2660 JUMP JUMPDEST DUP3 MSTORE POP POP JUMP JUMPDEST PUSH0 PUSH2 0x2693 DUP3 DUP7 PUSH2 0x261D JUMP JUMPDEST PUSH1 0x14 DUP3 ADD SWAP2 POP PUSH2 0x26A3 DUP3 DUP6 PUSH2 0x263D JUMP JUMPDEST PUSH1 0x20 DUP3 ADD SWAP2 POP PUSH2 0x26B3 DUP3 DUP5 PUSH2 0x2671 JUMP JUMPDEST PUSH1 0x8 DUP3 ADD SWAP2 POP DUP2 SWAP1 POP SWAP5 SWAP4 POP POP POP POP JUMP JUMPDEST PUSH32 0x4E487B7100000000000000000000000000000000000000000000000000000000 PUSH0 MSTORE PUSH1 0x11 PUSH1 0x4 MSTORE PUSH1 0x24 PUSH0 REVERT JUMPDEST PUSH0 PUSH2 0x26FB DUP3 PUSH2 0x2344 JUMP JUMPDEST SWAP2 POP PUSH2 0x2706 DUP4 PUSH2 0x2344 JUMP JUMPDEST SWAP3 POP DUP3 DUP3 SUB SWAP1 POP DUP2 DUP2 GT ISZERO PUSH2 0x271E JUMPI PUSH2 0x271D PUSH2 0x26C4 JUMP JUMPDEST JUMPDEST SWAP3 SWAP2 POP POP JUMP JUMPDEST PUSH0 PUSH1 0x40 DUP3 ADD SWAP1 POP PUSH2 0x2737 PUSH0 DUP4 ADD DUP6 PUSH2 0x2584 JUMP JUMPDEST PUSH2 0x2744 PUSH1 0x20 DUP4 ADD DUP5 PUSH2 0x2584 JUMP JUMPDEST SWAP4 SWAP3 POP POP POP JUMP JUMPDEST PUSH0 PUSH1 0x40 DUP3 ADD SWAP1 POP PUSH2 0x275E PUSH0 DUP4 ADD DUP6 PUSH2 0x21C5 JUMP JUMPDEST PUSH2 0x276B PUSH1 0x20 DUP4 ADD DUP5 PUSH2 0x2261 JUMP JUMPDEST SWAP4 SWAP3 POP POP POP JUMP JUMPDEST PUSH0 PUSH2 0x277C DUP3 PUSH2 0x2344 JUMP JUMPDEST SWAP2 POP PUSH2 0x2787 DUP4 PUSH2 0x2344 JUMP JUMPDEST SWAP3 POP DUP3 DUP3 ADD SWAP1 POP DUP1 DUP3 GT ISZERO PUSH2 0x279F JUMPI PUSH2 0x279E PUSH2 0x26C4 JUMP JUMPDEST JUMPDEST SWAP3 SWAP2 POP POP JUMP JUMPDEST PUSH0 DUP2 SWAP1 POP SWAP2 SWAP1 POP JUMP JUMPDEST PUSH0 PUSH2 0x27C8 PUSH2 0x27C3 PUSH2 0x27BE DUP5 PUSH2 0x27A5 JUMP JUMPDEST PUSH2 0x21ED JUMP JUMPDEST PUSH2 0x22BC JUMP JUMPDEST SWAP1 POP SWAP2 SWAP1 POP JUMP JUMPDEST PUSH2 0x27D8 DUP2 PUSH2 0x27AE JUMP JUMPDEST DUP3 MSTORE POP POP JUMP JUMPDEST PUSH0 PUSH1 0x40 DUP3 ADD SWAP1 POP PUSH2 0x27F1 PUSH0 DUP4 ADD DUP6 PUSH2 0x27CF JUMP JUMPDEST PUSH2 0x27FE PUSH1 0x20 DUP4 ADD DUP5 PUSH2 0x2584 JUMP JUMPDEST SWAP4 SWAP3 POP POP POP JUMP JUMPDEST PUSH0 PUSH1 0x60 DUP3 ADD SWAP1 POP PUSH2 0x2818 PUSH0 DUP4 ADD DUP7 PUSH2 0x2261 JUMP JUMPDEST PUSH2 0x2825 PUSH1 0x20 DUP4 ADD DUP6 PUSH2 0x2261 JUMP JUMPDEST PUSH2 0x2832 PUSH1 0x40 DUP4 ADD DUP5 PUSH2 0x2584 JUMP JUMPDEST SWAP5 SWAP4 POP POP POP POP JUMP JUMPDEST PUSH0 PUSH1 0x40 DUP3 ADD SWAP1 POP PUSH2 0x284D PUSH0 DUP4 ADD DUP6 PUSH2 0x2261 JUMP JUMPDEST PUSH2 0x285A PUSH1 0x20 DUP4 ADD DUP5 PUSH2 0x2584 JUMP JUMPDEST SWAP4 SWAP3 POP POP POP JUMP JUMPDEST PUSH32 0x4E487B7100000000000000000000000000000000000000000000000000000000 PUSH0 MSTORE PUSH1 0x12 PUSH1 0x4 MSTORE PUSH1 0x24 PUSH0 REVERT JUMPDEST PUSH2 0x2897 DUP2 PUSH2 0x2289 JUMP JUMPDEST DUP2 EQ PUSH2 0x28A1 JUMPI PUSH0 PUSH0 REVERT JUMPDEST POP JUMP JUMPDEST PUSH0 DUP2 MLOAD SWAP1 POP PUSH2 0x28B2 DUP2 PUSH2 0x288E JUMP JUMPDEST SWAP3 SWAP2 POP POP JUMP JUMPDEST PUSH0 PUSH1 0x20 DUP3 DUP5 SUB SLT ISZERO PUSH2 0x28CD JUMPI PUSH2 0x28CC PUSH2 0x1FA8 JUMP JUMPDEST JUMPDEST PUSH0 PUSH2 0x28DA DUP5 DUP3 DUP6 ADD PUSH2 0x28A4 JUMP JUMPDEST SWAP2 POP POP SWAP3 SWAP2 POP POP JUMP JUMPDEST PUSH0 DUP2 MLOAD SWAP1 POP SWAP2 SWAP1 POP JUMP JUMPDEST PUSH0 DUP2 SWAP1 POP SWAP3 SWAP2 POP POP JUMP JUMPDEST DUP3 DUP2 DUP4 MCOPY PUSH0 DUP4 DUP4 ADD MSTORE POP POP POP JUMP JUMPDEST PUSH0 PUSH2 0x290F DUP3 PUSH2 0x28E3 JUMP JUMPDEST PUSH2 0x2919 DUP2 DUP6 PUSH2 0x28ED JUMP JUMPDEST SWAP4 POP PUSH2 0x2929 DUP2 DUP6 PUSH1 0x20 DUP7 ADD PUSH2 0x28F7 JUMP JUMPDEST DUP1 DUP5 ADD SWAP2 POP POP SWAP3 SWAP2 POP POP JUMP JUMPDEST PUSH0 PUSH2 0x2940 DUP3 DUP5 PUSH2 0x2905 JUMP JUMPDEST SWAP2 POP DUP2 SWAP1 POP SWAP3 SWAP2 POP POP JUMP INVALID LOG2 PUSH5 0x6970667358 0x22 SLT KECCAK256 STATICCALL 0x2C DUP6 0xE2 CODECOPY 0xD7 PUSH21 0xB1506CAE5C4C4677B92D45B9017BC2F801C3633F43 PUSH32 0x28254B64736F6C634300081E0033000000000000000000000000000000000000 "
		},
		"gasEstimates": {
			"creation": {
				"codeDepositCost": "2125000",
				"executionCost": "infinite",
				"totalCost": "infinite"
			},
			"external": {
				"MAX_FEE_BPS()": "375",
				"cancel(bytes32)": "infinite",
				"computeBountyId(address,bytes32,uint64)": "infinite",
				"createBounty(address,bytes32,uint64,uint64,uint256)": "infinite",
				"feeBps()": "2512",
				"feeVault()": "2582",
				"fund(bytes32,uint256)": "infinite",
				"getBounty(bytes32)": "infinite",
				"owner()": "2586",
				"pause()": "infinite",
				"paused()": "2518",
				"refundExpired(bytes32)": "infinite",
				"renounceOwnership()": "infinite",
				"resolve(bytes32,address)": "infinite",
				"setFeeParams(uint16,address)": "infinite",
				"transferOwnership(address)": "infinite",
				"unpause()": "infinite",
				"usdc()": "infinite",
				"usdcDecimals()": "infinite"
			}
		},
		"methodIdentifiers": {
			"MAX_FEE_BPS()": "d55be8c6",
			"cancel(bytes32)": "c4d252f5",
			"computeBountyId(address,bytes32,uint64)": "cd2025c3",
			"createBounty(address,bytes32,uint64,uint64,uint256)": "c23945ac",
			"feeBps()": "24a9d853",
			"feeVault()": "478222c2",
			"fund(bytes32,uint256)": "e46bbc9e",
			"getBounty(bytes32)": "2417395c",
			"owner()": "8da5cb5b",
			"pause()": "8456cb59",
			"paused()": "5c975abb",
			"refundExpired(bytes32)": "cc3e049b",
			"renounceOwnership()": "715018a6",
			"resolve(bytes32,address)": "d1686604",
			"setFeeParams(uint16,address)": "e0120cf8",
			"transferOwnership(address)": "f2fde38b",
			"unpause()": "3f4ba83a",
			"usdc()": "3e413bee",
			"usdcDecimals()": "7bf42165"
		}
	},
	"abi": [
		{
			"inputs": [
				{
					"internalType": "address",
					"name": "usdc_",
					"type": "address"
				},
				{
					"internalType": "uint16",
					"name": "_feeBps",
					"type": "uint16"
				},
				{
					"internalType": "address",
					"name": "_feeVault",
					"type": "address"
				},
				{
					"internalType": "address",
					"name": "initialOwner",
					"type": "address"
				}
			],
			"stateMutability": "nonpayable",
			"type": "constructor"
		},
		{
			"inputs": [
				{
					"internalType": "address",
					"name": "target",
					"type": "address"
				}
			],
			"name": "AddressEmptyCode",
			"type": "error"
		},
		{
			"inputs": [
				{
					"internalType": "address",
					"name": "account",
					"type": "address"
				}
			],
			"name": "AddressInsufficientBalance",
			"type": "error"
		},
		{
			"inputs": [],
			"name": "AlreadyExists",
			"type": "error"
		},
		{
			"inputs": [],
			"name": "DeadlineNotReached",
			"type": "error"
		},
		{
			"inputs": [],
			"name": "EnforcedPause",
			"type": "error"
		},
		{
			"inputs": [],
			"name": "ExpectedPause",
			"type": "error"
		},
		{
			"inputs": [],
			"name": "FailedInnerCall",
			"type": "error"
		},
		{
			"inputs": [],
			"name": "InvalidParams",
			"type": "error"
		},
		{
			"inputs": [],
			"name": "MathOverflowedMulDiv",
			"type": "error"
		},
		{
			"inputs": [],
			"name": "NotOpen",
			"type": "error"
		},
		{
			"inputs": [],
			"name": "NotResolver",
			"type": "error"
		},
		{
			"inputs": [],
			"name": "NotSponsor",
			"type": "error"
		},
		{
			"inputs": [
				{
					"internalType": "address",
					"name": "owner",
					"type": "address"
				}
			],
			"name": "OwnableInvalidOwner",
			"type": "error"
		},
		{
			"inputs": [
				{
					"internalType": "address",
					"name": "account",
					"type": "address"
				}
			],
			"name": "OwnableUnauthorizedAccount",
			"type": "error"
		},
		{
			"inputs": [],
			"name": "ReentrancyGuardReentrantCall",
			"type": "error"
		},
		{
			"inputs": [
				{
					"internalType": "uint8",
					"name": "bits",
					"type": "uint8"
				},
				{
					"internalType": "uint256",
					"name": "value",
					"type": "uint256"
				}
			],
			"name": "SafeCastOverflowedUintDowncast",
			"type": "error"
		},
		{
			"inputs": [
				{
					"internalType": "address",
					"name": "token",
					"type": "address"
				}
			],
			"name": "SafeERC20FailedOperation",
			"type": "error"
		},
		{
			"inputs": [],
			"name": "ZeroAddress",
			"type": "error"
		},
		{
			"inputs": [],
			"name": "ZeroAmount",
			"type": "error"
		},
		{
			"anonymous": false,
			"inputs": [
				{
					"indexed": true,
					"internalType": "bytes32",
					"name": "bountyId",
					"type": "bytes32"
				},
				{
					"indexed": true,
					"internalType": "address",
					"name": "sponsor",
					"type": "address"
				},
				{
					"indexed": true,
					"internalType": "bytes32",
					"name": "repoIdHash",
					"type": "bytes32"
				},
				{
					"indexed": false,
					"internalType": "uint64",
					"name": "issueNumber",
					"type": "uint64"
				},
				{
					"indexed": false,
					"internalType": "uint64",
					"name": "deadline",
					"type": "uint64"
				},
				{
					"indexed": false,
					"internalType": "address",
					"name": "resolver",
					"type": "address"
				},
				{
					"indexed": false,
					"internalType": "uint256",
					"name": "amount",
					"type": "uint256"
				}
			],
			"name": "BountyCreated",
			"type": "event"
		},
		{
			"anonymous": false,
			"inputs": [
				{
					"indexed": true,
					"internalType": "bytes32",
					"name": "bountyId",
					"type": "bytes32"
				},
				{
					"indexed": true,
					"internalType": "address",
					"name": "sponsor",
					"type": "address"
				},
				{
					"indexed": false,
					"internalType": "uint256",
					"name": "amount",
					"type": "uint256"
				}
			],
			"name": "Canceled",
			"type": "event"
		},
		{
			"anonymous": false,
			"inputs": [
				{
					"indexed": false,
					"internalType": "uint16",
					"name": "feeBps",
					"type": "uint16"
				},
				{
					"indexed": false,
					"internalType": "address",
					"name": "feeVault",
					"type": "address"
				}
			],
			"name": "FeeParamsUpdated",
			"type": "event"
		},
		{
			"anonymous": false,
			"inputs": [
				{
					"indexed": true,
					"internalType": "bytes32",
					"name": "bountyId",
					"type": "bytes32"
				},
				{
					"indexed": false,
					"internalType": "uint256",
					"name": "newAmount",
					"type": "uint256"
				}
			],
			"name": "Funded",
			"type": "event"
		},
		{
			"anonymous": false,
			"inputs": [
				{
					"indexed": true,
					"internalType": "address",
					"name": "previousOwner",
					"type": "address"
				},
				{
					"indexed": true,
					"internalType": "address",
					"name": "newOwner",
					"type": "address"
				}
			],
			"name": "OwnershipTransferred",
			"type": "event"
		},
		{
			"anonymous": false,
			"inputs": [
				{
					"indexed": false,
					"internalType": "address",
					"name": "account",
					"type": "address"
				}
			],
			"name": "Paused",
			"type": "event"
		},
		{
			"anonymous": false,
			"inputs": [
				{
					"indexed": true,
					"internalType": "bytes32",
					"name": "bountyId",
					"type": "bytes32"
				},
				{
					"indexed": true,
					"internalType": "address",
					"name": "sponsor",
					"type": "address"
				},
				{
					"indexed": false,
					"internalType": "uint256",
					"name": "amount",
					"type": "uint256"
				}
			],
			"name": "Refunded",
			"type": "event"
		},
		{
			"anonymous": false,
			"inputs": [
				{
					"indexed": true,
					"internalType": "bytes32",
					"name": "bountyId",
					"type": "bytes32"
				},
				{
					"indexed": true,
					"internalType": "address",
					"name": "recipient",
					"type": "address"
				},
				{
					"indexed": false,
					"internalType": "uint256",
					"name": "net",
					"type": "uint256"
				},
				{
					"indexed": false,
					"internalType": "uint256",
					"name": "fee",
					"type": "uint256"
				}
			],
			"name": "Resolved",
			"type": "event"
		},
		{
			"anonymous": false,
			"inputs": [
				{
					"indexed": false,
					"internalType": "address",
					"name": "account",
					"type": "address"
				}
			],
			"name": "Unpaused",
			"type": "event"
		},
		{
			"inputs": [],
			"name": "MAX_FEE_BPS",
			"outputs": [
				{
					"internalType": "uint16",
					"name": "",
					"type": "uint16"
				}
			],
			"stateMutability": "view",
			"type": "function"
		},
		{
			"inputs": [
				{
					"internalType": "bytes32",
					"name": "bountyId",
					"type": "bytes32"
				}
			],
			"name": "cancel",
			"outputs": [],
			"stateMutability": "nonpayable",
			"type": "function"
		},
		{
			"inputs": [
				{
					"internalType": "address",
					"name": "sponsor",
					"type": "address"
				},
				{
					"internalType": "bytes32",
					"name": "repoIdHash",
					"type": "bytes32"
				},
				{
					"internalType": "uint64",
					"name": "issueNumber",
					"type": "uint64"
				}
			],
			"name": "computeBountyId",
			"outputs": [
				{
					"internalType": "bytes32",
					"name": "bountyId",
					"type": "bytes32"
				}
			],
			"stateMutability": "pure",
			"type": "function"
		},
		{
			"inputs": [
				{
					"internalType": "address",
					"name": "resolver",
					"type": "address"
				},
				{
					"internalType": "bytes32",
					"name": "repoIdHash",
					"type": "bytes32"
				},
				{
					"internalType": "uint64",
					"name": "issueNumber",
					"type": "uint64"
				},
				{
					"internalType": "uint64",
					"name": "deadline",
					"type": "uint64"
				},
				{
					"internalType": "uint256",
					"name": "amount",
					"type": "uint256"
				}
			],
			"name": "createBounty",
			"outputs": [
				{
					"internalType": "bytes32",
					"name": "bountyId",
					"type": "bytes32"
				}
			],
			"stateMutability": "nonpayable",
			"type": "function"
		},
		{
			"inputs": [],
			"name": "feeBps",
			"outputs": [
				{
					"internalType": "uint16",
					"name": "",
					"type": "uint16"
				}
			],
			"stateMutability": "view",
			"type": "function"
		},
		{
			"inputs": [],
			"name": "feeVault",
			"outputs": [
				{
					"internalType": "address",
					"name": "",
					"type": "address"
				}
			],
			"stateMutability": "view",
			"type": "function"
		},
		{
			"inputs": [
				{
					"internalType": "bytes32",
					"name": "bountyId",
					"type": "bytes32"
				},
				{
					"internalType": "uint256",
					"name": "amount",
					"type": "uint256"
				}
			],
			"name": "fund",
			"outputs": [],
			"stateMutability": "nonpayable",
			"type": "function"
		},
		{
			"inputs": [
				{
					"internalType": "bytes32",
					"name": "bountyId",
					"type": "bytes32"
				}
			],
			"name": "getBounty",
			"outputs": [
				{
					"components": [
						{
							"internalType": "bytes32",
							"name": "repoIdHash",
							"type": "bytes32"
						},
						{
							"internalType": "address",
							"name": "sponsor",
							"type": "address"
						},
						{
							"internalType": "address",
							"name": "resolver",
							"type": "address"
						},
						{
							"internalType": "uint96",
							"name": "amount",
							"type": "uint96"
						},
						{
							"internalType": "uint64",
							"name": "deadline",
							"type": "uint64"
						},
						{
							"internalType": "uint64",
							"name": "issueNumber",
							"type": "uint64"
						},
						{
							"internalType": "enum BountyEscrow.Status",
							"name": "status",
							"type": "uint8"
						}
					],
					"internalType": "struct BountyEscrow.Bounty",
					"name": "",
					"type": "tuple"
				}
			],
			"stateMutability": "view",
			"type": "function"
		},
		{
			"inputs": [],
			"name": "owner",
			"outputs": [
				{
					"internalType": "address",
					"name": "",
					"type": "address"
				}
			],
			"stateMutability": "view",
			"type": "function"
		},
		{
			"inputs": [],
			"name": "pause",
			"outputs": [],
			"stateMutability": "nonpayable",
			"type": "function"
		},
		{
			"inputs": [],
			"name": "paused",
			"outputs": [
				{
					"internalType": "bool",
					"name": "",
					"type": "bool"
				}
			],
			"stateMutability": "view",
			"type": "function"
		},
		{
			"inputs": [
				{
					"internalType": "bytes32",
					"name": "bountyId",
					"type": "bytes32"
				}
			],
			"name": "refundExpired",
			"outputs": [],
			"stateMutability": "nonpayable",
			"type": "function"
		},
		{
			"inputs": [],
			"name": "renounceOwnership",
			"outputs": [],
			"stateMutability": "nonpayable",
			"type": "function"
		},
		{
			"inputs": [
				{
					"internalType": "bytes32",
					"name": "bountyId",
					"type": "bytes32"
				},
				{
					"internalType": "address",
					"name": "recipient",
					"type": "address"
				}
			],
			"name": "resolve",
			"outputs": [],
			"stateMutability": "nonpayable",
			"type": "function"
		},
		{
			"inputs": [
				{
					"internalType": "uint16",
					"name": "_feeBps",
					"type": "uint16"
				},
				{
					"internalType": "address",
					"name": "_feeVault",
					"type": "address"
				}
			],
			"name": "setFeeParams",
			"outputs": [],
			"stateMutability": "nonpayable",
			"type": "function"
		},
		{
			"inputs": [
				{
					"internalType": "address",
					"name": "newOwner",
					"type": "address"
				}
			],
			"name": "transferOwnership",
			"outputs": [],
			"stateMutability": "nonpayable",
			"type": "function"
		},
		{
			"inputs": [],
			"name": "unpause",
			"outputs": [],
			"stateMutability": "nonpayable",
			"type": "function"
		},
		{
			"inputs": [],
			"name": "usdc",
			"outputs": [
				{
					"internalType": "contract IERC20",
					"name": "",
					"type": "address"
				}
			],
			"stateMutability": "view",
			"type": "function"
		},
		{
			"inputs": [],
			"name": "usdcDecimals",
			"outputs": [
				{
					"internalType": "uint8",
					"name": "",
					"type": "uint8"
				}
			],
			"stateMutability": "view",
			"type": "function"
		}
	]
}